:100000003AC3000069C3000067C3000065C3000075
:1000100063C3000061C300005FC300005DC3000054
:100020005BC3000059C3000057C3000055C3000064
:1000300053C3000051C300004FC300000C94FD12D5
:100040004BC3000049C3000047C3000045C3000084
:1000500043C3000041C300003FC300000C94F811EB
:100060003BC300000C9484100C945B1035C300005B
:1000700033C3000031C300002FC300002DC30000B4
:100080002BC3000029C3000027C3000025C30000C4
:1000900023C3000021C300001FC300001DC30000D4
:1000A0001BC3000019C3000017C3000015C30000E4
:1000B00013C3000011C300000FC300000DC30000F4
:1000C0000BC3000009C3000007C3000005C3000004
:1000D00003C3000001C30000FFC20000FDC2000016
:1000E000FBC20000980E9C0EA00EA40EA80EAC0E33
:1000F000B00EEC0FF30FFA0F0110081020100F10C4
:1001000020101610E910EC10DB10DF10E3102311A3
:10011000F010F410FA10FE10021108110C11101159
:10012000231116111A111E11FFE0FFD1AFFF32FF8C
:10013000D0FFFEFFE0FFD1AEFFD0FFFEFFE0FFD11A
:100140001000FFFEFFD0FFE0FFC1FFD1AED580A8B9
:100150003FD300408D142000A1C8DA1281CFD9F11D
:10016000DB402EA4A6AFFFD0FFFE01080D00FE0964
:10017000016102CD207FFE0BFE09FE0D00803219C9
:100180008980808080808080008028438390909048
:100190001367874848FC48FC48481259892078A0D2
:1001A000A0702828F02012698944A4481010204823
:1001B00054881267876090906094887438138380A5
:1001C0008080323989204040808080404020223920
:1001D000898040402020204040801665854830FCC2
:1001E00030481455852020F820201143837060800A
:1001F000165181F821338340E040027989020204DC
:100200000810204080801269893048848484848466
:1002100048301259892060A02020202020F812693F
:10022000897884840408304080FC126989FC0408C1
:10023000103804048478126989081828488888FCD2
:100240000808126989FC8080B8C4040484781269A3
:100250008938408080B8C4848478126989FC040895
:100260001010202040401269897884848478848426
:1002700084781269897884848C7404040870213825
:100280008840E040000040E0401148882070200095
:10029000007060802259890810204080402010089A
:1002A000146484FC0000FC1259898040201008105E
:1002B000204080126989788484040810100010128C
:1002C00069897884849CA4AC9480781269893048C8
:1002D000848484FC848484126989F0888488F0880A
:1002E0008488F01269897884808080808084781284
:1002F0006989F088848484848488F0126989FC8008
:100300008080F0808080FC126989FC808080F08091
:1003100080808012698978848080809C848C7412AB
:10032000698984848484FC84848484125989F820B3
:10033000202020202020F81279893E08080808088B
:10034000088870126989848890A0C0A0908884125F
:1003500069898080808080808080FC0279898282A7
:10036000C6AA92928282821269898484C4A4948CDF
:10037000848484126989788484848484848478124F
:100380006989F8848484F880808080116A8A7884FE
:1003900084848484A4947804126989F8848484F819
:1003A000A090888412698978848080780404847895
:1003B000027989FE10101010101010101269898433
:1003C0008484848484848478027989828244444445
:1003D0002828281002798982828282929292AA44E5
:1003E0000279898282442810284482820279898293
:1003F0008244281010101010126989FC0408102083
:10040000408080FC224989F080808080808080F05C
:10041000027989808040201008040202124989F084
:1004200010101010101010F0185383205088017114
:1004300081FE3A2282804012668678047C848C7425
:10044000126989808080B8C48484C4B812668678B2
:100450008480808478126989040404748C84848C78
:10046000741266867884FC808478126989384440E6
:1004700040F84040404010688874888870807884D4
:1004800078126989808080B8C484848484125888F2
:1004900020006020202020F8105A8A080018080840
:1004A00008088888701269898080808890E0908828
:1004B000841259896020202020202020F80276868E
:1004C000EC9292929282126686B8C48484848412DA
:1004D0006686788484848478106888B8C484C4B8B4
:1004E000808080106888748C848C74040404126684
:1004F00086B844404040401266867884601884780C
:100500001268884040F84040404438126686888827
:10051000888888741256868888885050200276868B
:1005200082829292AA4412668684483030488410AF
:1005300068888484848C74048478126686FC08102D
:100540002040FC22598938404020C02040403832A9
:100550001989808080808080808080125989E01095
:10056000102018201010E018538348A890FF0000B6
:100570002100240027002A002D0030003300010153
:100580000000040107010A010000220025002800E4
:100590002B002E003100340002010000050108018B
:1005A0000B010505050507050808080802020202F7
:1005B0000A0A0808040404040101010101010101FF
:1005C0000303030303030303040707070C0C0C0CCA
:1005D0000C0C0C0C020202020606060606060606B3
:1005E0000B0B0B0B0B0B0B0B010210202008081040
:1005F0002040102040800201020108040201010293
:10060000040810204080804020100804020180046B
:1006100002018040201008040201080402010102C6
:1006200004081020408001020408102040800000CF
:100630000A0B02090C0D0E0807030401000000005C
:1006400000000000000000000000000000000000AA
:100650000000000000000000000012111000000067
:10066000000000000000000000000000000000008A
:1006700000000000401411241FBECFEFD1E2DEBF06
:10068000CDBF00E00CBF12E0A0E0B2E0EEE8FCE37A
:1006900000E00BBF02C007900D92A236B107D9F758
:1006A00024E0A2E6B2E001C01D92A53CB207E1F74A
:1006B00013E0CBE3D3E000E006C021970109802FCF
:1006C000FE010E94FE18CA33D10780E00807A9F78F
:1006D0000E94F8140C94451E93CC0895DC011696E4
:1006E000ED91FC91179712968C91481B477081E011
:1006F00090E001C0880F4A95EAF7E60FF11D3081BE
:10070000222311F0832B02C08095832380830895D8
:10071000FB014181DC0112962C911297421760F087
:1007200013962C911397241738F0608115962C910D
:10073000621710F42481D2CF0895FC018081928148
:10074000980F92832181921760F494819F5F948324
:100750009381890F821710F08FEF820F838381E0DE
:10076000089580E00895FC01128280818150838386
:100770001482089580E008950B96FC0184910895F9
:100780000A96FC0184910895FC0184910895FCDF90
:10079000882321F0823011F083E0089586E00895E7
:1007A000FC01E60FF11D849190E0982F8827319687
:1007B000E4918E0F911D089568E0F2CF66E0F0CFCE
:1007C0002EE93FE0009729F0F9013197F1F7019701
:1007D000F9CF0895109281021092800208958093BB
:1007E00094021092B90084FF02C08CE001C088E43A
:1007F0008093B800EFCFDB011496ED91FC91159733
:1008000020E030E065E01994DB011496ED91FC9155
:10081000159720E030E062E01994DB011496ED9129
:10082000FC91159720E030E063E01994CF92DF92BD
:10083000EF92FF920F931F93CF93DF938C017B0175
:100840006A0180E0F601C49181110AC0CF3F09F42A
:1008500047C04C2FB701C801CEDF81113FC045C052
:10086000CF3F11F44FEFF6CFCE3F09F440C0C03F69
:10087000A8F5C03E30F04C2F4F70B701C801C4DF5F
:100880002DC0C03D30F04C2F4F70B701C801C5DFFF
:1008900025C0C03CF0F0D7011496ED91FC9115975E
:1008A00020E030E040E064E0C8011995C295C07FC7
:1008B000CE5FD0E0CE0184DFD7011496ED91FC919C
:1008C000159720E030E041E064E0C8011995CE01C1
:1008D00004C0C7FD03C08C2F90E072DF80E001C030
:1008E00081E0BFEFCB1ADB0AADCF80E001C081E031
:1008F000DF91CF911F910F91FF90EF90DF90CF90FC
:1009000008958F929F92AF92BF92CF92DF92FF9203
:100910000F931F93CF93DF931F921F92CDB7DEB734
:100920006C018B01F42E490120E1421709F45DC0EE
:100930002417D8F03AE0431701F18FE048135EC066
:1009400041E0C6016ADF40E0B801C6015DDF41E871
:10095000B801C60150DFF4014081B801C6014BDF88
:1009600040E0B801C60159DFFEC0A1E14A1709F411
:100970003FC0B5E14B1789F041C0DB011496ED9102
:10098000FC91159720E030E042E061E0199544E4E5
:1009900051E0B801C6014ADF31C0FB01A280B3803B
:1009A0004CE351E043DFD50114964C91406BB80104
:1009B000C60121DF41E0B801C60126DFF50126812D
:1009C0003781D8011496ED91FC911597D5011596B4
:1009D0004C9166E0C6011995811102C080E0C4C047
:1009E00040E0B801C60119DF09C043E351E002C08D
:1009F00048E251E0B801C60119DFB5C0D80112962E
:100A00000D911C911397B2E3FB1609F473C0BF1547
:100A1000B8F0E5E1FE1609F478C0F7E1FF1609F435
:100A200089C024E1F2129FC0D8011696ED91FC9185
:100A3000179715968C919F01280F311DC9015EC033
:100A400036E4F31609F486C087E4F81609F486C084
:100A5000ABE3FA1288C0F40181819381913029F0CF
:100A6000933031F4482F885004C048E0480F01C04B
:100A7000482F21E0D80113963C91381708F420E064
:100A800031E0F8015281451708F430E051E0481791
:100A900008F050E0822F852B382319F4252309F420
:100AA00062C0D4011296FC90913051F030F0923037
:100AB00049F0933051F42FEF09C020E031E007C036
:100AC00021E004C020E03FEF02C020E030E0F7FE6C
:100AD00007C0B401C8012A8339831ADE39812A810B
:100AE000F4018081830F80838181820F8183FF0CD9
:100AF00071F739C0B401C8010BDE35C01192E81797
:100B0000F907E1F7C8012FDE2EC0C80116DE8823E1
:100B100009F464CFD8011696ED91FC9117971596BC
:100B20008C919F01280F311DC9011192E817F90717
:100B3000E1F719C0D4011C92F801828111968C93BF
:100B400011978581815012968C9312978381139609
:100B50008C9309C0D80115968C9103C0D8011196C9
:100B60008C91F401808381E00F900F90DF91CF9101
:100B70001F910F91FF90DF90CF90BF90AF909F900B
:100B80008F9008952F923F924F925F926F927F9233
:100B90008F929F92AF92BF92CF92DF92EF92FF928D
:100BA0000F931F93CF93DF9300D01F92CDB7DEB783
:100BB0001C01FC0187849088A188B2888385948574
:100BC000A585B685881A990AAA0ABB0A6389748919
:100BD000858996899B01AC010E94BE1A6B017C013C
:100BE000F101638D748D858D968D9B01AC010E9402
:100BF00007199B01AC01C701B6010E946F190E9441
:100C0000D71981149104A104B104A1F462307105D3
:100C1000810591050CF07CC0F10113A214A215A26C
:100C200016A2138A148A158A168A13AA14AA15AA58
:100C300016AA03C1F10103A914A925A936A9ED5BE0
:100C4000FF4F181419041A041B04FCF410161106A3
:100C5000120613064CF4681579058A059B054CF5B8
:100C60002081211155C025C001151105210531052F
:100C700009F44EC0681579058A059B050CF048C03B
:100C80008081882309F444C037C01016110612066B
:100C90001306F4F4002711279801081919092A09E5
:100CA0003B0960177107820793071CF420812223F8
:100CB00079F19B01AC0188279927DC01821B930BFA
:100CC000A40BB50BF10183AB94ABA5ABB6AB20C0C5
:100CD0000115110521053105D9F0CC24DD2476015B
:100CE000C818D908EA08FB086C157D058E059F0514
:100CF0007CF4808181110CC0309520951095019570
:100D00001F4F2F4F3F4FF10103AB14AB25AB36AB59
:100D1000F101C3A8D4A8E5A8F6A881010D5B1F4F77
:100D2000C114D104E104F10491F487A990ADA1ADFF
:100D3000B2AD83AF94AFA5AFB6AF81E0181419047C
:100D40001A041B040CF080E0F801808340C0F1011C
:100D500083AC94ACA5ACB6ACA5019401C501B401BB
:100D60000E9407192B013C01C701B6010E940A1A13
:100D700020E030E040E850E40E94BE1A20E030E07D
:100D800040E85FE30E9407199B01AC01C301B20177
:100D90000E946F199B01AC01C501B4010E940619A4
:100DA0004B015C01F101FF964080518062807380AD
:100DB0009201A3010E94BA1A181614F042015301BD
:100DC000A401B501F10143AF54AF65AF76AFFFEFBA
:100DD000CF1ADF0AEF0AFF0AF101C3AAD4AAE5AAD3
:100DE000F6AA23AD34AD45AD56ADCA01B90129838C
:100DF0003A834B835C830E94DC19F10163A374A3E3
:100E000085A396A329813A814B815C8160E074E2DD
:100E100084E799E40E946F19F101638B748B858BD1
:100E2000968BF8012081211108C0DC01CB01B0585C
:100E3000F101838B948BA58BB68B0F900F900F9045
:100E40000F90DF91CF911F910F91FF90EF90DF9066
:100E5000CF90BF90AF909F908F907F906F905F905A
:100E60004F903F902F900895CF92DF92EF92FF9294
:100E7000CF93DF9387EF82B9D0B0D0B1D074A0B157
:100E8000A07220B120718BEF82B9E0B0C0B1C07404
:100E9000F0B1F072C0B08DEF82B9F0B0B0B1B07403
:100EA000E0B1E07230B130718EEF82B970B160B1F3
:100EB000607450B1507240B1407180917E02909147
:100EC0007F02C4FC0EC0009719F481E090E004C0DA
:100ED000019789F482E090E090937F0280937E02F4
:100EE0000AC00197029718F483E090E0F5CF1092C2
:100EF0007F0210927E0280917A0290917B02D7FC51
:100F00000EC0009719F481E090E004C0019789F4C5
:100F100082E090E090937B0280937A020AC001976E
:100F2000029718F483E090E0F5CF10927B021092C4
:100F30007A028091780290917902E7FC0EC00097C6
:100F400019F481E090E004C0019789F482E090E018
:100F500090937902809378020AC00197029718F45F
:100F600083E090E0F5CF10927902109278028091A0
:100F7000760290917702F7FC0EC0009719F481E099
:100F800090E004C0019789F482E090E090937702AA
:100F9000809376020AC00197029718F483E090E0EC
:100FA000F5CF1092770210927602809174029091A0
:100FB0007502D1110EC0009719F481E090E004C0D1
:100FC000019789F482E090E0909375028093740217
:100FD0000AC00197029718F483E090E0F5CF1092D1
:100FE0007502109274028091720290917302C11185
:100FF0000EC0009719F481E090E004C0019789F4D5
:1010000082E090E090937302809372020AC001978D
:10101000029718F483E090E0F5CF109273021092DB
:1010200072028091700290917102B1110EC000970E
:1010300019F481E090E004C0019789F482E090E027
:1010400090937102809370020AC00197029718F47E
:1010500083E090E0F5CF10927102109270028091BF
:101060006E0290916F02A1110EC0009719F481E0F9
:1010700090E004C0019789F482E090E090936F02C1
:1010800080936E020AC00197029718F483E090E003
:10109000F5CF10926F0210926E0280916C029091C7
:1010A0006D02F1110EC0009719F481E090E004C0C8
:1010B000019789F482E090E090936D0280936C0236
:1010C0000AC00197029718F483E090E0F5CF1092E0
:1010D0006D0210926C0280916A0290916B02E11194
:1010E0000EC0009719F481E090E004C0019789F4E4
:1010F00082E090E090936B0280936A020AC00197AD
:10110000029718F483E090E0F5CF10926B021092F2
:101110006A02809168029091690277FD0EC0009783
:1011200019F481E090E004C0019789F482E090E036
:1011300090936902809368020AC00197029718F49D
:1011400083E090E0F5CF10926902109268028091DE
:1011500066029091670261110EC0009719F481E058
:1011600090E004C0019789F482E090E090936702D8
:10117000809366020AC00197029718F483E090E01A
:10118000F5CF1092670210926602809164029091EE
:10119000650251110EC0009719F481E090E004C07F
:1011A000019789F482E090E0909365028093640255
:1011B0000AC00197029718F483E090E0F5CF1092EF
:1011C0006502109264028091620290916302411163
:1011D0000EC0009719F481E090E004C0019789F4F3
:1011E00082E090E090936302809362020AC00197CC
:1011F000029718F483E090E0F5CF1092630210920A
:101200006202809192029091930231110EC0009778
:1012100019F481E090E004C0019789F482E090E045
:1012200090939302809392020AC00197029718F458
:1012300083E090E0F5CF1092930210929202809199
:101240007C0290917D0221110EC0009719F481E07B
:1012500090E004C0019789F482E090E090937D02D1
:1012600080937C020AC00197029718F483E090E013
:10127000F5CF10927D0210927C0280917C029091B9
:101280007D02019749F4809190029091910201961C
:10129000909391028093900280919002909191029C
:1012A000039724F010929102109290028091900284
:1012B00090919102892B11F461E001C060E088E017
:1012C00059D78091900290919102019709F0B4C092
:1012D00080917E0290917F02892B09F4ADC08091AC
:1012E000410390914203A0914303B0914403409184
:1012F0003D0350913E0360913F037091400384177A
:101300009507A607B707B9F444275527BA01481B24
:10131000590B6A0B7B0B84179507A607B70759F083
:1013200040934103509342036093430370934403FB
:1013300082E393E027DC8091550390915603A091BE
:101340005703B0915803892B8A2B8B2B09F474C057
:101350003FB7F8948091BC049091BD04A091BE0465
:10136000B091BF0426B5A89B05C02F3F19F0019688
:10137000A11DB11D3FBFCC24D82EE92EFA2EC20EDE
:10138000D11CE11CF11C42E0CC0CDD1CEE1CFF1C4E
:101390004A95D1F78091590390915A03A0915B032C
:1013A000B0915C03B701A601481B590B6A0B7B0B7C
:1013B0008091550390915603A0915703B091580323
:1013C000481759076A077B07B8F120917503809188
:1013D0003D0390913E03A0913F03B091400322232F
:1013E00021F00196A11DB11D03C00197A109B1090A
:1013F00080933D0390933E03A0933F03B09340033B
:1014000040913D0350913E0360913F037091400332
:1014100082E393E0D0D5C0925903D0925A03E09270
:101420005B03F0925C0382E393E0DF91CF91FF9046
:10143000EF90DF90CF90A6CBDF91CF91FF90EF9010
:10144000DF90CF900895DB01ED91FC911994EF921C
:10145000FF920F931F93CF93DF931F92CDB7DEB709
:101460008C01DC011296ED90FC901397D196ED91D2
:10147000FC91D29782E0199520E030E04AE0B70174
:10148000C801E1DFF82ED801D196ED91FC91D297F9
:1014900083E01995D801D196ED91FC91D29780E027
:1014A0001995FF2081F1F801628173819E012F5F00
:1014B0003F4F46E4C801C7DF8981D8018C9312965B
:1014C0006D917C9113979E012F5F3F4F47E4C801B8
:1014D000BADF8981F80181836281738120E030E085
:1014E00048E4C801B0DFD8011B968C931B97980184
:1014F0002D5C3F4F12966D917C91139747E1C80187
:10150000A2DF81E001C080E00F90DF91CF911F91B9
:101510000F91FF90EF9008954F925F926F927F929C
:101520008F929F92AF92BF92CF92DF92EF92FF92F3
:101530000F931F93CF93DF931F92CDB7DEB72C018C
:10154000E62EF42EC22EDC0114960D911C911597F7
:10155000C8011AD9D82EF2018481958118D9982E04
:10156000F1E0DF1203C02FE0A22E02C0AA24AA9449
:10157000D20114968D919C91159702D9D82EF20123
:1015800084819581F9D8B82ED20114968D919C91C1
:10159000159712D9B0E6BC1538F4009729F0080F5A
:1015A000191F91E6D92E10C0F2018481958106D9C8
:1015B000F0E4FC1538F4009729F0080F191F81E4B6
:1015C000D82E02C00F5E1F4FBC1480F4D20150967B
:1015D0001C92509753961C92539754961C92549772
:1015E00051961C92519752961C929EC0BD1470F356
:1015F000892D90E0F80124912F3F19F40F5F1F4FC0
:1016000059C0DC104EC0D20114968D919C91159753
:10161000BBD898012F5F3F4FF801882311F082302B
:10162000E1F48491D20153968C935397F90124915C
:1016300054962C935497F8013396E4915096EC937A
:101640005097F8013496E4915196EC935197F80134
:101650003596E4915296EC9320C08491982F9F7018
:101660009250D20152969C93529782958F705196C8
:101670008C935197F9012491822F8F7054968C93FB
:10168000549722952F7053962C935397F8013296C6
:10169000E491E295EF705096EC930115110579F401
:1016A00043C0F8013296E491EA219C012E0F311DCE
:1016B000020F131FDB1409F489CFD3949BCFF201DF
:1016C0008481958164D8D20153963C915397549666
:1016D0002C91549751965C91519752969C915297A8
:1016E000920FF91A9FEF920F9F0DD4964C91D497B9
:1016F000D6966C916F1518F0941728F402C09417C1
:1017000080F09F1570F4E50E9FEF930F9E0DD201B0
:10171000D3964C91D397D5965C915E1538F4941777
:1017200038F4F20180893EC080E03CC0941710F488
:101730009E15B8F7080F111D395F732E76947694B5
:1017400076946F2C620E5201FCE1AF0EB11C872C17
:10175000912CF61431F35E2D68018C2D801B8715BA
:10176000E8F4F6018491D20112966D917C91139761
:101770005C965C935C975D96FC925D975F961C927D
:101780005F975E968C9395014BE3C20159835BDEB4
:10179000BFEFCB1ADB0A5981585FDFCF080D191D47
:1017A000F394D7CF0F90DF91CF911F910F91FF90BE
:1017B000EF90DF90CF90BF90AF909F908F907F90F1
:1017C0006F905F904F90089590918102911104C0A5
:1017D000809381026093800208951F93CF93DF93DB
:1017E0001F921F92CDB7DEB720ED37E03A832983F1
:1017F0009091BC00982391F429813A81232B49F4DC
:1018000080919402182F127081FD08C081E0DCDF06
:1018100006C029813A8121503109E8CF11E0812F9A
:101820000F900F90DF91CF911F91089584E98093DD
:10183000BC0064E080E1D1CFCF938093BB0084E80B
:101840008093BC0063E080E8C8DFC82F882381F064
:1018500080919402C82FC27081FD09C08091B900A7
:10186000887F883221F063E082E0AEDF01C0C1E012
:101870008C2FCF910895CF93DF93FC0123A52223D2
:1018800069F0EC0112D1811102C080E008C08EA184
:10189000811180E4D1DF8823C1F31BA681E0DF91B1
:1018A000CF9108950F931F93CF93C42F8901633075
:1018B000C1F050F4613081F0623009F040C0FC01A9
:1018C00046A321E023A73BC06630F1F0673049F121
:1018D000653009F034C00DC0FC0186A50E94EF03FD
:1018E0002EC0FC0116A221E023A7411128C09EDFD3
:1018F00026C0C1DF811103C099DF80E021C08C2F99
:101900009BDF81111CC0F8CFB6DF8823A9F3CC235D
:10191000B1F0F80181918F018FDF882369F3C15005
:10192000F6CFA9DF882341F3CC2349F0F801849155
:1019300083DF882329F00F5F1F4FC150F5CF81E06F
:10194000CF911F910F910895CF92DF92EF92FF9266
:101950000F931F93CF93DF936C017A018B01C0E04B
:10196000D0E0CE15DF0589F0D8016D918D01D6014B
:10197000ED91FC910190F081E02DC6011995892B24
:1019800011F47E0102C02196ECCFC701DF91CF9107
:101990001F910F91FF90EF90DF90CF900895CF921D
:1019A000DF92FF920F931F93CF93DF931F921F92AB
:1019B000CDB7DEB7F82E062FE0919704F09198048A
:1019C00082E894E049835A831995080F4981C42E0F
:1019D0005A81D52E10E0F60121916F01222341F0AA
:1019E000402F6F2D82E894E097DDF80E180FF3CFAB
:1019F000812F0F900F90DF91CF911F910F91FF904A
:101A0000DF90CF9008958F929F92AF92BF920F93E5
:101A10001F93CF93DF93CDB7DEB7A1970FB6F8949E
:101A2000DEBF0FBECDBF19A2423008F44AE08E01DE
:101A30000F5D1F4F842E912CA12CB12CA501940178
:101A40000E94C018E62FB901CA0101501109EA30FD
:101A500014F4E05D01C0E95CD801EC93232B242B46
:101A6000252B61F70115110569F0F801019000209F
:101A7000E9F73197AF01401B510BB80185E992E0BE
:101A800063DF02C080E090E0A1960FB6F894DEBF5D
:101A90000FBECDBFDF91CF911F910F91BF90AF903F
:101AA0009F908F9008950E94781BCF9384EA809333
:101AB000BC0061E080E891DE882351F08091B9009C
:101AC000887F883039F0803129F061E082E07CDE67
:101AD000C0E01BC088E78093BB0084E88093BC0013
:101AE00062E080E87ADE882399F380919402C82F1F
:101AF000C27081FD09C08091B900887F883121F0D2
:101B000062E082E061DE01C0C1E08C2FCF910895D8
:101B1000FC01918D828D981761F0828DDF01A80FF5
:101B2000B11D5D968C91928D9F5F9F73928F90E017
:101B300008958FEF9FEF0895FC01918D828D981786
:101B400031F0828DE80FF11D858D90E008958FEFC3
:101B50009FEF0895FC01918D228D892F90E0805C8C
:101B60009F4F821B91098F739927089585E992E011
:101B7000F1DF21E0892B09F420E0822F0895FC0198
:101B8000848DDF01A80FB11DA35ABF4F2C91848D06
:101B900090E001968F739927848FA689B7892C933B
:101BA000A089B1898C9180648C93938D848D9813D6
:101BB00006C00288F389E02D80818F7D808308959F
:101BC000EF92FF920F931F93CF93DF93EC0181E08D
:101BD000888F9B8D8C8D981305C0E889F989808149
:101BE00085FD23C0F62E0B8D10E00F5F1F4F0F7386
:101BF0001127E02E8C8DE8120BC00FB607FCFACF30
:101C0000E889F989808185FFF5CFCE01B8DFF2CF71
:101C10008B8DFE01E80FF11DE35AFF4FF0820B8F11
:101C2000EA89FB898081806207C0EE89FF89608331
:101C3000E889F98980818064808381E090E0DF9188
:101C4000CF911F910F91FF90EF900895CF93DF9365
:101C5000EC01888D8823C1F0EA89FB89808185FDAC
:101C600005C0A889B9898C9186FD0EC00FB607FC06
:101C7000F5CF808185FFF2CFA889B9898C9185FF46
:101C8000EDCFCE017CDFE8CFDF91CF91089580E0EA
:101C900090E0892B19F06ADF811125C080E090E087
:101CA000892B41F080E090E0892B21F00E94000018
:101CB00081111CC080E090E0892B41F080E090E031
:101CC000892B21F00E940000811113C080E090E078
:101CD000892BA1F080E090E0892B81F00E94000028
:101CE00081110AC008950E940000D8CF0E94000010
:101CF000E1CF0E940000EACF0C9400000895CF933A
:101D0000DF93DC014770552766277727FA01319763
:101D1000CD91DC911197E730F10530F48827EE582A
:101D2000FF4F8F4F0C94FE18EC81FD8161E01BC0CA
:101D3000EC81FD8165E017C0EC81FD8164E013C09A
:101D4000EC81FD8166E00FC0EC81FD8162E00BC09B
:101D5000EC81FD816AE007C0EC81FD8168E003C091
:101D6000EC81FD8169E0CD01DF91CF911994CF9392
:101D7000DF93EC01CB01BA0126E030E040E050E017
:101D80000E94E218623071058105910559F18CF4C9
:101D90006115710581059105F1F0613071058105CD
:101DA0009105C1F5E881F9810480F581E02D65E0B8
:101DB0002DC0643071058105910511F1D4F06530B5
:101DC00071058105910531F5E881F9810480F5817E
:101DD000E02D66E01BC0E881F9810480F581E02DEB
:101DE00064E014C0E881F9810480F581E02D61E0B0
:101DF0000DC0E881F9810480F581E02D63E006C023
:101E0000E881F9810480F581E02D62E0CE01DF9167
:101E1000CF911994DF91CF9108954370552766278C
:101E20007727DC01ED91FC910480F581E02D4230B3
:101E300051056105710571F043305105610571056A
:101E400059F0413051056105710511F065E005C09B
:101E500066E003C06AE001C069E01994CF93DF93A4
:101E6000EC01CB01BA0123E030E040E050E00E94F9
:101E7000E218613071058105910581F062307105CC
:101E80008105910591F0672B682B692BC1F4E881DE
:101E9000F9810480F581E02D64E00DC0E881F981CD
:101EA0000480F581E02D61E006C0E881F9810480BD
:101EB000F581E02D62E0CE01DF91CF911994DF91A1
:101EC000CF9108954370552766277727DC01ED9160
:101ED000FC910480F581E02D4230510561057105CA
:101EE00071F0433051056105710559F041305105DC
:101EF0006105710511F062E005C063E003C061E0B7
:101F000001C060E019940F931F93CF93DF93EC010E
:101F1000E881F9810480F581E02D8C010D5B1F4F74
:101F2000D8018C91811102C060E001C062E0CE0155
:101F30001995E881F9810480F581E02DD8018C9113
:101F4000811102C061E001C063E0CE011995EBA5EB
:101F5000FCA5E230F10538F0EE0FFF1FEE0FFF1F7A
:101F600035973197F1F7E881F9810480F581E02D0B
:101F7000D8018C91811102C060E001C062E0CE0105
:101F8000DF91CF911F910F911994CF93DF93EC01C3
:101F900020E030E0A9016B897C898D899E890E94AF
:101FA000BA1A18161CF4EFA5F8A902C0E9A9FAA9F3
:101FB000DF91CF9119940F931F93DC0112960C912E
:101FC000129710E009301105D8F5F8018827E75875
:101FD000FF4F8F4F0C94FE18ED91FC9111970084E8
:101FE000F185E02D29C0ED91FC9111970284F385D4
:101FF000E02D22C0ED91FC9111970484F585E02D30
:102000001BC0ED91FC9111970684F785E02D14C05B
:10201000ED91FC9111970088F189E02D0DC0ED91B3
:10202000FC9111970288F389E02D06C0ED91FC9197
:1020300011970488F589E02DCD011F910F91199416
:102040001F910F910895CF92DF92EF92FF920F931D
:102050001F93CF93DF931F92CDB7DEB76C01DC01E6
:10206000DC961C91DC97DB960C917C01B4E0EB0EC6
:10207000F11CDC015996ED91FC915A97C7016983D7
:102080001995482F410F2981602FC70145DAF601C4
:1020900023AD082E000C990B820F911D83AF81E0B8
:1020A00090E00F90DF91CF911F910F91FF90EF90F3
:1020B000DF90CF9008951F920F920FB60F921124C8
:1020C0000BB60F922F933F934F935F936F937F9332
:1020D0008F939F93AF93BF93EF93FF9385E992E024
:1020E0004EDDFF91EF91BF91AF919F918F917F91C5
:1020F0006F915F914F913F912F910F900BBE0F9079
:102100000FBE0F901F9018951F920F920FB60F924F
:1021100011240BB60F922F938F939F93EF93FF93FE
:10212000E091A502F091A6028081E091AB02F091CE
:10213000AC0282FD12C090818091AE028F5F8F73DE
:102140002091AF02821751F0E091AE02F0E0EB5621
:10215000FD4F958F8093AE0201C08081FF91EF917A
:102160009F918F912F910F900BBE0F900FBE0F90EC
:102170001F901895362F90E0FC01E25DF94F4491D5
:10218000FC01E851FA4F2491FC01EE55FA4F94916D
:10219000992309F46BC0442309F455C050E0FA01B7
:1021A0003197E231F10508F04EC08827EE57FF4F16
:1021B0008F4F0C94FE18809180008F7707C080911C
:1021C00080008F7D03C080918000877F8093800096
:1021D0003AC084B58F7702C084B58F7D84BD33C08B
:1021E0008091B0008F7703C08091B0008F7D809385
:1021F000B00029C0809190008F7707C08091900037
:102200008F7D03C080919000877F809390001BC0DA
:102210008091A0008F7707C08091A0008F7D03C0C0
:102220008091A000877F8093A0000DC08091200145
:102230008F7707C0809120018F7D03C0809120019E
:10224000877F80932001E92FF0E0EE0FFF1FE85712
:10225000FA4FA591B4918FB7F894EC91311103C066
:1022600020952E2301C02E2B2C938FBF0895CF9243
:10227000DF92EF92FF920F931F93CF93DF93FC01B6
:102280002281243041F0283031F0233031F02630E3
:1022900021F012E003C014E001C013E0EC01279626
:1022A000E12CF12CC62ED12C01E0C6010E2C02C06F
:1022B000959587950A94E2F7688180FD6027FE0175
:1022C0003497808157DFFFEFEF1AFF0A2196E1165E
:1022D00060F3DF91CF911F910F91FF90EF90DF900E
:1022E000CF900895CF93DF9390E0FC01E851FA4F2F
:1022F0002491FC01EE55FA4F8491882361F190E01E
:10230000880F991FFC01E259FA4FC591D491FC0145
:10231000E857FA4FA591B491611109C09FB7F8949D
:102320008881209582238883EC912E230BC0623014
:1023300061F49FB7F8943881822F80958323888336
:10234000EC912E2B2C939FBF06C08FB7F894E88199
:102350002E2B28838FBFDF91CF910895CF93DF93EA
:10236000FC012281222329F1EC0161E08381BADFA3
:1023700061E08C81B7DF8A81843011F0883031F4DC
:1023800061E08D81AFDF61E08E8106C0833011F0A6
:10239000863019F461E08D81A5DF8EA58F3F49F06D
:1023A00061E0A0DF6DA581E068278EA5DF91CF9168
:1023B000E1CEDF91CF910895CF93DF93FC0122818D
:1023C000222399F0EC010190F081E02D0480F58149
:1023D000E02D60E019958EA58F3F39F061E082DF36
:1023E0006DA58EA5DF91CF91C5CEDF91CF910895D8
:1023F0001F920F920FB60F9211242F933F938F933A
:102400009F93AF93BF938091C1049091C204A09118
:10241000C304B091C4043091C00423E0230F2D37CE
:1024200020F40196A11DB11D05C026E8230F0296D8
:10243000A11DB11D2093C0048093C1049093C204D8
:10244000A093C304B093C4048091BC049091BD04D4
:10245000A091BE04B091BF040196A11DB11D80934F
:10246000BC049093BD04A093BE04B093BF04BF917D
:10247000AF919F918F913F912F910F900FBE0F9031
:102480001F901895CF93DF93DC01FB018281129698
:102490008C931297438154816581768113964D9375
:1024A0005D936D937C931697478150856185728506
:1024B00017964D935D936D937C931A97438554853E
:1024C000658576851B964D935D936D937C931E97E2
:1024D00047855089618972891F964D935D936D93ED
:1024E0007C935297438954896589768953964D9395
:1024F0005D936D937C9356974789508D618D728D56
:1025000057964D935D936D937C935A97438D548D5D
:10251000658D768D5B964D935D936D937C935E9701
:10252000478D50A161A172A15F964D935D936D930C
:102530007C93929743A154A165A176A193964D9364
:102540005D936D937C93969747A150A561A572A565
:1025500097964D935D936D937C939A9783A594A5DD
:102560009C969C938E939B9785A59D968C939D9707
:1025700086A59E968C939E9787A590A9D0969C93AE
:102580008E939F9781A992A9D2969C938E93D1976F
:1025900043A954A965A976A9D3964D935D936D93EC
:1025A0007C93D69747A950AD61AD72ADD7964D9348
:1025B0005D936D937C93DA9743AD54AD65AD76AD85
:1025C000DB964D935D936D937C93DE97EF01EF96D1
:1025D000488159816A817B81ED01EF964883598357
:1025E0006A837B83ED5BFF4F8081FD01ED5BFF4FD5
:1025F0008083CD01DF91CF9108951F920F920FB686
:102600000F9211240BB60F922F933F934F935F932A
:102610006F937F938F939F93AF93BF93EF93FF93AA
:1026200080918802909189028093B20080918B0200
:1026300090918C02A0918D02B0918E020196A11D05
:10264000B11D80938B0290938C02A0938D02B09366
:102650008E0280918B0290918C02A0918D02B0919C
:102660008E024091840250918502609186027091A1
:10267000870284179507A607B70710F180918A0291
:1026800081111EC081E080938A0280918B0290911B
:102690008C02A0918D02B0918E02841B950BA60B2B
:1026A000B70B80938B0290938C02A0938D02B09312
:1026B0008E02E0918202F0918302199510928A02B3
:1026C000FF91EF91BF91AF919F918F917F916F910A
:1026D0005F914F913F912F910F900BBE0F900FBEC6
:1026E0000F901F9018954F925F926F927F928F92EA
:1026F0009F92AF92BF92CF92DF92EF92FF92CF93D1
:10270000DF93EC016A017B018B8C9C8CAD8CBE8CC1
:102710009A01AB01C501B401DED5882309F441C09B
:102720006BA97CA98DA99EA975D62B013C01A70197
:102730009601C501B401D3D59B01AC01C301B2011F
:102740001DD735D66BAB7CAB8DAB9EABA70196018D
:1027500060E070E080E090E4C2D577D726E53EE007
:102760004DE25FE30BD720E034E244E759E406D7BB
:102770006FAB78AF89AF9AAFCB8EDC8EED8EFE8ECD
:10278000CE01DF91CF91FF90EF90DF90CF90BF907F
:10279000AF909F908F907F906F905F904F900C9430
:1027A000C205DF91CF91FF90EF90DF90CF90BF9067
:1027B000AF909F908F907F906F905F904F90089513
:1027C000CF92EF920F93CF93DF93EC0182E392E0ED
:1027D000998388836A831B861C861D861E861F86B6
:1027E000188A198A1A8A1B8A1C8A1D8A1E8A80E006
:1027F00090E0A0E8BFE38F8B988FA98FBA8F1B8ED4
:102800001C8E1D8E1E8E8F8F98A3A9A3BAA31BA208
:102810001CA21DA21EA261E070E07CA76BA73FEF87
:102820003EA71FA218A619A61AA64B832C830D83B8
:10283000EE821BAA1CAA1DAA1EAA1FAA18AE19AEB8
:102840001AAE1BAE1CAE1DAE1EAEFE01FF968083FF
:102850009183A283B383349610821F8218861986CF
:102860001A86CC2011F0CE0179DD40E050E060E81E
:102870007FE3CE01DF91CF910F91EF90CF9033CFD7
:10288000CF92EF920F93109298021092970288EED7
:1028900093E0A0E0B0E08093990290939A02A09315
:1028A0009B02B0939C0282E192E090939602809307
:1028B000950285EC90E09093A2028093A10284ECB3
:1028C00090E09093A4028093A30280EC90E0909318
:1028D000A6028093A50281EC90E09093A8028093D9
:1028E000A70282EC90E09093AA028093A90286EC62
:1028F00090E09093AC028093AB021092AE021092E3
:10290000AF021092B0021092B102CC24C39485E0C1
:10291000E82E04E023E042E064E08AE394E050DF44
:1029200023E042E064E086EF93E04ADF23E042E008
:1029300064E082E393E044DF10928104109280040B
:1029400082E292E090937F0480937E041092B90417
:102950001092BA041092BB0410928704109286045D
:10296000109289041092880410928B0481E0809365
:102970008A0482E280938C04109291041092900455
:10298000E5EAF4E09FEF8EE08E0F91938E13FDCF7A
:1029900081E08093A2042AEB33E0309398042093E3
:1029A00097048093990410929A0410929B0480E4F7
:1029B00080939C0410929D048DE693E09093B40460
:1029C0008093B30488E092E090938504809384041C
:1029D0001092B00482E894E00E94270A8AE292E012
:1029E00090937F0480937E040F91EF90CF90089591
:1029F000CF93DF93CDB7DEB7C454D1090FB6F894A7
:102A0000DEBF0FBECDBF789484B5826084BD84B52F
:102A1000816084BD85B5826085BD85B5816085BDD9
:102A200080916E00816080936E0010928100809191
:102A30008100826080938100809181008160809319
:102A40008100809180008160809380008091B1003E
:102A500084608093B1008091B00081608093B00069
:102A600080919100826080939100809191008160BB
:102A7000809391008091900081608093900080917C
:102A8000A10082608093A1008091A1008160809369
:102A9000A1008091A00081608093A000809121011D
:102AA00082608093210180912101816080932101C6
:102AB0008091200181608093200180917A00846060
:102AC00080937A0080917A00826080937A0080916E
:102AD0007A00816080937A0080917A008068809388
:102AE0007A001092C10062E08DE1FCDB62E08CE1D3
:102AF000F9DB62E08BE1F6DB62E08AE1F3DB61E0C7
:102B000089E1F0DB61E088E1EDDB61E087E1EADBB0
:102B100061E086E1E7DB1C821B8282E292E09A831D
:102B200089831CAE1DAE1EAE1A8619861C861B86B6
:102B30001E8681E08D8782E28F871C8A1B8AFE01B8
:102B4000B896CE01C6962FEF2193E817F907E1F763
:102B500081E08DA32AEB33E03B8F2A8F8C8F1D8E73
:102B60001E8E80E48F8F18A28DE693E09FAB8EAB14
:102B700088E092E098878F831BAACE0105960E9479
:102B8000270A8B819C81909381048093800487E342
:102B9000FE013596A2E8B4E001900D928A95E1F726
:102BA0008CAD8093B9048DAD8093BA048EAD8093C3
:102BB000BB0480918604909187048A56914009F461
:102BC00045C08AE691E090938704809386048091C3
:102BD0009904811108C0EFE6F1E0E491E0939A04D2
:102BE000E6E7F1E011C0813041F4E9E7F1E0E4917A
:102BF000E0939A04EAE7F1E007C0E7E7F1E0E49147
:102C0000E0939A04E8E7F1E0E491E0939B0480917B
:102C10009A04082E000C990B20919B04821B9109A9
:102C200027FD939520919C04203441F0829FC001A0
:102C3000112436E0969587953A95E1F780939D04A7
:102C40008AEB93E0909398048093970461E088E086
:102C500049DB61E085E046DB61E086E043DB61E083
:102C600087E040DB61E082E03DDB61E083E03ADB6E
:102C700061E084E037DB61E088E07CDACC24C39457
:102C800025E0E22E04E025E042E061E0CE0101967D
:102C90005C0196DDB5018AE394E0F4DB26E043E0D5
:102CA00061E0C5018DDDB50186EF93E0EBDB27E048
:102CB00044E061E0C50184DDB50182E393E0E2DB3D
:102CC00020E030E04AE754E46091490370914A0300
:102CD00080914B0390914C03FED2882309F44BC0A2
:102CE00080E090E0AAE7B4E48093490390934A031C
:102CF000A0934B03B0934C038093710390937203A2
:102D0000A0937303B093740380916503909166035D
:102D1000A0916703B0916803181619061A061B06DE
:102D200054F560914503709146038091470390915B
:102D300048039B01AC0122D46B017C0160914D03DF
:102D400070914E0380914F03909150039B01AC0111
:102D50005ED29B01AC01C701B601C1D228D36093FA
:102D6000650370936603809367039093680382E31F
:102D700093E00E94C20520E030E04AE754E460910D
:102D80004503709146038091470390914803A3D275
:102D9000882309F45FC0C0904903D0904A03E090B3
:102DA0004B03F0904C032601370177FA709477F8C3
:102DB000709420E030E04AE754E4C301B201DAD372
:102DC000181654F020E030E04AE754E4C701B60199
:102DD00082D287FD03C013C07301620120E030E09E
:102DE000A901C701B60177D281110FC01092550316
:102DF00010925603109257031092580323C0C12C0F
:102E0000D12C9AE7E92E94E4F92EA701960160E00F
:102E100074E284E799E463D29F77CED2609355033E
:102E200070935603809357039093580311E020E06A
:102E300030E0A901C701B6019DD318160CF010E0CF
:102E400010937503C0924503D0924603E092470366
:102E5000F092480340E050E06AEF73E482E393E0CD
:102E600042DC8091410390914203A0914303B091D1
:102E7000440381159941A105B10581F080E099E1F4
:102E8000A0E0B0E08093410390934203A0934303FA
:102E9000B093440382E393E00E94C20581E090E096
:102EA000A0E0B0E08093840290938502A093860214
:102EB000B093870284E397E0909383028093820229
:102EC000809170008E7F809370008091B0008C7F25
:102ED0008093B0008091B100877F8093B100809192
:102EE000B6008F7D8093B600809170008D7F8093B7
:102EF00070008091B10084608093B1008091B10036
:102F00008C7F8093B10086E090E09093890280935B
:102F1000880210928B0210928C0210928D021092F5
:102F20008E0210928A028091880290918902809389
:102F3000B20080917000816080937000E091A502E2
:102F4000F091A60282E08083E091A102F091A202BA
:102F50001082E091A302F091A4028FEC8083109282
:102F6000AD02E091A902F091AA0286E08083E0918F
:102F7000A702F091A802808180618083E091A7027E
:102F8000F091A802808188608083E091A702F0918F
:102F9000A802808180688083E091A702F091A80256
:102FA00080818F7D8083992493940EE512E080E4E4
:102FB000882E70903D0360903E038091BB04811188
:102FC00006C09092BB0482E894E00E94270AE09039
:102FD0008404F0908504E091B304F091B40482E09D
:102FE0001995E091B304F091B40481E0199520E0C3
:102FF00030E044E1B70182E894E00E94230A25EB27
:1030000034E047E1B70182E894E00E94230AE091AE
:10301000B304F091B40480E01995C0909202D0906E
:1030200093020D2C000CEE08FF08F7FE14C0E0918F
:103030009502F09196020190F081E02D6DE285E914
:1030400092E0199566277727CB016C197D098E09C7
:103050009F094AE003C04AE0C701B6010E94030D80
:1030600042E050E068E472E085E992E00E94A40C3E
:103070008091900290919102009719F44BE452E0F4
:103080000AC08130910519F441E552E004C002976D
:1030900031F448E552E06AE08DE20E94CF0C6F9275
:1030A0007F921F930F93BF92AF9226D3A50164E145
:1030B00084E00E94CF0C80917B00886080937B002D
:1030C00080927C0080917A00806480937A000F90D7
:1030D0000F900F900F900F900F9080917A0086FDC7
:1030E000FCCF809178002091790090E0922B9F9303
:1030F0008F931F930F93BF92AF92FED2A5016EE103
:1031000084E00E94CF0CE0919004F09191040F9024
:103110000F900F900F900F900F90309719F082E85A
:1031200094E01995E0908404F0908504E091B30454
:10313000F091B40482E01995E091B304F091B404E5
:1031400081E0199520E030E045E1B70182E894E0A4
:103150000E94230AD82E882341F025EB34E047E172
:10316000B70182E894E00E94230AE091B304F09151
:10317000B40480E01995D11050CF0E94470E19CFAA
:10318000A1E21A2EAA1BBB1BFD010DC0AA1FBB1F6B
:10319000EE1FFF1FA217B307E407F50720F0A21BDD
:1031A000B30BE40BF50B661F771F881F991F1A944A
:1031B00069F760957095809590959B01AC01BD0174
:1031C000CF010895052E97FB16F400940FD057FDFC
:1031D00005D0D6DF07FC02D046F408C050954095D4
:1031E000309521953F4F4F4F5F4F089590958095B3
:1031F000709561957F4F8F4F9F4F0895EE0FFF1F82
:10320000881F8BBF0790F691E02D19945058BB276B
:10321000AA270ED075C166D130F06BD120F031F401
:103220009F3F11F41EF45BC10EF4E095E7FB51C122
:10323000E92F77D180F3BA176207730784079507E0
:1032400018F071F49EF58FC10EF4E0950B2EBA2F95
:10325000A02D0B01B90190010C01CA01A00111249C
:10326000FF27591B99F0593F50F4503E68F11A1648
:10327000F040A22F232F342F4427585FF3CF4695D9
:1032800037952795A795F0405395C9F77EF41F16FB
:10329000BA0B620B730B840BBAF09150A1F0FF0FC5
:1032A000BB1F661F771F881FC2F70EC0BA0F621FB1
:1032B000731F841F48F4879577956795B795F795A1
:1032C0009E3F08F0B3CF9395880F08F09927EE0F33
:1032D000979587950895D9D008F481E008950CD08A
:1032E0000FC107D140F0FED030F021F45F3F19F05C
:1032F000F0C0511139C1F3C014D198F39923C9F327
:103300005523B1F3951B550BBB27AA2762177307EB
:10331000840738F09F5F5F4F220F331F441FAA1F9F
:10332000A9F333D00E2E3AF0E0E830D0915050405F
:10333000E695001CCAF729D0FE2F27D0660F771F0D
:10334000881FBB1F261737074807AB07B0E809F0EF
:10335000BB0B802DBF01FF2793585F4F2AF09E3F84
:10336000510568F0B6C000C15F3FECF3983EDCF356
:10337000869577956795B795F7959F5FC9F7880FFD
:10338000911D9695879597F90895E1E0660F771F4F
:10339000881FBB1F621773078407BA0720F0621BE0
:1033A000730B840BBA0BEE1F88F7E095089504D0D9
:1033B0006894B111D9C00895BCD088F09F5790F09F
:1033C000B92F9927B751A0F0D1F0660F771F881F4A
:1033D000991F1AF0BA95C9F712C0B13081F0C3D065
:1033E000B1E00895C0C0672F782F8827B85F39F003
:1033F000B93FCCF3869577956795B395D9F73EF4A9
:1034000090958095709561957F4F8F4F9F4F089550
:10341000E89409C097FB3EF490958095709561956E
:103420007F4F8F4F9F4F9923A9F0F92F96E9BB2724
:103430009395F695879577956795B795F111F8CFA0
:10344000FAF4BB0F11F460FF1BC06F5F7F4F8F4F0B
:103450009F4F16C0882311F096E911C0772321F001
:103460009EE8872F762F05C0662371F096E8862F99
:1034700070E060E02AF09A95660F771F881FDAF7F0
:10348000880F9695879597F90895990F0008550F1D
:10349000AA0BE0E8FEEF16161706E807F907C0F0DA
:1034A00012161306E407F50798F0621B730B840BE2
:1034B000950B39F40A2661F0232B242B252B21F4BC
:1034C00008950A2609F4A140A6958FEF811D811D5C
:1034D000089597F99F6780E870E060E008959FEF96
:1034E00080EC089500240A9416161706180609069B
:1034F000089500240A94121613061406050608956A
:10350000092E0394000C11F4882352F0BB0F40F4F1
:10351000BF2B11F460FF04C06F5F7F4F8F4F9F4F31
:10352000089557FD9058440F551F59F05F3F71F0B3
:103530004795880F97FB991F61F09F3F79F087951A
:103540000895121613061406551FF2CF4695F1DFA3
:1035500008C0161617061806991FF1CF8695710533
:10356000610508940895E894BB2766277727CB0167
:1035700097F908958ADF08F48FEF08950BD0C0CF34
:10358000B1DF28F0B6DF18F0952309F0A2CFA7CF5E
:103590001124EACFC6DFA0F3959FD1F3950F50E039
:1035A000551F629FF001729FBB27F00DB11D639FF5
:1035B000AA27F00DB11DAA1F649F6627B00DA11D9B
:1035C000661F829F2227B00DA11D621F739FB00D41
:1035D000A11D621F839FA00D611D221F749F3327B1
:1035E000A00D611D231F849F600D211D822F762F4A
:1035F0006A2F11249F5750408AF0E1F088234AF047
:10360000EE0FFF1FBB1F661F771F881F9150504092
:10361000A9F79E3F510570F05CCFA6CF5F3FECF35A
:10362000983EDCF3869577956795B795F795E7957E
:103630009F5FC1F7FE2B880F911D9695879597F98F
:10364000089511F40EF44BCF3EC073DFD0F39923ED
:10365000D9F3CEF39F57550B87FF43D00024A0E644
:1036600040EA900180585695979528F4805C660F43
:10367000771F881F20F026173707480730F4621B92
:10368000730B840B202931294A2BA6951794079494
:10369000202531254A2758F7660F771F881F20F00D
:1036A00026173707480730F4620B730B840B200D85
:1036B000311D411DA09581F7B901842F9158880FC4
:1036C0009695879508959F3F31F0915020F4879506
:1036D00077956795B795880F911D9695879597F97A
:1036E000089591505040660F771F881FD2F70895B4
:1036F00081E090E0F894C9C20F931F93CF93DF93BA
:10370000CDB7DEB72E970FB6F894DEBF0FBECDBF94
:103710000E891F8986E08C831A8309838FEF9FE7C8
:103720009E838D83AE01465E5F4F688D798DCE019D
:10373000019611D02F813885F801E20FF31F108216
:103740002E960FB6F894DEBF0FBECDBFDF91CF919E
:103750001F910F9108952F923F924F925F926F9217
:103760007F928F929F92AF92BF92CF92DF92EF9211
:10377000FF920F931F93CF93DF93CDB7DEB72C97B4
:103780000FB6F894DEBF0FBECDBF7C016B018A017E
:10379000FC0117821682838181FFB0C1CE010196A0
:1037A0004C01F7019381F60193FD859193FF81917F
:1037B0006F01882309F49EC1853239F493FD859108
:1037C00093FF81916F01853221F4B70190E0C7D159
:1037D000E8CF512C312C20E02032A0F48B3269F05C
:1037E00030F4803259F0833269F420612CC08D327C
:1037F00039F0803339F4216026C02260246023C070
:10380000286021C027FD27C030ED380F3A3078F40A
:1038100026FF06C0FAE05F9E300D1124532E13C020
:103820008AE0389E300D1124332E20620CC08E3277
:1038300021F426FD5FC1206406C08C3611F4206897
:1038400002C0883641F4F60193FD859193FF819182
:103850006F018111C1CF982F9F7D9554933028F42B
:103860000C5F1F4FFFE3F9830DC0833631F08337C0
:1038700071F0833509F057C021C0F8018081898338
:103880000E5F1F4F44244394512C540114C038013F
:10389000F2E06F0E711CF801A080B18026FF03C01A
:1038A000652D70E002C06FEF7FEFC5012C874CD112
:1038B0002C0183012C852F77222E16C03801F2E0CF
:1038C0006F0E711CF801A080B18026FF03C0652D2A
:1038D00070E002C06FEF7FEFC5012C872AD12C0169
:1038E0002C852068222E830123FC19C0832D90E0B3
:1038F00048165906A0F4B70180E290E030D13A941E
:10390000F5CFF50127FC859127FE81915F01B70175
:1039100090E025D131103A94F1E04F1A510841144A
:10392000510479F7DEC0843611F0893631F5F8019B
:1039300027FF07C060817181828193810C5F1F4FD7
:1039400008C060817181072E000C880B990B0E5FF7
:103950001F4F2F76722E97FF09C090958095709516
:1039600061957F4F8F4F9F4F2068722E2AE030E085
:10397000A4012DD1A82EA81843C0853729F42F7E85
:10398000B22E2AE030E025C0F22FF97FBF2E8F360D
:10399000C1F018F4883579F0ADC0803719F0883758
:1039A00021F0A8C02F2F2061B22EB4FE0DC08B2DA8
:1039B0008460B82E09C024FF0AC09F2F9660B92EDC
:1039C00006C028E030E005C020E130E002C020E180
:1039D00032E0F801B7FE07C0608171818281938176
:1039E0000C5F1F4F06C06081718180E090E00E5F28
:1039F0001F4FA401ECD0A82EA818FB2DFF777F2E17
:103A000076FE0BC0372D3E7FA51450F474FE0AC01D
:103A100072FC08C0372D3E7E05C0BA2C372D03C07E
:103A2000BA2C01C0B52C34FF0DC0FE01EA0DF11D0A
:103A30008081803311F4397E09C032FF06C0B3940F
:103A4000B39404C0832F867809F0B39433FD12C079
:103A500030FF06C05A2CB31418F4530C5B18B32C67
:103A6000B31460F4B70180E290E03C8778D0B3945F
:103A70003C85F6CFB31410F43B1801C0312C34FF51
:103A800011C0B70180E390E03C8769D03C8532FFEC
:103A900016C031FD03C088E790E002C088E590E0E1
:103AA000B7010CC0832F867851F031FF02C08BE242
:103AB00001C080E237FD8DE2B70190E050D0A5143F
:103AC00030F4B70180E390E04AD05A94F8CFAA943A
:103AD000F401EA0DF11D8081B70190E040D0A11002
:103AE000F6CF332009F45DCEB70180E290E037D005
:103AF0003A94F7CFF7018681978102C08FEF9FEF4D
:103B00002C960FB6F894DEBF0FBECDBFDF91CF91DC
:103B10001F910F91FF90EF90DF90CF90BF90AF90EB
:103B20009F908F907F906F905F904F903F902F90DD
:103B30000895FC010590615070400110D8F7809500
:103B400090958E0F9F1F0895FC0161507040019069
:103B50000110D8F7809590958E0F9F1F08950F93B1
:103B60001F93CF93DF93FB01238121FD03C08FEFD0
:103B70009FEF28C022FF16C04681578124813581DE
:103B80004217530744F4A081B1819D012F5F3F4F3D
:103B9000318320838C93268137812F5F3F4F37837A
:103BA000268310C0EB01092F182F0084F185E02D2A
:103BB0001995892BE1F68E819F8101969F838E83D3
:103BC000812F902FDF91CF911F910F910895FA01CE
:103BD000AA27283051F1203181F1E8946F936E7F4C
:103BE0006E5F7F4F8F4F9F4FAF4FB1E03ED0B4E03D
:103BF0003CD0670F781F891F9A1FA11D680F791F7E
:103C00008A1F911DA11D6A0F711D811D911DA11D8E
:103C100020D009F468943F912AE0269F112430199E
:103C2000305D3193DEF6CF010895462F4770405D39
:103C30004193B3E00FD0C9F7F6CF462F4F70405DE8
:103C40004A3318F0495D31FD4052419302D0A9F743
:103C5000EACFB4E0A6959795879577956795BA953D
:103C6000C9F700976105710508959B01AC010A2E03
:103C700006945795479537952795BA95C9F7620FDA
:0E3C8000731F841F951FA01D0895F894FFCF99
:103C8E00084000000080760381040002520C000000
:103C9E000000E00DA40CAA0D880D9C0D260E000050
:103CAE0000002310A40C000000002310A40C000040
:103CBE000000DC11AE113711DB0FC50F830F620F41
:103CCE002E0F0D0FB70E7F0E0D0A00534C454550AB
:103CDE00004D415354455200534C41564500256406
:023CEE000000D4
:00000001FF
