:100000003BC300006AC3000068C3000066C3000071
:1000100064C3000062C3000060C300005EC3000050
:100020005CC300005AC3000058C3000056C3000060
:1000300054C3000052C3000050C300000C944B1B7B
:100040004CC300004AC3000048C3000046C3000080
:1000500044C3000042C3000040C300000C94461A91
:100060003CC30000ADC4000082C4000036C30000E1
:1000700034C3000032C3000030C300002EC30000B0
:100080002CC300002AC3000028C3000026C30000C0
:1000900024C3000022C3000020C300001EC30000D0
:1000A0001CC300001AC3000018C3000016C30000E0
:1000B00014C3000012C3000010C300000EC30000F0
:1000C0000CC300000AC3000008C3000006C3000000
:1000D00004C3000002C3000000C30000FEC2000011
:1000E000FCC200004117451749174D175117551706
:1000F000591795189C18A318AA18B118C918B81838
:10010000C918BF1837193A1929192D193119711938
:100110003E19421948194C19501956195A195E19A5
:100120007119641968196C1901080D00FE09016143
:1001300002CD207FFE0BFE09FE0D00803219898062
:100140008080808080800080284383909090136717
:10015000874848FC48FC48481259892078A0A0707C
:100160002828F02012698944A44810102048548897
:1001700012678760909060948874381383808080C1
:100180003239892040408080804040202239898057
:1001900040402020204040801665854830FC304893
:1001A0001455852020F8202011438370608016515B
:1001B00081F821338340E04002798902020408106B
:1001C0002040808012698930488484848484483047
:1001D0001259892060A02020202020F812698978F7
:1001E00084840408304080FC126989FC04081038BB
:1001F00004048478126989081828488888FC08084B
:10020000126989FC8080B8C4040484781269893832
:10021000408080B8C4848478126989FC0408101076
:10022000202040401269897884848478848484788A
:100230001269897884848C74040408702138884099
:10024000E040000040E0401148882070200000702D
:1002500060802259890810204080402010081464D2
:1002600084FC0000FC1259898040201008102040B6
:10027000801269897884840408101000101269893A
:100280007884849CA4AC94807812698930488484F2
:1002900084FC848484126989F0888488F088848846
:1002A000F0126989788480808080808478126989DE
:1002B000F088848484848488F0126989FC8080803A
:1002C000F0808080FC126989FC808080F0808080D2
:1002D0008012698978848080809C848C74126989FA
:1002E00084848484FC84848484125989F8202020A6
:1002F00020202020F81279893E080808080808887C
:1003000070126989848890A0C0A09088841269893D
:100310008080808080808080FC0279898282C6AA69
:1003200092928282821269898484C4A4948C848487
:1003300084126989788484848484848478126989A5
:10034000F8848484F880808080116A8A7884848428
:100350008484A4947804126989F8848484F8A09031
:10036000888412698978848080780404847802798A
:1003700089FE1010101010101010126989848484E6
:10038000848484848478027989828244444428283D
:10039000281002798982828282929292AA440279FA
:1003A0008982824428102844828202798982824488
:1003B000281010101010126989FC040810204080C9
:1003C00080FC224989F080808080808080F00279E2
:1003D00089808040201008040202124989F0101020
:1003E0001010101010F0185383205088017181FEF6
:1003F0003A2282804012668678047C848C7412696A
:1004000089808080B8C48484C4B812668678848069
:10041000808478126989040404748C84848C741236
:1004200066867884FC80847812698938444040F874
:1004300040404040106888748888708078847812C2
:100440006989808080B8C48484848412588820009C
:100450006020202020F8105A8A0800180808080890
:100460008888701269898080808890E090888412E2
:1004700059896020202020202020F8027686EC92E6
:1004800092929282126686B8C484848484126686AC
:10049000788484848478106888B8C484C4B88080E0
:1004A00080106888748C848C74040404126686B886
:1004B0004440404040126686788460188478126810
:1004C000884040F8404040443812668688888888D2
:1004D00088741256868888885050200276868282D8
:1004E0009292AA4412668684483030488410688804
:1004F0008484848C74048478126686FC08102040FE
:10050000FC22598938404020C020404038321989A7
:10051000808080808080808080125989E010102047
:1005200018201010E018538348A890FFFFE0FFD177
:10053000AFFF32FFD0FFFEFFE0FFD1AEFFD0FFFEE6
:10054000FFE0FFD11000FFFEFFD0FFE0FFC1FFD1B1
:10055000AED580A83FD300408D142000A1C8DA1288
:1005600081CFD9F1DB402EA4A6AFFFD0FFFE000063
:100570002100240027002A002D0030003300010153
:100580000000040107010A010000220025002800E4
:100590002B002E003100340002010000050108018B
:1005A0000B010505050507050808080802020202F7
:1005B0000A0A0808040404040101010101010101FF
:1005C0000303030303030303040707070C0C0C0CCA
:1005D0000C0C0C0C020202020606060606060606B3
:1005E0000B0B0B0B0B0B0B0B010210202008081040
:1005F0002040102040800201020108040201010293
:10060000040810204080804020100804020180046B
:1006100002018040201008040201080402010102C6
:1006200004081020408001020408102040800000CF
:100630000A0B02090C0D0E0807030401000000005C
:1006400000000000000000000000000000000000AA
:100650000000000000000000000012111000000067
:10066000000000000000000000000000000000008A
:100670000000000044223C2211241FBECFEFD1E233
:10068000DEBFCDBF00E00CBF13E0A0E0B2E0EEE7BC
:10069000F6E500E00BBF02C007900D92AE30B10747
:1006A000D9F725E0AEE0B3E001C01D92A83AB20749
:1006B000E1F713E0CBE3D3E000E006C021970109A6
:1006C000802FFE010E942623CA33D10780E008074D
:1006D000A9F70E946B1D0C942D2B92CCCF92DF9228
:1006E000EF92FF920F931F93CF93DF936C017A01E8
:1006F0008B01C0E0D0E0CE15DF0589F0D8016D9107
:100700008D01D601ED91FC910190F081E02DC601A3
:100710001995892B11F47E0102C02196ECCFC701F7
:10072000DF91CF911F910F91FF90EF90DF90CF90CD
:100730000895FC01918D828D981761F0828DDF0103
:10074000A80FB11D5D968C91928D9F5F9F73928FC4
:1007500090E008958FEF9FEF0895FC01918D828DB9
:10076000981731F0828DE80FF11D858D90E0089586
:100770008FEF9FEF0895FC01918D228D892F90E0DE
:10078000805C9F4F821B91098F739927089581E7A1
:1007900093E0F1DF21E0892B09F420E0822F089516
:1007A000FC01848DDF01A80FB11DA35ABF4F2C910E
:1007B000848D90E001968F739927848FA689B789DD
:1007C0002C93A089B1898C9180648C93938D848DB6
:1007D000981306C00288F389E02D80818F7D808385
:1007E0000895EF92FF920F931F93CF93DF93EC0145
:1007F00081E0888F9B8D8C8D981305C0E889F989DD
:10080000808185FD23C0F62E0B8D10E00F5F1F4FFA
:100810000F731127E02E8C8DE8120BC00FB607FC6A
:10082000FACFE889F989808185FFF5CFCE01B8DF5D
:10083000F2CF8B8DFE01E80FF11DE35AFF4FF082DE
:100840000B8FEA89FB898081806207C0EE89FF896E
:100850006083E889F98980818064808381E090E009
:10086000DF91CF911F910F91FF90EF900895CF935B
:10087000DF93EC01888D8823C1F0EA89FB898081B0
:1008800085FD05C0A889B9898C9186FD0EC00FB67B
:1008900007FCF5CF808185FFF2CFA889B9898C91BB
:1008A00085FFEDCFCE017CDFE8CFDF91CF910895BA
:1008B00080E090E0892B19F06ADF811125C080E08B
:1008C00090E0892B41F080E090E0892B21F00E949C
:1008D000000081111CC080E090E0892B41F080E095
:1008E00090E0892B21F00E940000811113C080E06C
:1008F00090E0892BA1F080E090E0892B81F00E94AC
:10090000000081110AC008950E940000D8CF0E9403
:100910000000E1CF0E940000EACF0C94000008958F
:100920006115710579F0FB0101900020E9F731971D
:10093000AF01461B570BDC01ED91FC910280F38166
:10094000E02D199480E090E008950F931F93CF93CA
:10095000DF93EC01E5DF8C0166E572E0CE01E0DFBC
:10096000800F911FDF91CF911F910F9108951F92DA
:100970000F920FB60F9211240BB60F922F933F9345
:100980004F935F936F937F938F939F93AF93BF9397
:10099000EF93FF9381E793E003DFFF91EF91BF9126
:1009A000AF919F918F917F916F915F914F913F9107
:1009B0002F910F900BBE0F900FBE0F901F901895A8
:1009C0001F920F920FB60F9211240BB60F922F9316
:1009D0008F939F93EF93FF93E0918103F0918203B4
:1009E0008081E0918703F091880382FD12C090819D
:1009F00080918A038F5F8F7320918B03821751F050
:100A0000E0918A03F0E0EF58FC4F958F80938A03C2
:100A100001C08081FF91EF919F918F912F910F9055
:100A20000BBE0F900FBE0F901F9018950895DC011C
:100A30001696ED91FC91179712968C91481B477072
:100A400081E090E001C0880F4A95EAF7E60FF11DBA
:100A50003081222311F0832B02C080958323808371
:100A60000895FB014181DC0112962C9112974217E7
:100A700060F013962C911397241738F06081159627
:100A80002C91621710F42481D2CF0895FC0180814B
:100A90009281980F92832181921760F494819F5FD5
:100AA00094839381890F821710F08FEF820F8383D5
:100AB00081E0089580E00895FC01128280818150D8
:100AC00083831482089580E008950B96FC0184913D
:100AD00008950A96FC0184910895FC01849108957B
:100AE000FCDF882321F0823011F083E0089586E056
:100AF0000895FC01E60FF11D849190E0982F88275E
:100B00003196E4918E0F911D089568E0F2CF66E072
:100B1000F0CF109224031092230308958093520380
:100B20001092B90084FF02C08CE001C088E4809379
:100B3000B800EFCF8F929F92AF92BF92CF92DF9289
:100B4000FF920F931F93CF93DF931F921F92CDB706
:100B5000DEB76C018B01F42E490120E1421709F444
:100B600067C0241700F13AE0431729F18FE04813DA
:100B700069C041E0C6010E94851140E0B801C6018C
:100B80000E947C1141E8B801C6010E947311F40172
:100B90004081B801C6010E94731140E0B801C6014E
:100BA0000E94851104C1A1E14A1709F444C0B5E1CE
:100BB0004B1791F047C0DB011496ED91FC9115970E
:100BC00020E030E042E061E0199548E455E0B801EA
:100BD000C6010E948E1136C0FB01A280B38040E4A2
:100BE00055E00E948E11D50114964C91406BB801CE
:100BF000C6010E94731141E0B801C6010E947C1138
:100C0000F50126813781D8011496ED91FC91159755
:100C1000D50115964C9166E0C6011995811102C067
:100C200080E0C6C040E0B801C6010E9485110AC03C
:100C300047E355E002C04CE255E0B801C6010E940E
:100C40008E11B5C0D80112960D911C911397B2E385
:100C5000FB1609F473C0BF15B8F0E5E1FE1609F400
:100C600078C0F7E1FF1609F489C024E1F2129FC0B1
:100C7000D8011696ED91FC91179715968C919F01CE
:100C8000280F311DC9015EC036E4F31609F486C091
:100C900087E4F81609F486C0ABE3FA1288C0F401C1
:100CA00081819381913029F0933031F4482F88501D
:100CB00004C048E0480F01C0482F21E0D801139636
:100CC0003C91381708F420E031E0F80152814517D3
:100CD00008F430E051E0481708F050E0822F852BEF
:100CE000382319F4252309F462C0D4011296FC902C
:100CF000913051F030F0923049F0933051F42FEFB1
:100D000009C020E031E007C021E004C020E03FEF4F
:100D100002C020E030E0F7FE07C0B401C8012A831A
:100D200039839FDE39812A81F4018081830F80839A
:100D30008181820F8183FF0C71F739C0B401C80132
:100D400090DE35C01192E817F907E1F7C801B4DE6B
:100D50002EC0C8019BDE882309F462CFD801169605
:100D6000ED91FC91179715968C919F01280F311DDD
:100D7000C9011192E817F907E1F719C0D4011C92D3
:100D8000F801828111968C9311978581815012967A
:100D90008C931297838113968C9309C0D801159672
:100DA0008C9103C0D80111968C91F401808381E06D
:100DB0000F900F90DF91CF911F910F91FF90DF90D7
:100DC000CF90BF90AF909F908F9008954F925F9279
:100DD0006F927F92AF92BF92CF92DF92EF92FF928B
:100DE0000F931F93CF93DF93EC015A018B012B8953
:100DF0003C894D895E89B501C8010E94142A882367
:100E000009F451C0CF88D88CE98CFA8C26013701BF
:100E100077FA709477F87094A3019201B501C80134
:100E20000E94142A87FD0BC0A7019601B501C801D5
:100E30000E944E2418162CF06501780102C073013F
:100E4000620120E030E0A901C701B6010E94142A26
:100E5000811105C01BA21CA21DA21EA220C0A701B9
:100E6000960160E074E284E799E40E94B5239F77DD
:100E70000E9422246BA37CA38DA39EA35E0183E426
:100E8000A80EB11C11E020E030E0A901C701B601B5
:100E90000E944E2418160CF010E0F5011083CB8A46
:100EA000DC8AED8AFE8ADF91CF911F910F91FF902E
:100EB000EF90DF90CF90BF90AF907F906F905F905A
:100EC0004F900895CF92EF920F93CF93DF93EC0161
:100ED00088E192E0998388836A831B861C861D863D
:100EE0001E861F86188A198A1A8A1B8A1C8A1D8ADE
:100EF0001E8A80E090E0A0E8BFE38F8B988FA98FD7
:100F0000BA8F1B8E1C8E1D8E1E8E8F8F98A3A9A349
:100F1000BAA31BA21CA21DA21EA261E070E07CA7C6
:100F20006BA73FEF3EA71FA218A619A61AA64B83D0
:100F30002C830D83EE821BAA1CAA1DAA1EAA1FAA1F
:100F400018AE19AE1AAE1BAE1CAE1DAE1EAEFE0123
:100F5000FF9680839183A283B383349610821F828D
:100F6000188619861A86CC2019F0CE010E94FC1929
:100F700040E050E060E87FE3CE01DF91CF910F9138
:100F8000EF90CF900C94C11B2F923F924F925F92A3
:100F90006F927F928F929F92AF92BF92CF92DF9289
:100FA000EF92FF920F931F93CF93DF9300D01F9286
:100FB000CDB7DEB71C01FC0187849088A188B28878
:100FC00083859485A585B685881A990AAA0ABB0ADD
:100FD00063897489858996899B01AC010E94792A6D
:100FE0006B017C01F101638D748D858D968D9B0164
:100FF000AC010E9451239B01AC01C701B6010E94C4
:10100000B5230E941D2481149104A104B104A1F40C
:1010100062307105810591050CF07CC0F10113A2CD
:1010200014A215A216A2138A148A158A168A13AA64
:1010300014AA15AA16AA03C1F10103A914A925A986
:1010400036A9ED5BFF4F181419041A041B04FCF4B5
:1010500010161106120613064CF4681579058A0558
:101060009B054CF52081211155C025C001151105A6
:101070002105310509F44EC0681579058A059B05DF
:101080000CF048C08081882309F444C037C0101692
:10109000110612061306F4F4002711279801081907
:1010A00019092A093B0960177107820793071CF485
:1010B0002081222379F19B01AC0188279927DC014B
:1010C000821B930BA40BB50BF10183AB94ABA5ABC7
:1010D000B6AB20C00115110521053105D9F0CC248E
:1010E000DD247601C818D908EA08FB086C157D05CF
:1010F0008E059F057CF4808181110CC03095209570
:10110000109501951F4F2F4F3F4FF10103AB14ABCB
:1011100025AB36ABF101C3A8D4A8E5A8F6A8810198
:101120000D5B1F4FC114D104E104F10491F487A9B0
:1011300090ADA1ADB2AD83AF94AFA5AFB6AF81E036
:10114000181419041A041B040CF080E0F8018083C1
:1011500040C0F10183AC94ACA5ACB6ACA501940140
:10116000C501B4010E9451232B013C01C701B60106
:101170000E941A2A20E030E040E850E40E94792AD8
:1011800020E030E040E85FE30E9451239B01AC0186
:10119000C301B2010E94B5239B01AC01C501B4019A
:1011A0000E9450234B015C01F101FF964080518069
:1011B000628073809201A3010E944E24181614F0DD
:1011C00042015301A401B501F10143AF54AF65AF32
:1011D00076AFFFEFCF1ADF0AEF0AFF0AF101C3AAC9
:1011E000D4AAE5AAF6AA23AD34AD45AD56ADCA01E1
:1011F000B90129833A834B835C830E942224F10145
:1012000063A374A385A396A329813A814B815C8152
:1012100060E074E284E799E40E94B523F101638BF6
:10122000748B858B968BF8012081211108C0DC011D
:10123000CB01B058F101838B948BA58BB68B0F90AB
:101240000F900F900F90DF91CF911F910F91FF9012
:10125000EF90DF90CF90BF90AF909F908F907F9056
:101260006F905F904F903F902F900895CF92DF92B4
:10127000EF92FF920F931F93CF93DF93EC016A01DC
:101280007B019A01AB016F89788D898D9A8D0E94BF
:10129000142A882309F445C0CF8AD88EE98EFA8EA5
:1012A0008E01015C1F4FA701960160E074E284E7A4
:1012B00099E40E94B523F80160837183828393834C
:1012C0008BA99CA9ADA9BEA9181619061A061B065A
:1012D00044F56B897C898D899E899B01AC010E94B4
:1012E000792A6B017C016B8D7C8D8D8D9E8D9B0190
:1012F000AC010E9451239B01AC01C701B6010E94C1
:10130000B5230E941D246BAB7CAB8DAB9EABCE0195
:10131000DF91CF911F910F91FF90EF90DF90CF90D1
:1013200033CEDF91CF911F910F91FF90EF90DF901F
:10133000CF900895CF92DF92EF92FF92CF93DF93F9
:10134000EC018BA19CA1ADA1BEA1892B8A2B8B2B7B
:1013500009F45BC03FB7F8948091620390916303F6
:10136000A0916403B091650326B5A89B05C02F3FEB
:1013700019F00196A11DB11D3FBFCC24D82EE92E36
:10138000FA2EC20ED11CE11CF11C42E0CC0CDD1C7B
:10139000EE1CFF1C4A95D1F78FA198A5A9A5BAA567
:1013A000B701A601481B590B6A0B7B0B8BA19CA1B3
:1013B000ADA1BEA1481759076A077B0730F1FE01AE
:1013C000ED5BFF4F20818B859C85AD85BE852223FB
:1013D00021F00196A11DB11D03C00197A109B1091A
:1013E0008B879C87AD87BE87E881F9814B855C85BB
:1013F0006D857E850680F781E02DCE011995CFA2FF
:10140000D8A6E9A6FAA6CE01BFDD20E030E0A9010A
:101410006B897C898D899E890E94142A811110C054
:1014200081E0CF84D888E988FA884B855C856D8512
:101430007E85C416D506E606F70619F480E001C0DD
:1014400081E0DF91CF91FF90EF90DF90CF900895F2
:101450000F931F93FC010785108921893289041796
:1014600015072607370739F04787508B618B728B3A
:101470001F910F9189CD1F910F9108950F931F9385
:10148000FC010385148525853685400F511F621F99
:10149000731F1F910F91DCCFDB01ED91FC9119942B
:1014A000EF92FF920F931F93CF93DF931F92CDB7CD
:1014B000DEB78C01DC011296ED90FC901397D1966B
:1014C000ED91FC91D29782E0199520E030E04AE05E
:1014D000B701C801E1DFF82ED801D196ED91FC915A
:1014E000D29783E01995D801D196ED91FC91D297CE
:1014F00080E01995FF2081F1F801628173819E01DE
:101500002F5F3F4F46E4C801C7DF8981D8018C9324
:1015100012966D917C9113979E012F5F3F4F47E488
:10152000C801BADF8981F80181836281738120E07B
:1015300030E048E4C801B0DFD8011B968C931B97BC
:1015400098012D5C3F4F12966D917C91139747E166
:10155000C801A2DF81E001C080E00F90DF91CF9150
:101560001F910F91FF90EF9008954F925F926F92AD
:101570007F928F929F92AF92BF92CF92DF92EF9223
:10158000FF920F931F93CF93DF931F92CDB7DEB7D8
:101590002C01E62EF42EC22EDC0114960D911C9126
:1015A0001597C8019ADAD82EF2018481958198DACC
:1015B000982EF1E0DF1203C02FE0A22E02C0AA2471
:1015C000AA94D20114968D919C91159782DAD82E07
:1015D000F2018481958179DAB82ED20114968D9129
:1015E0009C91159792DAB0E6BC1538F4009729F073
:1015F000080F191F91E6D92E10C0F2018481958140
:1016000086DAF0E4FC1538F4009729F0080F191F6A
:1016100081E4D82E02C00F5E1F4FBC1480F4D201AB
:1016200050961C92509753961C92539754961C9226
:10163000549751961C92519752961C929EC0BD147D
:1016400070F3892D90E0F80124912F3F19F40F5F7A
:101650001F4F59C0DC104EC0D20114968D919C9141
:1016600015973BDA98012F5F3F4FF801882311F05F
:101670008230E1F48491D20153968C935397F9010F
:10168000249154962C935497F8013396E4915096F4
:10169000EC935097F8013496E4915196EC9351975E
:1016A000F8013596E4915296EC9320C08491982FDE
:1016B0009F709250D20152969C93529782958F7050
:1016C00051968C935197F9012491822F8F705496E3
:1016D0008C93549722952F7053962C935397F8011F
:1016E0003296E491E295EF705096EC930115110556
:1016F00079F443C0F8013296E491EA219C012E0F5F
:10170000311D020F131FDB1409F489CFD3949BCF33
:10171000F20184819581E4D9D20153963C9153978B
:1017200054962C91549751965C91519752969C9156
:101730005297920FF91A9FEF920F9F0DD4964C91EA
:10174000D497D6966C916F1518F0941728F402C0B0
:10175000941780F09F1570F4E50E9FEF930F9E0D88
:10176000D201D3964C91D397D5965C915E1538F4FF
:10177000941738F4F20180893EC080E03CC0941791
:1017800010F49E15B8F7080F111D395F732E76946B
:10179000769476946F2C620E5201FCE1AF0EB11C70
:1017A000872C912CF61431F35E2D68018C2D801B53
:1017B0008715E8F4F6018491D20112966D917C911F
:1017C00013975C965C935C975D96FC925D975F9631
:1017D0001C925F975E968C9395014BE3C2015983EF
:1017E0005BDEBFEFCB1ADB0A5981585FDFCF080DF4
:1017F000191DF394D7CF0F90DF91CF911F910F91C7
:10180000FF90EF90DF90CF90BF90AF909F908F9020
:101810007F906F905F904F9008952EE93FE0009782
:1018200029F0F9013197F1F70197F9CF08959091D7
:101830002403911104C0809324036093230308952B
:101840001F93CF93DF931F921F92CDB7DEB720ED8A
:1018500037E03A8329839091BC00982391F4298141
:101860003A81232B49F480915203182F127081FD85
:1018700008C081E0DCDF06C029813A8121503109AE
:10188000E8CF11E0812F0F900F90DF91CF911F9142
:10189000089584E98093BC0064E080E1D1CFCF93C8
:1018A0008093BB0084E88093BC0063E080E8C8DFDD
:1018B000C82F882381F080915203C82FC27081FD08
:1018C00009C08091B900887F883221F063E082E00E
:1018D000AEDF01C0C1E08C2FCF910895CF93DF938D
:1018E000FC0123A5222369F0EC01F9D6811102C085
:1018F00080E008C08EA1811180E4D1DF8823C1F38C
:101900001BA681E0DF91CF9108950F931F93CF9392
:10191000C42F89016330B9F050F4613081F0623036
:1019200009F03FC0FC0146A321E023A73AC066307E
:10193000E9F0673041F1653009F033C00CC0FC01BB
:1019400086A5ECD82EC0FC0116A221E023A74111E8
:1019500028C09FDF26C0C2DF811103C09ADF80E06C
:1019600021C08C2F9CDF81111CC0F8CFB7DF8823EA
:10197000A9F3CC23B1F0F80181918F0190DF882386
:1019800069F3C150F6CFAADF882341F3CC2349F095
:10199000F801849184DF882329F00F5F1F4FC15025
:1019A000F5CF81E0CF911F910F910895CF92DF92F3
:1019B000EF92FF920F931F93CF93DF9300D000D04D
:1019C000CDB7DEB787EF82B910B1B0B1B074E0B176
:1019D000E07280B18071E82E8BEF82B9D0B0A0B1F7
:1019E000A07470B17072C0B08DEF82B9F0B0F0B178
:1019F000F07460B1607220B120718EEF82B900B1D5
:101A000050B1507440B1407230B130718091410397
:101A100090914203C4FC0EC0009719F481E090E05D
:101A200004C0019789F482E090E090934203809390
:101A300041030AC00197029718F483E090E0F5CFC4
:101A4000109242031092410380913F039091400312
:101A5000D7FC0EC0009719F481E090E004C0019714
:101A600089F482E090E09093400380933F030AC0A2
:101A70000197029718F483E090E0F5CF10924003AD
:101A800010923F0380913D0390913E03F7FC0EC0FE
:101A9000009719F481E090E004C0019789F482E096
:101AA00090E090933E0380933D030AC00197029714
:101AB00018F483E090E0F5CF10923E0310923D03BE
:101AC00080913B0390913C0307FD0EC0009719F4F1
:101AD00081E090E004C0019789F482E090E0909367
:101AE0003C0380933B030AC00197029718F483E0FC
:101AF00090E0F5CF10923C0310923B0380913903A4
:101B000090913A03B1110EC0009719F481E090E072
:101B100004C0019789F482E090E090933A038093A7
:101B200039030AC00197029718F483E090E0F5CFDB
:101B300010923A0310923903809137039091380341
:101B4000A1110EC0009719F481E090E004C0019744
:101B500089F482E090E090933803809337030AC0C1
:101B60000197029718F483E090E0F5CF10923803C4
:101B7000109237038091350390913603F1110EC016
:101B8000009719F481E090E004C0019789F482E0A5
:101B900090E090933603809335030AC00197029733
:101BA00018F483E090E0F5CF1092360310923503DD
:101BB0008091330390913403E1110EC0009719F422
:101BC00081E090E004C0019789F482E090E0909376
:101BD0003403809333030AC00197029718F483E01B
:101BE00090E0F5CF109234031092330380913103CB
:101BF0009091320371110EC0009719F481E090E0CA
:101C000004C0019789F482E090E0909332038093BE
:101C100031030AC00197029718F483E090E0F5CFF2
:101C2000109232031092310380912F039091300370
:101C300061110EC0009719F481E090E004C0019793
:101C400089F482E090E09093300380932F030AC0E0
:101C50000197029718F483E090E0F5CF10923003DB
:101C600010922F0380912D0390912E0317FD0EC02B
:101C7000009719F481E090E004C0019789F482E0B4
:101C800090E090932E0380932D030AC00197029752
:101C900018F483E090E0F5CF10922E0310922D03FC
:101CA00080912B0390912C0351110EC0009719F4D1
:101CB00081E090E004C0019789F482E090E0909385
:101CC0002C0380932B030AC00197029718F483E03A
:101CD00090E0F5CF10922C0310922B0380912903F2
:101CE00090912A0341110EC0009719F481E090E011
:101CF00004C0019789F482E090E090932A038093D6
:101D000029030AC00197029718F483E090E0F5CF09
:101D100010922A0310922903809144039091450365
:101D200031110EC0009719F481E090E004C00197D2
:101D300089F482E090E090934503809344030AC0C5
:101D40000197029718F483E090E0F5CF10924503D5
:101D500010924403809127039091280321110EC013
:101D6000009719F481E090E004C0019789F482E0C3
:101D700090E090932803809327030AC0019702976D
:101D800018F483E090E0F5CF109228031092270317
:101D90008091250390912603E1100EC0009719F45D
:101DA00081E090E004C0019789F482E090E0909394
:101DB0002603809325030AC00197029718F483E055
:101DC00090E0F5CF109226031092250380913F03F7
:101DD00090914003019711F481E301C080E02091CC
:101DE0003D0330913E032130310509F482E3209117
:101DF0003B0330913C032130310509F483E320910A
:101E0000390330913A032130310509F484E32091FC
:101E10003703309138032130310509F485E32091EF
:101E20003503309136032130310509F486E32091E2
:101E30003303309134032130310509F487E32091D5
:101E40003103309132032130310509F488E32091C8
:101E50002F03309130032130310509F489E32091BB
:101E60004103309142032130310509F480E3209190
:101E70002503309126032130310509F48AE22091AF
:101E80002703309128032130310509F483E22091A2
:101E90002D0330912E032130310509F481E4209186
:101EA0002B0330912C032130310509F482E4209179
:101EB000290330912A032130310509F483E420916C
:101EC0004403309145032130310509F484E48093C3
:101ED0000E032130310549F48091210390912203B2
:101EE0000196909322038093210380912103909186
:101EF0002203039724F01092220310922103809171
:101F0000210390912203892B11F461E001C060E06C
:101F100088E00E94081980914303082E000C990B59
:101F2000209121033091220382179307B1F040E002
:101F300050E0BA0180EE94E0A1DA40E050E0BA014E
:101F40008CE994E09BDA40E050E0BA0188E594E047
:101F500095DA1092200310921F0380912103809341
:101F6000430380917B00886080937B0080E48093B2
:101F70007C0080917A00806480937A0080917A005E
:101F800086FDFCCF809178002091790090E0922B23
:101F900090931E0380931D0320912103309122030F
:101FA0002130310509F0EEC040911F03509120030C
:101FB00080910E034130510541F0813409F03FC05A
:101FC0003093200320931F033AC090ED980F9A306E
:101FD00018F40E94C91C33C08A3269F461ED72E0C2
:101FE00082E594E0DDD3882319F063ED72E024C02C
:101FF00061ED72E021C0833241F4809156049091EA
:102000005704009709F012C11AC08134C1F462E587
:1020100074E0CE01019658D4CE0101960E940F1DA6
:10202000182FCE0101964BD4111104C11092200338
:1020300010921F0368E572E082E594E016D42091C7
:102040001F033091200380910E032230310551F09F
:10205000823409F041C082E090E0909320038093A5
:102060001F033AC090ED980F9A3018F40E94C91CD3
:1020700033C08A3269F461ED72E082E594E090D376
:10208000882319F063ED72E024C061ED72E021C095
:10209000833241F48091560490915704009709F0DF
:1020A000DFC01AC08234C1F462E574E0CE0101964B
:1020B0000BD4CE0101960E940F1D182FCE01019660
:1020C000FED31111D1C01092200310921F0368E5B6
:1020D00072E082E594E0C9D320911F033091200380
:1020E00080910E032330310551F0833409F041C053
:1020F00083E090E09093200380931F033AC090ED1B
:10210000980F9A3018F40E94C91C33C08A3269F4BF
:1021100061ED72E082E594E043D3882319F063ED2A
:1021200072E024C061ED72E021C0833241F48091FD
:10213000560490915704009709F0ACC01AC083343C
:10214000C1F462E574E0CE010196BED3CE010196E2
:102150000E940F1D182FCE010196B1D311119EC000
:102160001092200310921F0368E572E082E594E06C
:102170007CD380EE94E0DED88CE994E0DBD888E56F
:1021800094E0D8D88091210390912203029709F01E
:102190009BC081E793E00E94BB03892BD9F181E7C3
:1021A00093E00E94990320915003309151038B33A7
:1021B00059F0F901EA5BFC4F80832F5F3F4F30936A
:1021C00051032093500326C02A303105D1F465ED28
:1021D00072E08CE494E049D386E4E82E83E0F82EA4
:1021E00000E010E0B8018CE494E0C8D2F70121913E
:1021F0007F01FC0120830F5F1F4F0A30110591F70B
:1022000005C060EE72E08CE494E02FD3109251038D
:10221000109250036CE474E0CE01019655D3CE01C8
:1022200001966ED3CE0101964AD34EC001970E940B
:10223000FB1C05CF8091560490915704892B49F0DF
:1022400082E594E07FD2AB01BC0180EE94E000D93E
:10225000EDCE40E050E0BA0180EE94E00FD9E6CE3A
:1022600001970E94FB1C38CF80915604909157042F
:10227000892B49F082E594E065D2AB01BC018CE981
:1022800094E0E6D820CF40E050E0BA018CE994E039
:10229000F5D819CF01970E94FB1C6BCF8091560493
:1022A00090915704892B49F082E594E04BD2AB0121
:1022B000BC0188E594E0CCD853CF40E050E0BA01AF
:1022C00088E594E0DBD84CCF26960FB6F894DEBFB5
:1022D0000FBECDBFDF91CF911F910F91FF90EF9077
:1022E000DF90CF900895DB011496ED91FC91159746
:1022F00020E030E065E01994DB011496ED91FC914B
:10230000159720E030E062E01994DB011496ED911E
:10231000FC91159720E030E063E01994CF92DF92B2
:10232000EF92FF920F931F93CF93DF938C017B016A
:102330006A0180E0F601C49181110AC0CF3F09F41F
:1023400047C04C2FB701C801CEDF81113FC045C047
:10235000CF3F11F44FEFF6CFCE3F09F440C0C03F5E
:10236000A8F5C03E30F04C2F4F70B701C801C4DF54
:102370002DC0C03D30F04C2F4F70B701C801C5DFF4
:1023800025C0C03CF0F0D7011496ED91FC91159753
:1023900020E030E040E064E0C8011995C295C07FBC
:1023A000CE5FD0E0CE0139DAD7011496ED91FC91E1
:1023B000159720E030E041E064E0C8011995CE01B6
:1023C00004C0C7FD03C08C2F90E027DA80E001C075
:1023D00081E0BFEFCB1ADB0AADCF80E001C081E026
:1023E000DF91CF911F910F91FF90EF90DF90CF90F1
:1023F00008950E94BA262F923F924F925F926F9259
:102400007F928F929F92AF92BF92CF92DF92EF9284
:10241000FF920F931F93CF93DF9300D01F92CDB7FE
:10242000DEB7FC01448055804114510409F413C106
:10243000FB01648075806114710409F40CC17A0198
:102440006B019C838B83FA01A480B580A618B70822
:10245000FC0100811181A114B104C1F4F601608175
:102460007181C8010E94F6265C01892B09F4F3C032
:10247000F7016081718144815581C5010E94BE26AA
:10248000F701048115810A0D1B1DE8CFB7FE02C0BC
:10249000480106C0FB01208031804201C80148C0CC
:1024A000F60160817181C4010E94F6262C01892BFE
:1024B00029F1320168187908A301B401C8010E940A
:1024C000BE26060D171DF70160817181448155817B
:1024D000C8010E94BE26F70184819581080F191F4B
:1024E000F60184809580840C951CEB81FC818481AD
:1024F00095818A0D9B1D95838483D2CFB401C80139
:102500000F900F900F900F90DF91CF911F910F912F
:10251000FF90EF90DF90CF90BF90AF909F908F9003
:102520007F906F905F904F903F902F900C94E1269A
:10253000B1010E94F626009729F0860D971D8A0C9E
:102540009B1CF6CF8414950409F485C0EB81FC81B3
:10255000828193818815990578F4B4016F5F7F4F6C
:10256000C8010E94D625009709F475C0EB81FC8153
:102570009183808393828282EB81FC810481158127
:102580000150110917FD67C0F60124803580211420
:10259000310409F460C0EB81FC81648075806114B2
:1025A000710409F458C06214730408F454C0061589
:1025B000170518F0830101501109EB81FC8140805F
:1025C0005180C20188248A94982C9201200F311FD7
:1025D0002817390758F0F6016081718129833A8301
:1025E0000E94F62629813A81009761F597FC33C055
:1025F000280C391CC201820D931DA30142195309F5
:10260000BC018A0D9B1D0E94C726EB81FC81848141
:1026100095818A0D9B1D9583848320813181F901E9
:10262000E80FF91F1082EB81FC8180819181F70115
:102630006081718144815581880D991D0E94BE265B
:1026400084019ECFAC01441955090417150708F001
:102650004A010196BDCF0F900F900F900F90DF9120
:10266000CF911F910F91FF90EF90DF90CF90BF908F
:10267000AF909F908F907F906F905F904F903F9022
:102680002F900895FB0144815581FC0124813581FF
:102690002417350778F080819181009759F0FB016C
:1026A000608171816115710529F00E94E82621E0A1
:1026B000892B09F020E0822F0895CF93DF93EC015E
:1026C00088819981009711F00E943E251982188215
:1026D0001D821C821B821A82DF91CF910895CF93B5
:1026E00084EA8093BC0061E080E8AAD8882351F096
:1026F0008091B900887F883039F0803129F061E01D
:1027000082E095D8C0E01BC088E78093BB0084E8D6
:102710008093BC0062E080E893D8882399F380918D
:102720005203C82FC27081FD09C08091B900887F13
:10273000883121F062E082E07AD801C0C1E08C2FBC
:10274000CF910895FC0180819181009711F00C9444
:10275000D92960E070E0CB010895FC012481358126
:102760006217730748F480819181009729F0FC017A
:10277000E60FF71F8081089580E00895FC01248111
:1027800035816217730720F480819181009729F4C5
:102790001092590389E593E00895860F971F0895D5
:1027A000FC0124813581232B31F421E06115710571
:1027B000A1F0FB0108C0FC018081918161157105C8
:1027C00031F421E0FC018081882339F005C00E94AA
:1027D000D82621E0892B09F020E0822F08950F935D
:1027E0001F93CF93DF93EC0188819981009729F0A3
:1027F0002A813B812617370788F48B016F5F7F4F53
:102800000E94D625009761F0998388831B830A83F1
:102810002C813D81232B11F4FC01108281E001C049
:1028200080E0DF91CF911F910F910895EF92FF9279
:102830000F931F93CF93DF93EC017B018A01BA01C1
:10284000CEDF811103C0CE0138DF07C01D830C83AA
:10285000B701888199810E94E126CE01DF91CF9155
:102860001F910F91FF90EF900895CF93DF93EC01AC
:102870006115710551F0FB0101900020E9F73197D6
:10288000AF01461B570BD2DF01C017DFCE01DF912E
:10289000CF910895CF93DF93EC01FB018617970743
:1028A00051F0608171816115710521F0448155817C
:1028B000BDDF01C002DFCE01DF91CF910895FC01A1
:1028C000808191810C943E25FC011182108213823B
:1028D000128215821482DECFFC01118210821382D3
:1028E0001282158214826115710549F0FB01019075
:1028F0000020E9F73197AF01461B570B97CF08959A
:10290000FF920F931F93CF93DF93CDB7DEB76E97F0
:102910000FB6F894DEBF0FBECDBF8C0180915A0375
:10292000811108C068E572E083E593E0D5DF81E0BE
:1029300080935A03F8012481358180915703909147
:1029400058032817390749F5808191816091530315
:1029500070915403009719F061157105C9F4611560
:10296000710559F0232B09F44BC2FB01208130E0A3
:1029700088279927821B930B0DC0009709F440C24A
:10298000232B09F43DC2FC019081892F90E002C005
:102990000E94D826892B09F433C2B801CE0149968A
:1029A00093DF68E572E0CE01019696DF6EED72E08E
:1029B000CE01079691DFAE014F5F5F4FBE01695FA9
:1029C0007F4FCE01499617DDCE01079678DFCE0105
:1029D000019675DFBE01675E7F4FCE01439674DFBF
:1029E0006BEE72E0CE01019677DFBE016F5F7F4F25
:1029F000CE01439647DEF82ECE01019660DFFF2020
:102A000009F43CC0BE016D5E7F4FCE010D965CDFC8
:102A100068E572E0CE0107965FDF6BEE72E0CE01F3
:102A200001965ADFAE01495F5F4FBE016F5F7F4F76
:102A3000CE010D96E0DCCE01019641DFCE01079676
:102A40003EDFBE01635F7F4FCE0101963DDFCE01C9
:102A50000196E5D7F82ECE01019631DFFF2059F01F
:102A6000CE010D966FDE0E941A2AAB01BC0180EEEA
:102A700094E00E943609CE010D9621DF63EF72E0EB
:102A8000CE01019629DFBE016F5F7F4FCE014396D5
:102A9000F9DDF82ECE01019612DFFF2009F43AC0CD
:102AA000BE016D5E7F4FCE010D960EDF68E572E0D0
:102AB000CE01079611DF63EF72E0CE0101960CDFC5
:102AC000AE01495F5F4FBE016F5F7F4FCE010D9634
:102AD00092DCCE010196F3DECE010796F0DEBE0158
:102AE000635F7F4FCE010196EFDECE01019697D74F
:102AF000F82ECE010196E3DEFF2049F0CE010D96BF
:102B000021DEAB01BC0180EE94E00E94280ACE01D8
:102B10000D96D5DE6EEE72E0CE01439641DE811158
:102B20008BC165EF72E0CE0143963ADE811184C11C
:102B3000CE014396C4DEBE01675E7F4FCE01439651
:102B4000C3DE6AEF72E0CE010196C6DEBE016F5FA2
:102B50007F4FCE01439696DDF82ECE010196AFDE73
:102B6000FF2009F43CC0BE016D5E7F4FCE010D9683
:102B7000ABDE68E572E0CE010796AEDE6AEF72E08A
:102B8000CE010196A9DEAE01495F5F4FBE016F5FC6
:102B90007F4FCE010D962FDCCE01019690DECE0147
:102BA00007968DDEBE01635F7F4FCE0101968CDEFE
:102BB000CE01019634D7F82ECE01019680DEFF209B
:102BC00059F0CE010D96BEDD0E941A2AAB01BC0160
:102BD0008CE994E00E943609CE010D9670DE62E029
:102BE00073E0CE01019678DEBE016F5F7F4FCE01AC
:102BF000439648DDF82ECE01019661DEFF2009F4F0
:102C00003AC0BE016D5E7F4FCE010D965DDE68E578
:102C100072E0CE01079660DE62E073E0CE010196BD
:102C20005BDEAE01495F5F4FBE016F5F7F4FCE013C
:102C30000D96E1DBCE01019642DECE0107963FDE26
:102C4000BE01635F7F4FCE0101963EDECE0101964D
:102C5000E6D6F82ECE01019632DEFF2049F0CE01F5
:102C60000D9670DDAB01BC018CE994E00E94280A4E
:102C7000CE010D9624DE6DEF72E0CE01439690DD1D
:102C80008111DEC065EF72E0CE01439689DD8111CE
:102C9000D7C0CE01439613DEBE01675E7F4FCE01E3
:102CA000439612DE64E073E0CE01019615DEBE01AC
:102CB0006F5F7F4FCE014396E5DCF82ECE01019683
:102CC000FEDDFF2009F43CC0BE016D5E7F4FCE01EA
:102CD0000D96FADD68E572E0CE010796FDDD64E051
:102CE00073E0CE010196F8DDAE01495F5F4FBE0192
:102CF0006F5F7F4FCE010D967EDBCE010196DFDD4B
:102D0000CE010796DCDDBE01635F7F4FCE010196E9
:102D1000DBDDCE01019683D6F82ECE010196CFDD04
:102D2000FF2059F0CE010D960DDD0E941A2AAB014D
:102D3000BC0188E594E00E943609CE010D96BFDD06
:102D40006CE073E0CE010196C7DDBE016F5F7F4F7F
:102D5000CE01439697DCF82ECE010196B0DDFF2020
:102D600009F43AC0BE016D5E7F4FCE010D96ACDD19
:102D700068E572E0CE010796AFDD6CE073E0CE014E
:102D80000196AADDAE01495F5F4FBE016F5F7F4FC5
:102D9000CE010D9630DBCE01019691DDCE01079676
:102DA0008EDDBE01635F7F4FCE0101968DDDCE01CA
:102DB000019635D6F82ECE01019681DDFF2049F02F
:102DC000CE010D96BFDCAB01BC0188E594E00E940A
:102DD000280ACE010D9673DD67E073E0CE014396BD
:102DE000DFDC811131C065EF72E0CE014396D8DCA3
:102DF00081112AC0CE01439662DDCE0149965FDD86
:102E0000B80183E593E046DD80EE94E00E949A09E4
:102E10008CE994E00E949A0988E594E00E949A095E
:102E20006E960FB6F894DEBF0FBECDBFDF91CF9187
:102E30001F910F91FF90089580EE94E016D578CE03
:102E40008CE994E012D525CF88E594E00ED5D2CF59
:102E5000CF93DF93DC014770552766277727FA0168
:102E60003197CD91DC911197E730F10530F4882747
:102E7000EE58FF4F8F4F0C942623EC81FD8161E0CB
:102E80001BC0EC81FD8165E017C0EC81FD8164E031
:102E900013C0EC81FD8166E00FC0EC81FD8162E032
:102EA0000BC0EC81FD816AE007C0EC81FD8168E028
:102EB00003C0EC81FD8169E0CD01DF91CF911994D0
:102EC000CF93DF93EC01CB01BA0126E030E040E084
:102ED00050E00E940A23623071058105910559F185
:102EE0008CF46115710581059105F1F06130710572
:102EF00081059105C1F5E881F9810480F581E02D16
:102F000065E02DC0643071058105910511F1D4F0A3
:102F1000653071058105910531F5E881F9810480FD
:102F2000F581E02D66E01BC0E881F9810480F58120
:102F3000E02D64E014C0E881F9810480F581E02D82
:102F400061E00DC0E881F9810480F581E02D63E046
:102F500006C0E881F9810480F581E02D62E0CE01B0
:102F6000DF91CF911994DF91CF9108954370552748
:102F700066277727DC01ED91FC910480F581E02D37
:102F8000423051056105710571F04330510561050D
:102F9000710559F0413051056105710511F065E089
:102FA00005C066E003C06AE001C069E01994CF93F0
:102FB000DF93EC01CB01BA0123E030E040E050E0C8
:102FC0000E940A23613071058105910581F062300C
:102FD00071058105910591F0672B682B692BC1F470
:102FE000E881F9810480F581E02D64E00DC0E8817D
:102FF000F9810480F581E02D61E006C0E881F98166
:103000000480F581E02D62E0CE01DF91CF9119942B
:10301000DF91CF9108954370552766277727DC010C
:10302000ED91FC910480F581E02D42305105610560
:10303000710571F0433051056105710559F041305A
:1030400051056105710511F062E005C063E003C040
:1030500061E001C060E019940F931F93CF93DF9359
:10306000EC01E881F9810480F581E02D8C010D5B94
:103070001F4FD8018C91811102C060E001C062E055
:10308000CE011995E881F9810480F581E02DD80100
:103090008C91811102C061E001C063E0CE011995FD
:1030A000EBA5FCA5E230F10538F0EE0FFF1FEE0FA7
:1030B000FF1F35973197F1F7E881F9810480F58199
:1030C000E02DD8018C91811102C060E001C062E066
:1030D000CE01DF91CF911F910F911994CF93DF9380
:1030E000EC0120E030E0A9016B897C898D899E8903
:1030F0000E944E2418161CF4EFA5F8A902C0E9A9F5
:10310000FAA9DF91CF9119940F931F93DC011296C6
:103110000C91129710E009301105D8F5F8018827B5
:10312000E758FF4F8F4F0C942623ED91FC91119798
:103130000084F185E02D29C0ED91FC911197028466
:10314000F385E02D22C0ED91FC9111970484F58563
:10315000E02D1BC0ED91FC9111970684F785E02DC1
:1031600014C0ED91FC9111970088F189E02D0DC0FC
:10317000ED91FC9111970288F389E02D06C0ED9145
:10318000FC9111970488F589E02DCD011F910F91D5
:1031900019941F910F91089583E593E090CBCF92FE
:1031A000DF92EF92FF920F931F93CF93DF931F92C3
:1031B000CDB7DEB76C01DC01DC961C91DC97DB96A9
:1031C0000C917C01B4E0EB0EF11CDC015996ED9101
:1031D000FC915A97C70169831995482F410F29819E
:1031E000602FC7010E94B50AF60123AD082E000C1E
:1031F000990B820F911D83AF81E090E00F90DF91DA
:10320000CF911F910F91FF90EF90DF90CF90089595
:10321000362F90E0FC01E25DF94F4491FC01E8514A
:10322000FA4F2491FC01EE55FA4F9491992309F439
:103230006BC0442309F455C050E0FA013197E231E4
:10324000F10508F04EC08827EE57FF4F8F4F0C94C2
:103250002623809180008F7707C0809180008F7D2A
:1032600003C080918000877F809380003AC084B53E
:103270008F7702C084B58F7D84BD33C08091B0004C
:103280008F7703C08091B0008F7D8093B00029C0FC
:10329000809190008F7707C0809190008F7D03C050
:1032A00080919000877F809390001BC08091A00048
:1032B0008F7707C08091A0008F7D03C08091A00010
:1032C000877F8093A0000DC0809120018F7707C079
:1032D000809120018F7D03C080912001877F8093A2
:1032E0002001E92FF0E0EE0FFF1FE857FA4FA591FC
:1032F000B4918FB7F894EC91311103C020952E232F
:1033000001C02E2B2C938FBF0895CF92DF92EF92A6
:10331000FF920F931F93CF93DF93FC012281243000
:1033200041F0283031F0233031F0263021F012E026
:1033300003C014E001C013E0EC012796E12CF12C4E
:10334000C62ED12C01E0C6010E2C02C095958795A2
:103350000A94E2F7688180FD6027FE01349780813E
:1033600057DFFFEFEF1AFF0A2196E11660F3DF91B6
:10337000CF911F910F91FF90EF90DF90CF90089524
:10338000CF93DF9390E0FC01E851FA4F2491FC01C8
:10339000EE55FA4F8491882361F190E0880F991FD0
:1033A000FC01E259FA4FC591D491FC01E857FA4F5C
:1033B000A591B491611109C09FB7F89488812095B7
:1033C00082238883EC912E230BC0623061F49FB777
:1033D000F8943881822F809583238883EC912E2B5B
:1033E0002C939FBF06C08FB7F894E8812E2B2883BB
:1033F0008FBFDF91CF910895CF93DF93FC0122819E
:10340000222329F1EC0161E08381BADF61E08C8144
:10341000B7DF8A81843011F0883031F461E08D812A
:10342000AFDF61E08E8106C0833011F0863019F481
:1034300061E08D81A5DF8EA58F3F49F061E0A0DFBF
:103440006DA581E068278EA5DF91CF91E1CEDF9158
:10345000CF910895CF93DF93FC012281222399F02D
:10346000EC010190F081E02D0480F581E02D60E019
:1034700019958EA58F3F39F061E082DF6DA58EA58D
:10348000DF91CF91C5CEDF91CF9108951F920F921A
:103490000FB60F9211242F933F938F939F93AF9367
:1034A000BF938091670390916803A0916903B091E5
:1034B0006A033091660323E0230F2D3720F4019631
:1034C000A11DB11D05C026E8230F0296A11DB11D47
:1034D000209366038093670390936803A093690326
:1034E000B0936A038091620390916303A091640397
:1034F000B09165030196A11DB11D80936203909365
:103500006303A0936403B0936503BF91AF919F9150
:103510008F913F912F910F900FBE0F901F90189594
:10352000CF93DF93DC01FB01828112968C9312977B
:10353000438154816581768113964D935D936D939C
:103540007C931697478150856185728517964D93B8
:103550005D936D937C931A97438554856585768535
:103560001B964D935D936D937C931E974785508971
:10357000618972891F964D935D936D937C935297E9
:10358000438954896589768953964D935D936D93EC
:103590007C9356974789508D618D728D57964D93C8
:1035A0005D936D937C935A97438D548D658D768D85
:1035B0005B964D935D936D937C935E97478D50A181
:1035C00061A172A15F964D935D936D937C939297E9
:1035D00043A154A165A176A193964D935D936D93FC
:1035E0007C93969747A150A561A572A597964D9398
:1035F0005D936D937C939A9783A594A59C969C93D9
:103600008E939B9785A59D968C939D9786A59E9658
:103610008C939E9787A590A9D0969C938E939F9705
:1036200081A992A9D2969C938E93D19743A954A92C
:1036300065A976A9D3964D935D936D937C93D697A8
:1036400047A950AD61AD72ADD7964D935D936D9323
:103650007C93DA9743AD54AD65AD76ADDB964D9373
:103660005D936D937C93DE97EF01EF9648815981CE
:103670006A817B81ED01EF96488359836A837B835E
:10368000ED5BFF4F8081FD01ED5BFF4F8083CD013E
:10369000DF91CF9108951F920F920FB60F921124D0
:1036A0000BB60F922F933F934F935F936F937F933C
:1036B0008F939F93AF93BF93EF93FF9380911503E5
:1036C000909116038093B200809118039091190392
:1036D000A0911A03B0911B030196A11DB11D809307
:1036E000180390931903A0931A03B0931B038091BE
:1036F000180390911903A0911A03B0911B034091F4
:1037000011035091120360911303709114038417F5
:103710009507A607B70710F18091170381111EC006
:1037200081E0809317038091180390911903A09171
:103730001A03B0911B03841B950BA60BB70B809348
:10374000180390931903A0931A03B0931B03E091FD
:103750000F03F0911003199510921703FF91EF9149
:10376000BF91AF919F918F917F916F915F914F9199
:103770003F912F910F900BBE0F900FBE0F901F9097
:1037800018954F925F926F927F928F929F92AF9215
:10379000BF92CF92DF92EF92FF92CF93DF93EC0133
:1037A0006A017B018B8C9C8CAD8CBE8C9A01AB0129
:1037B000C501B4010E94142A882309F447C06BA9EB
:1037C0007CA98DA99EA90E941A2A2B013C01A70160
:1037D0009601C501B401C9D79B01AC01C301B20177
:1037E0000E94792A0E941D246BAB7CAB8DAB9EABF3
:1037F000A701960160E070E080E090E4B6D70E94F7
:10380000562426E53EE04DE25FE30E94792A20E05F
:1038100034E244E759E40E94792A6FAB78AF89AF6C
:103820009AAFCB8EDC8EED8EFE8ECE01DF91CF91E6
:10383000FF90EF90DF90CF90BF90AF909F908F90D0
:103840007F906F905F904F900C94C407DF91CF9161
:10385000FF90EF90DF90CF90BF90AF909F908F90B0
:103860007F906F905F904F9008958F929F92AF924C
:10387000BF92CF92DF92EF92FF92CF93DF93EC0152
:103880008B889C88AD88BE8820E030E0A901C50106
:10389000B4010E94142A882309F43BC0A5019401B5
:1038A000C501B4010E94792A6B017C016B8D7C8D6E
:1038B0008D8D9E8D9B01AC01F4D69B01AC01C7019F
:1038C000B60153D7BAD76B017C012FEFC21AD20AC7
:1038D000E20AF20A20E030E0A901C501B401DED716
:1038E00018161CF4B701A60107C044275527BA01D2
:1038F0004C195D096E097F09CE01DF91CF91FF90D0
:10390000EF90DF90CF90BF90AF909F908F900C94EE
:103910003E0ADF91CF91FF90EF90DF90CF90BF9064
:10392000AF909F908F900895CF92DF92FF920F9368
:103930001F93CF93DF931F921F92CDB7DEB7F82E60
:10394000062FE0912704F091280482E194E0498356
:103950005A831995080F4981C42E5A81D52E10E03B
:10396000F60121916F01222349F0402F6F2D82E152
:1039700094E00E94B50AF80E180FF2CF812F0F9035
:103980000F90DF91CF911F910F91FF90DF90CF901B
:1039900008950F931F93CF93DF931F921F92CDB77C
:1039A000DEB789831A8200915604109157040F5F85
:1039B0001F4FB80182E594E00E94EF138823A1F025
:1039C00020915204309153048091560490915704F1
:1039D000BE016F5F7F4F820F931F0E94E1261093FD
:1039E00057040093560481E00F900F90DF91CF9120
:1039F0001F910F910895209156043091570482171A
:103A0000930760F4909357048093560420915204D6
:103A100030915304F901E80FF91F10820895CF92F5
:103A2000DF92FF920F931F93CF93DF9300D000D0CC
:103A3000CDB7DEB78C0168E572E0CE0101960E9439
:103A40006C1460E070E0C8010E94AD138B3229F164
:103A50008D3219F1B801CE0101960E944A14CD8031
:103A6000DE8000E010E0F12C0C151D0591F0B8018E
:103A7000CE0101960E94AD138E3229F4F1100BC0D5
:103A8000FF24F39403C080538A3028F40F5F1F4F44
:103A9000EBCF11E00DC010E00BC061E070E0C80199
:103AA0000E94BE13BC01CE0101960E943514D7CFEF
:103AB000CE0101960E945F14812F26960FB6F894CE
:103AC000DEBF0FBECDBFDF91CF911F910F91FF9051
:103AD000DF90CF900895CF93DF93CDB7DEB7C45476
:103AE000D1090FB6F894DEBF0FBECDBF789484B570
:103AF000826084BD84B5816084BD85B5826085BDEA
:103B000085B5816085BD80916E00816080936E0077
:103B10001092810080918100826080938100809169
:103B2000810081608093810080918000816080931A
:103B300080008091B10084608093B1008091B000DA
:103B400081608093B00080919100826080939100A9
:103B500080919100816080939100809190008160BC
:103B6000809390008091A10082608093A100809159
:103B7000A10081608093A1008091A000816080936A
:103B8000A000809121018260809321018091210118
:103B900081608093210180912001816080932001C8
:103BA00080917A00846080937A0080917A008260AC
:103BB00080937A0080917A00816080937A0080916E
:103BC0007A00806880937A001092C10069E572E003
:103BD00081E793E00E94A50462E08DE1D1DB62E021
:103BE0008CE1CEDB62E08BE1CBDB62E08AE1C8DB1B
:103BF00061E089E1C5DB61E088E1C2DB61E087E18A
:103C0000BFDB61E086E1BCDB80E280930E036DE602
:103C100072E081E793E00E94A5041C821B8282E48B
:103C200092E09A8389831CAE1DAE1EAE1A86198659
:103C30001C861B861E8681E08D8782E28F871C8A08
:103C40001B8AFE01B896CE01C6962FEF2193E81786
:103C5000F907E1F781E08DA323E635E03B8F2A8F5A
:103C60008C8F1D8E1E8E80E48F8F18A286E195E0CA
:103C70009FAB8EAB88E092E098878F831BAACE0122
:103C800005960E94500A8B819C8190931104809329
:103C9000100487E3FE013596A2E1B4E001900D9295
:103CA0008A95E1F78CAD809349048DAD80934A04E9
:103CB0008EAD80934B048091160490911704885226
:103CC000914009F445C088E291E0909317048093F5
:103CD000160480912904811108C0EDE2F1E0E4911D
:103CE000E0932A04E4E3F1E011C0813041F4E7E31A
:103CF000F1E0E491E0932A04E8E3F1E007C0E5E3B2
:103D0000F1E0E491E0932A04E6E3F1E0E491E0934A
:103D10002B0480912A04082E000C990B20912B046F
:103D2000821B910927FD939520912C04203441F0AA
:103D3000829FC001112436E0969587953A95E1F768
:103D400080932D0483E695E09093280480932704C4
:103D50006FE772E081E793E00E94A50461E088E0EC
:103D60000FDB61E088E054DA61E085E009DB61E0C7
:103D700086E006DB61E087E003DB61E082E000DBF8
:103D800061E083E0FDDA61E084E0FADACC24C394F8
:103D900085E0E82E04E025E042E061E0CE010196F6
:103DA0005C010E946207B50180EE94E0B9DB26E079
:103DB00043E061E0C5010E946207B5018CE994E02F
:103DC000AFDB27E044E061E0C5010E946207B50176
:103DD00088E594E0A5DB88EE93E0909370038093F0
:103DE0006F0390936C0380936B0390936E038093A7
:103DF0006D031092200310921F0368E572E082E5C4
:103E000094E00E94351460916B0370916C03072E4F
:103E1000000C880B990B0E941A2AAB01BC0180EEA2
:103E200094E00E94360960916D0370916E03072E35
:103E3000000C880B990B0E941A2AAB01BC018CE97B
:103E400094E00E94360960916F0370917003072E11
:103E5000000C880B990B0E941A2AAB01BC0188E563
:103E600094E00E94360960916B0370916C03072EF9
:103E7000000C880B990B0E941A2AAB01BC0180EE42
:103E800094E00E94E60660916D0370916E03072E28
:103E9000000C880B990B0E941A2AAB01BC018CE91B
:103EA00094E00E94E60660916F0370917003072E04
:103EB000000C880B990B0E941A2AAB01BC0188E503
:103EC00094E00E94E60640E050E06AE774E480EE89
:103ED00094E057DC40E050E06AE774E48CE994E059
:103EE00050DC40E050E06AE774E488E594E049DCA7
:103EF00040E050E0BA0180EE94E00E94280A40E0E1
:103F000050E0BA018CE994E00E94280A40E050E0B9
:103F1000BA0188E594E00E94280A81E090E0A0E0E0
:103F2000B0E08093110390931203A0931303B09316
:103F3000140386ED9CE09093100380930F0380910F
:103F400070008E7F809370008091B0008C7F809392
:103F5000B0008091B100877F8093B1008091B6005E
:103F60008F7D8093B600809170008D7F809370006C
:103F70008091B10084608093B1008091B1008C7F0A
:103F80008093B10086E090E0909316038093150330
:103F9000109218031092190310921A0310921B0327
:103FA0001092170380911503909116038093B2002D
:103FB00080917000816080937000E0918103F091A6
:103FC000820382E08083E0917D03F0917E03108282
:103FD000E0917F03F09180038FEC8083109289033E
:103FE000E0918503F091860386E08083E09183036E
:103FF000F0918403808180618083E0918303F0915C
:104000008403808188608083E0918303F09184033E
:10401000808180688083E0918303F09184038081B4
:104020008F7D8083442443940AEA12E06E019BE072
:10403000C90ED11C90E2592E2EEC822E22E0922E37
:1040400080914B04811106C040924B0482E194E0C0
:104050000E94500AE0901404F0901504E09143048B
:10406000F091440482E01995E0914304F0914404F6
:1040700081E0199520E030E044E1B70182E194E06D
:104080000E944C0A25E434E047E1B70182E194E064
:104090000E944C0AE0914304F091440480E0199599
:1040A0008091210390912203009719F447E952E08F
:1040B0000AC08130910519F44DE952E004C002971D
:1040C00029F444EA52E06AE08DE22EDC80911F037D
:1040D00090912003009709F045C08091EE048F93E2
:1040E0008091ED048F938091EC048F938091EB0489
:1040F0008F931F930F93BF92AF9292D64EEA52E0E6
:1041000064E182E011DCA50164E181E10DDC8091D4
:10411000AA048F938091A9048F938091A8048F9310
:104120008091A7048F931F930F93BF92AF9278D67D
:1041300041EB52E06EE182E0F7DBA5016EE181E147
:10414000F3DB809166048F93809165048F93809157
:1041500064048F93809163048F931F930F93BF9296
:10416000AF9256C08130910509F062C047EB52E032
:1041700064E182E0D9DBF5015192EC15FD05E1F730
:104180007501B7016A197B09809156049091570413
:104190006817790750F482E594E00E94BE13FC0191
:1041A0008081F70181937F01ECCFA50164E189E172
:1041B000BBDB4BEB52E064E189E1B6DB8091AA0402
:1041C0008F938091A9048F938091A8048F938091FD
:1041D000A7048F931F930F93BF92AF9221D641EB09
:1041E00052E06EE182E0A0DBA5016EE181E19CDBA3
:1041F000809166048F93809165048F93809164040D
:104200008F93809163048F931F930F93BF92AF920C
:1042100007D644EB52E068E282E086DBA50168E263
:1042200081E182DB0FB6F894DEBF0FBECDBFC0C008
:104230008230910509F058C08091EE048F938091EF
:10424000ED048F938091EC048F938091EB048F9316
:104250001F930F93BF92AF92E3D54EEA52E064E111
:1042600082E062DBA50164E181E15EDB46EC52E0C5
:104270006EE182E059DB0FB6F894DEBF0FBECDBF12
:10428000F5015192EC15FD05E1F77501B7016A19C9
:104290007B0980915604909157046817790750F470
:1042A00082E594E00E94BE13FC018081F7018193B6
:1042B0007F01ECCFA5016EE189E136DB4BEB52E0EB
:1042C0006EE189E131DB809166048F938091650412
:1042D0008F93809164048F93809163048F931F93D5
:1042E0000F93BF92AF9294CF039709F061C0809172
:1042F000EE048F938091ED048F938091EC048F9363
:104300008091EB048F931F930F93BF92AF9288D548
:104310004EEA52E064E182E007DBA50164E181E15D
:1043200003DB8091AA048F938091A9048F938091DD
:10433000A8048F938091A7048F931F930F93BF922C
:10434000AF926ED541EB52E06EE182E0EDDAA5016D
:104350006EE181E1E9DA4AEC52E068E282E0E4DA17
:104360000FB6F894DEBF0FBECDBFF5015192EC152C
:10437000FD05E1F77501B7016A197B0980915604C3
:10438000909157046817790750F482E594E00E94F1
:10439000BE13FC018081F70181937F01ECCFA50161
:1043A00068E289E1C1DA4BEB52E068E289E1BCDA0C
:1043B00080911E038F9380911D038F939F928F9204
:1043C000BF92AF922DD5A50162E382E0ADDA35014F
:1043D0000F900F900F900F900F900F90E12CF12CF9
:1043E000B7018CE494E00E94BE13FC018081F301CC
:1043F00081933F01FFEFEF1AFF0A2AE0E216F10472
:1044000079F7A50162E388E28FDAE0912004F09168
:104410002104309719F082E194E01995E09014049A
:10442000F0901504E0914304F091440482E0199562
:10443000E0914304F091440481E0199520E030E0DC
:1044400045E1B70182E194E00E944C0A782E88236E
:1044500041F025E434E047E1B70182E194E00E94B5
:104460004C0AE0914304F091440480E019957110E6
:1044700017CE0E945804E4CD8CE494E00E945F14AF
:1044800082E594E00C945F14CF92EF920F93109218
:1044900074031092730388EE93E0A0E0B0E0809381
:1044A000750390937603A0937703B093780382E328
:1044B00092E0909372038093710385EC90E0909367
:1044C0007E0380937D0384EC90E09093800380933F
:1044D0007F0380EC90E0909382038093810381ECD2
:1044E00090E0909384038093830382EC90E0909318
:1044F00086038093850386EC90E0909388038093F5
:10450000870310928A0310928B0310928C031092EF
:104510008D03CC24C39485E0E82E04E023E042E040
:1045200064E080EE94E00E94620723E042E064E0F1
:104530008CE994E00E94620723E042E064E088E5B1
:1045400094E00E94620768E572E082E594E00E94D0
:104550006C14109211041092100482E492E0909373
:104560000F0480930E041092490410924A04109292
:104570004B04109217041092160410921904109212
:10458000180410921B0481E080931A0482E2809345
:104590001C041092210410922004E5E3F4E09FEF44
:1045A0008EE08E0F91938E13FDCF81E080933204C5
:1045B00023E635E0309328042093270480932904D0
:1045C00010922A0410922B0480E480932C04109201
:1045D0002D0486E195E0909344048093430488E0A1
:1045E00092E090931504809314041092400482E1A9
:1045F00094E00E94500A82E592E090930F04809329
:104600000E0460EE72E08CE494E00F91EF90CF9096
:104610000C946C14052E97FB16F400940FD057FDE4
:1046200005D01CD007FC02D046F408C05095409538
:10463000309521953F4F4F4F5F4F0895909580954E
:10464000709561957F4F8F4F9F4F0895EE0FFF1F1D
:10465000881F8BBF0790F691E02D1994A1E21A2EC6
:10466000AA1BBB1BFD010DC0AA1FBB1FEE1FFF1F16
:10467000A217B307E407F50720F0A21BB30BE40B66
:10468000F50B661F771F881F991F1A9469F76095AD
:104690007095809590959B01AC01BD01CF01089567
:1046A0005058BB27AA270ED09EC78FD730F094D77B
:1046B00020F031F49F3F11F41EF484C70EF4E0950E
:1046C000E7FB7AC7E92FA0D780F3BA176207730711
:1046D0008407950718F071F49EF5B8C70EF4E095BD
:1046E0000B2EBA2FA02D0B01B90190010C01CA01AC
:1046F000A0011124FF27591B99F0593F50F4503E57
:1047000068F11A16F040A22F232F342F4427585F48
:10471000F3CF469537952795A795F0405395C9F760
:104720007EF41F16BA0B620B730B840BBAF0915018
:10473000A1F0FF0FBB1F661F771F881FC2F70EC0B7
:10474000BA0F621F731F841F48F48795779567958A
:10475000B795F7959E3F08F0B3CF9395880F08F073
:104760009927EE0F9795879508950CD03CC734D7BD
:1047700040F02BD730F021F45F3F19F01DC75111E5
:1047800066C720C741D798F39923C9F35523B1F3DE
:10479000951B550BBB27AA2762177307840738F0B0
:1047A0009F5F5F4F220F331F441FAA1FA9F333D00F
:1047B0000E2E3AF0E0E830D091505040E695001CC3
:1047C000CAF729D0FE2F27D0660F771F881FBB1F7F
:1047D000261737074807AB07B0E809F0BB0B802D59
:1047E000BF01FF2793585F4F2AF09E3F510568F0A5
:1047F000E3C62DC75F3FECF3983EDCF386957795D3
:104800006795B795F7959F5FC9F7880F911D9695A6
:10481000879597F90895E1E0660F771F881FBB1F02
:10482000621773078407BA0720F0621B730B840BAF
:10483000BA0BEE1F88F7E095089504D06894B11183
:1048400006C70895E9D688F09F5790F0B92F9927A9
:10485000B751A0F0D1F0660F771F881F991F1AF08B
:10486000BA95C9F712C0B13081F0F0D6B1E0089521
:10487000EDC6672F782F8827B85F39F0B93FCCF3A2
:10488000869577956795B395D9F73EF49095809581
:10489000709561957F4F8F4F9F4F089506D608F40E
:1048A0008FEF089511F40EF48DC63EC0B5D6D0F347
:1048B0009923D9F3CEF39F57550B87FF43D000249C
:1048C000A0E640EA900180585695979528F4805CC0
:1048D000660F771F881F20F026173707480730F428
:1048E000621B730B840B202931294A2BA695179440
:1048F0000794202531254A2758F7660F771F881F10
:1049000020F026173707480730F4620B730B840B2F
:10491000200D311D411DA09581F7B901842F9158BB
:10492000880F9695879508959F3F31F0915020F418
:10493000879577956795B795880F911D969587957B
:1049400097F9089591505040660F771F881FD2F74E
:104950000895CF93DF938230910510F482E090E0C8
:10496000E091A605F091A70520E030E0C0E0D0E09E
:10497000309711F14081518148175907C0F048170D
:10498000590761F482819381209719F09B838A8370
:104990002BC09093A7058093A60526C0211531054D
:1049A00019F04217530718F49A01BE01DF01EF0115
:1049B0000280F381E02DDCCF2115310509F1281BA0
:1049C000390B2430310590F412968D919C911397F8
:1049D0006115710521F0FB019383828304C09093DC
:1049E000A7058093A605FD01329644C0FD01E20FA4
:1049F000F31F81939193225031092D933C933AC038
:104A00002091A4053091A505232B41F4209110029B
:104A1000309111023093A5052093A40520910E0238
:104A200030910F022115310541F42DB73EB7409169
:104A3000120250911302241B350BE091A405F09152
:104A4000A505E217F307A0F42E1B3F0B2817390723
:104A500078F0AC014E5F5F4F2417350748F04E0FDA
:104A60005F1F5093A5054093A4058193919302C0C5
:104A7000E0E0F0E0CF01DF91CF9108950F931F9315
:104A8000CF93DF93009709F48CC0FC013297138217
:104A900012820091A6051091A7050115110581F458
:104AA00020813181820F931F2091A4053091A505AB
:104AB0002817390779F5F093A505E093A40571C08F
:104AC000D80140E050E0AE17BF0750F412962D9188
:104AD0003C911397AD012115310509F1D901F3CFAF
:104AE0009D01DA013383228360817181860F971FD4
:104AF0008217930769F4EC0128813981260F371F4B
:104B00002E5F3F4F318320838A819B8193838283F1
:104B1000452B29F4F093A705E093A60542C0139610
:104B2000FC93EE931297ED01499159919E01240F48
:104B3000351FE217F30771F480819181840F951F6F
:104B4000029611969C938E938281938113969C93E7
:104B50008E931297E0E0F0E0D80112968D919C912F
:104B60001397009719F0F8018C01F6CF8D919C9165
:104B700098012E5F3F4F820F931F2091A405309123
:104B8000A5052817390769F4309729F41092A7056D
:104B90001092A60502C0138212821093A5050093FD
:104BA000A405DF91CF911F910F9108956F927F928D
:104BB0008F929F92AF92BF92CF92DF92EF92FF922D
:104BC0000F931F93CF93DF93EC01009781F4CB01F8
:104BD000DF91CF911F910F91FF90EF90DF90CF90D9
:104BE000BF90AF909F908F907F906F90B2CEFC015E
:104BF000E60FF71F9C0122503109E217F30708F472
:104C0000A8C0D9010D911C91119706171707A8F09C
:104C10000530110508F49BC0C80104978617970753
:104C200008F495C002501109061B170B019311934C
:104C30006D937C93CF0122DF8AC05B01A01AB10A79
:104C40004C01800E911EA091A605B091A70540E0F1
:104C500050E0E12CF12C109709F44AC0A815B905D1
:104C6000D1F56D907C901197630182E0C80ED11C44
:104C7000CA14DB0480F1A3014A195B096A0182E0CE
:104C8000C80ED11C1296BC9012971396AC91B5E049
:104C9000CB16D10440F0B282A38351834083D90163
:104CA0006D937C930AC00E5F1F4FC301800F911F4D
:104CB000F90191838083EB2DFA2FE114F10431F097
:104CC000D7011396FC93EE93129741C0F093A7057A
:104CD000E093A6053CC08D919C9111974817590708
:104CE00008F4AC017D0112960D90BC91A02DB3CFBC
:104CF0008091A4059091A50588159905E1F44617C2
:104D00005707C8F480910E0290910F02009741F46A
:104D10008DB79EB74091120250911302841B950BE0
:104D2000E817F907B0F4F093A505E093A405F9019D
:104D3000718360830CC0CB010CDE7C01009749F0CD
:104D4000A801BE011BD0CE0199DEC70104C0CE016F
:104D500002C080E090E0DF91CF911F910F91FF9012
:104D6000EF90DF90CF90BF90AF909F908F907F900B
:104D70006F90089581E090E0F8946FC4FB01DC012E
:104D800002C001900D9241505040D8F70895681725
:104D9000790768F4FB01DC01E40FF51FA40FB51FD0
:104DA00002C002900E9241505040D8F70895E6CFCD
:104DB000FB01DC018D91019080190110D9F3990B51
:104DC0000895FB01DC0101900D920020E1F70895A8
:104DD000FB01DC014150504030F08D910190801971
:104DE00019F40020B9F7881B990B0895FB01519124
:104DF0005523A9F0BF01DC014D9145174111E1F7A1
:104E000059F4CD010190002049F04D914015411118
:104E1000C9F3FB014111EFCF81E090E001970895C4
:104E20000F931F93CF93DF93CDB7DEB72E970FB6B7
:104E3000F894DEBF0FBECDBF0E891F8986E08C833C
:104E40001A8309838FEF9FE79E838D83AE01465EB1
:104E50005F4F688D798DCE01019611D02F813885F5
:104E6000F801E20FF31F10822E960FB6F894DEBF02
:104E70000FBECDBFDF91CF911F910F9108952F925B
:104E80003F924F925F926F927F928F929F92AF92DA
:104E9000BF92CF92DF92EF92FF920F931F93CF9327
:104EA000DF93CDB7DEB72C970FB6F894DEBF0FBEF9
:104EB000CDBF7C016B018A01FC01178216828381C0
:104EC00081FFB0C1CE0101964C01F7019381F6013B
:104ED00093FD859193FF81916F01882309F49EC111
:104EE000853239F493FD859193FF81916F0185326D
:104EF00021F4B70190E0C7D1E8CF512C312C20E04C
:104F00002032A0F48B3269F030F4803259F08332D1
:104F100069F420612CC08D3239F0803339F421607E
:104F200026C02260246023C0286021C027FD27C03E
:104F300030ED380F3A3078F426FF06C0FAE05F9E75
:104F4000300D1124532E13C08AE0389E300D1124E9
:104F5000332E20620CC08E3221F426FD5FC1206406
:104F600006C08C3611F4206802C0883641F4F60180
:104F700093FD859193FF81916F018111C1CF982F8E
:104F80009F7D9554933028F40C5F1F4FFFE3F98306
:104F90000DC0833631F0833771F0833509F057C087
:104FA00021C0F801808189830E5F1F4F4424439400
:104FB000512C540114C03801F2E06F0E711CF8013D
:104FC000A080B18026FF03C0652D70E002C06FEFA6
:104FD0007FEFC5012C874CD12C0183012C852F77C5
:104FE000222E16C03801F2E06F0E711CF801A0806D
:104FF000B18026FF03C0652D70E002C06FEF7FEF28
:10500000C5012C872AD12C012C852068222E8301F2
:1050100023FC19C0832D90E048165906A0F4B7016F
:1050200080E290E030D13A94F5CFF50127FC8591EC
:1050300027FE81915F01B70190E025D131103A94AC
:10504000F1E04F1A51084114510479F7DEC084365B
:1050500011F0893631F5F80127FF07C060817181B1
:10506000828193810C5F1F4F08C060817181072E80
:10507000000C880B990B0E5F1F4F2F76722E97FF37
:1050800009C090958095709561957F4F8F4F9F4F88
:105090002068722E2AE030E0A4012DD1A82EA81895
:1050A00043C0853729F42F7EB22E2AE030E025C098
:1050B000F22FF97FBF2E8F36C1F018F4883579F0C2
:1050C000ADC0803719F0883721F0A8C02F2F20619C
:1050D000B22EB4FE0DC08B2D8460B82E09C024FF03
:1050E0000AC09F2F9660B92E06C028E030E005C0A8
:1050F00020E130E002C020E132E0F801B7FE07C055
:1051000060817181828193810C5F1F4F06C0608135
:10511000718180E090E00E5F1F4FA401ECD0A82EBB
:10512000A818FB2DFF777F2E76FE0BC0372D3E7F14
:10513000A51450F474FE0AC072FC08C0372D3E7EE0
:1051400005C0BA2C372D03C0BA2C01C0B52C34FFD2
:105150000DC0FE01EA0DF11D8081803311F4397E0E
:1051600009C032FF06C0B394B39404C0832F86787D
:1051700009F0B39433FD12C030FF06C05A2CB314AB
:1051800018F4530C5B18B32CB31460F4B70180E22D
:1051900090E03C8778D0B3943C85F6CFB31410F4FC
:1051A0003B1801C0312C34FF11C0B70180E390E0FF
:1051B0003C8769D03C8532FF16C031FD03C088E7CB
:1051C00090E002C088E590E0B7010CC0832F86789C
:1051D00051F031FF02C08BE201C080E237FD8DE269
:1051E000B70190E050D0A51430F4B70180E390E00F
:1051F0004AD05A94F8CFAA94F401EA0DF11D8081A7
:10520000B70190E040D0A110F6CF332009F45DCE75
:10521000B70180E290E037D03A94F7CFF70186816A
:10522000978102C08FEF9FEF2C960FB6F894DEBFE8
:105230000FBECDBFDF91CF911F910F91FF90EF90E7
:10524000DF90CF90BF90AF909F908F907F906F90A6
:105250005F904F903F902F900895FC010590615012
:1052600070400110D8F7809590958E0F9F1F08957C
:10527000FC016150704001900110D8F78095909525
:105280008E0F9F1F08950F931F93CF93DF93FB0102
:10529000238121FD03C08FEF9FEF28C022FF16C09E
:1052A00046815781248135814217530744F4A081F8
:1052B000B1819D012F5F3F4F318320838C932681E5
:1052C00037812F5F3F4F3783268310C0EB01092FB3
:1052D000182F0084F185E02D1995892BE1F68E8138
:1052E0009F8101969F838E83812F902FDF91CF9195
:1052F0001F910F910895FA01AA27283051F120310A
:1053000081F1E8946F936E7F6E5F7F4F8F4F9F4F59
:10531000AF4FB1E03ED0B4E03CD0670F781F891F9B
:105320009A1FA11D680F791F8A1F911DA11D6A0F69
:10533000711D811D911DA11D20D009F468943F911C
:105340002AE0269F11243019305D3193DEF6CF011B
:105350000895462F4770405D4193B3E00FD0C9F7E1
:10536000F6CF462F4F70405D4A3318F0495D31FD4E
:105370004052419302D0A9F7EACFB4E0A6959795A1
:10538000879577956795BA95C9F700976105710577
:1053900008959B01AC010A2E0694579547953795C1
:1053A0002795BA95C9F7620F731F841F951FA01D1B
:1053B00008951F93FC0199278827BC01E894119157
:1053C0001032E9F3193010F01E30C8F31B3249F0E7
:1053D0001D3241F4689405C012D0610F711D811D0A
:1053E000911D119110531A30B8F33EF490958095A9
:1053F000709561957F4F8F4F9F4F1F910895592F43
:10540000482F372F262F660F771F881F991F660F8B
:10541000771F881F991F620F731F841F951F660FC8
:10542000771F881F991F089540D008F481E00895E0
:10543000E89409C097FB3EF490958095709561952E
:105440007F4F8F4F9F4F9923A9F0F92F96E9BB27E4
:105450009395F695879577956795B795F111F8CF60
:10546000FAF4BB0F11F460FF1BC06F5F7F4F8F4FCB
:105470009F4F16C0882311F096E911C0772321F0C1
:105480009EE8872F762F05C0662371F096E8862F59
:1054900070E060E02AF09A95660F771F881FDAF7B0
:1054A000880F9695879597F90895990F0008550FDD
:1054B000AA0BE0E8FEEF16161706E807F907C0F09A
:1054C00012161306E407F50798F0621B730B840BA2
:1054D000950B39F40A2661F0232B242B252B21F47C
:1054E00008950A2609F4A140A6958FEF811D811D1C
:1054F00008950BD078C069D028F06ED018F09523AD
:1055000009F05AC05FC01124A2C07ED0A0F3959FBD
:10551000D1F3950F50E0551F629FF001729FBB279A
:10552000F00DB11D639FAA27F00DB11DAA1F649F46
:105530006627B00DA11D661F829F2227B00DA11DF9
:10554000621F739FB00DA11D621F839FA00D611D7F
:10555000221F749F3327A00D611D231F849F600DA0
:10556000211D822F762F6A2F11249F5750408AF0D9
:10557000E1F088234AF0EE0FFF1FBB1F661F771F65
:10558000881F91505040A9F79E3F510570F014C0FC
:105590005EC05F3FECF3983EDCF3869577956795A8
:1055A000B795F795E7959F5FC1F7FE2B880F911D83
:1055B0009695879597F9089597F99F6780E870E029
:1055C00060E008959FEF80EC089500240A94161679
:1055D000170618060906089500240A9412161306E1
:1055E000140605060895092E0394000C11F488236F
:1055F00052F0BB0F40F4BF2B11F460FF04C06F5F8B
:105600007F4F8F4F9F4F089557FD9058440F551F60
:1056100059F05F3F71F04795880F97FB991F61F034
:105620009F3F79F087950895121613061406551FAB
:10563000F2CF4695F1DF08C0161617061806991F17
:10564000F1CF86957105610508940895E894BB270C
:1056500066277727CB0197F9089513E0CBE3D3E0D2
:1056600000E006C0802FFE010E9426232196011D26
:0E567000CC33D10780E00807A9F7F894FFCFEC
:10567E0008400000008024059A050002850C0000F9
:10568E00A8058000000000002A1AFC19851984184C
:10569E006E182C180B18D717B6176017281700009E
:1056AE000000F1036E03BB039903AD033704000042
:1056BE000000CF186E0300000000F9116E03000009
:1056CE000000CF186E030D0A004B657970616443BC
:1056DE006C6173733A3A696E69742829004F4C45B0
:1056EE0044436C6173733A3A696E697428290053A6
:1056FE00746570705F6D6F746F72436C6173732E2F
:10570E00696E6974282900534C454550004D41532C
:10571E0054455200534C41564500256C6400583A8E
:10572E0000593A005A3A00582D3E005F5F5F5F5FA6
:10573E005F5F5F5F5F00592D3E005A2D3E0025646E
:10574E00002D002B002020202020202020202000B3
:10575E006E6F20636F6D6D616E64005678005354EA
:10576E004F505F580053544F500056790053544FCA
:0E577E00505F5900567A0053544F505F5A0046
:020000023000CC
:10E000000D9489F10D94B2F10D94B2F10D94B2F129
:10E010000D94B2F10D94B2F10D94B2F10D94B2F1F0
:10E020000D94B2F10D94B2F10D94B2F10D94B2F1E0
:10E030000D94B2F10D94B2F10D94B2F10D94B2F1D0
:10E040000D94B2F10D94B2F10D94B2F10D94B2F1C0
:10E050000D94B2F10D94B2F10D94B2F10D94B2F1B0
:10E060000D94B2F10D94B2F10D94B2F10D94B2F1A0
:10E070000D94B2F10D94B2F10D94B2F10D94B2F190
:10E080000D94B2F10D94B2F10D94B2F10D94B2F180
:10E090000D94B2F10D94B2F10D94B2F10D94B2F170
:10E0A0000D94B2F10D94B2F10D94B2F10D94B2F160
:10E0B0000D94B2F10D94B2F10D94B2F10D94B2F150
:10E0C0000D94B2F10D94B2F10D94B2F10D94B2F140
:10E0D0000D94B2F10D94B2F10D94B2F10D94B2F130
:10E0E0000D94B2F141546D656761323536300041AF
:10E0F000726475696E6F206578706C6F72657220DE
:10E1000073746B3530305632206279204D4C530099
:10E11000426F6F746C6F616465723E004875683F52
:10E1200000436F6D70696C6564206F6E203D200048
:10E130004350552054797065202020203D20005FF9
:10E140005F4156525F415243485F5F3D2000415658
:10E1500052204C696243205665723D20004743437C
:10E160002056657273696F6E203D20004350552024
:10E1700049442020202020203D20004C6F7720663D
:10E18000757365202020203D20004869676820665F
:10E190007573652020203D200045787420667573D6
:10E1A00065202020203D20004C6F636B2066757336
:10E1B000652020203D20004D617220203720323024
:10E1C000313300312E362E3800342E332E350056A2
:10E1D00023202020414444522020206F7020636F70
:10E1E00064652020202020696E73747275637469E1
:10E1F0006F6E2061646472202020496E74657272B3
:10E20000757074006E6F20766563746F7200726A49
:10E210006D702020006A6D70200057686174207056
:10E220006F72743A00506F7274206E6F7420737541
:10E2300070706F72746564004D7573742062652030
:10E2400061206C6574746572002000577269747483
:10E25000696E672045450052656164696E672045B7
:10E26000450045452065727220636E743D00504F35
:10E27000525400303D5A65726F2061646472003FF1
:10E280003D43505520737461747300403D454550C3
:10E29000524F4D207465737400423D426C696E6B41
:10E2A000204C454400453D44756D70204545505215
:10E2B0004F4D00463D44756D7020464C415348001B
:10E2C000483D48656C70004C3D4C69737420492F83
:10E2D0004F20506F72747300513D51756974005234
:10E2E0003D44756D702052414D00563D73686F7707
:10E2F00020696E7465727275707420566563746FF0
:10E30000727300593D506F727420626C696E6B00BD
:10E310002A0011241FBECFEFD1E2DEBFCDBF01E046
:10E320000CBF12E0A0E0B2E0EEE1FDEF03E00BBFB6
:10E3300002C007900D92A030B107D9F712E0A0E01B
:10E34000B2E001C01D92AE30B107E1F70F9460F367
