:1000000069C3000098C3000096C3000094C30000B9
:1000100092C3000090C300008EC300008CC3000098
:100020008AC3000088C3000086C3000084C30000A8
:1000300082C3000080C300007EC300000C94660FE2
:100040007AC3000078C3000076C3000074C30000C8
:1000500072C3000070C300006EC300000C941C0F3C
:100060006AC300000C94CE0B0C94A50B64C3000073
:1000700062C3000060C300005EC300005CC30000F8
:100080005AC3000058C3000056C3000054C3000008
:1000900052C3000050C300004EC300004CC3000018
:1000A0004AC3000048C3000046C3000044C3000028
:1000B00042C3000040C300003EC300003CC3000038
:1000C0003AC3000038C3000036C3000034C3000048
:1000D00032C3000030C300002EC300002CC3000058
:1000E0002AC30000E004E404E404E404E404E404B7
:1000F000E404DB04E404E404E404E404E404C204EB
:1001000095049A049F04A404A904AE04B304B8049B
:10011000BD04E404E404E404E404E404E404E404C6
:10012000C704CC04D104D6041F0C220C110C150CEE
:100130001B0C590C260C2A0C300C340C380C3E0CC1
:10014000420C460C590C4C0C500C540C9A0C9E0C46
:10015000A20CA60CAA0CAE0CB20CEE0DF50DFC0D0B
:10016000030E0A0E220E110E220E180EFFE0FFD112
:10017000AFFF32FFD0FFFEFFE0FFD1AEFFD0FFFEAA
:10018000FFE0FFD11000FFFEFFD0FFE0FFC1FFD175
:10019000AED580A83FD300408D142000A1C8DA124C
:1001A00081CFD9F1DB402EA4A6AFFFD0FFFE01081E
:1001B0000D00FE09016102CD207FFE0BFE09FE0D40
:1001C0000080321989808080808080800080284370
:1001D000839090901367874848FC48FC4848125920
:1001E000892078A0A0702828F02012698944A448AA
:1001F000101020485488126787609090609488742B
:10020000381383808080323989204040808080404C
:1002100040202239898040402020204040801665BF
:10022000854830FC30481455852020F820201143A3
:1002300083706080165181F821338340E040027959
:1002400089020204081020408080126989304884A5
:100250008484848448301259892060A02020202082
:1002600020F81269897884840408304080FC12697F
:1002700089FC040810380404847812698908182855
:10028000488888FC0808126989FC8080B8C4040486
:10029000847812698938408080B8C484847812696F
:1002A00089FC040810102020404012698978848459
:1002B0008478848484781269897884848C740404B2
:1002C000087021388840E040000040E04011488834
:1002D0002070200000706080225989081020408022
:1002E00040201008146484FC0000FC1259898040EE
:1002F0002010081020408012698978848404081036
:100300001000101269897884849CA4AC94807812BF
:1003100069893048848484FC848484126989F088E3
:100320008488F0888488F01269897884808080804D
:10033000808478126989F088848484848488F012A7
:100340006989FC808080F0808080FC126989FC8053
:100350008080F08080808012698978848080809C91
:10036000848C7412698984848484FC8484848412D7
:100370005989F820202020202020F81279893E0871
:1003800008080808088870126989848890A0C0A0AD
:100390009088841269898080808080808080FC02BF
:1003A00079898282C6AA9292828282126989848421
:1003B000C4A4948C84848412698978848484848419
:1003C000848478126989F8848484F880808080111C
:1003D0006A8A788484848484A4947804126989F86D
:1003E000848484F8A09088841269897884808078D5
:1003F00004048478027989FE101010101010101077
:1004000012698984848484848484847802798982CA
:100410008244444428282810027989828282829268
:100420009292AA44027989828244281028448282C6
:10043000027989828244281010101010126989FCF8
:1004400004081020408080FC224989F08080808050
:10045000808080F0027989808040201008040202A8
:10046000124989F010101010101010F0185383204A
:100470005088017181FE3A2282804012668678049B
:100480007C848C74126989808080B8C48484C4B8E8
:1004900012668678848080847812698904040474E2
:1004A0008C84848C741266867884FC8084781269CB
:1004B0008938444040F8404040401068887488883B
:1004C0007080788478126989808080B8C48484843C
:1004D0008412588820006020202020F8105A8A08B2
:1004E0000018080808088888701269898080808848
:1004F00090E09088841259896020202020202020BC
:10050000F8027686EC9292929282126686B8C48441
:10051000848484126686788484848478106888B899
:10052000C484C4B8808080106888748C848C7404FF
:100530000404126686B844404040401266867884BF
:10054000601884781268884040F84040404438126F
:10055000668688888888887412568688888850506D
:100560002002768682829292AA441266868448305D
:100570003048841068888484848C7404847812667B
:1005800086FC08102040FC22598938404020C020B9
:10059000404038321989808080808080808080123D
:1005A0005989E010102018201010E018538348A833
:1005B00090FF000020002300260029002C002F00BF
:1005C00032000001000003010601090100002100C2
:1005D000240027002A002D00300033000101000014
:1005E000040107010A0100002200250028002B0059
:1005F0002E003100340002010000050108010B014A
:1006000005050505070508080808020202020A0A8E
:1006100008080404040401010101010101010303AC
:10062000030303030303040707070C0C0C0C0C0C57
:100630000C0C0202020206060606060606060B0B54
:100640000B0B0B0B0B0B0102102020080810204095
:100650001020408002010201080402010102040886
:100660001020408080402010080402018004020114
:10067000804020100804020108040201010204085D
:1006800010204080010204081020408000000A0B66
:1006900002090C0D0E080703040100000000000011
:1006A000000000000000000000000000000000004A
:1006B0000000000000000000121110000000000007
:1006C000000000000000000000000000000000002A
:1006D0000000C41111241FBECFEFD1E2DEBFCDBF99
:1006E00000E00CBF12E0A0E0B2E0E6EBF7E300E0D0
:1006F0000BBF02C007900D92A037B107D9F724E0D5
:10070000A0E7B2E001C01D92A73BB207E1F713E0FA
:10071000CAE6D3E000E006C021970109802FFE0160
:100720000E949216C936D10780E00807A9F70E94F7
:1007300041130C94D91B64CCFC0180819281980FE9
:1007400092832181921760F494819F5F94839381B7
:10075000890F821710F08FEF820F838381E0089555
:1007600080E00895FC01128280818150838314828D
:10077000089580E008950B96FC01849108950A96EF
:10078000FC0184910895FC0184910895FCDF882385
:1007900021F0823011F083E0089586E00895FC0195
:1007A000E60FF11D849190E0982F88273196E4910F
:1007B0008E0F911D089568E0F2CF66E0F0CF2EE92C
:1007C0003FE0009729F0F9013197F1F70197F9CF50
:1007D00008951092910210929002089580939F02C2
:1007E0001092B90084FF02C08CE001C088E48093BD
:1007F000B800EFCFDB011496ED91FC91159720E046
:1008000030E065E01994DB011496ED91FC911597A9
:1008100020E030E062E01994DB011496ED91FC9148
:10082000159720E030E063E01994CF92DF92EF92C9
:10083000FF920F931F93CF93DF938C017B016A018B
:1008400080E0F601C49181110AC0CF3F09F447C08E
:100850004C2FB701C801CEDF81113FC045C0CF3F4B
:1008600011F44FEFF6CFCE3F09F440C0C03FA8F5DA
:10087000C03E30F04C2F4F70B701C801C4DF2DC00F
:10088000C03D30F04C2F4F70B701C801C5DF25C007
:10089000C03CF0F0D7011496ED91FC91159720E043
:1008A00030E040E064E0C8011995C295C07FCE5F9A
:1008B000D0E0CE0184DFD7011496ED91FC9115971D
:1008C00020E030E041E064E0C8011995CE0104C0A9
:1008D000C7FD03C08C2F90E072DF80E001C081E093
:1008E000BFEFCB1ADB0AADCF80E001C081E0DF9122
:1008F000CF911F910F91FF90EF90DF90CF900895CF
:100900002091030330910403082E000C990BAA0BCD
:10091000BB0BFC01B397E232F10508F055C0882704
:10092000EE58FF4F8F4F0C94921630938F02209306
:100930008E02089530938D0220938C020895309397
:100940008B0220938A0208953093890220938802B3
:10095000089530938702209386020895309385028C
:100960002093840208953093830220938202089595
:100970003093810220938002089530937F02209368
:100980007E02089530937D0220937C020895309377
:100990007B0220937A0208953093790220937802A3
:1009A000089530937702209376020895309375026C
:1009B0002093740208953093730220937202089575
:1009C000309371022093700208958F929F92AF929C
:1009D000BF92CF92DF92FF920F931F93CF93DF933B
:1009E0001F921F92CDB7DEB76C018B01F42E490127
:1009F00020E1421709F45DC02417D8F03AE043170C
:100A000001F18FE048135EC041E0C60105DF40E020
:100A1000B801C601F8DE41E8B801C601EBDEF40119
:100A20004081B801C601E6DE40E0B801C601F4DE4F
:100A300000C1A1E14A1709F43FC0B5E14B1789F0A5
:100A400041C0DB011496ED91FC91159720E030E058
:100A500042E061E0199548E851E0B801C601E5DEE1
:100A600031C0FB01A280B38040E851E0DEDED50159
:100A700014964C91406BB801C601BCDE41E0B80150
:100A8000C601C1DEF50126813781D8011496ED91AA
:100A9000FC911597D50115964C9166E0C601199504
:100AA000811102C080E0C6C040E0B801C601B4DEDA
:100AB00009C047E751E002C04CE651E0B801C60169
:100AC000B4DEB7C0D80112960D911C911397B2E312
:100AD000FB1609F474C0BF15B8F0E5E1FE1609F481
:100AE0007AC0F7E1FF1609F48BC024E1F212A1C02D
:100AF000D8011696ED91FC91179715968C919F0150
:100B0000280F311DC90160C036E4F31609F488C00E
:100B100087E4F81609F488C0ABE3FA128AC0F4013E
:100B200081819381913029F0933031F4482F88509E
:100B300004C048E0480F01C0482F21E0D8011396B7
:100B40003C91381708F420E031E0F8015281451754
:100B500008F430E051E0481708F050E0822F852B70
:100B6000382319F4252309F464C0D4011296FC90AB
:100B7000913051F030F0923049F0933051F42FEF32
:100B800009C020E031E007C021E004C020E03FEFD1
:100B900002C020E030E0F7FE08C0B401C8012A839B
:100BA00039830E94AE1139812A81F4018081830F3B
:100BB00080838181820F8183FF0C69F73AC0B40181
:100BC000C8010E94AE1135C01192E817F907E1F78C
:100BD000C801C8DD2EC0C801AFDD882309F462CF8B
:100BE000D8011696ED91FC91179715968C919F015F
:100BF000280F311DC9011192E817F907E1F719C053
:100C0000D4011C92F801828111968C9311978581F1
:100C1000815012968C931297838113968C9309C0FE
:100C2000D80115968C9103C0D80111968C91F401CE
:100C3000808381E00F900F90DF91CF911F910F91F2
:100C4000FF90DF90CF90BF90AF909F908F900895CE
:100C5000CF92DF92EF92FF922DD58091AF029091CB
:100C6000B002A091B102B091B2024091AB0250919A
:100C7000AC026091AD027091AE0284179507A60791
:100C8000B707C1F444275527BA01481B590B6A0B13
:100C90007B0B84179507A607B70761F04093AF0257
:100CA0005093B0026093B1027093B20280EA92E076
:100CB0000E94DC0F8091C3029091C402A091C502F2
:100CC000B091C602892B8A2B8B2B09F473C03FB7D6
:100CD000F8948091AE049091AF04A091B004B091CB
:100CE000B10426B5A89B05C02F3F19F00196A11DA0
:100CF000B11D3FBFCC24D82EE92EFA2EC20ED11C36
:100D0000E11CF11C42E0CC0CDD1CEE1CFF1C4A95E2
:100D1000D1F78091C7029091C802A091C902B09109
:100D2000CA02B701A601481B590B6A0B7B0B8091C5
:100D3000C3029091C402A091C502B091C6024817A7
:100D400059076A077B07B0F12091E3028091AB025B
:100D50009091AC02A091AD02B091AE02222321F09D
:100D60000196A11DB11D03C00197A109B10980938E
:100D7000AB029093AC02A093AD02B093AE0240914F
:100D8000AB025091AC026091AD027091AE0280EA6C
:100D900092E013D7C092C702D092C802E092C90273
:100DA000F092CA0280EA92E0FF90EF90DF90CF903D
:100DB0000C94DC0FFF90EF90DF90CF900895DC0152
:100DC0001696ED91FC91179712968C91481B4770DF
:100DD00081E090E001C0880F4A95EAF7E60FF11D27
:100DE0003081222311F0832B02C0809583238083DE
:100DF0000895DB01ED91FC911994EF92FF920F930E
:100E00001F93CF93DF931F92CDB7DEB78C01DC0128
:100E10001296ED90FC901397D196ED91FC91D2979C
:100E200082E0199520E030E04AE0B701C801E1DF37
:100E3000F82ED801D196ED91FC91D29783E01995C7
:100E4000D801D196ED91FC91D29780E01995FF20C1
:100E500081F1F801628173819E012F5F3F4F46E46B
:100E6000C801C7DF8981D8018C9312966D917C915E
:100E700013979E012F5F3F4F47E4C801BADF898176
:100E8000F80181836281738120E030E048E4C80189
:100E9000B0DFD8011B968C931B9798012D5C3F4FB8
:100EA00012966D917C91139747E1C801A2DF81E012
:100EB00001C080E00F90DF91CF911F910F91FF90C3
:100EC000EF9008954F925F926F927F928F929F92D0
:100ED000AF92BF92CF92DF92EF92FF920F931F9348
:100EE000CF93DF931F92CDB7DEB72C01E62EF42E01
:100EF000C22EDC0114960D911C911597C80143DC9C
:100F0000D82EF2018481958141DC982EF1E0DF1228
:100F100003C02FE0A22E02C0AA24AA94D2011496E4
:100F20008D919C9115972BDCD82EF20184819581AF
:100F300022DCB82ED20114968D919C9115973BDC42
:100F4000B0E6BC1538F4009729F0080F191F91E698
:100F5000D92E10C0F201848195812FDCF0E4FC15BC
:100F600038F4009729F0080F191F81E4D82E02C029
:100F70000F5E1F4FBC1480F4D20150961C92509704
:100F800053961C92539754961C92549751961C92C8
:100F9000519752961C929EC0BD1470F3892D90E01B
:100FA000F80124912F3F19F40F5F1F4F59C0DC1037
:100FB0004EC0D20114968D919C911597E4DB980157
:100FC0002F5F3F4FF801882311F08230E1F48491C4
:100FD000D20153968C935397F901249154962C93F4
:100FE0005497F8013396E4915096EC935097F8019A
:100FF0003496E4915196EC935197F8013596E4912B
:101000005296EC9320C08491982F9F709250D201F9
:1010100052969C93529782958F7051968C935197CC
:10102000F9012491822F8F7054968C9354972295B6
:101030002F7053962C935397F8013296E491E295D2
:10104000EF705096EC930115110579F443C0F80147
:101050003296E491EA219C012E0F311D020F131FDD
:10106000DB1409F489CFD3949BCFF201848195815D
:101070008DDBD20153963C91539754962C91549703
:1010800051965C91519752969C915297920FF91AF2
:101090009FEF920F9F0DD4964C91D497D6966C915A
:1010A0006F1518F0941728F402C0941780F09F155C
:1010B00070F4E50E9FEF930F9E0DD201D3964C91E5
:1010C000D397D5965C915E1538F4941738F4F201F5
:1010D00080893EC080E03CC0941710F49E15B8F79C
:1010E000080F111D395F732E7694769476946F2CC9
:1010F000620E5201FCE1AF0EB11C872C912CF6144C
:1011000031F35E2D68018C2D801B8715E8F4F60104
:101110008491D20112966D917C9113975C965C93A9
:101120005C975D96FC925D975F961C925F975E96CA
:101130008C9395014BE3C20159835BDEBFEFCB1A61
:10114000DB0A5981585FDFCF080D191DF394D7CF03
:101150000F90DF91CF911F910F91FF90EF90DF9053
:10116000CF90BF90AF909F908F907F906F905F9047
:101170004F900895CF92DF92EF92FF920F931F93BB
:10118000CF93DF931F92CDB7DEB76C01DC01DC9605
:101190001C91DC97DB960C917C01B4E0EB0EF11C0A
:1011A000DC015996ED91FC915A97C7016983199515
:1011B000482F410F2981602FC70184DEF60123AD3E
:1011C000082E000C990B820F911D83AF81E090E0F7
:1011D0000F90DF91CF911F910F91FF90EF90DF90D3
:1011E000CF90089590919102911104C08093910243
:1011F0006093900208951F93CF93DF931F921F92E5
:10120000CDB7DEB720ED37E03A8329839091BC005B
:10121000982391F429813A81232B49F480919F02EC
:10122000182F127081FD08C081E0DCDF06C0298123
:101230003A8121503109E8CF11E0812F0F900F90B2
:10124000DF91CF911F91089584E98093BC0064E001
:1012500080E1D1CFCF938093BB0084E88093BC0022
:1012600063E080E8C8DFC82F882381F080919F0267
:10127000C82FC27081FD09C08091B900887F883273
:1012800021F063E082E0AEDF01C0C1E08C2FCF919E
:101290000895CF93DF93FC0123A5222369F0EC018D
:1012A00021D2811102C080E008C08EA1811180E4AA
:1012B000D1DF8823C1F31BA681E0DF91CF91089590
:1012C0000F931F93CF93C42F89016330B9F050F46B
:1012D000613081F0623009F03FC0FC0146A321E09B
:1012E00023A73AC06630E9F0673041F1653009F074
:1012F00033C00CC0FC0186A571DA2EC0FC0116A219
:1013000021E023A7411128C09FDF26C0C2DF811141
:1013100003C09ADF80E021C08C2F9CDF81111CC0AC
:10132000F8CFB7DF8823A9F3CC23B1F0F80181917E
:101330008F0190DF882369F3C150F6CFAADF88239D
:1013400041F3CC2349F0F801849184DF882329F00C
:101350000F5F1F4FC150F5CF81E0CF911F910F91CB
:101360000895CF92DF92EF92FF920F931F93CF9346
:10137000DF936C017A018B01C0E0D0E0CE15DF0570
:1013800089F0D8016D918D01D601ED91FC9101900C
:10139000F081E02DC6011995892B11F47E0102C060
:1013A0002196ECCFC701DF91CF911F910F91FF9054
:1013B000EF90DF90CF900895FC01918D828D98176A
:1013C00061F0828DDF01A80FB11D5D968C91928D29
:1013D0009F5F9F73928F90E008958FEF9FEF089526
:1013E000FC01918D828D981731F0828DE80FF11DEF
:1013F000858D90E008958FEF9FEF0895FC01918D0A
:10140000228D892F90E0805C9F4F821B91098F7302
:101410009927089583ED93E0F1DF21E0892B09F40A
:1014200020E0822F0895FC01848DDF01A80FB11DFB
:10143000A35ABF4F2C91848D90E001968F7399270A
:10144000848FA689B7892C93A089B1898C918064F7
:101450008C93938D848D981306C00288F389E02DB8
:1014600080818F7D80830895EF92FF920F931F9369
:10147000CF93DF93EC0181E0888F9B8D8C8D981347
:1014800005C0E889F989808185FD23C0F62E0B8D82
:1014900010E00F5F1F4F0F731127E02E8C8DE812A5
:1014A0000BC00FB607FCFACFE889F989808185FF68
:1014B000F5CFCE01B8DFF2CF8B8DFE01E80FF11D25
:1014C000E35AFF4FF0820B8FEA89FB8980818062AB
:1014D00007C0EE89FF896083E889F989808180648B
:1014E000808381E090E0DF91CF911F910F91FF9079
:1014F000EF900895CF93DF93EC01888D8823C1F09E
:10150000EA89FB89808185FD05C0A889B9898C910C
:1015100086FD0EC00FB607FCF5CF808185FFF2CFA8
:10152000A889B9898C9185FFEDCFCE017CDFE8CF0A
:10153000DF91CF91089580E090E0892B19F06ADF68
:10154000811125C080E090E0892B41F080E090E09F
:10155000892B21F00E94000081111CC080E090E0E6
:10156000892B41F080E090E0892B21F00E9400005F
:10157000811113C080E090E0892BA1F080E090E021
:10158000892B81F00E94000081110AC008950E94F9
:101590000000D8CF0E940000E1CF0E940000EACFF7
:1015A0000C9400000895CF92DF92FF920F931F9347
:1015B000CF93DF931F921F92CDB7DEB7082FE09134
:1015C0008904F0918A0484E794E069837A83199509
:1015D000080F6981C62E7A81D72E10E084E0F82E9C
:1015E000F60121916F01222341F0402F6F2D84E7F6
:1015F00094E068DCF80E180FF3CF812F0F900F9056
:10160000DF91CF911F910F91FF90DF90CF900895C0
:101610008F929F92AF92BF920F931F93CF93DF93BE
:10162000CDB7DEB7A1970FB6F894DEBF0FBECDBF22
:1016300019A2423008F44AE08E010F5D1F4F842E3C
:10164000912CA12CB12CA50194010E945416E62FD7
:10165000B901CA0101501109EA3014F4E05D01C07A
:10166000E95CD801EC93232B242B252B61F7011582
:10167000110569F0F80101900020E9F73197AF01F9
:10168000401B510BB80183ED93E06BDE02C080E09C
:1016900090E0A1960FB6F894DEBF0FBECDBFDF91EC
:1016A000CF911F910F91BF90AF909F908F90089511
:1016B0000E940C1980917B00886080937B0080E4FD
:1016C00080937C0080917A00806480937A0080917E
:1016D0007A0086FDFCCF809178002091790090E01F
:1016E000922B0895CF9384EA8093BC0061E080E858
:1016F00082DD882351F08091B900887F883039F0ED
:10170000803129F061E082E06DDDC0E01BC088E738
:101710008093BB0084E88093BC0062E080E86BDDCE
:10172000882399F380919F02C82FC27081FD09C060
:101730008091B900887F883121F062E082E052DD3B
:1017400001C0C1E08C2FCF9108951F920F920FB668
:101750000F9211240BB60F922F933F934F935F93E9
:101760006F937F938F939F93AF93BF93EF93FF9369
:1017700083ED93E058DEFF91EF91BF91AF919F9180
:101780008F917F916F915F914F913F912F910F902A
:101790000BBE0F900FBE0F901F9018951F920F92C7
:1017A0000FB60F9211240BB60F922F938F939F9326
:1017B000EF93FF93E091E303F091E4038081E091E4
:1017C000E903F091EA0382FD12C090818091EC035D
:1017D0008F5F8F732091ED03821751F0E091EC033E
:1017E000F0E0ED52FC4F958F8093EC0301C08081B7
:1017F000FF91EF919F918F912F910F900BBE0F90C2
:101800000FBE0F901F90189590E0FC013197E231C8
:10181000F10508F04EC08827EC56FF4F8F4F0C940F
:101820009216809180008F7703C0809180008F7D19
:1018300080938000089580918000877FF9CF84B5E0
:101840008F7702C084B58F7D84BD08958091B000EC
:101850008F7703C08091B0008F7D8093B000089592
:10186000809190008F7707C0809190008F7D03C09A
:1018700080919000877F8093900008958091A000D0
:101880008F7707C08091A0008F7D03C08091A0005A
:10189000877F8093A0000895809120018F7707C0F3
:1018A000809120018F7D03C080912001877F8093EC
:1018B00020010895CF93DF9370E0FB01E457F94FC7
:1018C0008491FB01EA5BF94FD491FB01E050FA4FA0
:1018D000C491CC2389F0811197DFEC2FF0E0EE0F5B
:1018E000FF1FEE54FA4FA591B491EC91ED2381E0E6
:1018F00090E021F480E002C080E090E0DF91CF91A1
:101900000895CF93DF93DC0147705527662777272B
:10191000FA013197CD91DC911197E730F10530F460
:101920008827EA55FF4F8F4F0C949216EC81FD816A
:1019300061E01BC0EC81FD8165E017C0EC81FD8199
:1019400064E013C0EC81FD8166E00FC0EC81FD8195
:1019500062E00BC0EC81FD816AE007C0EC81FD8193
:1019600068E003C0EC81FD8169E0CD01DF91CF919A
:101970001994CF93DF93EC01CB01BA0126E030E05C
:1019800040E050E00E9476166230710581059105B5
:1019900059F18CF46115710581059105F1F0613003
:1019A000710581059105C1F5E881F9810480F58112
:1019B000E02D65E02DC0643071058105910511F1C0
:1019C000D4F0653071058105910531F5E881F98123
:1019D0000480F581E02D66E01BC0E881F981048078
:1019E000F581E02D64E014C0E881F9810480F5817F
:1019F000E02D61E00DC0E881F9810480F581E02DE2
:101A000063E006C0E881F9810480F581E02D62E0A1
:101A1000CE01DF91CF911994DF91CF91089543705A
:101A2000552766277727DC01ED91FC910480F5812D
:101A3000E02D423051056105710571F043305105CB
:101A40006105710559F0413051056105710511F0CD
:101A500065E005C066E003C06AE001C069E0199472
:101A6000CF93DF93EC01CB01BA0123E030E040E0FB
:101A700050E00E947616613071058105910581F074
:101A8000623071058105910591F0672B682B692BF8
:101A9000C1F4E881F9810480F581E02D64E00DC096
:101AA000E881F9810480F581E02D61E006C0E881DC
:101AB000F9810480F581E02D62E0CE01DF91CF91C4
:101AC0001994DF91CF9108954370552766277727A2
:101AD000DC01ED91FC910480F581E02D423051054F
:101AE0006105710571F0433051056105710559F0CB
:101AF000413051056105710511F062E005C063E0F8
:101B000003C061E001C060E019940F931F93CF936D
:101B1000DF93EC01E881F9810480F581E02D8C01EF
:101B20000D5B1F4FD8018C91811102C060E001C094
:101B300062E0CE011995E881F9810480F581E02DFC
:101B4000D8018C91811102C061E001C063E0CE0137
:101B50001995EBA5FCA5E230F10538F0EE0FFF1F5B
:101B6000EE0FFF1F35973197F1F7E881F981048077
:101B7000F581E02DD8018C91811102C060E001C097
:101B800062E0CE01DF91CF911F910F911994CF9315
:101B9000DF93EC0120E030E0A9016B897C898D891D
:101BA0009E890E944E1818161CF4EFA5F8A902C0D1
:101BB000E9A9FAA9DF91CF9119940F931F93DC0142
:101BC00012960C91129710E009301105D8F5F80122
:101BD0008827E355FF4F8F4F0C949216ED91FC919F
:101BE00011970084F185E02D29C0ED91FC911197AA
:101BF0000284F385E02D22C0ED91FC9111970484BD
:101C0000F585E02D1BC0ED91FC9111970684F785B9
:101C1000E02D14C0ED91FC9111970088F189E02D21
:101C20000DC0ED91FC9111970288F389E02D06C05B
:101C3000ED91FC9111970488F589E02DCD011F915C
:101C40000F9119941F910F91089508951F93CF93A9
:101C5000DF93282F30E0F901E457F94F8491F9011F
:101C6000EA5BF94FD491F901E050FA4FC491CC23CB
:101C7000C1F0162F8111C8DDEC2FF0E0EE0FFF1F31
:101C8000EA51FA4FA591B4918FB7F894111105C09C
:101C90009C91ED2FE095E92302C0EC91ED2BEC93A4
:101CA0008FBFDF91CF911F910895862F642FCECFE4
:101CB000CF92DF92EF92FF920F931F93CF93DF9318
:101CC000FC012281243041F0283031F0233031F002
:101CD000263021F012E003C014E001C013E0EC0153
:101CE0002796E12CF12CC62ED12C01E0C6010E2C3A
:101CF00002C0959587950A94E2F7688180FD602778
:101D0000FE0134978081A2DFFFEFEF1AFF0A2196D0
:101D1000E11660F3DF91CF911F910F91FF90EF904B
:101D2000DF90CF900895CF93DF9390E0FC01EA5BC2
:101D3000F94F2491FC01E050FA4F8491882361F11E
:101D400090E0880F991FFC01E453FA4FC591D4919C
:101D5000FC01EA51FA4FA591B491611109C09FB7F6
:101D6000F8948881209582238883EC912E230BC0E0
:101D7000623061F49FB7F8943881822F8095832375
:101D80008883EC912E2B2C939FBF06C08FB7F894BD
:101D9000E8812E2B28838FBFDF91CF910895862F66
:101DA000642FC1CFCF93DF93FC012281222329F13D
:101DB000EC0161E08381B7DF61E08C81B4DF8A816F
:101DC000843011F0883031F461E08D81ACDF61E066
:101DD0008E8106C0833011F0863019F461E08D8168
:101DE000A2DF8EA58F3F49F061E09DDF6DA581E008
:101DF00068278EA5DF91CF9129CFDF91CF910895EC
:101E0000CF93DF93FC012281222399F0EC01019012
:101E1000F081E02D0480F581E02D60E019958EA51C
:101E20008F3F39F061E07FDF6DA58EA5DF91CF9107
:101E30000DCFDF91CF9108951F920F920FB60F92A1
:101E400011242F933F938F939F93AF93BF938091D0
:101E5000B3049091B404A091B504B091B60430914C
:101E6000B20423E0230F2D3720F40196A11DB11DEC
:101E700005C026E8230F0296A11DB11D2093B204D0
:101E80008093B3049093B404A093B504B093B604C4
:101E90008091AE049091AF04A091B004B091B104D0
:101EA0000196A11DB11D8093AE049093AF04A09341
:101EB000B004B093B104BF91AF919F918F913F91C6
:101EC0002F910F900FBE0F901F9018951F920F9299
:101ED0000FB60F9211240BB60F922F933F934F938F
:101EE0005F936F937F938F939F93AF93BF93EF9382
:101EF000FF9380919802909199028093B200809113
:101F00009B0290919C02A0919D02B0919E0201962D
:101F1000A11DB11D80939B0290939C02A0939D02F2
:101F2000B0939E0280919B0290919C02A0919D0291
:101F3000B0919E0240919402509195026091960258
:101F40007091970284179507A607B70710F1809143
:101F50009A0281111EC081E080939A0280919B02B7
:101F600090919C02A0919D02B0919E02841B950BC2
:101F7000A60BB70B80939B0290939C02A0939D02AB
:101F8000B0939E02E0919202F09193021995109203
:101F90009A02FF91EF91BF91AF919F918F917F91A5
:101FA0006F915F914F913F912F910F900BBE0F90CA
:101FB0000FBE0F901F9018952F923F924F925F92F5
:101FC0006F927F928F929F92AF92BF92CF92DF9249
:101FD000EF92FF920F931F93CF93DF9300D01F9246
:101FE000CDB7DEB71C01FC0187849088A188B28838
:101FF00083859485A585B685881A990AAA0ABB0A9D
:1020000063897489858996899B01AC010E94521865
:102010006B017C01F101638D748D858D968D9B0123
:10202000AC0189D69B01AC01C701B601ECD653D7F0
:1020300081149104A104B104A1F4623071058105F9
:1020400091050CF07CC0F10113A214A215A216A2F6
:10205000138A148A158A168A13AA14AA15AA16AA0C
:10206000FAC0F10103A914A925A936A9ED5BFF4F18
:10207000181419041A041B04FCF410161106120695
:1020800013064CF4681579058A059B054CF52081EB
:10209000211155C025C0011511052105310509F48F
:1020A0004EC0681579058A059B050CF048C08081F3
:1020B000882309F444C037C010161106120613060F
:1020C000F4F4002711279801081919092A093B0976
:1020D00060177107820793071CF42081222379F18E
:1020E0009B01AC0188279927DC01821B930BA40B71
:1020F000B50BF10183AB94ABA5ABB6AB20C001151A
:10210000110521053105D9F0CC24DD247601C8184C
:10211000D908EA08FB086C157D058E059F057CF43F
:10212000808181110CC030952095109501951F4F2D
:102130002F4F3F4FF10103AB14AB25AB36ABF10191
:10214000C3A8D4A8E5A8F6A881010D5B1F4FC11450
:10215000D104E104F10491F487A990ADA1ADB2AD31
:1021600083AF94AFA5AFB6AF81E0181419041A0479
:102170001B040CF080E0F801808339C0F10183ACCE
:1021800094ACA5ACB6ACA5019401C501B401D3D5FE
:102190002B013C01C701B601D1D620E030E040E878
:1021A00050E480D720E030E040E85FE3C4D59B01F5
:1021B000AC01C301B20127D69B01AC01C501B4013A
:1021C000B9D54B015C01F101FF96408051806280DE
:1021D00073809201A30162D7181614F042015301D3
:1021E000A401B501F10143AF54AF65AF76AFFFEF86
:1021F000CF1ADF0AEF0AFF0AF101C3AAD4AAE5AA9F
:10220000F6AA23AD34AD45AD56ADCA01B901298357
:102210003A834B835C8364D6F10163A374A385A3E3
:1022200096A329813A814B815C8160E074E284E766
:1022300099E4E9D5F101638B748B858B968BF8015A
:102240002081211108C0DC01CB01B058F101838B42
:10225000948BA58BB68B0F900F900F900F90DF9102
:10226000CF911F910F91FF90EF90DF90CF90BF9093
:10227000AF909F908F907F906F905F904F903F9026
:102280002F9008954F925F926F927F928F929F92BC
:10229000AF92BF92CF92DF92EF92FF92CF93DF93F4
:1022A000EC016A017B018B8C9C8CAD8CBE8C9A01FD
:1022B000AB01C501B401A3D5882309F440C06BA9C3
:1022C0007CA98DA99EA93AD62B013C01A7019601B4
:1022D000C501B40198D59B01AC01C301B201E2D69E
:1022E000FAD56BAB7CAB8DAB9EABA701960160E0E2
:1022F00070E080E090E487D53CD726E53EE04DE2F3
:102300005FE3D0D620E034E244E759E4CBD66FABAC
:1023100078AF89AF9AAFCB8EDC8EED8EFE8ECE017C
:10232000DF91CF91FF90EF90DF90CF90BF90AF9073
:102330009F908F907F906F905F904F903DCEDF91F8
:10234000CF91FF90EF90DF90CF90BF90AF909F9094
:102350008F907F906F905F904F900895FB01418127
:10236000DC0112962C911297421768F013962C916B
:102370001397241740F0608115962C91621718F47A
:1023800024810C94DF060895CF931092D603109207
:10239000D50388EE93E0A0E0B0E08093D70390935C
:1023A000D803A093D903B093DA038AE292E0909322
:1023B000D4038093D30385EC90E09093E003809363
:1023C000DF0384EC90E09093E2038093E10380ECE0
:1023D00090E09093E4038093E30381EC90E090938A
:1023E000E6038093E50382EC90E09093E80380930A
:1023F000E70386EC90E09093EA038093E903109260
:10240000EC031092ED031092EE031092EF03109282
:10241000E6021092EA021092E9021092EB0284E6C0
:1024200092E09093E5028093E40280E090E0FC016A
:10243000EC51FD4F148E10A2178E11A206968C330C
:102440009105A9F782E192E09093470380934603B8
:102450008EE092E0909349038093480384E0809358
:102460004A0380934B0386E192E090934503809367
:1024700044038AE090E090934D0380934C0384EFF3
:1024800091E090934F0380934E0310925203109269
:102490005103109240031092410310924203109294
:1024A000430310925003109273041092720484E557
:1024B00092E090937104809370041092AB04109298
:1024C000AC041092AD04109279041092780410922A
:1024D0007B0410927A0410927D0481E080937C0446
:1024E00082E280937E041092830410928204E7E9D2
:1024F000F4E09FEF8EE08E0F91938E13FDCFC1E03D
:10250000C093940489EB93E090938A0480938904A8
:10251000C0938B0410928C0410928D0480E48093FD
:102520008E0410928F0485E29EE09093A60480931F
:10253000A50488E092E0909377048093760482E18A
:102540008093A20484E794E00E94FD068CE592E06B
:1025500090937104809370048AE392E09093A102B7
:102560008093A002C093A2021092AB021092AC0220
:102570001092AD021092AE021092AF021092B00211
:102580001092B1021092B2021092B3021092B402F1
:102590001092B5021092B60280E090E0A0E8BFE38E
:1025A0008093B7029093B802A093B902B093BA0295
:1025B0001092BB021092BC021092BD021092BE0299
:1025C0008093BF029093C002A093C102B093C20255
:1025D0001092C3021092C4021092C5021092C60259
:1025E00021E030E03093CC022093CB022FEF2093F8
:1025F000CE021092C7021092C8021092C902109225
:10260000CA0224E02093A30237E03093A40220936F
:10261000A50225E02093A6021092D3021092D402C4
:102620001092D5021092D6021092D7021092D802C0
:102630001092D9021092DA021092DB021092DC02A0
:102640001092DD021092DE028093DF029093E0028E
:10265000A093E102B093E2021092E3021092A7026B
:102660001092A8021092A9021092AA0280EA92E0A7
:1026700099DB40E050E060E87FE380EA92E0CF91B0
:1026800001CECF93DF93CDB7DEB72B970FB6F8947B
:10269000DEBF0FBECDBF789484B5826084BD84B5A3
:1026A000816084BD85B5826085BD85B5816085BD4D
:1026B00080916E00816080936E0010928100809105
:1026C000810082608093810080918100816080938D
:1026D0008100809180008160809380008091B100B2
:1026E00084608093B1008091B00081608093B000DD
:1026F000809191008260809391008091910081602F
:1027000080939100809190008160809390008091EF
:10271000A10082608093A1008091A10081608093DC
:10272000A1008091A00081608093A0008091210190
:102730008260809321018091210181608093210139
:102740008091200181608093200180917A008460D3
:1027500080937A0080917A00826080937A008091E1
:102760007A00816080937A0080917A0080688093FB
:102770007A001092C10080E894E090935203809315
:10278000510380917804909179048E5A914009F414
:1027900045C08EEA91E0909379048093780480910B
:1027A0008B04811108C0E3EBF1E0E491E0938C0429
:1027B000EAEBF1E011C0813041F4EDEBF1E0E4919E
:1027C000E0938C04EEEBF1E007C0EBEBF1E0E49179
:1027D000E0938C04ECEBF1E0E491E0938D048091C4
:1027E0008C04082E000C990B20918D04821B9109FA
:1027F00027FD939520918E04203441F0829FC001E3
:10280000112426E0969587952A95E1F780938F0409
:1028100089EB93E090938A048093890461E088E0D7
:1028200082DA61E088E012DA61E087E07CDA61E078
:1028300084E079DA61E085E076DA61E082E073DAFB
:1028400020E030E44CE156E46091B7027091B802A8
:102850008091B9029091BA02D2D2882309F44EC075
:1028600080E090E4ACE1B6E48093B7029093B802C4
:10287000A093B902B093BA0280E090E0A8ECB2E471
:102880008093DF029093E002A093E102B093E20212
:102890008091D3029091D402A091D502B091D6023A
:1028A000181619061A061B064CF56091B3027091B2
:1028B000B4028091B5029091B6029B01AC01F2D3B3
:1028C0006B017C016091BB027091BC028091BD02E2
:1028D0009091BE029B01AC012ED29B01AC01C701BD
:1028E000B60191D2F8D26093D3027093D402809350
:1028F000D5029093D60280EA92E05EDB20E030E4DD
:102900004CE156E46091B3027091B4028091B5023B
:102910009091B60274D2882309F460C0C090B702C7
:10292000D090B802E090B902F090BA024601570187
:10293000B7FAB094B7F8B09420E030E44CE156E434
:10294000C501B401ABD3181654F020E030E44CE1DB
:1029500056E4C701B60153D287FD03C013C0750109
:10296000640120E030E0A901C701B60148D281111D
:1029700010C01092C3021092C4021092C5021092AD
:10298000C60224C0C12C90E4D92E9CE1E92E96E425
:10299000F92EA701960160E074E284E799E433D24E
:1029A0009F779ED26093C3027093C4028093C50246
:1029B0009093C60211E020E030E0A901C701B60102
:1029C0006DD318160CF010E01093E302C092B3021E
:1029D000D092B402E092B502F092B60240E050E02C
:1029E0006AE774E480EA92E04DDC8091AF02909156
:1029F000B002A091B102B091B20281159941A10536
:102A0000B10579F080E099E1A0E0B0E08093AF02F9
:102A10009093B002A093B102B093B20280EA92E028
:102A2000CBDA60E088E012D981E090E0A0E0B0E08D
:102A30008093940290939502A0939602B09397028C
:102A400088E296E0909393028093920280917000C6
:102A50008E7F809370008091B0008C7F8093B00057
:102A60008091B100877F8093B1008091B6008F7D07
:102A70008093B600809170008D7F8093700080916C
:102A8000B10084608093B1008091B1008C7F80930D
:102A9000B10086E090E090939902809398021092A2
:102AA0009B0210929C0210929D0210929E02109224
:102AB0009A0280919802909199028093B20080913D
:102AC0007000816080937000E091E303F091E40373
:102AD00082E08083E091DF03F091E0031082E091D7
:102AE000E103F091E2038FEC80831092EB03E0911D
:102AF000E703F091E80386E08083E091E503F0913D
:102B0000E603808180618083E091E503F091E60334
:102B1000808188608083E091E503F091E603808105
:102B200080688083E091E503F091E60380818F7DEA
:102B300080838DE6282E82E0382E8E010F5F1F4F96
:102B4000E090AB02F090AC028091AD04811107C01F
:102B500081E08093AD0484E794E00E94FD06C0907C
:102B60007604D0907704E091A504F091A60482E069
:102B70001995E091A504F091A60481E0199520E053
:102B800030E044E1B60184E794E00E94F90627EAC8
:102B900034E047E1B60184E794E00E94F906E09151
:102BA000A504F091A60480E0199547010F2C000CB4
:102BB000AA08BB08442455243201481859086A0859
:102BC0007B08B7FE0FC0E091D303F091D4030190CE
:102BD000F081E02D6DE283ED93E019954AE0C301A9
:102BE000B20103C04AE0C501B4010E94080B42E0F3
:102BF00050E06AE672E083ED93E00E94B109FF9233
:102C0000EF923F922F921F930F930AD3B8018AE05D
:102C10000E94D30A0E945A0B9F938F933F922F9248
:102C20001F930F93FDD2B80184E10E94D30AE09173
:102C30008204F09183040FB6F894DEBF0FBECDBFBF
:102C4000309719F084E794E01995C0907604D090FD
:102C50007704E091A504F091A60482E01995E09133
:102C6000A504F091A60481E0199520E030E045E14B
:102C7000B60184E794E00E94F9068B87882341F02F
:102C800027EA34E047E1B60184E794E00E94F906C0
:102C9000E091A504F091A60480E019959B8591111F
:102CA00090CF0E949B0A4CCFA1E21A2EAA1BBB1BFD
:102CB000FD010DC0AA1FBB1FEE1FFF1FA217B30708
:102CC000E407F50720F0A21BB30BE40BF50B661F1E
:102CD000771F881F991F1A9469F7609570958095E2
:102CE00090959B01AC01BD01CF010895052E97FB86
:102CF00016F400940FD057FD05D0D6DF07FC02D0A4
:102D000046F408C050954095309521953F4F4F4F60
:102D10005F4F089590958095709561957F4F8F4F87
:102D20009F4F0895EE0FFF1F881F8BBF0790F691EE
:102D3000E02D19945058BB27AA270ED075C166D133
:102D400030F06BD120F031F49F3F11F41EF45BC1E1
:102D50000EF4E095E7FB51C1E92F77D180F3BA1764
:102D6000620773078407950718F071F49EF58FC109
:102D70000EF4E0950B2EBA2FA02D0B01B901900196
:102D80000C01CA01A0011124FF27591B99F0593FDA
:102D900050F4503E68F11A16F040A22F232F342F22
:102DA0004427585FF3CF469537952795A795F04070
:102DB0005395C9F77EF41F16BA0B620B730B840B85
:102DC000BAF09150A1F0FF0FBB1F661F771F881F3D
:102DD000C2F70EC0BA0F621F731F841F48F4879595
:102DE00077956795B795F7959E3F08F0B3CF939584
:102DF000880F08F09927EE0F979587950895D9D0F9
:102E000008F481E008950CD00FC107D140F0FED046
:102E100030F021F45F3F19F0F0C0511139C1F3C017
:102E200014D198F39923C9F35523B1F3951B550B8E
:102E3000BB27AA2762177307840738F09F5F5F4F8D
:102E4000220F331F441FAA1FA9F333D00E2E3AF0CE
:102E5000E0E830D091505040E695001CCAF729D0E8
:102E6000FE2F27D0660F771F881FBB1F2617370737
:102E70004807AB07B0E809F0BB0B802DBF01FF2767
:102E800093585F4F2AF09E3F510568F0B6C000C1CD
:102E90005F3FECF3983EDCF3869577956795B795A1
:102EA000F7959F5FC9F7880F911D9695879597F9BC
:102EB0000895E1E0660F771F881FBB1F6217730735
:102EC0008407BA0720F0621B730B840BBA0BEE1F4A
:102ED00088F7E095089504D06894B111D9C0089599
:102EE000BCD088F09F5790F0B92F9927B751A0F028
:102EF000D1F0660F771F881F991F1AF0BA95C9F78E
:102F000012C0B13081F0C3D0B1E00895C0C0672FC6
:102F1000782F8827B85F39F0B93FCCF3869577953D
:102F20006795B395D9F73EF4909580957095619526
:102F30007F4F8F4F9F4F0895E89409C097FB3EF451
:102F400090958095709561957F4F8F4F9F4F9923F6
:102F5000A9F0F92F96E9BB279395F6958795779574
:102F60006795B795F111F8CFFAF4BB0F11F460FF34
:102F70001BC06F5F7F4F8F4F9F4F16C0882311F08C
:102F800096E911C0772321F09EE8872F762F05C0A0
:102F9000662371F096E8862F70E060E02AF09A953B
:102FA000660F771F881FDAF7880F9695879597F930
:102FB0000895990F0008550FAA0BE0E8FEEF1616CA
:102FC0001706E807F907C0F012161306E407F5071D
:102FD00098F0621B730B840B950B39F40A2661F091
:102FE000232B242B252B21F408950A2609F4A14034
:102FF000A6958FEF811D811D089597F99F6780E841
:1030000070E060E008959FEF80EC089500240A943A
:103010001616170618060906089500240A941216B3
:103020001306140605060895092E0394000C11F4E6
:10303000882352F0BB0F40F4BF2B11F460FF04C093
:103040006F5F7F4F8F4F9F4F089557FD9058440FEC
:10305000551F59F05F3F71F04795880F97FB991FF7
:1030600061F09F3F79F087950895121613061406B4
:10307000551FF2CF4695F1DF08C016161706180641
:10308000991FF1CF86957105610508940895E8941C
:10309000BB2766277727CB0197F908958ADF08F4C5
:1030A0008FEF08950BD0C0CFB1DF28F0B6DF18F056
:1030B000952309F0A2CFA7CF1124EACFC6DFA0F352
:1030C000959FD1F3950F50E0551F629FF001729FBD
:1030D000BB27F00DB11D639FAA27F00DB11DAA1FDC
:1030E000649F6627B00DA11D661F829F2227B00D29
:1030F000A11D621F739FB00DA11D621F839FA00DB4
:10310000611D221F749F3327A00D611D231F849F03
:10311000600D211D822F762F6A2F11249F5750405A
:103120008AF0E1F088234AF0EE0FFF1FBB1F661FF5
:10313000771F881F91505040A9F79E3F510570F0AE
:103140005CCFA6CF5F3FECF3983EDCF38695779596
:103150006795B795F795E7959F5FC1F7FE2B880FA9
:10316000911D9695879597F9089511F40EF44BCF1C
:103170003EC073DFD0F39923D9F3CEF39F57550B9D
:1031800087FF43D00024A0E640EA9001805856957E
:10319000979528F4805C660F771F881F20F026170C
:1031A0003707480730F4621B730B840B2029312941
:1031B0004A2BA69517940794202531254A2758F7BE
:1031C000660F771F881F20F026173707480730F44F
:1031D000620B730B840B200D311D411DA09581F7EF
:1031E000B901842F9158880F9695879508959F3F30
:1031F00031F0915020F4879577956795B795880FB2
:10320000911D9695879597F9089591505040660FB6
:10321000771F881FD2F7089581E090E0F894C9C223
:103220000F931F93CF93DF93CDB7DEB72E970FB6D3
:10323000F894DEBF0FBECDBF0E891F8986E08C8358
:103240001A8309838FEF9FE79E838D83AE01465ECD
:103250005F4F688D798DCE01019611D02F81388511
:10326000F801E20FF31F10822E960FB6F894DEBF1E
:103270000FBECDBFDF91CF911F910F9108952F9277
:103280003F924F925F926F927F928F929F92AF92F6
:10329000BF92CF92DF92EF92FF920F931F93CF9343
:1032A000DF93CDB7DEB72C970FB6F894DEBF0FBE15
:1032B000CDBF7C016B018A01FC01178216828381DC
:1032C00081FFB0C1CE0101964C01F7019381F60157
:1032D00093FD859193FF81916F01882309F49EC12D
:1032E000853239F493FD859193FF81916F01853289
:1032F00021F4B70190E0C7D1E8CF512C312C20E068
:103300002032A0F48B3269F030F4803259F08332ED
:1033100069F420612CC08D3239F0803339F421609A
:1033200026C02260246023C0286021C027FD27C05A
:1033300030ED380F3A3078F426FF06C0FAE05F9E91
:10334000300D1124532E13C08AE0389E300D112405
:10335000332E20620CC08E3221F426FD5FC1206422
:1033600006C08C3611F4206802C0883641F4F6019C
:1033700093FD859193FF81916F018111C1CF982FAA
:103380009F7D9554933028F40C5F1F4FFFE3F98322
:103390000DC0833631F0833771F0833509F057C0A3
:1033A00021C0F801808189830E5F1F4F442443941C
:1033B000512C540114C03801F2E06F0E711CF80159
:1033C000A080B18026FF03C0652D70E002C06FEFC2
:1033D0007FEFC5012C874CD12C0183012C852F77E1
:1033E000222E16C03801F2E06F0E711CF801A08089
:1033F000B18026FF03C0652D70E002C06FEF7FEF44
:10340000C5012C872AD12C012C852068222E83010E
:1034100023FC19C0832D90E048165906A0F4B7018B
:1034200080E290E030D13A94F5CFF50127FC859108
:1034300027FE81915F01B70190E025D131103A94C8
:10344000F1E04F1A51084114510479F7DEC0843677
:1034500011F0893631F5F80127FF07C060817181CD
:10346000828193810C5F1F4F08C060817181072E9C
:10347000000C880B990B0E5F1F4F2F76722E97FF53
:1034800009C090958095709561957F4F8F4F9F4FA4
:103490002068722E2AE030E0A4012DD1A82EA818B1
:1034A00043C0853729F42F7EB22E2AE030E025C0B4
:1034B000F22FF97FBF2E8F36C1F018F4883579F0DE
:1034C000ADC0803719F0883721F0A8C02F2F2061B8
:1034D000B22EB4FE0DC08B2D8460B82E09C024FF1F
:1034E0000AC09F2F9660B92E06C028E030E005C0C4
:1034F00020E130E002C020E132E0F801B7FE07C071
:1035000060817181828193810C5F1F4F06C0608151
:10351000718180E090E00E5F1F4FA401ECD0A82ED7
:10352000A818FB2DFF777F2E76FE0BC0372D3E7F30
:10353000A51450F474FE0AC072FC08C0372D3E7EFC
:1035400005C0BA2C372D03C0BA2C01C0B52C34FFEE
:103550000DC0FE01EA0DF11D8081803311F4397E2A
:1035600009C032FF06C0B394B39404C0832F867899
:1035700009F0B39433FD12C030FF06C05A2CB314C7
:1035800018F4530C5B18B32CB31460F4B70180E249
:1035900090E03C8778D0B3943C85F6CFB31410F418
:1035A0003B1801C0312C34FF11C0B70180E390E01B
:1035B0003C8769D03C8532FF16C031FD03C088E7E7
:1035C00090E002C088E590E0B7010CC0832F8678B8
:1035D00051F031FF02C08BE201C080E237FD8DE285
:1035E000B70190E050D0A51430F4B70180E390E02B
:1035F0004AD05A94F8CFAA94F401EA0DF11D8081C3
:10360000B70190E040D0A110F6CF332009F45DCE91
:10361000B70180E290E037D03A94F7CFF701868186
:10362000978102C08FEF9FEF2C960FB6F894DEBF04
:103630000FBECDBFDF91CF911F910F91FF90EF9003
:10364000DF90CF90BF90AF909F908F907F906F90C2
:103650005F904F903F902F900895FC01059061502E
:1036600070400110D8F7809590958E0F9F1F089598
:10367000FC016150704001900110D8F78095909541
:103680008E0F9F1F08950F931F93CF93DF93FB011E
:10369000238121FD03C08FEF9FEF28C022FF16C0BA
:1036A00046815781248135814217530744F4A08114
:1036B000B1819D012F5F3F4F318320838C93268101
:1036C00037812F5F3F4F3783268310C0EB01092FCF
:1036D000182F0084F185E02D1995892BE1F68E8154
:1036E0009F8101969F838E83812F902FDF91CF91B1
:1036F0001F910F910895FA01AA27283051F1203126
:1037000081F1E8946F936E7F6E5F7F4F8F4F9F4F75
:10371000AF4FB1E03ED0B4E03CD0670F781F891FB7
:103720009A1FA11D680F791F8A1F911DA11D6A0F85
:10373000711D811D911DA11D20D009F468943F9138
:103740002AE0269F11243019305D3193DEF6CF0137
:103750000895462F4770405D4193B3E00FD0C9F7FD
:10376000F6CF462F4F70405D4A3318F0495D31FD6A
:103770004052419302D0A9F7EACFB4E0A6959795BD
:10378000879577956795BA95C9F700976105710593
:1037900008959B01AC010A2E0694579547953795DD
:1037A0002795BA95C9F7620F731F841F951FA01D37
:0637B0000895F894FFCF1C
:1037B6000840000000805303E50400026009191860
:1037C60017161D1C1B1A3132334134353642373831
:1037D60039432A30234400000000340AB109FE09A7
:1037E600DC09F0097A0A00000000000FD20E580E1C
:1037F600DD0DC70D850D640D300D0F0DB90C810C57
:1038060000000000BA08B10900000000BA08B109BA
:1038160000000000CF0E550E5A0C0D0A002564005C
:020000023000CC
:10E000000D9489F10D94B2F10D94B2F10D94B2F129
:10E010000D94B2F10D94B2F10D94B2F10D94B2F1F0
:10E020000D94B2F10D94B2F10D94B2F10D94B2F1E0
:10E030000D94B2F10D94B2F10D94B2F10D94B2F1D0
:10E040000D94B2F10D94B2F10D94B2F10D94B2F1C0
:10E050000D94B2F10D94B2F10D94B2F10D94B2F1B0
:10E060000D94B2F10D94B2F10D94B2F10D94B2F1A0
:10E070000D94B2F10D94B2F10D94B2F10D94B2F190
:10E080000D94B2F10D94B2F10D94B2F10D94B2F180
:10E090000D94B2F10D94B2F10D94B2F10D94B2F170
:10E0A0000D94B2F10D94B2F10D94B2F10D94B2F160
:10E0B0000D94B2F10D94B2F10D94B2F10D94B2F150
:10E0C0000D94B2F10D94B2F10D94B2F10D94B2F140
:10E0D0000D94B2F10D94B2F10D94B2F10D94B2F130
:10E0E0000D94B2F141546D656761323536300041AF
:10E0F000726475696E6F206578706C6F72657220DE
:10E1000073746B3530305632206279204D4C530099
:10E11000426F6F746C6F616465723E004875683F52
:10E1200000436F6D70696C6564206F6E203D200048
:10E130004350552054797065202020203D20005FF9
:10E140005F4156525F415243485F5F3D2000415658
:10E1500052204C696243205665723D20004743437C
:10E160002056657273696F6E203D20004350552024
:10E1700049442020202020203D20004C6F7720663D
:10E18000757365202020203D20004869676820665F
:10E190007573652020203D200045787420667573D6
:10E1A00065202020203D20004C6F636B2066757336
:10E1B000652020203D20004D617220203720323024
:10E1C000313300312E362E3800342E332E350056A2
:10E1D00023202020414444522020206F7020636F70
:10E1E00064652020202020696E73747275637469E1
:10E1F0006F6E2061646472202020496E74657272B3
:10E20000757074006E6F20766563746F7200726A49
:10E210006D702020006A6D70200057686174207056
:10E220006F72743A00506F7274206E6F7420737541
:10E2300070706F72746564004D7573742062652030
:10E2400061206C6574746572002000577269747483
:10E25000696E672045450052656164696E672045B7
:10E26000450045452065727220636E743D00504F35
:10E27000525400303D5A65726F2061646472003FF1
:10E280003D43505520737461747300403D454550C3
:10E29000524F4D207465737400423D426C696E6B41
:10E2A000204C454400453D44756D70204545505215
:10E2B0004F4D00463D44756D7020464C415348001B
:10E2C000483D48656C70004C3D4C69737420492F83
:10E2D0004F20506F72747300513D51756974005234
:10E2E0003D44756D702052414D00563D73686F7707
:10E2F00020696E7465727275707420566563746FF0
:10E30000727300593D506F727420626C696E6B00BD
:10E310002A0011241FBECFEFD1E2DEBFCDBF01E046
:10E320000CBF12E0A0E0B2E0EEE1FDEF03E00BBFB6
:10E3300002C007900D92A030B107D9F712E0A0E01B
:10E34000B2E001C01D92AE30B107E1F70F9460F367
:10E350000D948DFE01E20EBF0FEF0DBF11241FBE05
:10E360000D9460F30D9400F020E030E040ED57E0B4
:10E3700005C0FA013197F1F72F5F3F4F2817390792
:10E38000C0F308959C01260F311DC901A0E0B0E043
:10E390002F5F3F4FABBFFC018791882361F08093D3
:10E3A000C6008091C00086FFFCCF8091C0008064D1
:10E3B0008093C000EACF08958DE08093C6008091DD
:10E3C000C00086FFFCCF8091C00080648093C000B5
:10E3D0008AE08093C6008091C00086FFFCCF8091C8
:10E3E000C00080648093C00008950F94C2F10F9420
:10E3F000DCF10895FC019081992359F09093C600B7
:10E400008091C00086FFFCCF8091C0008064809323
:10E41000C0003196992379F70895282F982F929567
:10E420009F70892F805D8A3308F0895F8093C600D2
:10E430008091C00086FFFCCF8091C00080648093F3
:10E44000C000822F8F70982F905D9A3308F0995FEB
:10E450009093C6008091C00086FFFCCF8091C000E1
:10E4600080648093C00008959C01FB01853691056E
:10E470001CF46330710594F0C90164E670E00F94F8
:10E480002EFE605D7F4F6093C6008091C00086FFC6
:10E49000FCCF8091C00080648093C0002B30310598
:10E4A00014F43297B4F0C90164E670E00F942EFEC4
:10E4B0006AE070E00F942EFE605D7F4F6093C600AF
:10E4C0008091C00086FFFCCF8091C0008064809363
:10E4D000C000C9016AE070E00F942EFEC0968093E0
:10E4E000C6008091C00086FFFCCF8091C000806490
:10E4F0008093C00008951F93182F8EE692EE60E07F
:10E500000F94C2F11093C6008091C00086FFFCCF2B
:10E510008091C00080648093C0000F94DCF11F9153
:10E5200008952F923F924F925F926F927F928F92B7
:10E530009F92AF92BF92CF92DF92EF92FF920F9392
:10E540001F93DF93CF93CDB7DEB762970FB6F894E2
:10E55000DEBF0FBECDBF382E622ECA01DB015C01CB
:10E560006D01772420E2222E2E010894411C511CBB
:10E570008BC081E0A81680E0B80681E0C80680E084
:10E58000D80628F0C601AA27BB270F940DF2BB2797
:10E59000AD2D9C2D8B2D0F940DF28A2D0F940DF225
:10E5A0002092C6008091C00086FFFCCF8091C00001
:10E5B00080648093C0009DE29093C6008091C0006B
:10E5C00086FFFCCF8091C00080648093C0002092C1
:10E5D000C6008091C00086FFFCCF8091C00080649F
:10E5E0008093C00019828601750188249924A1E0D6
:10E5F0003A1651F03A1620F0B2E03B1661F409C029
:10E600000BBFF701779007C0C7010F9477FE782EF4
:10E6100002C0F7017080872D0F940DF22092C60082
:10E620008091C00086FFFCCF8091C0008064809301
:10E63000C000872D8052F401EF70F0708F3520F408
:10E64000E40DF51D708204C0E40DF51D8EE280839B
:10E650000894E11CF11C011D111D0894811C911CE2
:10E6600090E18916910409F0C2CF80E190E0A0E02A
:10E67000B0E0A80EB91ECA1EDB1E198AC2010F9493
:10E68000FAF10F94DCF16A94662009F072CF629679
:10E690000FB6F894DEBF0FBECDBFCF91DF911F91B3
:10E6A0000F91FF90EF90DF90CF90BF90AF909F9031
:10E6B0008F907F906F905F904F903F902F90089534
:10E6C0002F923F924F925F926F927F928F929F9282
:10E6D000AF92BF92CF92DF92EF92FF920F931F9370
:10E6E000DF93CF93CDB7DEB7CD53D1400FB6F894BB
:10E6F000DEBF0FBECDBF01E20EBF0FEF0DBF94B75F
:10E70000F894A89514BE80916000886180936000A1
:10E7100010926000789493FF05C0E0910002F091A0
:10E7200001021995279A2F9A8091C00082608093E8
:10E73000C00080E18093C40088E18093C1000000A4
:10E74000EE24FF24870144E0A42EB12CCC24DD2448
:10E7500024C0C5010197F1F70894E11CF11C011DCB
:10E76000111D21E2E2162EE4F20620E0020720E06D
:10E77000120718F031E0C32ED12CC801B70127ECE5
:10E780003BE140E050E00F9441FE611571058105C9
:10E79000910519F485B1805885B98091C00087FD35
:10E7A00003C0C114D104A9F2A6014F5F5F4FC25E3E
:10E7B000DE4F59834883CE51D140C25EDE4F8881FF
:10E7C0009981CE51D140019711F00D9410FEC05D9A
:10E7D000DE4F19821882C053D14060E0C15DDE4F28
:10E7E0001882CF52D14088249924C35DDE4F19820C
:10E7F0001882CD52D140C05EDE4F188219821A8233
:10E800001B82C052D140CE5CDE4F188219821A8220
:10E810001B82C253D140EE24FF2487010BBFF701B6
:10E8200007911691C45CDE4F19830883CC53D14005
:10E830000D940BFEC25EDE4F28813981CE51D1404E
:10E840002130310509F52091C600C25EDE4F1982E4
:10E850001882CE51D14022C02F5F3F4F4F4F5F4FA4
:10E86000213082E138078AE7480780E0580780F0C6
:10E87000C45CDE4FE881F981CC53D140EF5FFF4F9C
:10E8800019F0EE27FF27099420E030E040E050E047
:10E890008091C00087FFE0CF2091C600C35DDE4FAE
:10E8A00048815981CD52D1404F5F5F4FC35DDE4FEC
:10E8B00059834883CD52D140213209F063C64A3092
:10E8C000510508F05FC60894811C911C53E0851621
:10E8D000910409F059C600E010E018C081E280936D
:10E8E000C6008091C00086FFFCCF8091C00080648C
:10E8F0008093C0002F5F3F4F2931310579F70F9486
:10E90000DCF10F5F1F4F0530110519F020E030E0FA
:10E91000E5CF10920A0210920B0210920C02109294
:10E920000D02109206021092070210920802109235
:10E930000902109202021092030210920402109235
:10E9400005028FEE90EE60E00F94F5F180E191EE1C
:10E9500060E00F94C2F18091C00087FFFCCF9091DE
:10E96000C600903608F09F759032B8F09093C600BC
:10E970008091C00086FFFCCF8091C00080648093AE
:10E98000C000A0E2A093C6008091C00086FFFCCF2B
:10E990008091C00080648093C000983409F4D7C18E
:10E9A0009934B8F4923409F459C1933458F490333B
:10E9B00019F1903308F4E3C59F33A1F1903409F0C5
:10E9C000DEC5BDC0953409F470C1963409F0D7C5D1
:10E9D00098C1923509F42BC2933538F49C3409F46C
:10E9E000F5C1913509F0CBC518C2963509F445C279
:10E9F000993509F0C4C567C483E792EE62E00F94CD
:10EA0000F5F110920602109207021092080210927D
:10EA1000090210920A0210920B0210920C0210923C
:10EA20000D0213C18FE792EE62E00F94F5F18FEEC5
:10EA300090EE60E00F94F5F181E291EE60E00F94CA
:10EA4000C2F187EB91EE60E00F94F5F180E391EE77
:10EA500060E00F94C2F184EE90EE60E00F94F5F167
:10EA60008FE391EE60E00F94C2F186E090E061E008
:10EA700070E00F9434F20F94DCF18DE591EE60E0DC
:10EA80000F94C2F189EC91EE60E00F94F5F18EE401
:10EA900091EE60E00F94C2F183EC91EE60E00F9490
:10EAA000F5F18CE691EE60E00F94C2F18EE10F94E7
:10EAB0000DF288E90F940DF281E00F940DF20F949E
:10EAC000DCF18BE791EE60E00F94C2F119E0E0E039
:10EAD000F0E010935700E4918E2F0F940DF20F94F5
:10EAE000DCF18AE891EE60E00F94C2F1E3E0F0E03F
:10EAF00010935700E4918E2F0F940DF20F94DCF1D8
:10EB000089E991EE60E00F94C2F1E2E0F0E0109349
:10EB10005700E4918E2F0F940DF20F94DCF188EAE8
:10EB200091EE60E00F94C2F1E1E0F0E01093570045
:10EB30001491812F0F940DF20F94DCF107CF8BE825
:10EB400092EE62E00F94F5F18BE492EE60E00F94A8
:10EB5000F5F10F94DCF100E010E019C0C8016F2D51
:10EB60000F947FFEFF2031F489E492EE60E00F9471
:10EB7000C2F10BC0F092C6008091C00086FFFCCFAE
:10EB80008091C00080648093C0000F5F1F4FC80158
:10EB900081519F41A0E0B0E0ABBFFC01F790BAE229
:10EBA000FB1621F0E2E000301E07C1F60F94DCF105
:10EBB0000F94DCF187E592EE60E00F94F5F10F948D
:10EBC000DCF1CC24DD2400E010E01EC0C8010F946D
:10EBD00077FEF82E882331F489E492EE60E00F94FA
:10EBE000C2F10BC08093C6008091C00086FFFCCFAD
:10EBF0008091C00080648093C000FE1419F00894D6
:10EC0000C11CD11C0F5F1F4FC80181519F41A0E063
:10EC1000B0E0ABBFFC01E790FAE2EF1621F022E092
:10EC20000030120799F60F94DCF10F94DCF182E6C4
:10EC300092EE60E00F94C2F1C60161E070E00F94C3
:10EC400034F20F94DCF10F94DCF110920202109276
:10EC50000302109204021092050278CE89E992EE26
:10EC600062E00F94F5F1279A2F9A16C02F9880E052
:10EC700090E0E0EDF7E03197F1F7019684369105E9
:10EC8000C1F72F9A80E090E0E0EDF7E03197F1F7DF
:10EC9000019684369105C1F78091C00087FFE6CFC9
:10ECA0008091C00087FFFCCF64C485EA92EE62E0E9
:10ECB0000F94F5F140910202509103026091040219
:10ECC0007091050281E020E10F9491F2809102029F
:10ECD00090910302A0910402B091050280509F4FD1
:10ECE000AF4FBF4F8093020290930302A0930402A0
:10ECF000B093050280509041A040B04008F426CE69
:10ED0000A4CF83EB92EE62E00F94F5F140910602FE
:10ED100050910702609108027091090280E020E1A1
:10ED20000F9491F28091060290910702A09108023F
:10ED3000B091090280509F4FAF4FBF4F80930602A2
:10ED400090930702A0930802B0930902FFCD80ECD4
:10ED500092EE62E00F94F5F183E792EE60E00F949B
:10ED6000F5F18FE792EE60E00F94F5F18BE892EE0B
:10ED700060E00F94F5F189E992EE60E00F94F5F10F
:10ED800085EA92EE60E00F94F5F183EB92EE60E09D
:10ED90000F94F5F180EC92EE60E00F94F5F187ECC2
:10EDA00092EE60E00F94F5F188ED92EE60E00F9442
:10EDB000F5F18FED92EE60E00F94F5F18AEE92EEB0
:10EDC00060E00F94F5F183E093EEBDCD87EC92EE19
:10EDD00062E00F94F5F181E40F947BF282E40F94EA
:10EDE0007BF283E40F947BF284E40F947BF285E45E
:10EDF0000F947BF286E40F947BF287E40F947BF20E
:10EE000088E40F947BF28AE40F947BF28BE40F94F6
:10EE10007BF28CE40F947BF299CD88ED92EE62E068
:10EE20000F94F5F1772473948824992409C48FED05
:10EE300092EE62E00F94F5F140910A0250910B02BC
:10EE400060910C0270910D0282E020E10F9491F22A
:10EE500080910A0290910B02A0910C02B0910D02D8
:10EE600080509F4FAF4FBF4F80930A0290930B0289
:10EE7000A0930C02B0930D0269CD8AEE92EE62E08F
:10EE80000F94F5F184EE90EE60E00F94F5F18FECC5
:10EE900091EE60E00F94F5F1662477244301CC5D98
:10EEA000DE4F19821882C452D140D401C301B695F5
:10EEB000A79597958795CA5DDE4F88839983AA8326
:10EEC000BB83C652D140CC5DDE4FA881B981C4520C
:10EED000D1401196CC5DDE4FB983A883C452D14096
:10EEE000CD0162E070E00F9434F2B0E2B093C6005E
:10EEF0008091C00086FFFCCF8091C0008064809329
:10EF0000C000EDE2E093C6008091C00086FFFCCF18
:10EF10008091C00080648093C000F0E2F093C6004E
:10EF20008091C00086FFFCCF8091C00080648093F8
:10EF3000C000CA5DDE4FE880F9800A811B81C6529D
:10EF4000D140BB27A12F902F8F2D0F940DF2CA5DBA
:10EF5000DE4F8881C652D1400F940DF2B0E2FB2EF5
:10EF6000F092C6008091C00086FFFCCF8091C00067
:10EF700080648093C0000DE30093C6008091C000C0
:10EF800086FFFCCF8091C00080648093C00010E2B7
:10EF90001093C6008091C00086FFFCCF8091C00016
:10EFA00080648093C0008BBEF3012791C65DDE4F65
:10EFB0002883CA52D140A22EBB24CC24DD2408943D
:10EFC000611C711C811C911C8BBEF3018791282E42
:10EFD0003324442455240894611C711C811C911C09
:10EFE0008BBEF3013791C55DDE4F3883CB52D140E4
:10EFF0000894611C711C811C911C8BBEF30147910C
:10F00000C45DDE4F4883CC52D140ADEFEA2EAFEF66
:10F01000FA2EAFEF0A2FAFEF1A2F6E0C7F1C801E57
:10F02000911E142D032DF22CEE24EA0CFB1C0C1D5A
:10F030001D1D0F940DF220E22093C6008091C000A8
:10F0400086FFFCCF8091C00080648093C000C65DC5
:10F05000DE4F8881CA52D1400F940DF230E23093D6
:10F06000C6008091C00086FFFCCF8091C000806404
:10F070008093C000C45DDE4F8881CC52D1400F9494
:10F080000DF240E24093C6008091C00086FFFCCFA5
:10F090008091C00080648093C000C55DDE4F888190
:10F0A000CB52D1400F940DF250E25093C6008091A4
:10F0B000C00086FFFCCF8091C00080648093C000B8
:10F0C0008FEFE8168FEFF80680E0080780E018075A
:10F0D00031F484E092EE60E00F94C2F1DFC0D80119
:10F0E000C7018070907CA070B0708050904CA040A0
:10F0F000B040D1F52FEF3FE340E050E0E222F322B1
:10F1000004231523CA5DDE4FA880B980CA80DB8046
:10F11000C652D140AE0CBF1CC01ED11EAA0CBB1CD7
:10F12000CC1CDD1C8EE092EE60E00F94C2F1BB2798
:10F13000A12F902F8F2D0F940DF28E2D0F940DF285
:10F1400030E23093C6008091C00086FFFCCF8091F2
:10F15000C00080648093C0004EE34093C60080915D
:10F16000C00086FFFCCF87C08EE09EEFA0E0B0E03D
:10F17000E822F9220A231B239CE0E91694E9F90608
:10F1800090E0090790E0190709F088C0C45DDE4FE0
:10F19000A881CC52D140EA2EFF2400E010E0102FCD
:10F1A0000F2DFE2CEE24C55DDE4FB881CB52D14031
:10F1B000EB0EF11C011D111DD601C501817090706F
:10F1C000A070B070DC0199278827E80EF91E0A1F8D
:10F1D0001B1F20EF30E040E050E0A222B322C42207
:10F1E000D52241E1AA0CBB1CCC1CDD1C4A95D1F7F1
:10F1F000EA0CFB1C0C1D1D1D81E090E0A0E0B0E0BE
:10F20000282239224A225B2235E1220C331C441C7D
:10F21000551C3A95D1F7E20CF31C041D151D57013E
:10F220006801AA0CBB1CCC1CDD1C85E192EE60E0E1
:10F230000F94C2F1C801AA27BB270F940DF2BB2778
:10F24000A12F902F8F2D0F940DF28E2D0F940DF274
:10F2500090E29093C6008091C00086FFFCCF809121
:10F26000C00080648093C000AEE3A093C60080918C
:10F27000C00086FFFCCF8091C00080648093C000F6
:10F28000C601AA27BB270F940DF2BB27AD2D9C2DDD
:10F290008B2D0F940DF28A2D0F940DF20F94DCF14B
:10F2A000CC5DDE4FE881F981C452D140F99709F471
:10F2B0004DCBF4E0EF2EF12C012D112D6E0C7F1CA7
:10F2C000801E911EF2CD83E093EE62E00F94F5F183
:10F2D0008AE192EE60E00F94C2F18091C00087FF56
:10F2E000FCCF1091C6001F751093C6008091C0001E
:10F2F00086FFFCCF8091C00080648093C0000F9493
:10F30000DCF1812F81548A3108F036C1163409F4BA
:10F3100095C0173490F4133409F44EC0143430F40B
:10F320001134F1F0123409F01DC130C0143409F465
:10F3300059C0153409F016C16BC01A3409F4C4C0A1
:10F340001B3438F4173409F48FC0183409F00AC19B
:10F35000A1C01B3409F4D2C01C3409F003C1E8C0B9
:10F360008FEF81B90DC082B1809582B980E090E0C5
:10F37000E0EDF7E03197F1F70196883C9105C1F790
:10F380008091C00087FFEFCF12B8EFC08FEF84B934
:10F390000DC085B1809585B980E090E0E0EDF7E0A3
:10F3A0003197F1F70196883C9105C1F78091C00033
:10F3B00087FFEFCF15B8D9C08FEF87B90DC088B1DF
:10F3C000809588B980E090E0E0EDF7E03197F1F7C3
:10F3D0000196883C9105C1F78091C00087FFEFCF6F
:10F3E00018B8C3C08FEF8AB90DC08BB180958BB9A7
:10F3F00080E090E0E0EDF7E03197F1F70196883C8E
:10F400009105C1F78091C00087FFEFCF1BB8ADC059
:10F410008FEF8DB90DC08EB180958EB980E090E0F0
:10F42000E0EDF7E03197F1F70196883C9105C1F7DF
:10F430008091C00087FFEFCF1EB897C08FEF80BBD1
:10F440000DC081B3809581BB80E090E0E0EDF7E0F6
:10F450003197F1F70196883C9105C1F78091C00082
:10F4600087FFEFCF11BA81C08FEF83BB0DC084B38C
:10F47000809584BB80E090E0E0EDF7E03197F1F714
:10F480000196883C9105C1F78091C00087FFEFCFBE
:10F4900014BA6BC08FEF809301010FC080910201FD
:10F4A00080958093020180E090E0E0EDF7E03197F5
:10F4B000F1F70196883C9105C1F78091C00087FF64
:10F4C000EDCF1092020151C08FEF809304010FC065
:10F4D0008091050180958093050180E090E0E0ED4A
:10F4E000F7E03197F1F70196883C9105C1F78091DB
:10F4F000C00087FFEDCF1092050137C08FEF8093DA
:10F5000007010FC08091080180958093080180E079
:10F5100090E0E0EDF7E03197F1F70196883C910536
:10F52000C1F78091C00087FFEDCF109208011DC088
:10F530008FEF80930A010FC080910B01809580931B
:10F540000B0180E090E0E0EDF7E03197F1F70196F4
:10F55000883C9105C1F78091C00087FFEDCF1092E4
:10F560000B0103C085E292EEEEC98091C00087FFD7
:10F57000FCCF8091C600EAC988E392EEE4C98CE131
:10F5800091EEE1C988249924933011F1943028F444
:10F59000913089F09230B8F408C0953061F195301F
:10F5A000F0F0963009F048C043C02B3109F042C951
:10F5B00091E06BE13FC96227C15DDE4F2883CF52E6
:10F5C000D14092E037C9B22FA0E0622793E032C960
:10F5D000822F90E0A82BB92B622794E02BC92E3004
:10F5E00009F039C3622795E0C05DDE4F19821882A9
:10F5F000C053D1401FC9E1E0F0E0EC0FFD1FC05D3A
:10F60000DE4F08811981C053D140E00FF11F2083E4
:10F610000F5F1F4FC05DDE4F19830883C053D14079
:10F6200062270A171B0709F005C9D80196E002C92D
:10F63000261709F010C303C0973009F0FBC87724E0
:10F640009981933109F412C19431C8F4963009F4C8
:10F65000D8C0973050F4923009F406C1933009F4C1
:10F660006DC0913009F059C253C0913109F477C08F
:10F67000923108F0BBC0903109F04FC2F5C098310B
:10F6800009F487C0993150F4953109F4EFC09531F0
:10F6900008F4C6C1963109F040C2C2C19A3109F4DA
:10F6A0006CC09A3108F491C09B3109F45BC09D3164
:10F6B00009F033C29D81903359F48F81882311F46E
:10F6C0009EE11CC0813011F091E018C098E916C08D
:10F6D000892F807591F0903539F4E0E0F0E089E011
:10F6E0008093570094910AC0983539F4E3E0F0E034
:10F6F00089E080935700949101C090E01A821B82A8
:10F700008D818C831D829E831F8227E030E009C299
:10F710001A8288E08B8381E48C8386E58D8382E581
:10F720008E8389E48F8383E5888780E589878FE5E9
:10F730008A8782E38B872BE030E0F3C18A818139AD
:10F7400041F0823941F0803911F48FE005C080E04A
:10F7500003C082E001C08AE01A828B8344C0772410
:10F76000739482C08D81882311F48EE12CC0813086
:10F7700011F081E028C088E926C01A82E1E0F0E0BB
:10F7800089E08093570084918B831C8224E030E0D1
:10F79000C8C18B81803589F48C81883039F4E2E0EE
:10F7A000F0E089E08093570084910DC0E0E0F0E044
:10F7B00089E080935700849106C0E3E0F0E089E09F
:10F7C0008093570084911A82DFCF8D81836C99E0FA
:10F7D000E1E0F0E0082E90935700E89507B600FCB2
:10F7E000FDCF1A821B8223E030E09BC180EC8A832C
:10F7F000CE5CDE4F188219821A821B82C253D1401E
:10F800008EC18A8190E0A0E0B0E0582F44273327D2
:10F8100022278B8190E0A0E0B0E0DC0199278827C7
:10F82000282B392B4A2B5B2B8D8190E0A0E0B0E098
:10F83000282B392B4A2B5B2B8C8190E0A0E0B0E089
:10F84000BA2FA92F982F8827282B392B4A2B5B2BCF
:10F85000220F331F441F551FC05EDE4F288339839C
:10F860004A835B83C052D1401A8259C13A81C95C34
:10F87000DE4F3883C753D140CA5CDE4F1882C6536F
:10F88000D1408B81C82EDD24CA5CDE4F488159816E
:10F89000C653D140C42AD52A933109F082C0CE5C28
:10F8A000DE4F88819981AA81BB81C253D1408050AB
:10F8B000904CA340B04030F583E0CE5CDE4FE88052
:10F8C000F9800A811B81C253D140F70100935B008C
:10F8D00080935700E89507B600FCFDCFCE5CDE4F65
:10F8E000088119812A813B81C253D14000501F4FAA
:10F8F0002F4F3F4FCE5CDE4F088319832A833B8313
:10F90000C253D140C05EDE4F488159816A817B81FC
:10F91000C052D140DE011B9631E08C9111962C91A2
:10F9200011971296C75CDE4F2883C953D140C85C3B
:10F93000DE4F1882C853D14090E0C85CDE4FE881AA
:10F94000F981C853D1408E2B9F2B0C01FA01609393
:10F950005B0030935700E89511244E5F5F4F6F4F67
:10F960007F4F0EEFE02E0FEFF02ECE0CDF1CC114F8
:10F97000D10499F685E0C05EDE4F088119812A81A5
:10F980003B81C052D140F80120935B008093570027
:10F99000E89507B600FCFDCF81E180935700E8951C
:10F9A00035C0C05EDE4F88819981AA81BB81C0527B
:10F9B000D140B695A795979587957C018601ABE0D8
:10F9C000AA2EB12CAC0EBD1E0BC0D5016D915D01F0
:10F9D000C7010F947FFE0894E11CF11C01501040F8
:10F9E0000115110591F7A60160E070E0440F551F65
:10F9F000661F771FC05EDE4FE880F9800A811B8199
:10FA0000C052D1404E0D5F1D601F711F1A82C05E33
:10FA1000DE4F488359836A837B83C052D1407FC0C5
:10FA2000FA80C55CDE4FF882CB53D140C65CDE4F16
:10FA30001882CA53D1408B81C82EDD24C65CDE4FAC
:10FA400008811981CA53D140C02AD12A1A828981DA
:10FA5000BE016D5F7F4F843121F59601C05EDE4FA0
:10FA6000E880F9800A811B81C052D1400BBFF701A9
:10FA700087919691DB018C9311969C936E5F7F4FDB
:10FA8000D801C7010296A11DB11DC05EDE4F88835B
:10FA90009983AA83BB83C052D14022503040F1F6F3
:10FAA00036C0C05EDE4F288139814A815B81C052F9
:10FAB000D1400894C108D108760100E010E0089414
:10FAC000C11CD11C0894E11CF11C011D111DE20E8A
:10FAD000F31E041F151F21BDBB27A52F942F832FB5
:10FAE00082BD2F5F3F4F4F4F5F4FF89A80B5DB01CC
:10FAF0008D93BD012E153F054007510761F7C05E8C
:10FB0000DE4F288339834A835B83C052D1409601FC
:10FB10002D5F3F4FFB01108204C080EC8A8322E0FE
:10FB200030E08BE18093C6008091C00086FFFCCF5F
:10FB30008091C00080648093C000C15DDE4FF88179
:10FB4000CF52D140F093C6008091C00086FFFCCF19
:10FB50008091C00080648093C000432F3093C60022
:10FB60008091C00086FFFCCF8091C00080648093AC
:10FB7000C000922F2093C6008091C00086FFFCCF6A
:10FB80008091C00080648093C0008EE08093C600A6
:10FB90008091C00086FFFCCF8091C000806480937C
:10FBA000C00065E1C15DDE4FE880CF52D1406E25D7
:10FBB00069276427FE01319610C090819093C6009A
:10FBC0008091C00086FFFCCF31968091C000806498
:10FBD0008093C0006927215030402115310569F715
:10FBE0006093C6008091C00086FFFCCF8091C0006A
:10FBF00080648093C00085B1805885B9772081F4F6
:10FC0000C15DDE4F0881CF52D1400F5FC15DDE4F35
:10FC10000883CF52D14090E0A0E0B0E00D941AF4F8
:10FC200027982F9880E090E020ED37E0F901319798
:10FC3000F1F7019684369105C9F700008091C00064
:10FC40008D7F8093C00081E180935700E895EE2777
:10FC5000FF270994FFCF90E00D941AF497FB092E2B
:10FC600007260AD077FD04D02ED006D000201AF443
:10FC7000709561957F4F0895F6F7909581959F4F08
:10FC80000895A1E21A2EAA1BBB1BFD010DC0AA1FDD
:10FC9000BB1FEE1FFF1FA217B307E407F50720F0F5
:10FCA000A21BB30BE40BF50B661F771F881F991F70
:10FCB0001A9469F760957095809590959B01AC01B9
:10FCC000BD01CF010895AA1BBB1B51E107C0AA1FAC
:10FCD000BB1FA617B70710F0A61BB70B881F991FED
:10FCE0005A95A9F780959095BC01CD010895F99991
:10FCF000FECF92BD81BDF89A992780B50895262F31
:10FD0000F999FECF1FBA92BD81BD20BD0FB6F89400
:0EFD1000FA9AF99A0FBE01960895F894FFCF63
:040000033000E000E9
:00000001FF