:1000000037C3000066C3000064C3000062C3000081
:1000100060C300005EC300005CC300005AC3000060
:1000200058C3000056C3000054C3000052C3000070
:1000300050C300004EC300004CC300004AC3000080
:1000400048C3000046C3000044C3000042C3000090
:1000500040C300003EC300003CC3000014C70000C2
:1000600038C300000C94090C0C94E00B32C3000060
:1000700030C300002EC300002CC300002AC30000C0
:1000800028C3000026C3000024C3000022C30000D0
:1000900020C300001EC300001CC300001AC30000E0
:1000A00018C3000016C3000014C3000012C30000F0
:1000B00010C300000EC300000CC300000AC3000000
:1000C00008C3000006C3000004C3000002C3000010
:1000D00000C30000FEC20000FCC20000FAC2000023
:1000E000F8C20000EB03EE03DD03E103E7032504A0
:1000F000F203F603FC03000404040A040E041204D1
:10010000250418041C042004FFE0FFD1AFFF32FFD8
:10011000D0FFFEFFE0FFD1AEFFD0FFFEFFE0FFD13A
:100120001000FFFEFFD0FFE0FFC1FFD1AED580A8D9
:100130003FD300408D142000A1C8DA1281CFD9F13D
:10014000DB402EA4A6AFFFD0FFFE0000210024005C
:1001500027002A002D0030003300010100000401B7
:1001600007010A0100002200250028002B002E00B4
:100170003100340002010000050108010B010000FC
:1001800020002300260029002C002F00320000014F
:10019000000003010601090105050505070508081A
:1001A0000808020202020A0A080804040404010101
:1001B0000101010101010303030303030303040716
:1001C00007070C0C0C0C0C0C0C0C020202020606AD
:1001D0000606060606060B0B0B0B0B0B0B0B0102A0
:1001E0001020200808102040102040800201020149
:1001F0000804020101020408102040808040201001
:100200000804020180040201804020100804020159
:1002100008040201010204081020408001020408C1
:100220001020408000000A0B02090C0D0E08070385
:1002300004010000000000000000000000000000B9
:1002400000000000000000000000000000000000AE
:10025000121110000000000000000000000000006B
:100260000000000000000000000001080D00FE0971
:10027000016102CD207FFE0BFE09FE0D00803219C8
:100280008980808080808080008028438390909047
:100290001367874848FC48FC48481259892078A0D1
:1002A000A0702828F02012698944A4481010204822
:1002B00054881267876090906094887438138380A4
:1002C000808032398920404080808040402022391F
:1002D000898040402020204040801665854830FCC1
:1002E00030481455852020F8202011438370608009
:1002F000165181F821338340E040027989020204DB
:100300000810204080801269893048848484848465
:1003100048301259892060A02020202020F812693E
:10032000897884840408304080FC126989FC0408C0
:10033000103804048478126989081828488888FCD1
:100340000808126989FC8080B8C4040484781269A2
:100350008938408080B8C4848478126989FC040894
:100360001010202040401269897884848478848425
:1003700084781269897884848C7404040870213824
:100380008840E040000040E0401148882070200094
:100390000070608022598908102040804020100899
:1003A000146484FC0000FC1259898040201008105D
:1003B000204080126989788484040810100010128B
:1003C00069897884849CA4AC9480781269893048C7
:1003D000848484FC848484126989F0888488F08809
:1003E0008488F01269897884808080808084781283
:1003F0006989F088848484848488F0126989FC8007
:100400008080F0808080FC126989FC808080F08090
:1004100080808012698978848080809C848C7412AA
:10042000698984848484FC84848484125989F820B2
:10043000202020202020F81279893E08080808088A
:10044000088870126989848890A0C0A0908884125E
:1004500069898080808080808080FC0279898282A6
:10046000C6AA92928282821269898484C4A4948CDE
:10047000848484126989788484848484848478124E
:100480006989F8848484F880808080116A8A7884FD
:1004900084848484A4947804126989F8848484F818
:1004A000A090888412698978848080780404847894
:1004B000027989FE10101010101010101269898432
:1004C0008484848484848478027989828244444444
:1004D0002828281002798982828282929292AA44E4
:1004E0000279898282442810284482820279898292
:1004F0008244281010101010126989FC0408102082
:10050000408080FC224989F080808080808080F05B
:10051000027989808040201008040202124989F083
:1005200010101010101010F0185383205088017113
:1005300081FE3A2282804012668678047C848C7424
:10054000126989808080B8C48484C4B812668678B1
:100550008480808478126989040404748C84848C77
:10056000741266867884FC808478126989384440E5
:1005700040F84040404010688874888870807884D3
:1005800078126989808080B8C484848484125888F1
:1005900020006020202020F8105A8A08001808083F
:1005A00008088888701269898080808890E0908827
:1005B000841259896020202020202020F80276868D
:1005C000EC9292929282126686B8C48484848412D9
:1005D0006686788484848478106888B8C484C4B8B3
:1005E000808080106888748C848C74040404126683
:1005F00086B844404040401266867884601884780B
:100600001268884040F84040404438126686888826
:10061000888888741256868888885050200276868A
:1006200082829292AA4412668684483030488410AE
:1006300068888484848C74048478126686FC08102C
:100640002040FC22598938404020C02040403832A8
:100650001989808080808080808080125989E01094
:10066000102018201010E018538348A890FF3F0C6A
:1006700011241FBECFEFD1E2DEBFCDBF00E00CBF23
:1006800012E0A0E0B2E0E6E3F6E200E00BBF02C059
:1006900007900D92A635B107D9F724E0A6E5B2E0A0
:1006A00001C01D92AC32B207E1F713E0C8E3D3E01A
:1006B00000E006C021970109802FFE010E9444102E
:1006C000C733D10780E00807A9F70E94260D0C94D4
:1006D000191396CCFC01918D828D981761F0828D53
:1006E000DF01A80FB11D5D968C91928D9F5F9F7366
:1006F000928F90E008958FEF9FEF0895FC01918D08
:10070000828D981731F0828DE80FF11D858D90E074
:1007100008958FEF9FEF0895FC01918D228D892F11
:1007200090E0805C9F4F821B91098F7399270895F9
:1007300080E090E0892B19F0F6D6811125C080E089
:1007400090E0892B41F080E090E0892B21F00E941D
:10075000000081111CC080E090E0892B41F080E016
:1007600090E0892B21F00E940000811113C080E0ED
:1007700090E0892BA1F080E090E0892B81F00E942D
:10078000000081110AC008950E940000D8CF0E9485
:100790000000E1CF0E940000EACF0C940000089511
:1007A00090E0FC013197E231F10508F04EC0882756
:1007B000EE58FF4F8F4F0C944410809180008F773C
:1007C00003C0809180008F7D809380000895809188
:1007D0008000877FF9CF84B58F7702C084B58F7D85
:1007E00084BD08958091B0008F7703C08091B000E0
:1007F0008F7D8093B0000895809190008F7707C01F
:10080000809190008F7D03C080919000877F8093BE
:10081000900008958091A0008F7707C08091A0007C
:100820008F7D03C08091A000877F8093A0000895F2
:10083000809120018F7707C0809120018F7D03C0B8
:1008400080912001877F8093200108950895DC0125
:100850001696ED91FC91179712968C91481B477054
:1008600081E090E001C0880F4A95EAF7E60FF11D9C
:100870003081222311F0832B02C080958323808353
:100880000895FB014181DC0112962C9112974217C9
:1008900060F013962C911397241738F06081159609
:1008A0002C91621710F42481D2CF0895FC0180812D
:1008B0009281980F92832181921760F494819F5FB7
:1008C00094839381890F821710F08FEF820F8383B7
:1008D00081E0089580E00895FC01128280818150BA
:1008E00083831482089580E008950B96FC0184911F
:1008F00008950A96FC0184910895FC01849108955D
:10090000FCDF882321F0823011F083E0089586E037
:100910000895FC01E60FF11D849190E0982F88273F
:100920003196E4918E0F911D089568E0F2CF66E054
:10093000F0CF2EE93FE0009729F0F9013197F1F768
:100940000197F9CF08951092570210925602089518
:10095000809361021092B90084FF02C08CE001C054
:1009600088E48093B800EFCFDB011496ED91FC9101
:10097000159720E030E065E01994DB011496ED91C5
:10098000FC91159720E030E062E01994DB011496A9
:10099000ED91FC91159720E030E063E01994CF923F
:1009A000DF92EF92FF920F931F93CF93DF938C010F
:1009B0007B016A0180E0F601C49181110AC0CF3F3A
:1009C00009F447C04C2FB701C801CEDF81113FC0E9
:1009D00045C0CF3F11F44FEFF6CFCE3F09F440C0F2
:1009E000C03FA8F5C03E30F04C2F4F70B701C80192
:1009F000C4DF2DC0C03D30F04C2F4F70B701C8018F
:100A0000C5DF25C0C03CF0F0D7011496ED91FC91F4
:100A1000159720E030E040E064E0C8011995C295E8
:100A2000C07FCE5FD0E0CE0184DFD7011496ED9178
:100A3000FC91159720E030E041E064E0C801199591
:100A4000CE0104C0C7FD03C08C2F90E072DF80E0B0
:100A500001C081E0BFEFCB1ADB0AADCF80E001C05F
:100A600081E0DF91CF911F910F91FF90EF90DF9088
:100A7000CF9008958F929F92AF92BF92CF92DF92C4
:100A8000FF920F931F93CF93DF931F921F92CDB7C7
:100A9000DEB76C018B01F42E490120E1421709F405
:100AA0005DC02417D8F03AE0431701F18FE04813F6
:100AB0005EC041E0C6016ADF40E0B801C6015DDF0B
:100AC00041E8B801C60150DFF4014081B801C60118
:100AD0004BDF40E0B801C60159DFFEC0A1E14A1773
:100AE00009F43FC0B5E14B1789F041C0DB01149612
:100AF000ED91FC91159720E030E042E061E019951E
:100B000044E251E0B801C6014ADF31C0FB01A280D6
:100B1000B3804CE151E043DFD50114964C91406B1A
:100B2000B801C60121DF41E0B801C60126DFF501A9
:100B300026813781D8011496ED91FC911597D50146
:100B400015964C9166E0C6011995811102C080E0AE
:100B5000C4C040E0B801C60119DF09C043E151E05B
:100B600002C048E051E0B801C60119DFB5C0D801A4
:100B700012960D911C911397B2E3FB1609F473C002
:100B8000BF15B8F0E5E1FE1609F478C0F7E1FF16ED
:100B900009F489C024E1F2129FC0D8011696ED91A4
:100BA000FC91179715968C919F01280F311DC90153
:100BB0005EC036E4F31609F486C087E4F81609F43B
:100BC00086C0ABE3FA1288C0F40181819381913031
:100BD00029F0933031F4482F885004C048E0480F82
:100BE00001C0482F21E0D80113963C91381708F432
:100BF00020E031E0F8015281451708F430E051E07F
:100C0000481708F050E0822F852B382319F425234C
:100C100009F462C0D4011296FC90913051F030F08A
:100C2000923049F0933051F42FEF09C020E031E0C9
:100C300007C021E004C020E03FEF02C020E030E028
:100C4000F7FE07C0B401C8012A8339831ADE39814F
:100C50002A81F4018081830F80838181820F8183C7
:100C6000FF0C71F739C0B401C8010BDE35C0119219
:100C7000E817F907E1F7C8012FDE2EC0C80116DE1C
:100C8000882309F464CFD8011696ED91FC9117974B
:100C900015968C919F01280F311DC9011192E817FB
:100CA000F907E1F719C0D4011C92F801828111966D
:100CB0008C9311978581815012968C931297838122
:100CC00013968C9309C0D80115968C9103C0D80156
:100CD00011968C91F401808381E00F900F90DF9149
:100CE000CF911F910F91FF90DF90CF90BF90AF9069
:100CF0009F908F900895FC01848DDF01A80FB11D96
:100D0000A35ABF4F2C91848D90E001968F73992741
:100D1000848FA689B7892C93A089B1898C9180642E
:100D20008C93938D848D981306C00288F389E02DEF
:100D300080818F7D80830895CF93DF93282F30E0CB
:100D4000F901EC5DFD4F8491F901E252FE4FD4911F
:100D5000F901E856FE4FC491CC2389F0811120DDC2
:100D6000EC2FF0E0EE0FFF1FE258FE4FA591B4917B
:100D7000EC91ED2381E090E021F480E002C080E07E
:100D800090E0DF91CF910895862FD6CF1F93CF9318
:100D9000DF93282F30E0F901EC5DFD4F8491F901DC
:100DA000E252FE4FD491F901E856FE4FC491CC2394
:100DB000C1F0162F8111F4DCEC2FF0E0EE0FFF1FD5
:100DC000EC59FE4FA591B4918FB7F894111105C05D
:100DD0009C91ED2FE095E92302C0EC91ED2BEC9373
:100DE0008FBFDF91CF911F910895862F642FCECFB3
:100DF000CF93DF9390E0FC01E252FE4F2491FC017F
:100E0000E856FE4F8491882361F190E0880F991F86
:100E1000FC01E65BFE4FC591D491FC01EC59FE4FFD
:100E2000A591B491611109C09FB7F894888120956C
:100E300082238883EC912E230BC0623061F49FB72C
:100E4000F8943881822F809583238883EC912E2B10
:100E50002C939FBF06C08FB7F894E8812E2B288370
:100E60008FBFDF91CF910895862F642FC1CF2FB709
:100E7000F89460915D0270915E0280915F029091A2
:100E800060022FBF08951F920F920FB60F92112488
:100E90002F933F938F939F93AF93BF9380915D0266
:100EA00090915E02A0915F02B091600230915C026D
:100EB00023E0230F2D3720F40196A11DB11D05C09D
:100EC00026E8230F0296A11DB11D20935C0280939A
:100ED0005D0290935E02A0935F02B09360028091E6
:100EE000580290915902A0915A02B0915B0201966A
:100EF000A11DB11D8093580290935902A0935A02EC
:100F0000B0935B02BF91AF919F918F913F912F91D1
:100F10000F900FBE0F901F901895DB01ED91FC9183
:100F20001994EF92FF920F931F93CF93DF931F9229
:100F3000CDB7DEB78C01DC011296ED90FC901397D3
:100F4000D196ED91FC91D29782E0199520E030E0A6
:100F50004AE0B701C801E1DFF82ED801D196ED9142
:100F6000FC91D29783E01995D801D196ED91FC912F
:100F7000D29780E01995FF2081F1F8016281738199
:100F80009E012F5F3F4F46E4C801C7DF8981D8012A
:100F90008C9312966D917C9113979E012F5F3F4F1A
:100FA00047E4C801BADF8981F801818362817381D6
:100FB00020E030E048E4C801B0DFD8011B968C93F4
:100FC0001B9798012D5C3F4F12966D917C91139762
:100FD00047E1C801A2DF81E001C080E00F90DF910E
:100FE000CF911F910F91FF90EF9008954F925F92D4
:100FF0006F927F928F929F92AF92BF92CF92DF9229
:10100000EF92FF920F931F93CF93DF931F92CDB771
:10101000DEB72C01E62EF42EC22EDC0114960D91C3
:101020001C911597C80169DCD82EF2018481958145
:1010300067DC982EF1E0DF1203C02FE0A22E02C081
:10104000AA24AA94D20114968D919C91159751DCF3
:10105000D82EF2018481958148DCB82ED2011496F5
:101060008D919C91159761DCB0E6BC1538F4009722
:1010700029F0080F191F91E6D92E10C0F2018481C2
:10108000958155DCF0E4FC1538F4009729F0080F41
:10109000191F81E4D82E02C00F5E1F4FBC1480F4CC
:1010A000D20150961C92509753961C925397549687
:1010B0001C92549751961C92519752961C929EC026
:1010C000BD1470F3892D90E0F80124912F3F19F49D
:1010D0000F5F1F4F59C0DC104EC0D20114968D9186
:1010E0009C9115970ADC98012F5F3F4FF8018823E8
:1010F00011F08230E1F48491D20153968C9353978E
:10110000F901249154962C935497F8013396E49165
:101110005096EC935097F8013496E4915196EC93E5
:101120005197F8013596E4915296EC9320C0849142
:10113000982F9F709250D20152969C93529782950D
:101140008F7051968C935197F9012491822F8F7053
:1011500054968C93549722952F7053962C935397B3
:10116000F8013296E491E295EF705096EC930115F8
:10117000110579F443C0F8013296E491EA219C010B
:101180002E0F311D020F131FDB1409F489CFD394E6
:101190009BCFF20184819581B3DBD20153963C91C0
:1011A000539754962C91549751965C91519752961F
:1011B0009C915297920FF91A9FEF920F9F0DD49620
:1011C0004C91D497D6966C916F1518F0941728F41B
:1011D00002C0941780F09F1570F4E50E9FEF930FF7
:1011E0009E0DD201D3964C91D397D5965C915E1506
:1011F00038F4941738F4F20180893EC080E03CC096
:10120000941710F49E15B8F7080F111D395F732E4F
:101210007694769476946F2C620E5201FCE1AF0EB8
:10122000B11C872C912CF61431F35E2D68018C2DA6
:10123000801B8715E8F4F6018491D20112966D9116
:101240007C9113975C965C935C975D96FC925D979E
:101250005F961C925F975E968C9395014BE3C2015B
:1012600059835BDEBFEFCB1ADB0A5981585FDFCFB2
:10127000080D191DF394D7CF0F90DF91CF911F91D7
:101280000F91FF90EF90DF90CF90BF90AF909F9025
:101290008F907F906F905F904F900895CF92DF92E4
:1012A000EF92FF920F931F93CF93DF931F92CDB7CF
:1012B000DEB76C01DC01DC961C91DC97DB960C91AF
:1012C0007C01B4E0EB0EF11CDC015996ED91FC9130
:1012D0005A97C70169831995482F410F2981602FBB
:1012E000C70184DEF60123AD082E000C990B820F96
:1012F000911D83AF81E090E00F90DF91CF911F911E
:101300000F91FF90EF90DF90CF900895909157024A
:10131000911104C0809357026093560208951F9361
:10132000CF93DF931F921F92CDB7DEB720ED37E04A
:101330003A8329839091BC00982391F429813A81C2
:10134000232B49F480916102182F127081FD08C08F
:1013500081E0DCDF06C029813A8121503109E8CFE4
:1013600011E0812F0F900F90DF91CF911F91089581
:1013700084E98093BC0064E080E1D1CFCF93809377
:10138000BB0084E88093BC0063E080E8C8DFC82F1E
:10139000882381F080916102C82FC27081FD09C04D
:1013A0008091B900887F883221F063E082E0AEDF6F
:1013B00001C0C1E08C2FCF910895CF93DF93FC0142
:1013C00023A5222369F0EC01C8D1811102C080E07D
:1013D00008C08EA1811180E4D1DF8823C1F31BA650
:1013E00081E0DF91CF9108950F931F93CF93C42F86
:1013F00089016330B9F050F4613081F0623009F056
:101400003FC0FC0146A321E023A73AC06630E9F0C3
:10141000673041F1653009F033C00CC0FC0186A58E
:1014200097DA2EC0FC0116A221E023A7411128C0A3
:101430009FDF26C0C2DF811103C09ADF80E021C098
:101440008C2F9CDF81111CC0F8CFB7DF8823A9F354
:10145000CC23B1F0F80181918F0190DF882369F3EB
:10146000C150F6CFAADF882341F3CC2349F0F8011D
:10147000849184DF882329F00F5F1F4FC150F5CF7F
:1014800081E0CF911F910F91089596E0899FD0013F
:101490001124A158BC4F90967C936E935F9791E076
:1014A00091969C9391979091EB03E091EC03F091CE
:1014B000ED03992339F0309751F0811108C08091E4
:1014C0009B0304C0309719F05C968C911994089591
:1014D000CF92DF92EF92FF920F931F93CF93DF9300
:1014E0006C017A018B01C0E0D0E0CE15DF0589F0F8
:1014F000D8016D918D01D601ED91FC910190F081A3
:10150000E02DC6011995892B11F47E0102C02196A8
:10151000ECCFC701DF91CF911F910F91FF90EF901A
:10152000DF90CF90089582EE92E0F6D821E0892BEB
:1015300009F420E0822F08958F929F92AF92BF927C
:101540000F931F93CF93DF93CDB7DEB7A1970FB65D
:10155000F894DEBF0FBECDBF19A2423008F44AE0B6
:101560008E010F5D1F4F842E912CA12CB12CA50153
:10157000940168D5E62FB901CA0101501109EA307A
:1015800014F4E05D01C0E95CD801EC93232B242B1B
:10159000252B69F70115110569F0F801019000206C
:1015A000E9F73197AF01401B510BB80182EE92E091
:1015B0008FDF02C080E090E0A1960FB6F894DEBF06
:1015C0000FBECDBFDF91CF911F910F91BF90AF9014
:1015D0009F908F9008950F931F93CF93DF93C82F01
:1015E000D62F86E0C89FF0011124E158FC4F11A2CC
:1015F000878D90A181309105E1F01CF4892B49F091
:101600003FC08230910591F10397D1F560E070E021
:1016100031C06623A9F161E070E08C2F36DF27DC52
:101620006093D7037093D8038093D9039093DA0320
:1016300027C01DDC0091D7031091D8032091D90356
:101640003091DA03AB01BC01401B510B620B730BF1
:101650008091E9039091EA03A0E0B0E08417950738
:10166000A607B70718F462E070E004C0D11108C003
:1016700063E070E08C2FDF91CF911F910F9105CF28
:10168000DF91CF911F910F91089506D5EF92FF92B0
:101690000F931F93CF93DF93EC0181E0888F9B8D95
:1016A0008C8D981305C0E889F989808185FD23C058
:1016B000F62E0B8D10E00F5F1F4F0F731127E02EDA
:1016C0008C8DE8120BC00FB607FCFACFE889F989B8
:1016D000808185FFF5CFCE010EDBF2CF8B8DFE0131
:1016E000E80FF11DE35AFF4FF0820B8FEA89FB8967
:1016F0008081806207C0EE89FF896083E889F9896B
:1017000080818064808381E090E0DF91CF911F91A0
:101710000F91FF90EF900895CF93DF93EC01888DA8
:101720008823C1F0EA89FB89808185FD05C0A889ED
:10173000B9898C9186FD0EC00FB607FCF5CF80816C
:1017400085FFF2CFA889B9898C9185FFEDCFCE01B5
:10175000D2DAE8CFDF91CF910895CF9384EA8093D6
:10176000BC0061E080E8DBDD882351F08091B900A6
:10177000887F883039F0803129F061E082E0C6DD71
:10178000C0E01BC088E78093BB0084E88093BC0066
:1017900062E080E8C4DD882399F380916102C82F5C
:1017A000C27081FD09C08091B900887F883121F025
:1017B00062E082E0ABDD01C0C1E08C2FCF910895E3
:1017C0001F920F920FB60F9211240BB60F922F9308
:1017D0003F934F935F936F937F938F939F93AF93B9
:1017E000BF93EF93FF9382EE92E085DAFF91EF9142
:1017F000BF91AF919F918F917F916F915F914F9129
:101800003F912F910F900BBE0F900FBE0F901F9026
:1018100018951F920F920FB60F9211240BB60F92CC
:101820002F938F939F93EF93FF93E091F202F091A8
:10183000F3028081E091F802F091F90282FD12C07A
:1018400090818091FB028F5F8F732091FC02821741
:1018500051F0E091FB02F0E0EE51FD4F958F809347
:10186000FB0201C08081FF91EF919F918F912F9199
:101870000F900BBE0F900FBE0F901F9018951092F7
:10188000E5021092E40288EE93E0A0E0B0E08093DD
:10189000E6029093E702A093E802B093E9028AE29D
:1018A00092E09093E3028093E20285EC90E09093C3
:1018B000EF028093EE0284EC90E09093F10280932B
:1018C000F00280EC90E09093F3028093F20281ECBE
:1018D00090E09093F5028093F40282EC90E0909374
:1018E000F7028093F60286EC90E09093F9028093E1
:1018F000F8021092FB021092FC021092FD0210926C
:10190000FE021092F1031092F00384E492E09093AF
:10191000EF038093EE031092290410922A04109290
:101920002B041092F7031092F6031092F903109211
:10193000F8031092FB0381E08093FA0382E2809324
:10194000FC031092010410920004E5E1F4E09FEF23
:101950008EE08E0F91938E13FDCF81E08093120461
:1019600023E734E0309308042093070480930904AC
:1019700010920A0410920B0480E480930C041092DD
:101980000D0486E294E0909324048093230488E07D
:1019900092E09093F5038093F40382E18093200416
:1019A00082EF93E0BEDA8CE492E09093EF038093B1
:1019B000EE0310928103109285031092840310921B
:1019C00086038AE392E09093800380937F0380E014
:1019D00090E0FC01E158FC4F148E10A2178E11A26A
:1019E00006968C339105A9F782E192E09093E20389
:1019F0008093E1038EE092E09093E4038093E3030D
:101A000084E08093E5038093E60386E192E090937F
:101A1000E0038093DF038AE090E09093E8038093F3
:101A2000E70384EF91E09093EA038093E903109237
:101A3000ED031092EC031092DB031092DC03109282
:101A4000DD031092DE031092EB030895CF93DF9332
:101A5000CDB7DEB72A970FB6F894DEBF0FBECDBF65
:101A6000789484B5826084BD84B5816084BD85B579
:101A7000826085BD85B5816085BD80916E00816085
:101A800080936E001092810080918100826080932B
:101A9000810080918100816080938100809180002D
:101AA0008160809380008091B10084608093B10058
:101AB0008091B00081608093B0008091910082603D
:101AC000809391008091910081608093910080913A
:101AD00090008160809390008091A100826080934B
:101AE000A1008091A10081608093A1008091A0005D
:101AF00081608093A0008091210182608093210108
:101B00008091210181608093210180912001816079
:101B10008093200180917A00846080937A00809184
:101B20007A00826080937A0080917A00816080934D
:101B30007A0080917A00806880937A001092C100C8
:101B40008091F6039091F7038A56924009F445C0BC
:101B50008AE692E09093F7038093F603809109045C
:101B6000811108C0EFE6F2E0E491E0930A04E6E7B1
:101B7000F2E011C0813041F4E9E7F2E0E491E09352
:101B80000A04EAE7F2E007C0E7E7F2E0E491E09355
:101B90000A04E8E7F2E0E491E0930B0480910A0480
:101BA000082E000C990B20910B04821B910927FD34
:101BB000939520910C04203441F0829FC0011124A0
:101BC000E6E096958795EA95E1F780930D0483E723
:101BD00094E09093080480930704E091F202F0915E
:101BE000F30282E08083E091EE02F091EF02108236
:101BF000E091F002F091F1028FEC80831092FA02F2
:101C0000E091F602F091F70286E08083E091F40221
:101C1000F091F502808180618083E091F402F0917F
:101C2000F502808188608083E091F402F091F502F2
:101C3000808180688083E091F402F091F5028081D8
:101C40008F7D8083412C512C3201439480917B0005
:101C5000886080937B0080E480937C0080917A0090
:101C6000806480937A0080917A0086FDFCCFE090BA
:101C7000780080917900F12CF82A81E08093EB03C1
:101C8000F6D80091DB031091DC032091DD03309145
:101C9000DE03AB01BC01401B510B620B730B809147
:101CA000E7039091E803A0E0B0E084179507A6074A
:101CB000B70718F01092EB0309C110E08091E5031B
:101CC000181758F4E091E103F091E203E10FF11DE0
:101CD00062E080818DD81F5FF1CF912C8091E60367
:101CE000981608F05EC0C92CD12CE091E303F09166
:101CF000E403EC0DFD1D61E080817AD8E091E303FF
:101D0000F091E403EC0DFD1D60E080813FD8D3012C
:101D1000C201092C04C0880F991FAA1FBB1F0A9477
:101D2000D2F75C011C0120943094812C8091E50352
:101D3000881610F5082D10E08091E1039091E203E0
:101D4000FC01E00FF11F80810E949C060C5F1F4F79
:101D5000000F111FF801E158FC4F892B29F48081F5
:101D600091818A299B2904C08081918182219321BC
:101D7000918380838394DACFE091E303F091E403CD
:101D8000EC0DFD1D61E0808101D88091E30390910D
:101D9000E403FC01EC0DFD1D60E0808129D89394E3
:101DA0009DCFEBE9F3E08FEF9FEF23813481232B6D
:101DB00021F41082928381831582369633E0E73DC9
:101DC000F30799F710E056E0952E8091E503181778
:101DD00008F056C000E0C12ED12CC601880F991F13
:101DE0009C0129573C4F69012091E603021708F036
:101DF00045C0F60160817181002E02C0769567951D
:101E00000A94E2F761707727129F90011124200F46
:101E1000311DE091DF03F091E003E20FF31FA08199
:101E2000EFE7F3E080E0458D568D4217530711F43C
:101E300061701BC08F5F36968A30A9F7672BE1F07F
:101E4000EBE9F3E080E090E04081411110C0989E02
:101E5000A001999E500D1124FA01E158FC4FA48F66
:101E6000368F258F10A2178E61E0B5DB05C0019675
:101E700036968A30910541F70F5FB6CF1F5FA5CF29
:101E800080E090E010E0FC01E158FC4F21A121111D
:101E900011E006968C339105B1F70E9437076093E5
:101EA000DB037093DC038093DD039093DE03112347
:101EB00009F400CF8091A003882309F4FBCE809120
:101EC0009E0390919F03019709F0F4CE80912B041B
:101ED000811106C081E080932B0482EF93E021D82A
:101EE0000091F4031091F503E0912304F091240490
:101EF00082E01995E0912304F091240481E0199582
:101F000020E030E044E1B80182EF93E006D825E21A
:101F100034E047E1B80182EF93E00E948D07E09141
:101F20002304F091240480E0199530E5C32E32E0BB
:101F3000D32EFF92EF92DF92CF9281E090E08C0F50
:101F40009D1F9F938F93ACD0E0910704F0910804FC
:101F500082EF93E0199594E1892E880E8E010F5F30
:101F60001F4F0F900F900F900F900F900F9024E045
:101F7000922EF80121918F01222339F0482D692DED
:101F800082EF93E033D8980EF4CFE0910004F09103
:101F90000104309719F082EF93E019950091F40352
:101FA0001091F503E0912304F091240482E0199547
:101FB000E0912304F091240481E0199520E030E0C1
:101FC00045E1B80182EF93E00E948D07982E8823A7
:101FD00041F025E234E047E1B80182EF93E00E944E
:101FE0008D07E0912304F091240480E0199591106D
:101FF000A0CF47010F2C000CAA08BB08F7FE14C0A5
:10200000E091E202F091E3020190F081E02D6DE2B7
:1020100082EE92E0199566277727CB016819790936
:102020008A099B094AE003C04AE0C501B40184DA89
:1020300042E050E063E572E082EE92E049DA0E940D
:10204000980304CEA1E21A2EAA1BBB1BFD010DC0F2
:10205000AA1FBB1FEE1FFF1FA217B307E407F50758
:1020600020F0A21BB30BE40BF50B661F771F881F34
:10207000991F1A9469F760957095809590959B01CA
:10208000AC01BD01CF010895EE0FFF1F881F8BBF6C
:102090000790F691E02D199481E090E0F894C9C280
:1020A0000F931F93CF93DF93CDB7DEB72E970FB665
:1020B000F894DEBF0FBECDBF0E891F8986E08C83EA
:1020C0001A8309838FEF9FE79E838D83AE01465E5F
:1020D0005F4F688D798DCE01019611D02F813885A3
:1020E000F801E20FF31F10822E960FB6F894DEBFB0
:1020F0000FBECDBFDF91CF911F910F9108952F9209
:102100003F924F925F926F927F928F929F92AF9287
:10211000BF92CF92DF92EF92FF920F931F93CF93D4
:10212000DF93CDB7DEB72C970FB6F894DEBF0FBEA6
:10213000CDBF7C016B018A01FC011782168283816D
:1021400081FFB0C1CE0101964C01F7019381F601E8
:1021500093FD859193FF81916F01882309F49EC1BE
:10216000853239F493FD859193FF81916F0185321A
:1021700021F4B70190E0C7D1E8CF512C312C20E0F9
:102180002032A0F48B3269F030F4803259F083327F
:1021900069F420612CC08D3239F0803339F421602C
:1021A00026C02260246023C0286021C027FD27C0EC
:1021B00030ED380F3A3078F426FF06C0FAE05F9E23
:1021C000300D1124532E13C08AE0389E300D112497
:1021D000332E20620CC08E3221F426FD5FC12064B4
:1021E00006C08C3611F4206802C0883641F4F6012E
:1021F00093FD859193FF81916F018111C1CF982F3C
:102200009F7D9554933028F40C5F1F4FFFE3F983B3
:102210000DC0833631F0833771F0833509F057C034
:1022200021C0F801808189830E5F1F4F44244394AD
:10223000512C540114C03801F2E06F0E711CF801EA
:10224000A080B18026FF03C0652D70E002C06FEF53
:102250007FEFC5012C874CD12C0183012C852F7772
:10226000222E16C03801F2E06F0E711CF801A0801A
:10227000B18026FF03C0652D70E002C06FEF7FEFD5
:10228000C5012C872AD12C012C852068222E8301A0
:1022900023FC19C0832D90E048165906A0F4B7011D
:1022A00080E290E030D13A94F5CFF50127FC85919A
:1022B00027FE81915F01B70190E025D131103A945A
:1022C000F1E04F1A51084114510479F7DEC0843609
:1022D00011F0893631F5F80127FF07C0608171815F
:1022E000828193810C5F1F4F08C060817181072E2E
:1022F000000C880B990B0E5F1F4F2F76722E97FFE5
:1023000009C090958095709561957F4F8F4F9F4F35
:102310002068722E2AE030E0A4012DD1A82EA81842
:1023200043C0853729F42F7EB22E2AE030E025C045
:10233000F22FF97FBF2E8F36C1F018F4883579F06F
:10234000ADC0803719F0883721F0A8C02F2F206149
:10235000B22EB4FE0DC08B2D8460B82E09C024FFB0
:102360000AC09F2F9660B92E06C028E030E005C055
:1023700020E130E002C020E132E0F801B7FE07C002
:1023800060817181828193810C5F1F4F06C06081E3
:10239000718180E090E00E5F1F4FA401ECD0A82E69
:1023A000A818FB2DFF777F2E76FE0BC0372D3E7FC2
:1023B000A51450F474FE0AC072FC08C0372D3E7E8E
:1023C00005C0BA2C372D03C0BA2C01C0B52C34FF80
:1023D0000DC0FE01EA0DF11D8081803311F4397EBC
:1023E00009C032FF06C0B394B39404C0832F86782B
:1023F00009F0B39433FD12C030FF06C05A2CB31459
:1024000018F4530C5B18B32CB31460F4B70180E2DA
:1024100090E03C8778D0B3943C85F6CFB31410F4A9
:102420003B1801C0312C34FF11C0B70180E390E0AC
:102430003C8769D03C8532FF16C031FD03C088E778
:1024400090E002C088E590E0B7010CC0832F867849
:1024500051F031FF02C08BE201C080E237FD8DE216
:10246000B70190E050D0A51430F4B70180E390E0BC
:102470004AD05A94F8CFAA94F401EA0DF11D808154
:10248000B70190E040D0A110F6CF332009F45DCE23
:10249000B70180E290E037D03A94F7CFF701868118
:1024A000978102C08FEF9FEF2C960FB6F894DEBF96
:1024B0000FBECDBFDF91CF911F910F91FF90EF9095
:1024C000DF90CF90BF90AF909F908F907F906F9054
:1024D0005F904F903F902F900895FC0105906150C0
:1024E00070400110D8F7809590958E0F9F1F08952A
:1024F000FC016150704001900110D8F780959095D3
:102500008E0F9F1F08950F931F93CF93DF93FB01AF
:10251000238121FD03C08FEF9FEF28C022FF16C04B
:1025200046815781248135814217530744F4A081A5
:10253000B1819D012F5F3F4F318320838C93268192
:1025400037812F5F3F4F3783268310C0EB01092F60
:10255000182F0084F185E02D1995892BE1F68E81E5
:102560009F8101969F838E83812F902FDF91CF9142
:102570001F910F910895FA01AA27283051F12031B7
:1025800081F1E8946F936E7F6E5F7F4F8F4F9F4F07
:10259000AF4FB1E03ED0B4E03CD0670F781F891F49
:1025A0009A1FA11D680F791F8A1F911DA11D6A0F17
:1025B000711D811D911DA11D20D009F468943F91CA
:1025C0002AE0269F11243019305D3193DEF6CF01C9
:1025D0000895462F4770405D4193B3E00FD0C9F78F
:1025E000F6CF462F4F70405D4A3318F0495D31FDFC
:1025F0004052419302D0A9F7EACFB4E0A69597954F
:10260000879577956795BA95C9F700976105710524
:1026100008959B01AC010A2E06945795479537956E
:102620002795BA95C9F7620F731F841F951FA01DC8
:062630000895F894FFCFAD
:1026360008400000008062023A050002F4091918F9
:1026460017161D1C1B1A31323341343536423738C2
:1026560039432A30234400000000460B680A8C03E5
:102666006A037E038C0B000000003407F506C406DF
:10267600000000004E09680A000000004E09680AC2
:062686002564000D0A00AE
:00000001FF
