:100000003BC300006AC3000068C3000066C3000071
:1000100064C3000062C3000060C300005EC3000050
:100020005CC300005AC3000058C3000056C3000060
:1000300054C3000052C3000050C300000C94B91315
:100040004CC300004AC3000048C3000046C3000080
:1000500044C3000042C3000040C300000C94B4122B
:100060003CC300000C94600F0C94370F36C30000A3
:1000700034C3000032C3000030C300002EC30000B0
:100080002CC300002AC3000028C3000026C30000C0
:1000900024C3000022C3000020C300001EC30000D0
:1000A0001CC300001AC3000018C3000016C30000E0
:1000B00014C3000012C3000010C300000EC30000F0
:1000C0000CC300000AC3000008C3000006C3000000
:1000D00004C3000002C3000000C30000FEC2000011
:1000E000FCC20000C50FC80FB70FBB0FBF0FFF0F3B
:1000F000CC0FD00FD60FDA0FDE0FE40FE80FEC0FA6
:10010000FF0FF20FF60FFA0F2C10301034103810CA
:100110003C1040104410BB11C211C911D011D711AD
:10012000EF11DE11EF11E511FFE0FFD1AFFF32FF5C
:10013000D0FFFEFFE0FFD1AEFFD0FFFEFFE0FFD11A
:100140001000FFFEFFD0FFE0FFC1FFD1AED580A8B9
:100150003FD300408D142000A1C8DA1281CFD9F11D
:10016000DB402EA4A6AFFFD0FFFE01080D00FE0964
:10017000016102CD207FFE0BFE09FE0D00803219C9
:100180008980808080808080008028438390909048
:100190001367874848FC48FC48481259892078A0D2
:1001A000A0702828F02012698944A4481010204823
:1001B00054881267876090906094887438138380A5
:1001C0008080323989204040808080404020223920
:1001D000898040402020204040801665854830FCC2
:1001E00030481455852020F820201143837060800A
:1001F000165181F821338340E040027989020204DC
:100200000810204080801269893048848484848466
:1002100048301259892060A02020202020F812693F
:10022000897884840408304080FC126989FC0408C1
:10023000103804048478126989081828488888FCD2
:100240000808126989FC8080B8C4040484781269A3
:100250008938408080B8C4848478126989FC040895
:100260001010202040401269897884848478848426
:1002700084781269897884848C7404040870213825
:100280008840E040000040E0401148882070200095
:10029000007060802259890810204080402010089A
:1002A000146484FC0000FC1259898040201008105E
:1002B000204080126989788484040810100010128C
:1002C00069897884849CA4AC9480781269893048C8
:1002D000848484FC848484126989F0888488F0880A
:1002E0008488F01269897884808080808084781284
:1002F0006989F088848484848488F0126989FC8008
:100300008080F0808080FC126989FC808080F08091
:1003100080808012698978848080809C848C7412AB
:10032000698984848484FC84848484125989F820B3
:10033000202020202020F81279893E08080808088B
:10034000088870126989848890A0C0A0908884125F
:1003500069898080808080808080FC0279898282A7
:10036000C6AA92928282821269898484C4A4948CDF
:10037000848484126989788484848484848478124F
:100380006989F8848484F880808080116A8A7884FE
:1003900084848484A4947804126989F8848484F819
:1003A000A090888412698978848080780404847895
:1003B000027989FE10101010101010101269898433
:1003C0008484848484848478027989828244444445
:1003D0002828281002798982828282929292AA44E5
:1003E0000279898282442810284482820279898293
:1003F0008244281010101010126989FC0408102083
:10040000408080FC224989F080808080808080F05C
:10041000027989808040201008040202124989F084
:1004200010101010101010F0185383205088017114
:1004300081FE3A2282804012668678047C848C7425
:10044000126989808080B8C48484C4B812668678B2
:100450008480808478126989040404748C84848C78
:10046000741266867884FC808478126989384440E6
:1004700040F84040404010688874888870807884D4
:1004800078126989808080B8C484848484125888F2
:1004900020006020202020F8105A8A080018080840
:1004A00008088888701269898080808890E0908828
:1004B000841259896020202020202020F80276868E
:1004C000EC9292929282126686B8C48484848412DA
:1004D0006686788484848478106888B8C484C4B8B4
:1004E000808080106888748C848C74040404126684
:1004F00086B844404040401266867884601884780C
:100500001268884040F84040404438126686888827
:10051000888888741256868888885050200276868B
:1005200082829292AA4412668684483030488410AF
:1005300068888484848C74048478126686FC08102D
:100540002040FC22598938404020C02040403832A9
:100550001989808080808080808080125989E01095
:10056000102018201010E018538348A890FF0000B6
:100570002100240027002A002D0030003300010153
:100580000000040107010A010000220025002800E4
:100590002B002E003100340002010000050108018B
:1005A0000B010505050507050808080802020202F7
:1005B0000A0A0808040404040101010101010101FF
:1005C0000303030303030303040707070C0C0C0CCA
:1005D0000C0C0C0C020202020606060606060606B3
:1005E0000B0B0B0B0B0B0B0B010210202008081040
:1005F0002040102040800201020108040201010293
:10060000040810204080804020100804020180046B
:1006100002018040201008040201080402010102C6
:1006200004081020408001020408102040800000CF
:100630000A0B02090C0D0E0807030401000000005C
:1006400000000000000000000000000000000000AA
:100650000000000000000000000012111000000067
:10066000000000000000000000000000000000008A
:10067000000000008E23882311241FBECFEFD1E29B
:10068000DEBFCDBF00E00CBF12E0A0E0B2E0EEE0C4
:10069000F9E500E00BBF02C007900D92AE3CB10738
:1006A000D9F725E0AEECB2E001C01D92AA36B20740
:1006B000E1F713E0CBE3D3E000E006C021970109A6
:1006C000802FFE010E946E24CA33D10780E0080704
:1006D000A9F70E94DA1E0C94752C92CC0895DC01C7
:1006E0001696ED91FC91179712968C91481B4770C6
:1006F00081E090E001C0880F4A95EAF7E60FF11D0E
:100700003081222311F0832B02C0809583238083C4
:100710000895FB014181DC0112962C91129742173A
:1007200060F013962C911397241738F0608115967A
:100730002C91621710F42481D2CF0895FC0180819E
:100740009281980F92832181921760F494819F5F28
:1007500094839381890F821710F08FEF820F838328
:1007600081E0089580E00895FC011282808181502B
:1007700083831482089580E008950B96FC01849190
:1007800008950A96FC0184910895FC0184910895CE
:10079000FCDF882321F0823011F083E0089586E0A9
:1007A0000895FC01E60FF11D849190E0982F8827B1
:1007B0003196E4918E0F911D089568E0F2CF66E0C6
:1007C000F0CF2EE93FE0009729F0F9013197F1F7DA
:1007D0000197F9CF08951092FC021092FB02089540
:1007E00080931D031092B90084FF02C08CE001C009
:1007F00088E48093B800EFCFDB011496ED91FC9173
:10080000159720E030E065E01994DB011496ED9136
:10081000FC91159720E030E062E01994DB0114961A
:10082000ED91FC91159720E030E063E01994CF92B0
:10083000DF92EF92FF920F931F93CF93DF938C0180
:100840007B016A0180E0F601C49181110AC0CF3FAB
:1008500009F447C04C2FB701C801CEDF81113FC05A
:1008600045C0CF3F11F44FEFF6CFCE3F09F440C063
:10087000C03FA8F5C03E30F04C2F4F70B701C80103
:10088000C4DF2DC0C03D30F04C2F4F70B701C80100
:10089000C5DF25C0C03CF0F0D7011496ED91FC9166
:1008A000159720E030E040E064E0C8011995C2955A
:1008B000C07FCE5FD0E0CE0184DFD7011496ED91EA
:1008C000FC91159720E030E041E064E0C801199503
:1008D000CE0104C0C7FD03C08C2F90E072DF80E022
:1008E00001C081E0BFEFCB1ADB0AADCF80E001C0D1
:1008F00081E0DF91CF911F910F91FF90EF90DF90FA
:10090000CF9008958F929F92AF92BF92CF92DF9235
:10091000FF920F931F93CF93DF931F921F92CDB738
:10092000DEB76C018B01F42E490120E1421709F476
:100930005DC02417D8F03AE0431701F18FE0481367
:100940005EC041E0C6016ADF40E0B801C6015DDF7C
:1009500041E8B801C60150DFF4014081B801C60189
:100960004BDF40E0B801C60159DFFEC0A1E14A17E4
:1009700009F43FC0B5E14B1789F041C0DB01149683
:10098000ED91FC91159720E030E042E061E019958F
:1009900044E451E0B801C6014ADF31C0FB01A28046
:1009A000B3804CE351E043DFD50114964C91406B8A
:1009B000B801C60121DF41E0B801C60126DFF5011B
:1009C00026813781D8011496ED91FC911597D501B8
:1009D00015964C9166E0C6011995811102C080E020
:1009E000C4C040E0B801C60119DF09C043E351E0CB
:1009F00002C048E251E0B801C60119DFB5C0D80114
:100A000012960D911C911397B2E3FB1609F473C073
:100A1000BF15B8F0E5E1FE1609F478C0F7E1FF165E
:100A200009F489C024E1F2129FC0D8011696ED9115
:100A3000FC91179715968C919F01280F311DC901C4
:100A40005EC036E4F31609F486C087E4F81609F4AC
:100A500086C0ABE3FA1288C0F401818193819130A2
:100A600029F0933031F4482F885004C048E0480FF3
:100A700001C0482F21E0D80113963C91381708F4A3
:100A800020E031E0F8015281451708F430E051E0F0
:100A9000481708F050E0822F852B382319F42523BE
:100AA00009F462C0D4011296FC90913051F030F0FC
:100AB000923049F0933051F42FEF09C020E031E03B
:100AC00007C021E004C020E03FEF02C020E030E09A
:100AD000F7FE07C0B401C8012A8339831ADE3981C1
:100AE0002A81F4018081830F80838181820F818339
:100AF000FF0C71F739C0B401C8010BDE35C011928B
:100B0000E817F907E1F7C8012FDE2EC0C80116DE8D
:100B1000882309F464CFD8011696ED91FC911797BC
:100B200015968C919F01280F311DC9011192E8176C
:100B3000F907E1F719C0D4011C92F80182811196DE
:100B40008C9311978581815012968C931297838193
:100B500013968C9309C0D80115968C9103C0D801C7
:100B600011968C91F401808381E00F900F90DF91BA
:100B7000CF911F910F91FF90DF90CF90BF90AF90DA
:100B80009F908F9008950F931F93FC010785108904
:100B900021893289041715072607370741F047874F
:100BA000508B618B728B1F910F910C94AB141F9122
:100BB0000F910895CF92DF92EF92FF920F931F93C0
:100BC000CF93DF93CDB7DEB72C970FB6F894DEBF87
:100BD0000FBECDBF87EF82B910B1B0B1B074E0B134
:100BE000E07280B18071E82E8BEF82B9D0B0A0B1F5
:100BF000A07470B17072C0B08DEF82B9F0B0F0B176
:100C0000F07460B1607220B120718EEF82B900B1D2
:100C100050B1507440B1407230B130718091ED02EA
:100C20009091EE02C4FC0EC0009719F481E090E0B0
:100C300004C0019789F482E090E09093EE028093E3
:100C4000ED020AC00197029718F483E090E0F5CF17
:100C50001092EE021092ED028091E1029091E20278
:100C6000D7FC0EC0009719F481E090E004C0019712
:100C700089F482E090E09093E2028093E1020AC05E
:100C80000197029718F483E090E0F5CF1092E2020A
:100C90001092E1028091E7029091E802F7FC0EC009
:100CA000009719F481E090E004C0019789F482E094
:100CB00090E09093E8028093E7020AC001970297C0
:100CC00018F483E090E0F5CF1092E8021092E7026A
:100CD0008091E3029091E40207FD0EC0009719F4A1
:100CE00081E090E004C0019789F482E090E0909365
:100CF000E4028093E3020AC00197029718F483E0AC
:100D000090E0F5CF1092E4021092E3028091E902A4
:100D10009091EA02B1110EC0009719F481E090E0C1
:100D200004C0019789F482E090E09093EA028093F6
:100D3000E9020AC00197029718F483E090E0F5CF2A
:100D40001092EA021092E9028091DC029091DD0299
:100D5000A1110EC0009719F481E090E004C0019742
:100D600089F482E090E09093DD028093DC020AC077
:100D70000197029718F483E090E0F5CF1092DD021E
:100D80001092DC028091EB029091EC02F1110EC006
:100D9000009719F481E090E004C0019789F482E0A3
:100DA00090E09093EC028093EB020AC001970297C7
:100DB00018F483E090E0F5CF1092EC021092EB0271
:100DC0008091DA029091DB02E1110EC0009719F4D4
:100DD00081E090E004C0019789F482E090E0909374
:100DE000DB028093DA020AC00197029718F483E0CD
:100DF00090E0F5CF1092DB021092DA028091E502CA
:100E00009091E60271110EC0009719F481E090E014
:100E100004C0019789F482E090E09093E602809309
:100E2000E5020AC00197029718F483E090E0F5CF3D
:100E30001092E6021092E5028091D8029091D902B8
:100E400061110EC0009719F481E090E004C0019791
:100E500089F482E090E09093D9028093D8020AC08E
:100E60000197029718F483E090E0F5CF1092D90231
:100E70001092D8028091D6029091D70217FD0EC031
:100E8000009719F481E090E004C0019789F482E0B2
:100E900090E09093D7028093D6020AC00197029700
:100EA00018F483E090E0F5CF1092D7021092D602AA
:100EB0008091D4029091D50251110EC0009719F47F
:100EC00081E090E004C0019789F482E090E0909383
:100ED000D5028093D4020AC00197029718F483E0E8
:100EE00090E0F5CF1092D5021092D4028091D202F8
:100EF0009091D30241110EC0009719F481E090E067
:100F000004C0019789F482E090E09093D30280932B
:100F1000D2020AC00197029718F483E090E0F5CF5F
:100F20001092D3021092D2028091DF029091E002DF
:100F300031110EC0009719F481E090E004C00197D0
:100F400089F482E090E09093E0028093DF020AC08F
:100F50000197029718F483E090E0F5CF1092E00239
:100F60001092DF028091D0029091D10221110EC027
:100F7000009719F481E090E004C0019789F482E0C1
:100F800090E09093D1028093D0020AC0019702971B
:100F900018F483E090E0F5CF1092D1021092D002C5
:100FA0008091CE029091CF02E1100EC0009719F40B
:100FB00081E090E004C0019789F482E090E0909392
:100FC000CF028093CE020AC00197029718F483E003
:100FD00090E0F5CF1092CF021092CE028091E10204
:100FE0009091E202019711F481E301C080E0209129
:100FF000E7023091E8022130310509F482E32091C3
:10100000E3023091E4022130310509F483E32091B9
:10101000E9023091EA022130310509F484E320919C
:10102000DC023091DD022130310509F485E32091A5
:10103000EB023091EC022130310509F486E3209176
:10104000DA023091DB022130310509F487E3209187
:10105000E5023091E6022130310509F488E3209160
:10106000D8023091D9022130310509F489E3209169
:10107000ED023091EE022130310509F480E3209138
:10108000CE023091CF022130310509F48AE220915D
:10109000D0023091D1022130310509F483E2209150
:1010A000D6023091D7022130310509F481E4209134
:1010B000D4023091D5022130310509F482E4209127
:1010C000D2023091D3022130310509F483E420911A
:1010D000DF023091E0022130310509F484E480938D
:1010E000FD022130310549F480910C0390910D03EC
:1010F000019690930D0380930C0380910C039091C3
:101100000D03039724F010920D0310920C038091AD
:101110000C0390910D03892B59F48B9A8091020155
:10112000806280930201109211031092100316C086
:101130008B98789B08C080910201806280930201A5
:1011400081E090E007C0809102018F7D80930201D1
:1011500082E090E090931103809310038091DE026F
:10116000082E000C990B20910C0330910D0382176F
:101170009307C9F040E050E0BA0189E994E00E9489
:10118000E41740E050E0BA0185E594E00E94E417DE
:1011900040E050E0BA0181E194E00E94E41710922F
:1011A0000F0310920E0380910C038093DE02809156
:1011B0007B00886080937B0080E480937C0080913A
:1011C0007A00806480937A0080917A0086FDFCCF5B
:1011D000809178002091790090E0922B90931303F6
:1011E0008093120320910C0330910D0321303105BF
:1011F00009F001C240910E0350910F038091FD024E
:101200004130510541F0813409F079C030930F032A
:1012100020930E0374C090ED980F9A3018F40E943A
:101220008A186DC08A3209F043C066E572E0CE01CB
:1012300001960E94C61EBE016F5F7F4F8BE094E057
:101240000E94FE1D182FCE0101960E94BA1E112386
:10125000D9F062E672E0CE0101960E94C61E66E5F4
:1012600072E0CE0107960E94C61EAE014F5F5F4F2F
:10127000BE01695F7F4F8BE094E00E94941CCE0119
:1012800007960E94BA1E0FC066E572E0CE01019675
:101290000E94C61ECE0101960E94BB18BC018BE0C5
:1012A00094E00E94A51ECE0101960E94BA1E27C09E
:1012B000833241F480910F0490911004009709F05B
:1012C000F2C11DC08134D9F46BE074E0CE01019607
:1012D0000E94BE1ECE0101960E940219182FCE0157
:1012E00001960E94BA1E1111E2C110920F031092D2
:1012F0000E0362E672E08BE094E00E94901E209163
:101300000E0330910F038091FD022230310551F020
:10131000823409F07BC082E090E090930F038093C9
:101320000E0374C090ED980F9A3018F40E948A183A
:101330006DC08A3209F043C066E572E0CE010196C5
:101340000E94C61EBE016F5F7F4F8BE094E00E943B
:10135000FE1D182FCE0101960E94BA1E1123D9F04E
:1013600062E672E0CE0101960E94C61E66E572E05A
:10137000CE0107960E94C61EAE014F5F5F4FBE01B1
:10138000695F7F4F8BE094E00E94941CCE0107962A
:101390000E94BA1E0FC066E572E0CE0101960E945F
:1013A000C61ECE0101960E94BB18BC018BE094E0E2
:1013B0000E94A51ECE0101960E94BA1E27C083324C
:1013C00041F480910F0490911004009709F087C1B7
:1013D0001DC08234D9F46BE074E0CE0101960E9406
:1013E000BE1ECE0101960E940219182FCE01019651
:1013F0000E94BA1E111177C110920F0310920E03B2
:1014000062E672E08BE094E00E94901E20910E0351
:1014100030910F038091FD022330310551F0833468
:1014200009F07BC083E090E090930F0380930E035C
:1014300074C090ED980F9A3018F40E948A186DC00D
:101440008A3209F043C066E572E0CE0101960E943F
:10145000C61EBE016F5F7F4F8BE094E00E94FE1DB1
:10146000182FCE0101960E94BA1E1123D9F062E610
:1014700072E0CE0101960E94C61E66E572E0CE01C2
:1014800007960E94C61EAE014F5F5F4FBE01695FA7
:101490007F4F8BE094E00E94941CCE0107960E943F
:1014A000BA1E0FC066E572E0CE0101960E94C61E0C
:1014B000CE0101960E94BB18BC018BE094E00E9413
:1014C000A51ECE0101960E94BA1E27C0833241F4A8
:1014D00080910F0490911004009709F01CC11DC069
:1014E0008334D9F46BE074E0CE0101960E94BE1EF5
:1014F000CE0101960E940219182FCE0101960E947A
:10150000BA1E11110CC110920F0310920E0362E665
:1015100072E08BE094E00E94901E80910E03909107
:101520000F03892B09F05BC08091ED029091EE02D0
:10153000892B09F454C08091EB029091EC02892B25
:1015400041F044EF51E060E070E089E994E00E94EE
:10155000E4178091E9029091EA02892B41F04CE076
:101560005EEF6FEF7FEF89E994E00E94E4178091CE
:10157000E7029091E802892B41F044EF51E060E0EE
:1015800070E085E594E00E94E4178091E502909177
:10159000E602892B41F04CE05EEF6FEF7FEF85E5CF
:1015A00094E00E94E4178091E3029091E402892B79
:1015B00041F044EF51E060E070E081E194E00E948E
:1015C000E4178091E1029091E202892B41F04CE016
:1015D0005EEF6FEF7FEF81E194E00E94E41789E90D
:1015E00094E00E94561785E594E00E94561781E129
:1015F00094E00E94561780910C0390910D0302977E
:1016000009F0A5C08AE293E05DD3892BE9F18AE273
:1016100093E036D32091F9023091FA028B3359F0DE
:10162000F901E151FD4F80832F5F3F4F3093FA0264
:101630002093F90229C02A303105E1F468E572E00F
:1016400085E094E00E94901E8FEEE82E82E0F82E56
:1016500000E010E0B80185E094E00E94EC1DF70185
:1016600021917F01FC0120830F5F1F4F0A3011057C
:1016700089F706C063E672E085E094E00E94901E60
:101680001092FA021092F90265E074E0CE01019620
:101690000E94BE1ECE0101960E945719CE010196EE
:1016A0000E94BA1E54C001970E94EE1828CE809165
:1016B0000F0490911004892B51F08BE094E00E946C
:1016C000891CAB01BC0189E994E05DDA0ECE40E0F3
:1016D00050E0BA0189E994E00E94E41706CE019730
:1016E0000E94EE1893CE80910F0490911004892BE4
:1016F00051F08BE094E00E94891CAB01BC0185E5B0
:1017000094E041DA79CE40E050E0BA0185E594E01A
:101710000E94E41771CE01970E94EE18FECE8091D0
:101720000F0490911004892B51F08BE094E00E94FB
:10173000891CAB01BC0181E194E025DAE4CE40E0F4
:1017400050E0BA0181E194E00E94E417DCCE2C96CF
:101750000FB6F894DEBF0FBECDBFDF91CF911F91C2
:101760000F91FF90EF90DF90CF900895DB01ED9106
:10177000FC911994EF92FF920F931F93CF93DF93F5
:101780001F92CDB7DEB78C01DC011296ED90FC9074
:101790001397D196ED91FC91D29782E0199520E0B4
:1017A00030E04AE0B701C801E1DFF82ED801D19658
:1017B000ED91FC91D29783E01995D801D196ED91E6
:1017C000FC91D29780E01995FF2081F1F8016281A8
:1017D00073819E012F5F3F4F46E4C801C7DF8981B7
:1017E000D8018C9312966D917C9113979E012F5F77
:1017F0003F4F47E4C801BADF8981F80181836281E4
:10180000738120E030E048E4C801B0DFD8011B96C6
:101810008C931B9798012D5C3F4F12966D917C9194
:10182000139747E1C801A2DF81E001C080E00F907B
:10183000DF91CF911F910F91FF90EF9008954F92FC
:101840005F926F927F928F929F92AF92BF92CF9250
:10185000DF92EF92FF920F931F93CF93DF931F922C
:10186000CDB7DEB72C01E62EF42EC22EDC01149685
:101870000D911C911597C8010E94C503D82EF20145
:10188000848195810E94C803982EF1E0DF1203C085
:101890002FE0A22E02C0AA24AA94D20114968D9100
:1018A0009C9115970E94C103D82EF20184819581E5
:1018B0000E94BD03B82ED20114968D919C9115976C
:1018C0000E94DD03B0E6BC1538F4009729F0080F3C
:1018D000191F91E6D92E11C0F201848195810E94D1
:1018E000DF03F0E4FC1538F4009729F0080F191F06
:1018F00081E4D82E02C00F5E1F4FBC1480F4D201C9
:1019000050961C92509753961C92539754961C9243
:10191000549751961C92519752961C92A0C0BD1498
:1019200070F3892D90E0F80124912F3F19F40F5F97
:101930001F4F5AC0DC104FC0D20114968D919C915C
:1019400015970E94C50398012F5F3F4FF801882328
:1019500011F08230E1F48491D20153968C93539725
:10196000F901249154962C935497F8013396E491FD
:101970005096EC935097F8013496E4915196EC937D
:101980005197F8013596E4915296EC9320C08491DA
:10199000982F9F709250D20152969C9352978295A5
:1019A0008F7051968C935197F9012491822F8F70EB
:1019B00054968C93549722952F7053962C9353974B
:1019C000F8013296E491E295EF705096EC93011590
:1019D000110579F444C0F8013296E491EA219C01A2
:1019E0002E0F311D020F131FDB1409F488CFD3947F
:1019F0009ACFF201848195810E94C803D201539647
:101A00003C91539754962C91549751965C915197D1
:101A100052969C915297920FF91A9FEF920F9F0D39
:101A2000D4964C91D497D6966C916F1518F0941764
:101A300028F402C0941780F09F1570F4E50E9FEF14
:101A4000930F9E0DD201D3964C91D397D5965C916E
:101A50005E1538F4941738F4F20180893EC080E0B6
:101A60003CC0941710F49E15B8F7080F111D395F8C
:101A7000732E7694769476946F2C620E5201FCE16C
:101A8000AF0EB11C872C912CF61431F35E2D68013A
:101A90008C2D801B8715E8F4F6018491D2011296F3
:101AA0006D917C9113975C965C935C975D96FC922C
:101AB0005D975F961C925F975E968C9395014BE3C2
:101AC000C201598353DEBFEFCB1ADB0A5981585F3D
:101AD000DFCF080D191DF394D7CF0F90DF91CF9171
:101AE0001F910F91FF90EF90DF90CF90BF90AF903C
:101AF0009F908F907F906F905F904F9008959091FE
:101B0000FC02911104C08093FC026093FB020895D3
:101B10001F93CF93DF931F921F92CDB7DEB720EDB7
:101B200037E03A8329839091BC00982391F429816E
:101B30003A81232B49F480911D03182F127081FDE7
:101B400008C081E0DCDF06C029813A8121503109DB
:101B5000E8CF11E0812F0F900F90DF91CF911F916F
:101B6000089584E98093BC0064E080E1D1CFCF93F5
:101B70008093BB0084E88093BC0063E080E8C8DF0A
:101B8000C82F882381F080911D03C82FC27081FD6A
:101B900009C08091B900887F883221F063E082E03B
:101BA000AEDF01C0C1E08C2FCF910895CF93DF93BA
:101BB000FC0123A5222371F0EC010E94251C811158
:101BC00002C080E008C08EA1811180E4D0DF8823AC
:101BD000C1F31BA681E0DF91CF9108950F931F936E
:101BE000CF93C42F89016330C1F050F4613081F08C
:101BF000623009F040C0FC0146A321E023A73BC0AE
:101C00006630F1F0673049F1653009F034C00DC03D
:101C1000FC0186A50E94F0032EC0FC0116A221E063
:101C200023A7411128C09DDF26C0C0DF811103C05A
:101C300098DF80E021C08C2F9ADF81111CC0F8CF83
:101C4000B5DF8823A9F3CC23B1F0F80181918F018E
:101C50008EDF882369F3C150F6CFA8DF882341F3D4
:101C6000CC2349F0F801849182DF882329F00F5FAB
:101C70001F4FC150F5CF81E0CF911F910F91089573
:101C8000FC01918D828D981761F0828DDF01A80F84
:101C9000B11D5D968C91928D9F5F9F73928F90E0A6
:101CA00008958FEF9FEF0895FC01918D828D981715
:101CB00031F0828DE80FF11D858D90E008958FEF52
:101CC0009FEF0895FC01918D228D892F90E0805C1B
:101CD0009F4F821B91098F73992708958AE293E0A1
:101CE000F1DF21E0892B09F420E0822F0895FC0127
:101CF000848DDF01A80FB11DA35ABF4F2C91848D95
:101D000090E001968F739927848FA689B7892C93C9
:101D1000A089B1898C9180648C93938D848D981364
:101D200006C00288F389E02D80818F7D808308952D
:101D3000EF92FF920F931F93CF93DF93EC0181E01B
:101D4000888F9B8D8C8D981305C0E889F9898081D7
:101D500085FD23C0F62E0B8D10E00F5F1F4F0F7314
:101D60001127E02E8C8DE8120BC00FB607FCFACFBE
:101D7000E889F989808185FFF5CFCE01B8DFF2CF00
:101D80008B8DFE01E80FF11DE35AFF4FF0820B8FA0
:101D9000EA89FB898081806207C0EE89FF896083C0
:101DA000E889F98980818064808381E090E0DF9117
:101DB000CF911F910F91FF90EF900895CF93DF93F4
:101DC000EC01888D8823C1F0EA89FB89808185FD3B
:101DD00005C0A889B9898C9186FD0EC00FB607FC95
:101DE000F5CF808185FFF2CFA889B9898C9185FFD5
:101DF000EDCFCE017CDFE8CFDF91CF91089580E079
:101E000090E0892B19F06ADF811125C080E090E015
:101E1000892B41F080E090E0892B21F00E940000A6
:101E200081111CC080E090E0892B41F080E090E0BF
:101E3000892B21F00E940000811113C080E090E006
:101E4000892BA1F080E090E0892B81F00E940000B6
:101E500081110AC008950E940000D8CF0E9400009E
:101E6000E1CF0E940000EACF0C94000008951F9279
:101E70000F920FB60F9211240BB60F922F933F9330
:101E80004F935F936F937F938F939F93AF93BF9382
:101E9000EF93FF938AE293E02ADFFF91EF91BF91E6
:101EA000AF919F918F917F916F915F914F913F91F2
:101EB0002F910F900BBE0F900FBE0F901F90189593
:101EC0001F920F920FB60F9211240BB60F922F9301
:101ED0008F939F93EF93FF93E0913A03F0913B032D
:101EE0008081E0914003F091410382FD12C0908116
:101EF000809143038F5F8F7320914403821751F0C9
:101F0000E0914303F0E0E65DFC4F958F809343033F
:101F100001C08081FF91EF919F918F912F910F9040
:101F20000BBE0F900FBE0F901F901895362F90E0AC
:101F3000FC01E25DF94F4491FC01E851FA4F249114
:101F4000FC01EE55FA4F9491992309F46BC0442398
:101F500009F455C050E0FA013197E231F10508F07B
:101F60004EC08827EE58FF4F8F4F0C946E248091FF
:101F700080008F7707C0809180008F7D03C08091A3
:101F80008000877F809380003AC084B58F7702C03D
:101F900084B58F7D84BD33C08091B0008F7703C03E
:101FA0008091B0008F7D8093B00029C08091900017
:101FB0008F7707C0809190008F7D03C08091900043
:101FC000877F809390001BC08091A0008F7707C00F
:101FD0008091A0008F7D03C08091A000877F8093B7
:101FE000A0000DC0809120018F7707C08091200153
:101FF0008F7D03C080912001877F80932001E92F8E
:10200000F0E0EE0FFF1FE857FA4FA591B4918FB79C
:10201000F894EC91311103C020952E2301C02E2B92
:102020002C938FBF0895CF93DF93DC014770552722
:1020300066277727FA013197CD91DC911197E73028
:10204000F10530F48827EC57FF4F8F4F0C946E2426
:10205000EC81FD8161E01BC0EC81FD8165E017C072
:10206000EC81FD8164E013C0EC81FD8166E00FC06E
:10207000EC81FD8162E00BC0EC81FD816AE007C06C
:10208000EC81FD8168E003C0EC81FD8169E0CD0158
:10209000DF91CF911994CF93DF93EC01CB01BA017B
:1020A00026E030E040E050E00E94522462307105AA
:1020B0008105910559F18CF4611571058105910532
:1020C000F1F06130710581059105C1F5E881F98173
:1020D0000480F581E02D65E02DC064307105810537
:1020E000910511F1D4F0653071058105910531F547
:1020F000E881F9810480F581E02D66E01BC0E8816C
:10210000F9810480F581E02D64E014C0E881F98153
:102110000480F581E02D61E00DC0E881F981048043
:10212000F581E02D63E006C0E881F9810480F58146
:10213000E02D62E0CE01DF91CF911994DF91CF9134
:1021400008954370552766277727DC01ED91FC91B0
:102150000480F581E02D423051056105710571F073
:10216000433051056105710559F041305105610554
:10217000710511F065E005C066E003C06AE001C0CA
:1021800069E01994CF93DF93EC01CB01BA0123E00E
:1021900030E040E050E00E9452246130710581053A
:1021A000910581F0623071058105910591F0672BF1
:1021B000682B692BC1F4E881F9810480F581E02D59
:1021C00064E00DC0E881F9810480F581E02D61E0D3
:1021D00006C0E881F9810480F581E02D62E0CE013E
:1021E000DF91CF911994DF91CF91089543705527D6
:1021F00066277727DC01ED91FC910480F581E02DC5
:10220000423051056105710571F04330510561059A
:10221000710559F0413051056105710511F062E019
:1022200005C063E003C061E001C060E019940F9352
:102230001F93CF93DF93EC01E881F9810480F5814E
:10224000E02D8C010D5B1F4FD8018C91811102C0D4
:1022500060E001C062E0CE011995E881F981048057
:10226000F581E02DD8018C91811102C061E001C09F
:1022700063E0CE011995EBA5FCA5E230F10538F03D
:10228000EE0FFF1FEE0FFF1F35973197F1F7E88133
:10229000F9810480F581E02DD8018C91811102C073
:1022A00060E001C062E0CE01DF91CF911F910F91FC
:1022B0001994CF93DF93EC0120E030E0A9016B8902
:1022C0007C898D899E890E94962518161CF4EFA59D
:1022D000F8A902C0E9A9FAA9DF91CF911994CF9288
:1022E000DF92EF92FF920F931F93CF93DF93FC0146
:1022F0002281243041F0283031F0233031F0263073
:1023000021F012E003C014E001C013E0EC012796B5
:10231000E12CF12CC62ED12C01E0C6010E2C02C0FE
:10232000959587950A94E2F7688180FD6027FE0104
:1023300034978081FBDDFFEFEF1AFF0A2196E1164B
:1023400060F3DF91CF911F910F91FF90EF90DF909D
:10235000CF9008950F931F93DC0112960C91129762
:1023600010E009301105D8F5F8018827E557FF4F2F
:102370008F4F0C946E24ED91FC9111970084F185A0
:10238000E02D29C0ED91FC9111970284F385E02D99
:1023900022C0ED91FC9111970484F585E02D1BC0BE
:1023A000ED91FC9111970684F785E02D14C0ED9115
:1023B000FC9111970088F189E02D0DC0ED91FC9101
:1023C00011970288F389E02D06C0ED91FC911197D9
:1023D0000488F589E02DCD011F910F9119941F916B
:1023E0000F9108958EE193E00C94BA1ECF92DF9284
:1023F000EF92FF920F931F93CF93DF931F92CDB76E
:10240000DEB76C01DC01DC961C91DC97DB960C914D
:102410007C01B4E0EB0EF11CDC015996ED91FC91CE
:102420005A97C70169831995482F410F2981602F59
:10243000C70105DAF60123AD082E000C990B820FB7
:10244000911D83AF81E090E00F90DF91CF911F91BC
:102450000F91FF90EF90DF90CF900895CF93DF938F
:1024600090E0FC01E851FA4F2491FC01EE55FA4F3F
:102470008491882361F190E0880F991FFC01E25953
:10248000FA4FC591D491FC01E857FA4FA591B49148
:10249000611109C09FB7F8948881209582238883B1
:1024A000EC912E230BC0623061F49FB7F894388111
:1024B000822F809583238883EC912E2B2C939FBFB2
:1024C00006C08FB7F894E8812E2B28838FBFDF9149
:1024D000CF910895CF93DF93FC012281222329F12C
:1024E000EC0161E08381BADF61E08C81B7DF8A8132
:1024F000843011F0883031F461E08D81AFDF61E02C
:102500008E8106C0833011F0863019F461E08D8130
:10251000A5DF8EA58F3F49F061E0A0DF6DA581E0CA
:1025200068278EA5DF91CF9101CDDF91CF910895DE
:10253000CF93DF93FC012281222399F0EC010190DB
:10254000F081E02D0480F581E02D60E019958EA5E5
:102550008F3F39F061E082DF6DA58EA5DF91CF91CD
:10256000E5CCDF91CF9108951F920F920FB60F9295
:1025700011242F933F938F939F93AF93BF93809199
:10258000190390911A03A0911B03B0911C03309181
:10259000180323E0230F2D3720F40196A11DB11D50
:1025A00005C026E8230F0296A11DB11D2093180334
:1025B0008093190390931A03A0931B03B0931C03F9
:1025C0008091140390911503A0911603B091170305
:1025D0000196A11DB11D8093140390931503A09340
:1025E0001603B0931703BF91AF919F918F913F91C5
:1025F0002F910F900FBE0F901F901895CF93DF93E0
:10260000DC01FB01828112968C93129743815481E5
:102610006581768113964D935D936D937C931697A8
:10262000478150856185728517964D935D936D93B3
:102630007C931A9743855485658576851B964D93C3
:102640005D936D937C931E9747855089618972894C
:102650001F964D935D936D937C9352974389548954
:102660006589768953964D935D936D937C935697C8
:102670004789508D618D728D57964D935D936D9303
:102680007C935A97438D548D658D768D5B964D93D3
:102690005D936D937C935E97478D50A161A172A16C
:1026A0005F964D935D936D937C93929743A154A154
:1026B00065A176A193964D935D936D937C939697C8
:1026C00047A150A561A572A597964D935D936D9313
:1026D0007C939A9783A594A59C969C938E939B97A5
:1026E00085A59D968C939D9786A59E968C939E9787
:1026F00087A590A9D0969C938E939F9781A992A924
:10270000D2969C938E93D19743A954A965A976A993
:10271000D3964D935D936D937C93D69747A950AD17
:1027200061AD72ADD7964D935D936D937C93DA97BF
:1027300043AD54AD65AD76ADDB964D935D936D9332
:102740007C93DE97EF01EF96488159816A817B8106
:10275000ED01EF96488359836A837B83ED5BFF4FDE
:102760008081FD01ED5BFF4F8083CD01DF91CF9133
:1027700008951F920F920FB60F9211240BB60F926D
:102780002F933F934F935F936F937F938F939F9379
:10279000AF93BF93EF93FF93809104039091050350
:1027A0008093B2008091070390910803A0910903E0
:1027B000B0910A030196A11DB11D80930703909368
:1027C0000803A0930903B0930A0380910703909133
:1027D0000803A0910903B0910A03409100035091AE
:1027E0000103609102037091030384179507A60704
:1027F000B70710F18091060381111EC081E080931C
:1028000006038091070390910803A0910903B091FA
:102810000A03841B950BA60BB70B809307039093B9
:102820000803A0930903B0930A03E091FE02F0911C
:10283000FF02199510920603FF91EF91BF91AF919E
:102840009F918F917F916F915F914F913F912F91C8
:102850000F900BBE0F900FBE0F901F9018954F92C8
:102860005F926F927F92AF92BF92CF92DF92EF9280
:10287000FF920F931F93CF93DF93EC015A018B01CB
:102880002B893C894D895E89B501C8010E945C2B6A
:10289000882309F451C0CF88D88CE98CFA8C2601A2
:1028A000370177FA709477F87094A3019201B5011B
:1028B000C8010E945C2B87FD0BC0A7019601B501E2
:1028C000C8010E94962518162CF06501780102C0F7
:1028D0007301620120E030E0A901C701B6010E9446
:1028E0005C2B811105C01BA21CA21DA21EA220C030
:1028F000A701960160E074E284E799E40E94FD2458
:102900009F770E946A256BA37CA38DA39EA35E0183
:1029100083E4A80EB11C11E020E030E0A901C7015A
:10292000B6010E94962518160CF010E0F5011083F0
:10293000CB8ADC8AED8AFE8ADF91CF911F910F91BD
:10294000FF90EF90DF90CF90BF90AF907F906F900F
:102950005F904F9008952F923F924F925F926F92A7
:102960007F928F929F92AF92BF92CF92DF92EF921F
:10297000FF920F931F93CF93DF9300D01F92CDB799
:10298000DEB71C01FC0187849088A188B28883850A
:102990009485A585B685881A990AAA0ABB0A63890F
:1029A0007489858996899B01AC010E94C12B6B01BA
:1029B0007C01F101638D748D858D968D9B01AC0139
:1029C0000E9499249B01AC01C701B6010E94FD241D
:1029D0000E94652581149104A104B104A1F4623020
:1029E0007105810591050CF07CC0F10113A214A2C0
:1029F00015A216A2138A148A158A168A13AA14AA73
:102A000015AA16AA03C1F10103A914A925A936A97B
:102A1000ED5BFF4F181419041A041B04FCF4101684
:102A20001106120613064CF4681579058A059B05F4
:102A30004CF52081211155C025C001151105210536
:102A4000310509F44EC0681579058A059B050CF01F
:102A500048C08081882309F444C037C0101611068D
:102A600012061306F4F40027112798010819190912
:102A70002A093B0960177107820793071CF420811C
:102A8000222379F19B01AC0188279927DC01821B65
:102A9000930BA40BB50BF10183AB94ABA5ABB6AB19
:102AA00020C00115110521053105D9F0CC24DD2404
:102AB0007601C818D908EA08FB086C157D058E0553
:102AC0009F057CF4808181110CC030952095109574
:102AD00001951F4F2F4F3F4FF10103AB14AB25ABB7
:102AE00036ABF101C3A8D4A8E5A8F6A881010D5B17
:102AF0001F4FC114D104E104F10491F487A990ADF2
:102B0000A1ADB2AD83AF94AFA5AFB6AF81E018145D
:102B100019041A041B040CF080E0F801808340C003
:102B2000F10183AC94ACA5ACB6ACA5019401C50190
:102B3000B4010E9499242B013C01C701B6010E94F7
:102B4000622B20E030E040E850E40E94C12B20E0FE
:102B500030E040E85FE30E9499249B01AC01C3018F
:102B6000B2010E94FD249B01AC01C501B4010E9489
:102B700098244B015C01F101FF96408051806280F6
:102B800073809201A3010E949625181614F0420149
:102B90005301A401B501F10143AF54AF65AF76AF66
:102BA000FFEFCF1ADF0AEF0AFF0AF101C3AAD4AA86
:102BB000E5AAF6AA23AD34AD45AD56ADCA01B901BB
:102BC00029833A834B835C830E946A25F10163A3C6
:102BD00074A385A396A329813A814B815C8160E02F
:102BE00074E284E799E40E94FD24F101638B748B05
:102BF000858B968BF8012081211108C0DC01CB0167
:102C0000B058F101838B948BA58BB68B0F900F90EE
:102C10000F900F90DF91CF911F910F91FF90EF9048
:102C2000DF90CF90BF90AF909F908F907F906F90EC
:102C30005F904F903F902F9008954F925F926F92C8
:102C40007F928F929F92AF92BF92CF92DF92EF923C
:102C5000FF92CF93DF93EC016A017B018B8C9C8CFC
:102C6000AD8CBE8C9A01AB01C501B4010E945C2BF6
:102C7000882309F448C06BA97CA98DA99EA90E944C
:102C8000622B2B013C01A7019601C501B4010E94F2
:102C9000FD249B01AC01C301B2010E94C12B0E9423
:102CA00065256BAB7CAB8DAB9EABA701960160E05D
:102CB00070E080E090E40E94FD240E949E2526E5BD
:102CC0003EE04DE25FE30E94C12B20E034E244E7A6
:102CD00059E40E94C12B6FAB78AF89AF9AAFCB8E0E
:102CE000DC8EED8EFE8ECE01DF91CF91FF90EF90C6
:102CF000DF90CF90BF90AF909F908F907F906F901C
:102D00005F904F9028CEDF91CF91FF90EF90DF90B2
:102D1000CF90BF90AF909F908F907F906F905F907B
:102D20004F900895CF92EF920F93CF93DF93EC01E2
:102D300088E192E0998388836A831B861C861D86BE
:102D40001E861F86188A198A1A8A1B8A1C8A1D8A5F
:102D50001E8A80E090E0A0E8BFE38F8B988FA98F58
:102D6000BA8F1B8E1C8E1D8E1E8E8F8F98A3A9A3CB
:102D7000BAA31BA21CA21DA21EA261E070E07CA748
:102D80006BA73FEF3EA71FA218A619A61AA64B8352
:102D90002C830D83EE821BAA1CAA1DAA1EAA1FAAA1
:102DA00018AE19AE1AAE1BAE1CAE1DAE1EAEFE01A5
:102DB000FF9680839183A283B383349610821F820F
:102DC000188619861A86CC2011F0CE0183DB40E0EC
:102DD00050E060E87FE3CE01DF91CF910F91EF905B
:102DE000CF902BCFCF92DF92EF92FF920F931F9352
:102DF000CF93DF93EC016A017B019A01AB016F89EC
:102E0000788D898D9A8D0E945C2B882309F445C0AA
:102E1000CF8AD88EE98EFA8E8E01015C1F4FA701F2
:102E2000960160E074E284E799E40E94FD24F801D1
:102E300060837183828393838BA99CA9ADA9BEA96A
:102E4000181619061A061B0644F56B897C898D89AC
:102E50009E899B01AC010E94C12B6B017C016B8D93
:102E60007C8D8D8D9E8D9B01AC010E9499249B01D0
:102E7000AC01C701B6010E94FD240E9465256BAB21
:102E80007CAB8DAB9EABCE01DF91CF911F910F91AB
:102E9000FF90EF90DF90CF905ECDDF91CF911F91AB
:102EA0000F91FF90EF90DF90CF900895CF92DF9237
:102EB000EF92FF92CF93DF93EC018BA19CA1ADA188
:102EC000BEA1892B8A2B8B2B09F45BC03FB7F894EA
:102ED0008091140390911503A0911603B0911703EC
:102EE00026B5A89B05C02F3F19F00196A11DB11D65
:102EF0003FBFCC24D82EE92EFA2EC20ED11CE11CE5
:102F0000F11C42E0CC0CDD1CEE1CFF1C4A95D1F7F5
:102F10008FA198A5A9A5BAA5B701A601481B590B71
:102F20006A0B7B0B8BA19CA1ADA1BEA148175907D1
:102F30006A077B0730F1FE01ED5BFF4F20818B8537
:102F40009C85AD85BE85222321F00196A11DB11D72
:102F500003C00197A109B1098B879C87AD87BE8704
:102F6000E881F9814B855C856D857E850680F781DA
:102F7000E02DCE011995CFA2D8A6E9A6FAA6CE01DA
:102F8000EADC20E030E0A9016B897C898D899E898B
:102F90000E945C2B811110C081E0CF84D888E98821
:102FA000FA884B855C856D857E85C416D506E60658
:102FB000F70619F480E001C081E0DF91CF91FF9026
:102FC000EF90DF90CF9008950F931F93FC0103853E
:102FD000148525853685400F511F621F731F1F9171
:102FE0000F910C94C3058F929F92AF92BF92CF9294
:102FF000DF92EF92FF92CF93DF93EC018B889C8856
:10300000AD88BE8820E030E0A901C501B4010E946E
:103010005C2B882309F43EC0A5019401C501B401CD
:103020000E94C12B6B017C016B8D7C8D8D8D9E8DE3
:103030009B01AC010E9499249B01AC01C701B60120
:103040000E94FD240E9465256B017C012FEFC21AAE
:10305000D20AE20AF20A20E030E0A901C501B40177
:103060000E94962518161CF4B701A60107C0442734
:103070005527BA014C195D096E097F09CE01DF9110
:10308000CF91FF90EF90DF90CF90BF90AF909F9047
:103090008F909ACFDF91CF91FF90EF90DF90CF90FC
:1030A000BF90AF909F908F900895CF92DF92FF9244
:1030B0000F931F93CF93DF931F921F92CDB7DEB76D
:1030C000F82E062FE091E003F091E1038BEC93E002
:1030D00049835A831995080F4981C42E5A81D52EE8
:1030E00010E0F60121916F01222349F0402F6F2D4E
:1030F0008BEC93E00E941F0CF80E180FF2CF812F7B
:103100000F900F90DF91CF911F910F91FF90DF9063
:10311000CF9008950F931F93CF93DF931F921F9229
:10312000CDB7DEB789831A8200910F041091100485
:103130000F5F1F4FB8018BE094E09AD58823A1F070
:1031400020910B0430910C0480910F049091100495
:10315000BE016F5F7F4F820F931F0E94292810933B
:10316000100400930F0481E00F900F90DF91CF9136
:103170001F910F910895EF92FF920F931F93CF939A
:10318000DF93EC0180910F0490911004E0900B0408
:10319000F0900C040C811D81E114F104A9F000975A
:1031A000A9F0080F191FB801CE0162D5882361F07C
:1031B000288139818C819D81B701820F931F0E94E4
:1031C00029281D830C8302C0CE0179D5CE01DF9161
:1031D000CF911F910F91FF90EF90089520910F04D0
:1031E000309110048217930760F490931004809339
:1031F0000F0420910B0430910C04F901E80FF91F22
:1032000010820895CF92DF92FF920F931F93CF9376
:10321000DF9300D000D0CDB7DEB78C0162E672E05C
:10322000CE010196B3D560E070E0C801C4D48B3202
:1032300019F18D3209F1B801CE01019686D5CD8004
:10324000DE8000E010E0F12C0C151D0589F0B801BE
:10325000CE010196B0D48E3229F4F1100BC0FF24B8
:10326000F39403C080538A3028F40F5F1F4FECCFD4
:1032700011E00BC010E009C061E070E0C801ACD4FF
:10328000BC01CE0101964CD5DACFCE01019672D5A4
:10329000812F26960FB6F894DEBF0FBECDBFDF910B
:1032A000CF911F910F91FF90DF90CF900895FF92E3
:1032B0000F931F93CF93DF93CDB7DEB76E970FB603
:1032C000F894DEBF0FBECDBF8C0180915D058111EA
:1032D00008C062E672E08EE193E058D581E0809309
:1032E0005D05F801248135818091220390912303AB
:1032F0002817390749F58081918160911E037091EB
:103300001F03009719F061157105C9F46115710566
:1033100059F0232B09F448C2FB01208130E08827B3
:103320009927821B930B0DC0009709F43DC2232BF4
:1033300009F43AC2FC019081892F90E002C00E94FA
:103340002028892B09F430C2B801CE01499616D540
:1033500062E672E0CE01019619D561E672E0CE0117
:10336000079614D5AE014F5F5F4FBE01695F7F4F77
:10337000CE014996D9D2CE010796FCD4CE01019652
:10338000F9D4BE01675E7F4FCE014396F7D46AEA57
:1033900072E0CE010196FAD4BE016F5F7F4FCE017D
:1033A00043962CD4F82ECE010196E4D4FF2009F4E4
:1033B0003BC0BE016D5E7F4FCE010D96DFD462E64D
:1033C00072E0CE010796E2D46AEA72E0CE0101967D
:1033D000DDD4AE01495F5F4FBE016F5F7F4FCE010D
:1033E0000D96A2D2CE010196C5D4CE010796C2D4C5
:1033F000BE01635F7F4FCE010196C0D4CE0101961E
:1034000001DFF82ECE010196B5D4FF2051F0CE0198
:103410000D967FD20E94622BAB01BC0189E994E03A
:10342000E1DCCE010D96A6D462EB72E0CE010196EE
:10343000ADD4BE016F5F7F4FCE014396DFD3F82E30
:10344000CE01019697D4FF2009F43AC0BE016D5E0B
:103450007F4FCE010D9692D462E672E0CE010796C0
:1034600095D462EB72E0CE01019690D4AE01495F33
:103470005F4FBE016F5F7F4FCE010D9655D2CE01DB
:10348000019678D4CE01079675D4BE01635F7F4F55
:10349000CE01019673D4CE010196B4DEF82ECE0192
:1034A000019668D4FF2049F0CE010D9632D2AB01CF
:1034B000BC0189E994E00E94C305CE010D965AD45F
:1034C0006DEA72E0CE014396B4D3811186C164EBFC
:1034D00072E0CE014396ADD381117FC1CE014396F8
:1034E00049D4BE01675E7F4FCE01439647D469EB56
:1034F00072E0CE0101964AD4BE016F5F7F4FCE01CC
:1035000043967CD3F82ECE01019634D4FF2009F4E3
:103510003BC0BE016D5E7F4FCE010D962FD462E69B
:1035200072E0CE01079632D469EB72E0CE010196CB
:103530002DD4AE01495F5F4FBE016F5F7F4FCE015B
:103540000D96F2D1CE01019615D4CE01079612D474
:10355000BE01635F7F4FCE01019610D4CE0101966C
:1035600051DEF82ECE01019605D4FF2051F0CE0198
:103570000D96CFD10E94622BAB01BC0185E594E092
:1035800031DCCE010D96F6D361EC72E0CE010196EE
:10359000FDD3BE016F5F7F4FCE0143962FD3F82E30
:1035A000CE010196E7D3FF2009F43AC0BE016D5E5B
:1035B0007F4FCE010D96E2D362E672E0CE01079610
:1035C000E5D361EC72E0CE010196E0D3AE01495F34
:1035D0005F4FBE016F5F7F4FCE010D96A5D1CE012B
:1035E0000196C8D3CE010796C5D3BE01635F7F4F56
:1035F000CE010196C3D3CE01019604DEF82ECE0192
:103600000196B8D3FF2049F0CE010D9682D1AB01CF
:10361000BC0185E594E00E94C305CE010D96AAD3B6
:103620006CEB72E0CE01439604D38111DAC064EBF7
:1036300072E0CE014396FDD28111D3C0CE014396F4
:1036400099D3BE01675E7F4FCE01439697D363EC5B
:1036500072E0CE0101969AD3BE016F5F7F4FCE011B
:103660004396CCD2F82ECE01019684D3FF2009F4E4
:103670003BC0BE016D5E7F4FCE010D967FD362E6EB
:1036800072E0CE01079682D363EC72E0CE01019620
:103690007DD3AE01495F5F4FBE016F5F7F4FCE01AB
:1036A0000D9642D1CE01019665D3CE01079662D325
:1036B000BE01635F7F4FCE01019660D3CE010196BC
:1036C000A1DDF82ECE01019655D3FF2051F0CE0199
:1036D0000D961FD10E94622BAB01BC0181E194E0E9
:1036E00081DBCE010D9646D36BEC72E0CE010196E4
:1036F0004DD3BE016F5F7F4FCE0143967FD2F82E30
:10370000CE01019637D3FF2009F43AC0BE016D5EA9
:103710007F4FCE010D9632D362E672E0CE0107965E
:1037200035D36BEC72E0CE01019630D3AE01495F28
:103730005F4FBE016F5F7F4FCE010D96F5D0CE017A
:10374000019618D3CE01079615D3BE01635F7F4F54
:10375000CE01019613D3CE01019654DDF82ECE0191
:10376000019608D3FF2049F0CE010D96D2D0AB01CF
:10377000BC0181E194E00E94C305CE010D96FAD20E
:1037800066EC72E0CE01439654D281112EC064EBF8
:1037900072E0CE0143964DD2811127C0CE014396EF
:1037A000E9D2CE014996E6D2B8018EE193E0CDD2BE
:1037B00089E994E07BDB85E594E078DB81E194E0C6
:1037C00075DB6E960FB6F894DEBF0FBECDBFDF91EE
:1037D000CF911F910F91FF90089589E994E003DC48
:1037E0007DCE85E594E0FFDB29CF81E194E0FBDB32
:1037F000D5CFEF92FF920F931F93CF93DF937C016E
:103800008B01CB010A96FB0120E22193E817F9070F
:10381000E1F7C0E0D0E0BE01C701DED1FC0180814C
:10382000882361F0BE01C701D7D1FC018081F80176
:1038300081938F012196CA30D10569F7DF91CF912D
:103840001F910F91FF90EF900895CF9384EA80939A
:10385000BC0061E080E80E94880D882359F08091C7
:10386000B900887F883041F0803131F061E082E03A
:103870000E947F0DC0E01DC088E78093BB0084E8F4
:103880008093BC0062E080E80E94880D882391F359
:1038900080911D03C82FC27081FD0AC08091B900BC
:1038A000887F883129F062E082E00E947F0D01C0AC
:1038B000C1E08C2FCF910895CF92DF92EF92FF92CB
:1038C0000F931F93CF93DF936C017A018B01C0E0BC
:1038D000D0E0CE15DF0589F0D8016D918D01D601BC
:1038E000ED91FC910190F081E02DC6011995892B95
:1038F00011F47E0102C02196ECCFC701DF91CF9178
:103900001F910F91FF90EF90DF90CF9008950E944C
:103910000228FC0180819181009711F00C94212BE9
:1039200060E070E0CB0108952F923F924F925F923A
:103930006F927F928F929F92AF92BF92CF92DF92BF
:10394000EF92FF920F931F93CF93DF9300D01F92BC
:10395000CDB7DEB7FC01448055804114510409F411
:1039600013C1FB01648075806114710409F40CC1FA
:103970007A016B019C838B83FA01A480B580A61821
:10398000B708FC0100811181A114B104C1F4F60152
:1039900060817181C8010E943E285C01892B09F475
:1039A000F3C0F7016081718144815581C5010E9496
:1039B0000628F701048115810A0D1B1DE8CFB7FE0B
:1039C00002C0480106C0FB01208031804201C801CD
:1039D00048C0F60160817181C4010E943E282C011B
:1039E000892B29F1320168187908A301B401C801B3
:1039F0000E940628060D171DF70160817181448120
:103A00005581C8010E940628F70184819581080F1D
:103A1000191FF60184809580840C951CEB81FC8134
:103A2000848195818A0D9B1D95838483D2CFB401B7
:103A3000C8010F900F900F900F90DF91CF911F91C1
:103A40000F91FF90EF90DF90CF90BF90AF909F903D
:103A50008F907F906F905F904F903F902F900C943D
:103A60002928B1010E943E28009729F0860D971D54
:103A70008A0C9B1CF6CF8414950409F485C0EB8155
:103A8000FC81828193818815990578F4B4016F5F78
:103A90007F4FC8010E941E27009709F475C0EB8173
:103AA000FC819183808393828282EB81FC810481FB
:103AB00015810150110917FD67C0F601248035807A
:103AC0002114310409F460C0EB81FC8164807580AD
:103AD0006114710409F458C06214730408F454C0EA
:103AE0000615170518F0830101501109EB81FC81BF
:103AF00040805180C20188248A94982C9201200F22
:103B0000311F2817390758F0F60160817181298328
:103B10003A830E943E2829813A81009761F597FCFB
:103B200033C0280C391CC201820D931DA301421918
:103B30005309BC018A0D9B1D0E940F28EB81FC815B
:103B4000848195818A0D9B1D958384832081318199
:103B5000F901E80FF91F1082EB81FC8180819181CE
:103B6000F7016081718144815581880D991D0E9402
:103B7000062884019ECFAC01441955090417150786
:103B800008F04A010196BDCF0F900F900F900F9053
:103B9000DF91CF911F910F91FF90EF90DF90CF9029
:103BA000BF90AF909F908F907F906F905F904F905D
:103BB0003F902F900895FC0124813581621773078F
:103BC00048F480819181009729F0FC01E60FF71FEE
:103BD0008081089580E00895FC0124813581621779
:103BE000730720F480819181009729F41092650574
:103BF00085E695E00895860F971F0895FB0144819F
:103C00005581FC01248135812417350778F08081A6
:103C10009181009759F0FB016081718161157105F7
:103C200029F00E94302821E0892B09F020E0822F22
:103C30000895FC0124813581232B31F421E06115A5
:103C40007105A1F0FB0108C0FC0180819181611523
:103C5000710531F421E0FC018081882339F005C031
:103C60000E94202821E0892B09F020E0822F08956E
:103C70000F931F93CF93DF93EC0188819981009775
:103C800029F02A813B812617370788F48B016F5F63
:103C90007F4F0E941E27009761F0998388831B83C2
:103CA0000A832C813D81232B11F4FC01108281E0D9
:103CB00001C080E0DF91CF911F910F910895CF93C4
:103CC000DF93EC0188819981009711F00E9486268C
:103CD000198218821D821C821B821A82DF91CF9169
:103CE0000895EF92FF920F931F93CF93DF93EC0110
:103CF0007B018A01BA01BCDF811103C0CE01DFDF85
:103D000007C01D830C83B701888199810E942928EF
:103D1000CE01DF91CF911F910F91FF90EF90089509
:103D2000CF93DF93EC016115710551F0FB01019018
:103D30000020E9F73197AF01461B570BD2DF01C0D6
:103D4000BEDFCE01DF91CF910895CF93DF93EC01D9
:103D5000FB018617970751F060817181611571052C
:103D600021F044815581BDDF01C0A9DFCE01DF9183
:103D7000CF910895FC0180819181C8C7FC01118217
:103D800010821382128215821482DFCFFC0111820D
:103D9000108213821282158214826115710549F016
:103DA000FB0101900020E9F73197AF01461B570B4B
:103DB00098CF0895CF93DF93CDB7DEB7CA54D1091A
:103DC0000FB6F894DEBF0FBECDBF789484B5826085
:103DD00084BD84B5816084BD85B5826085BD85B5AF
:103DE000816085BD80916E00816080936E0010922D
:103DF00081008091810082608093810080918100A8
:103E00008160809381008091800081608093800038
:103E10008091B10084608093B1008091B000816096
:103E20008093B00080919100826080939100809196
:103E300091008160809391008091900081608093D7
:103E400090008091A10082608093A1008091A100E8
:103E500081608093A1008091A00081608093A00088
:103E600080912101826080932101809121018160F4
:103E700080932101809120018160809320018091B5
:103E80007A00846080937A0080917A0082608093C7
:103E90007A0080917A00816080937A0080917A0024
:103EA000806880937A001092C1008FE081B980EF22
:103EB00082B91092FD021C821B8282E492E09A83F6
:103EC00089831CAE1DAE1EAE1A8619861C861B8603
:103ED0001E8681E08D8782E28F871C8A1B8AFE0105
:103EE000B896CE01C6962FEF2193E817F907E1F7B0
:103EF00081E08DA32BEB33E03B8F2A8F8C8F1D8EBF
:103F00001E8E80E48F8F18A28EE693E09FAB8EAB5F
:103F100088E092E098878F831BAACE0105960E94C5
:103F2000BA0B8B819C819093CA038093C90387E36A
:103F3000FE013596ABECB3E001900D928A95E1F766
:103F40008CAD809302048DAD809303048EAD80937D
:103F500004048091CF039091D0038A56914009F4D4
:103F600045C08AE691E09093D0038093CF0380917F
:103F7000E203811108C0EFE6F1E0E491E093E3038E
:103F8000E6E7F1E011C0813041F4E9E7F1E0E491C6
:103F9000E093E303EAE7F1E007C0E7E7F1E0E4914B
:103FA000E093E303E8E7F1E0E491E093E403809138
:103FB000E303082E000C990B2091E403821B910966
:103FC00027FD93952091E503203441F0829FC001A5
:103FD000112426E0969587952A95E1F78093E603CC
:103FE0008BEB93E09093E1038093E00361E088E042
:103FF0000E942E1261E089E30E942E12809102013C
:104000008062809302018B9A62E086E30E942E1206
:1040100061E085E00E942E1261E086E00E942E128F
:1040200061E087E00E942E1261E082E00E942E1281
:1040300061E083E00E942E1261E084E00E942E1273
:10404000CC24C39485E0E82E04E025E042E061E062
:10405000CE0101965C010E949216B50189E994E0B7
:104060000E94FE1226E043E061E0C5010E94921624
:10407000B50185E594E00E94FE1227E044E061E08E
:10408000C5010E949216B50181E194E00E94FE12E2
:1040900088EE93E09093290380932803909325035F
:1040A00080932403909327038093260310920F0399
:1040B00010920E0362E672E08BE094E031DE109223
:1040C0001103109210036091240370912503072EB1
:1040D000000C880B990B0E94622BAB01BC0189E993
:1040E00094E00E94F2166091260370912703072E38
:1040F000000C880B990B0E94622BAB01BC0185E57B
:1041000094E00E94F2166091280370912903072E13
:10411000000C880B990B0E94622BAB01BC0181E162
:1041200094E00E94F2166091240370912503072EFB
:10413000000C880B990B0E94622BAB01BC0189E932
:1041400094E00E942F146091260370912703072E9C
:10415000000C880B990B0E94622BAB01BC0185E51A
:1041600094E00E942F146091280370912903072E78
:10417000000C880B990B0E94622BAB01BC0181E102
:1041800094E00E942F1440E050E06AE774E489E96B
:1041900094E00E941D1640E050E06AE774E485E573
:1041A00094E00E941D1640E050E06AE774E481E16B
:1041B00094E00E941D1640E050E0BA0189E994E0C5
:1041C0000E94C30540E050E0BA0185E594E00E94FA
:1041D000C30540E050E0BA0181E194E00E94C305CC
:1041E00081E090E0A0E0B0E08093000390930103B1
:1041F000A0930203B09303038AED95E09093FF022E
:104200008093FE02809170008E7F80937000809179
:10421000B0008C7F8093B0008091B100877F809345
:10422000B1008091B6008F7D8093B60080917000C0
:104230008D7F809370008091B10084608093B10085
:104240008091B1008C7F8093B10086E090E09093E4
:104250000503809304031092070310920803109241
:10426000090310920A0310920603809104039091AF
:1042700005038093B200809170008160809370008C
:10428000E0913A03F0913B0382E08083E0913603B2
:10429000F09137031082E0913803F09139038FECED
:1042A000808310924203E0913E03F0913F0386E049
:1042B0008083E0913C03F0913D03808180618083A5
:1042C000E0913C03F0913D03808188608083E09120
:1042D0003C03F0913D03808180688083E0913C0342
:1042E000F0913D0380818F7D808301E812E097EAA1
:1042F000E92E92E0F92E80910404811106C0C0924B
:1043000004048BEC93E00E94BA0B8090CD03909054
:10431000CE03E091FC03F091FD0382E01995E0915A
:10432000FC03F091FD0381E0199520E030E044E1C9
:10433000B4018BEC93E00E94B60B2EEF33E047E123
:10434000B4018BEC93E00E94B60BE091FC03F0917A
:10435000FD0380E0199580910C0390910D03009767
:1043600019F44EE652E00AC08130910519F444E791
:1043700052E004C0029731F44BE752E06AE08DE26C
:104380000E94551880910E0390910F03009709F039
:1043900049C08091A7048F938091A6048F93809148
:1043A000A5048F938091A4048F931F930F93BF92C2
:1043B000AF927ED645E852E064E182E00E94551853
:1043C000A50164E181E10E945518809163048F93F7
:1043D000809162048F93809161048F938091600437
:1043E0008F931F930F93BF92AF9262D648E852E02B
:1043F0006EE182E00E945518A5016EE181E10E9404
:10440000551880911F048F9380911E048F93809183
:104410001D048F9380911C048F931F930F93BF9261
:10442000AF928FC08130910509F03BC04EE852E059
:1044300064E182E00E9455186BE074E0CE018B5B72
:104440009F4F9CDCB501CE018B5B9F4FD2D9CE0133
:104450008B5B9F4F8FDCA50164E189E10E945518B9
:1044600042E952E064E189E10E94551880916304B9
:104470008F93809162048F93809161048F938091D8
:1044800060048F931F930F93BF92AF9211D648E8A9
:1044900052E06EE182E00E945518A5016EE181E1D3
:1044A0003EC08230910509F057C08091A7048F93D8
:1044B0008091A6048F938091A5048F938091A4048A
:1044C0008F931F930F93BF92AF92F2D545E852E0BE
:1044D00064E182E00E945518A50164E181E10E9437
:1044E00055184DE952E06EE182E00E9455186BE0EC
:1044F00074E0CE018B5B9F4F41DCB501CE018B5B3D
:104500009F4F77D9CE018B5B9F4F34DCA5016EE1C5
:1045100089E10E94551842E952E06EE189E10E946A
:10452000551880911F048F9380911E048F93809162
:104530001D048F9380911C048F931F930F93BF9240
:10454000AF92B6D54BE852E068E282E00E9455187F
:10455000A50168E281E159C0039709F05DC080912F
:10456000A7048F938091A6048F938091A5048F93C5
:104570008091A4048F931F930F93BF92AF9298D50D
:1045800045E852E064E182E00E945518A50164E12B
:1045900081E10E945518809163048F938091620499
:1045A0008F93809161048F93809160048F931F9308
:1045B0000F93BF92AF927CD548E852E06EE182E063
:1045C0000E945518A5016EE181E10E94551841EA4B
:1045D00052E068E282E00E9455186BE074E0CE0180
:1045E0008B5B9F4FCBDBB501CE018B5B9F4F01D91E
:1045F000CE018B5B9F4FBEDBA50168E289E10E9483
:10460000551842E952E068E289E10E9455180FB658
:10461000F894DEBF0FBECDBF8091100390911103BF
:104620008130910571F0029791F445EA52E064E11E
:104630008EE60E94551845EA52E06EE18EE60E9431
:10464000551845EA52E068E28EE60E9455188091BE
:1046500013038F93809112038F93FF92EF92BF9277
:10466000AF9226D5A50162E382E00E94551865E06D
:1046700074E0CE018B5B9F4F81DBB501CE018B5B7C
:104680009F4FB7D8CE018B5B9F4F74DBA50162E3D0
:1046900088E20E945518E091D903F091DA030F9057
:1046A0000F900F900F900F900F90309719F08BECA8
:1046B00093E019958090CD039090CE03E091FC0398
:1046C000F091FD0382E01995E091FC03F091FD0368
:1046D00081E0199520E030E045E1B4018BEC93E0F6
:1046E0000E94B60BD82E882341F02EEF33E047E12D
:1046F000B4018BEC93E00E94B60BE091FC03F091C7
:10470000FD0380E01995D11026CE0E94FF0EF3CD57
:1047100085E094E02FDB8BE094E02CCBCF92EF92FE
:104720000F9310922D0310922C0388EE93E0A0E0DB
:10473000B0E080932E0390932F03A0933003B093A7
:10474000310382E392E090932B0380932A0385EC5C
:1047500090E0909337038093360384EC90E090933D
:1047600039038093380380EC90E090933B0380936F
:104770003A0381EC90E090933D0380933C0382ECFC
:1047800090E090933F0380933E0386EC90E09093FB
:10479000410380934003109243031092440310920C
:1047A000450310924603CC24C39485E0E82E04E030
:1047B00023E042E064E089E994E00E94921623E05D
:1047C00042E064E085E594E00E94921623E042E036
:1047D00064E081E194E00E94921662E672E08BE070
:1047E00094E0D4DA1092CA031092C90382E492E0F2
:1047F0009093C8038093C70310920204109203049D
:10480000109204041092D0031092CF031092D2039E
:104810001092D1031092D40381E08093D30382E2FB
:104820008093D5031092DA031092D903EEEEF3E0F1
:104830009FEF8EE08E0F91938E13FDCF81E08093DA
:10484000EB032BEB33E03093E1032093E003809301
:10485000E2031092E3031092E40380E48093E50303
:104860001092E6038EE693E09093FD038093FC03A1
:1048700088E092E09093CE038093CD031092F903E9
:104880008BEC93E00E94BA0B82E592E09093C80310
:104890008093C70363E672E085E094E00F91EF90A8
:1048A000CF9074CA052E97FB16F400940FD057FDD5
:1048B00005D01CD007FC02D046F408C050954095A6
:1048C000309521953F4F4F4F5F4F089590958095BC
:1048D000709561957F4F8F4F9F4F0895EE0FFF1F8B
:1048E000881F8BBF0790F691E02D1994A1E21A2E34
:1048F000AA1BBB1BFD010DC0AA1FBB1FEE1FFF1F84
:10490000A217B307E407F50720F0A21BB30BE40BD3
:10491000F50B661F771F881F991F1A9469F760951A
:104920007095809590959B01AC01BD01CF010895D4
:104930005058BB27AA270ED09EC78FD730F094D7E8
:1049400020F031F49F3F11F41EF484C70EF4E0957B
:10495000E7FB7AC7E92FA0D780F3BA17620773077E
:104960008407950718F071F49EF5B8C70EF4E0952A
:104970000B2EBA2FA02D0B01B90190010C01CA0119
:10498000A0011124FF27591B99F0593F50F4503EC4
:1049900068F11A16F040A22F232F342F4427585FB6
:1049A000F3CF469537952795A795F0405395C9F7CE
:1049B0007EF41F16BA0B620B730B840BBAF0915086
:1049C000A1F0FF0FBB1F661F771F881FC2F70EC025
:1049D000BA0F621F731F841F48F4879577956795F8
:1049E000B795F7959E3F08F0B3CF9395880F08F0E1
:1049F0009927EE0F9795879508950CD03CC734D72B
:104A000040F02BD730F021F45F3F19F01DC7511152
:104A100066C720C741D798F39923C9F35523B1F34B
:104A2000951B550BBB27AA2762177307840738F01D
:104A30009F5F5F4F220F331F441FAA1FA9F333D07C
:104A40000E2E3AF0E0E830D091505040E695001C30
:104A5000CAF729D0FE2F27D0660F771F881FBB1FEC
:104A6000261737074807AB07B0E809F0BB0B802DC6
:104A7000BF01FF2793585F4F2AF09E3F510568F012
:104A8000E3C62DC75F3FECF3983EDCF38695779540
:104A90006795B795F7959F5FC9F7880F911D969514
:104AA000879597F90895E1E0660F771F881FBB1F70
:104AB000621773078407BA0720F0621B730B840B1D
:104AC000BA0BEE1F88F7E095089504D06894B111F1
:104AD00006C70895E9D688F09F5790F0B92F992717
:104AE000B751A0F0D1F0660F771F881F991F1AF0F9
:104AF000BA95C9F712C0B13081F0F0D6B1E008958F
:104B0000EDC6672F782F8827B85F39F0B93FCCF30F
:104B1000869577956795B395D9F73EF490958095EE
:104B2000709561957F4F8F4F9F4F089506D608F47B
:104B30008FEF089511F40EF48DC63EC0B5D6D0F3B4
:104B40009923D9F3CEF39F57550B87FF43D0002409
:104B5000A0E640EA900180585695979528F4805C2D
:104B6000660F771F881F20F026173707480730F495
:104B7000621B730B840B202931294A2BA6951794AD
:104B80000794202531254A2758F7660F771F881F7D
:104B900020F026173707480730F4620B730B840B9D
:104BA000200D311D411DA09581F7B901842F915829
:104BB000880F9695879508959F3F31F0915020F486
:104BC000879577956795B795880F911D96958795E9
:104BD00097F9089591505040660F771F881FD2F7BC
:104BE0000895CF93DF938230910510F482E090E036
:104BF000E0916805F091690520E030E0C0E0D0E088
:104C0000309711F14081518148175907C0F048177A
:104C1000590761F482819381209719F09B838A83DD
:104C20002BC0909369058093680526C02115310536
:104C300019F04217530718F49A01BE01DF01EF0182
:104C40000280F381E02DDCCF2115310509F1281B0D
:104C5000390B2430310590F412968D919C91139765
:104C60006115710521F0FB019383828304C0909349
:104C7000690580936805FD01329644C0FD01E20F8D
:104C8000F31F81939193225031092D933C933AC0A5
:104C90002091660530916705232B41F42091100285
:104CA00030911102309367052093660520910E0222
:104CB00030910F022115310541F42DB73EB74091D7
:104CC000120250911302241B350BE0916605F091FE
:104CD0006705E217F307A0F42E1B3F0B28173907CF
:104CE00078F0AC014E5F5F4F2417350748F04E0F48
:104CF0005F1F50936705409366058193919302C0AF
:104D0000E0E0F0E0CF01DF91CF9108950F931F9382
:104D1000CF93DF93009709F48CC0FC013297138284
:104D2000128200916805109169050115110581F441
:104D300020813181820F931F209166053091670594
:104D40002817390779F5F0936705E093660571C078
:104D5000D80140E050E0AE17BF0750F412962D91F5
:104D60003C911397AD012115310509F1D901F3CF1C
:104D70009D01DA013383228360817181860F971F41
:104D80008217930769F4EC0128813981260F371FB8
:104D90002E5F3F4F318320838A819B81938382835F
:104DA000452B29F4F0936905E093680542C01396FA
:104DB000FC93EE931297ED01499159919E01240FB6
:104DC000351FE217F30771F480819181840F951FDD
:104DD000029611969C938E938281938113969C9355
:104DE0008E931297E0E0F0E0D80112968D919C919D
:104DF0001397009719F0F8018C01F6CF8D919C91D3
:104E000098012E5F3F4F820F931F209166053091CE
:104E100067052817390769F4309729F41092690556
:104E20001092680502C013821282109367050093E6
:104E30006605DF91CF911F910F9108956F927F9238
:104E40008F929F92AF92BF92CF92DF92EF92FF929A
:104E50000F931F93CF93DF93EC01009781F4CB0165
:104E6000DF91CF911F910F91FF90EF90DF90CF9046
:104E7000BF90AF909F908F907F906F90B2CEFC01CB
:104E8000E60FF71F9C0122503109E217F30708F4DF
:104E9000A8C0D9010D911C91119706171707A8F00A
:104EA0000530110508F49BC0C801049786179707C1
:104EB00008F495C002501109061B170B01931193BA
:104EC0006D937C93CF0122DF8AC05B01A01AB10AE7
:104ED0004C01800E911EA0916805B091690540E0DB
:104EE00050E0E12CF12C109709F44AC0A815B9053F
:104EF000D1F56D907C901197630182E0C80ED11CB2
:104F0000CA14DB0480F1A3014A195B096A0182E03B
:104F1000C80ED11C1296BC9012971396AC91B5E0B6
:104F2000CB16D10440F0B282A38351834083D901D0
:104F30006D937C930AC00E5F1F4FC301800F911FBA
:104F4000F90191838083EB2DFA2FE114F10431F004
:104F5000D7011396FC93EE93129741C0F093690525
:104F6000E09368053CC08D919C91119748175907B3
:104F700008F4AC017D0112960D90BC91A02DB3CF29
:104F8000809166059091670588159905E1F44617AB
:104F90005707C8F480910E0290910F02009741F4D8
:104FA0008DB79EB74091120250911302841B950B4E
:104FB000E817F907B0F4F0936705E0936605F90187
:104FC000718360830CC0CB010CDE7C01009749F03B
:104FD000A801BE011BD0CE0199DEC70104C0CE01DD
:104FE00002C080E090E0DF91CF911F910F91FF9080
:104FF000EF90DF90CF90BF90AF909F908F907F9079
:105000006F90089581E090E0F8946FC4FB01DC019B
:1050100002C001900D9241505040D8F70895681792
:10502000790768F4FB01DC01E40FF51FA40FB51F3D
:1050300002C002900E9241505040D8F70895E6CF3A
:10504000FB01DC018D91019080190110D9F3990BBE
:105050000895FB01DC0101900D920020E1F7089515
:10506000FB01DC014150504030F08D9101908019DE
:1050700019F40020B9F7881B990B0895FB01519191
:105080005523A9F0BF01DC014D9145174111E1F70E
:1050900059F4CD010190002049F04D914015411186
:1050A000C9F3FB014111EFCF81E090E00197089532
:1050B0000F931F93CF93DF93CDB7DEB72E970FB625
:1050C000F894DEBF0FBECDBF0E891F8986E08C83AA
:1050D0001A8309838FEF9FE79E838D83AE01465E1F
:1050E0005F4F688D798DCE01019611D02F81388563
:1050F000F801E20FF31F10822E960FB6F894DEBF70
:105100000FBECDBFDF91CF911F910F9108952F92C8
:105110003F924F925F926F927F928F929F92AF9247
:10512000BF92CF92DF92EF92FF920F931F93CF9394
:10513000DF93CDB7DEB72C970FB6F894DEBF0FBE66
:10514000CDBF7C016B018A01FC011782168283812D
:1051500081FFB0C1CE0101964C01F7019381F601A8
:1051600093FD859193FF81916F01882309F49EC17E
:10517000853239F493FD859193FF81916F018532DA
:1051800021F4B70190E0C7D1E8CF512C312C20E0B9
:105190002032A0F48B3269F030F4803259F083323F
:1051A00069F420612CC08D3239F0803339F42160EC
:1051B00026C02260246023C0286021C027FD27C0AC
:1051C00030ED380F3A3078F426FF06C0FAE05F9EE3
:1051D000300D1124532E13C08AE0389E300D112457
:1051E000332E20620CC08E3221F426FD5FC1206474
:1051F00006C08C3611F4206802C0883641F4F601EE
:1052000093FD859193FF81916F018111C1CF982FFB
:105210009F7D9554933028F40C5F1F4FFFE3F98373
:105220000DC0833631F0833771F0833509F057C0F4
:1052300021C0F801808189830E5F1F4F442443946D
:10524000512C540114C03801F2E06F0E711CF801AA
:10525000A080B18026FF03C0652D70E002C06FEF13
:105260007FEFC5012C874CD12C0183012C852F7732
:10527000222E16C03801F2E06F0E711CF801A080DA
:10528000B18026FF03C0652D70E002C06FEF7FEF95
:10529000C5012C872AD12C012C852068222E830160
:1052A00023FC19C0832D90E048165906A0F4B701DD
:1052B00080E290E030D13A94F5CFF50127FC85915A
:1052C00027FE81915F01B70190E025D131103A941A
:1052D000F1E04F1A51084114510479F7DEC08436C9
:1052E00011F0893631F5F80127FF07C0608171811F
:1052F000828193810C5F1F4F08C060817181072EEE
:10530000000C880B990B0E5F1F4F2F76722E97FFA4
:1053100009C090958095709561957F4F8F4F9F4FF5
:105320002068722E2AE030E0A4012DD1A82EA81802
:1053300043C0853729F42F7EB22E2AE030E025C005
:10534000F22FF97FBF2E8F36C1F018F4883579F02F
:10535000ADC0803719F0883721F0A8C02F2F206109
:10536000B22EB4FE0DC08B2D8460B82E09C024FF70
:105370000AC09F2F9660B92E06C028E030E005C015
:1053800020E130E002C020E132E0F801B7FE07C0C2
:1053900060817181828193810C5F1F4F06C06081A3
:1053A000718180E090E00E5F1F4FA401ECD0A82E29
:1053B000A818FB2DFF777F2E76FE0BC0372D3E7F82
:1053C000A51450F474FE0AC072FC08C0372D3E7E4E
:1053D00005C0BA2C372D03C0BA2C01C0B52C34FF40
:1053E0000DC0FE01EA0DF11D8081803311F4397E7C
:1053F00009C032FF06C0B394B39404C0832F8678EB
:1054000009F0B39433FD12C030FF06C05A2CB31418
:1054100018F4530C5B18B32CB31460F4B70180E29A
:1054200090E03C8778D0B3943C85F6CFB31410F469
:105430003B1801C0312C34FF11C0B70180E390E06C
:105440003C8769D03C8532FF16C031FD03C088E738
:1054500090E002C088E590E0B7010CC0832F867809
:1054600051F031FF02C08BE201C080E237FD8DE2D6
:10547000B70190E050D0A51430F4B70180E390E07C
:105480004AD05A94F8CFAA94F401EA0DF11D808114
:10549000B70190E040D0A110F6CF332009F45DCEE3
:1054A000B70180E290E037D03A94F7CFF7018681D8
:1054B000978102C08FEF9FEF2C960FB6F894DEBF56
:1054C0000FBECDBFDF91CF911F910F91FF90EF9055
:1054D000DF90CF90BF90AF909F908F907F906F9014
:1054E0005F904F903F902F900895FC010590615080
:1054F00070400110D8F7809590958E0F9F1F0895EA
:10550000FC016150704001900110D8F78095909592
:105510008E0F9F1F08950F931F93CF93DF93FB016F
:10552000238121FD03C08FEF9FEF28C022FF16C00B
:1055300046815781248135814217530744F4A08165
:10554000B1819D012F5F3F4F318320838C93268152
:1055500037812F5F3F4F3783268310C0EB01092F20
:10556000182F0084F185E02D1995892BE1F68E81A5
:105570009F8101969F838E83812F902FDF91CF9102
:105580001F910F910895FA01AA27283051F1203177
:1055900081F1E8946F936E7F6E5F7F4F8F4F9F4FC7
:1055A000AF4FB1E03ED0B4E03CD0670F781F891F09
:1055B0009A1FA11D680F791F8A1F911DA11D6A0FD7
:1055C000711D811D911DA11D20D009F468943F918A
:1055D0002AE0269F11243019305D3193DEF6CF0189
:1055E0000895462F4770405D4193B3E00FD0C9F74F
:1055F000F6CF462F4F70405D4A3318F0495D31FDBC
:105600004052419302D0A9F7EACFB4E0A69597950E
:10561000879577956795BA95C9F7009761057105E4
:1056200008959B01AC010A2E06945795479537952E
:105630002795BA95C9F7620F731F841F951FA01D88
:1056400008951F93FC0199278827BC01E8941191C4
:105650001032E9F3193010F01E30C8F31B3249F054
:105660001D3241F4689405C012D0610F711D811D77
:10567000911D119110531A30B8F33EF49095809516
:10568000709561957F4F8F4F9F4F1F910895592FB0
:10569000482F372F262F660F771F881F991F660FF9
:1056A000771F881F991F620F731F841F951F660F36
:1056B000771F881F991F089540D008F481E008954E
:1056C000E89409C097FB3EF490958095709561959C
:1056D0007F4F8F4F9F4F9923A9F0F92F96E9BB2752
:1056E0009395F695879577956795B795F111F8CFCE
:1056F000FAF4BB0F11F460FF1BC06F5F7F4F8F4F39
:105700009F4F16C0882311F096E911C0772321F02E
:105710009EE8872F762F05C0662371F096E8862FC6
:1057200070E060E02AF09A95660F771F881FDAF71D
:10573000880F9695879597F90895990F0008550F4A
:10574000AA0BE0E8FEEF16161706E807F907C0F007
:1057500012161306E407F50798F0621B730B840B0F
:10576000950B39F40A2661F0232B242B252B21F4E9
:1057700008950A2609F4A140A6958FEF811D811D89
:1057800008950BD078C069D028F06ED018F095231A
:1057900009F05AC05FC01124A2C07ED0A0F3959F2B
:1057A000D1F3950F50E0551F629FF001729FBB2708
:1057B000F00DB11D639FAA27F00DB11DAA1F649FB4
:1057C0006627B00DA11D661F829F2227B00DA11D67
:1057D000621F739FB00DA11D621F839FA00D611DED
:1057E000221F749F3327A00D611D231F849F600D0E
:1057F000211D822F762F6A2F11249F5750408AF047
:10580000E1F088234AF0EE0FFF1FBB1F661F771FD2
:10581000881F91505040A9F79E3F510570F014C069
:105820005EC05F3FECF3983EDCF386957795679515
:10583000B795F795E7959F5FC1F7FE2B880F911DF0
:105840009695879597F9089597F99F6780E870E096
:1058500060E008959FEF80EC089500240A941616E6
:10586000170618060906089500240A94121613064E
:10587000140605060895092E0394000C11F48823DC
:1058800052F0BB0F40F4BF2B11F460FF04C06F5FF8
:105890007F4F8F4F9F4F089557FD9058440F551FCE
:1058A00059F05F3F71F04795880F97FB991F61F0A2
:1058B0009F3F79F087950895121613061406551F19
:1058C000F2CF4695F1DF08C0161617061806991F85
:1058D000F1CF86957105610508940895E894BB277A
:1058E00066277727CB0197F9089513E0CBE3D3E040
:1058F00000E006C0802FFE010E946E242196011D4B
:0E590000CC33D10780E00807A9F7F894FFCF59
:10590E00084000000080DD0482040002EE0D00005D
:10591E006A0580000000000098126A126F11AA1129
:10592E0059111711F610C210A1104B1013100000D0
:10593E000000980E5C1C620E400E540EDE0E00002F
:10594E000000F6115C1C00000000871C5C1C0000AF
:10595E000000F6115C1C2D0020202020202020208D
:10596E002020006E6F20636F6D6D616E6400534C6E
:10597E00454550004D415354455200534C415645F8
:10598E0000256C6400583A00593A005A3A00582DD6
:10599E003E005F5F5F5F5F5F5F5F5F5F00592D3E41
:1059AE00005A2D3E002A0025640056780053544FAD
:1059BE00505F580053544F500056790053544F5077
:0E59CE005F5900567A0053544F505F5A000044
:020000023000CC
:10E000000D9489F10D94B2F10D94B2F10D94B2F129
:10E010000D94B2F10D94B2F10D94B2F10D94B2F1F0
:10E020000D94B2F10D94B2F10D94B2F10D94B2F1E0
:10E030000D94B2F10D94B2F10D94B2F10D94B2F1D0
:10E040000D94B2F10D94B2F10D94B2F10D94B2F1C0
:10E050000D94B2F10D94B2F10D94B2F10D94B2F1B0
:10E060000D94B2F10D94B2F10D94B2F10D94B2F1A0
:10E070000D94B2F10D94B2F10D94B2F10D94B2F190
:10E080000D94B2F10D94B2F10D94B2F10D94B2F180
:10E090000D94B2F10D94B2F10D94B2F10D94B2F170
:10E0A0000D94B2F10D94B2F10D94B2F10D94B2F160
:10E0B0000D94B2F10D94B2F10D94B2F10D94B2F150
:10E0C0000D94B2F10D94B2F10D94B2F10D94B2F140
:10E0D0000D94B2F10D94B2F10D94B2F10D94B2F130
:10E0E0000D94B2F141546D656761323536300041AF
:10E0F000726475696E6F206578706C6F72657220DE
