:100000003BC300006AC3000068C3000066C3000071
:1000100064C3000062C3000060C300005EC3000050
:100020005CC300005AC3000058C3000056C3000060
:1000300054C3000052C3000050C300000C94780F5A
:100040004CC300004AC3000048C3000046C3000080
:1000500044C3000042C3000040C300000C94730E70
:100060003CC300000C948D130C94641336C3000041
:1000700034C3000032C3000030C300002EC30000B0
:100080002CC300002AC3000028C3000026C30000C0
:1000900024C3000022C3000020C300001EC30000D0
:1000A0001CC300001AC3000018C3000016C30000E0
:1000B00014C3000012C3000010C300000EC30000F0
:1000C0000CC300000AC3000008C3000006C3000000
:1000D00004C3000002C3000000C30000FEC2000011
:1000E000FCC20000360B3A0B3E0B420B460B4A0B90
:1000F0004E0B8A0C910C980C9F0CA60CBE0CAD0CF0
:10010000BE0CB40C640D670D560D5A0D5E0D9E0DA0
:100110006B0D6F0D750D790D7D0D830D870D8B0D9D
:100120009E0D910D950D990DFFE0FFD1AFFF32FFB0
:10013000D0FFFEFFE0FFD1AEFFD0FFFEFFE0FFD11A
:100140001000FFFEFFD0FFE0FFC1FFD1AED580A8B9
:100150003FD300408D142000A1C8DA1281CFD9F11D
:10016000DB402EA4A6AFFFD0FFFE0000210024003C
:1001700027002A002D003000330001010000040197
:1001800007010A0100002200250028002B002E0094
:100190003100340002010000050108010B010505D2
:1001A0000505070508080808020202020A0A0808ED
:1001B000040404040101010101010101030303031B
:1001C00003030303040707070C0C0C0C0C0C0C0CAA
:1001D0000202020206060606060606060B0B0B0BBB
:1001E0000B0B0B0B010210202008081020401020E0
:1001F00040800201020108040201010204081020EB
:1002000040808040201008040201800402018040E8
:100210002010080402010804020101020408102051
:100220004080010204081020408000000A0B0209EF
:100230000C0D0E0807030401000000000000000080
:1002400000000000000000000000000000000000AE
:10025000000000000000121110000000000000006B
:10026000000000000000000000000000000000008E
:1002700001080D00FE09016102CD207FFE0BFE0981
:10028000FE0D00803219898080808080808000800F
:100290002843839090901367874848FC48FC48485F
:1002A0001259892078A0A0702828F020126989446A
:1002B000A44810102048548812678760909060947A
:1002C0008874381383808080323989204040808050
:1002D00080404020223989804040202020404080BA
:1002E0001665854830FC30481455852020F82020BC
:1002F000114383706080165181F821338340E040C0
:100300000279890202040810204080801269893035
:1003100048848484848448301259892060A0202035
:10032000202020F81269897884840408304080FCF9
:10033000126989FC04081038040484781269890859
:100340001828488888FC0808126989FC8080B8C48D
:100350000404847812698938408080B8C484847821
:10036000126989FC04081010202040401269897825
:1003700084848478848484781269897884848C74F1
:100380000404087021388840E040000040E040113B
:100390004888207020000070608022598908102051
:1003A000408040201008146484FC0000FC1259892D
:1003B00080402010081020408012698978848404CD
:1003C00008101000101269897884849CA4AC948071
:1003D000781269893048848484FC84848412698911
:1003E000F0888488F0888488F01269897884808015
:1003F0008080808478126989F088848484848488E9
:10040000F0126989FC808080F0808080FC1269890C
:10041000FC808080F0808080801269897884808070
:10042000809C848C7412698984848484FC84848490
:1004300084125989F820202020202020F812798960
:100440003E0808080808088870126989848890A006
:10045000C0A090888412698980808080808080809C
:10046000FC0279898282C6AA92928282821269896A
:100470008484C4A4948C8484841269897884848458
:100480008484848478126989F8848484F8808080E4
:1004900080116A8A788484848484A494780412699C
:1004A00089F8848484F8A09088841269897884808B
:1004B000807804048478027989FE101010101010DE
:1004C00010101269898484848484848484780279F5
:1004D00089828244444428282810027989828282B1
:1004E00082929292AA4402798982824428102844F6
:1004F00082820279898282442810101010101269B9
:1005000089FC04081020408080FC224989F080800A
:100510008080808080F002798980804020100804EB
:100520000202124989F010101010101010F0185328
:1005300083205088017181FE3A22828040126686B3
:1005400078047C848C74126989808080B8C4848427
:10055000C4B812668678848080847812698904041D
:1005600004748C84848C741266867884FC8084780D
:1005700012698938444040F840404040106888740F
:1005800088887080788478126989808080B8C48473
:1005900084848412588820006020202020F8105A7B
:1005A0008A080018080808088888701269898080FD
:1005B000808890E090888412598960202020202033
:1005C0002020F8027686EC9292929282126686B889
:1005D000C4848484841266867884848484781068D1
:1005E00088B8C484C4B8808080106888748C848C77
:1005F00074040404126686B8444040404012668683
:100600007884601884781268884040F840404044FC
:100610003812668688888888887412568688888802
:1006200050502002768682829292AA441266868474
:1006300048303048841068888484848C74048478BA
:10064000126686FC08102040FC2259893840402060
:10065000C02040403832198980808080808080802E
:1006600080125989E010102018201010E0185383D0
:1006700048A890FFDD18E91411241FBECFEFD1E286
:10068000DEBFCDBF00E00CBF12E0A0E0B2E0EAEBBD
:10069000F2E400E00BBF02C007900D92A838B1074A
:1006A000D9F725E0A8E8B2E001C01D92A230B20758
:1006B000E1F713E0CBE3D3E000E006C021970109A6
:1006C000802FFE010E94E419CA33D10780E0080799
:1006D000A9F70E94EE140C944C2192CC80E008956E
:1006E0000B96FC01849108950A96FC01849108956B
:1006F000FC0184910895FCDF882321F0823011F001
:1007000083E0089586E00895FC01E60FF11D8491D1
:1007100090E0982F88273196E4918E0F911D0895CF
:1007200068E0F2CF66E0F0CF2EE93FE0009729F0D5
:10073000F9013197F1F70197F9CF08951092B302BB
:100740001092B20208958093D0021092B90084FFF3
:1007500002C08CE001C088E48093B800EFCFDB01D9
:100760001496ED91FC91159720E030E065E0199426
:10077000DB011496ED91FC91159720E030E062E0EA
:100780001994DB011496ED91FC91159720E030E06F
:1007900063E01994CF92DF92EF92FF920F931F9331
:1007A000CF93DF938C017B016A0180E0F601C49155
:1007B00081110AC0CF3F09F447C04C2FB701C801CF
:1007C000CEDF81113FC045C0CF3F11F44FEFF6CFD0
:1007D000CE3F09F440C0C03FA8F5C03E30F04C2FDA
:1007E0004F70B701C801C4DF2DC0C03D30F04C2FA1
:1007F0004F70B701C801C5DF25C0C03CF0F0D7017C
:100800001496ED91FC91159720E030E040E064E013
:10081000C8011995C295C07FCE5FD0E0CE0184DFBC
:10082000D7011496ED91FC91159720E030E041E05E
:1008300064E0C8011995CE0104C0C7FD03C08C2F28
:1008400090E072DF80E001C081E0BFEFCB1ADB0AED
:10085000ADCF80E001C081E0DF91CF911F910F917A
:10086000FF90EF90DF90CF9008958F929F92AF927C
:10087000BF92CF92DF92FF920F931F93CF93DF939C
:100880001F921F92CDB7DEB76C018B01F42E490188
:1008900020E1421709F45DC02417D8F03AE043176D
:1008A00001F18FE048135EC041E0C6016ADF40E01D
:1008B000B801C6015DDF41E8B801C60150DFF401AF
:1008C0004081B801C6014BDF40E0B801C60159DFE5
:1008D00002C1A1E14A1709F43FC0B5E14B1789F005
:1008E00041C0DB011496ED91FC91159720E030E0BA
:1008F00042E061E0199544E451E0B801C6014ADFE5
:1009000031C0FB01A280B3804CE351E043DFD5014D
:1009100014964C91406BB801C60121DF41E0B8014B
:10092000C60126DFF50126813781D8011496ED91A5
:10093000FC911597D50115964C9166E0C601199565
:10094000811102C080E0C8C040E0B801C60119DFD3
:1009500009C043E351E002C048E251E0B801C601DA
:1009600019DFB9C0D80112960D911C911397B2E30B
:10097000FB1609F474C0BF15B8F0E5E1FE1609F4E2
:100980007BC0F7E1FF1609F48DC024E1F212A3C089
:10099000D8011696ED91FC91179715968C919F01B1
:1009A000280F311DC90160C036E4F31609F48AC06E
:1009B00087E4F81609F48AC0ABE3FA128CC0F4019C
:1009C00081819381913029F0933031F4482F885000
:1009D00004C048E0480F01C0482F21E0D801139619
:1009E0003C91381708F420E031E0F80152814517B6
:1009F00008F430E051E0481708F050E0822F852BD2
:100A0000382319F4252309F466C0D4011296FC900A
:100A1000913051F030F0923049F0933051F42FEF93
:100A200009C020E031E007C021E004C020E03FEF32
:100A300002C020E030E0F7FE08C0B401C8012A83FC
:100A400039830E94351239812A81F4018081830F14
:100A500080838181820F8183FF0C69F73CC0B401E0
:100A6000C8010E94351237C01192E817F907E1F763
:100A7000C8010E9460122FC0C8010E944A12882338
:100A800009F460CFD8011696ED91FC911797159651
:100A90008C919F01280F311DC9011192E817F907A8
:100AA000E1F719C0D4011C92F801828111968C9350
:100AB00011978581815012968C931297838113969A
:100AC0008C9309C0D80115968C9103C0D80111965A
:100AD0008C91F401808381E00F900F90DF91CF9192
:100AE0001F910F91FF90DF90CF90BF90AF909F909C
:100AF0008F900895CF92DF92EF92FF92CF93DF9382
:100B000087EF82B9D0B0D0B1D074A0B1A07220B1BB
:100B100020718BEF82B9E0B0C0B1C074F0B1F07257
:100B2000C0B08DEF82B9F0B0B0B1B074E0B1E07296
:100B300030B130718EEF82B970B160B1607450B174
:100B4000507240B140718091A4029091A502C4FC02
:100B50000EC0009719F481E090E004C0019789F479
:100B600082E090E09093A5028093A4020AC00197CE
:100B7000029718F483E090E0F5CF1092A50210924E
:100B8000A4028091A0029091A102D7FC0EC0009710
:100B900019F481E090E004C0019789F482E090E0CC
:100BA0009093A1028093A0020AC00197029718F4C3
:100BB00083E090E0F5CF1092A1021092A002809104
:100BC0009E0290919F02E7FC0EC0009719F481E00D
:100BD00090E004C0019789F482E090E090939F0236
:100BE00080939E020AC00197029718F483E090E078
:100BF000F5CF10929F0210929E0280919C029091DC
:100C00009D02F7FC0EC0009719F481E090E004C04B
:100C1000019789F482E090E090939D0280939C027A
:100C20000AC00197029718F483E090E0F5CF109284
:100C30009D0210929C0280919A0290919B02D11188
:100C40000EC0009719F481E090E004C0019789F488
:100C500082E090E090939B0280939A020AC00197F1
:100C6000029718F483E090E0F5CF10929B02109267
:100C70009A028091980290919902C1110EC000973A
:100C800019F481E090E004C0019789F482E090E0DB
:100C900090939902809398020AC00197029718F4E2
:100CA00083E090E0F5CF1092990210929802809123
:100CB000960290919702B1110EC0009719F481E04D
:100CC00090E004C0019789F482E090E0909397024D
:100CD000809396020AC00197029718F483E090E08F
:100CE000F5CF109297021092960280919402909103
:100CF0009502A1110EC0009719F481E090E004C0A4
:100D0000019789F482E090E0909395028093940299
:100D10000AC00197029718F483E090E0F5CF109293
:100D20009502109294028091920290919302F11197
:100D30000EC0009719F481E090E004C0019789F497
:100D400082E090E090939302809392020AC0019710
:100D5000029718F483E090E0F5CF1092930210927E
:100D600092028091900290919102E1110EC0009741
:100D700019F481E090E004C0019789F482E090E0EA
:100D800090939102809390020AC00197029718F401
:100D900083E090E0F5CF1092910210929002809142
:100DA0008E0290918F0277FD0EC0009719F481E0BA
:100DB00090E004C0019789F482E090E090938F0264
:100DC00080938E020AC00197029718F483E090E0A6
:100DD000F5CF10928F0210928E0280918C0290912A
:100DE0008D0261110EC0009719F481E090E004C0FB
:100DF000019789F482E090E090938D0280938C02B9
:100E00000AC00197029718F483E090E0F5CF1092A2
:100E10008D0210928C0280918A0290918B02511166
:100E20000EC0009719F481E090E004C0019789F4A6
:100E300082E090E090938B0280938A020AC001972F
:100E4000029718F483E090E0F5CF10928B02109295
:100E50008A028091CE029091CF0241110EC000977C
:100E600019F481E090E004C0019789F482E090E0F9
:100E70009093CF028093CE020AC00197029718F494
:100E800083E090E0F5CF1092CF021092CE028091D5
:100E900088029091890231110EC0009719F481E007
:100EA00090E004C0019789F482E090E09093890279
:100EB000809388020AC00197029718F483E090E0BB
:100EC000F5CF10928902109288028091A20290912F
:100ED000A30221110EC0009719F481E090E004C034
:100EE000019789F482E090E09093A3028093A2029C
:100EF0000AC00197029718F483E090E0F5CF1092B2
:100F0000A3021092A2028091A2029091A3020197E3
:100F100049F48091CC029091CD0201969093CD023C
:100F20008093CC028091CC029091CD02039724F063
:100F30001092CD021092CC028091CC029091CD0201
:100F4000892B11F461E001C060E088E08ED58091CA
:100F5000CC029091CD02019709F0AFC08091A4021C
:100F60009091A502892B09F4A8C080917D039091EE
:100F70007E03A0917F03B09180034091790350914B
:100F80007A0360917B0370917C0384179507A60711
:100F9000B707C1F444275527BA01481B590B6A0B00
:100FA0007B0B84179507A607B70761F040937D0375
:100FB00050937E0360937F03709380038EE693E0EB
:100FC0000E94EE0F8091910390919203A091930360
:100FD000B0919403892B8A2B8B2B09F46EC03FB7F9
:100FE000F8948091B4029091B502A091B602B091AC
:100FF000B70226B5A89B05C02F3F19F00196A11D89
:10100000B11D3FBFCC24D82EE92EFA2EC20ED11C22
:10101000E11CF11C42E0CC0CDD1CEE1CFF1C4A95CF
:10102000D1F78091950390919603A0919703B09189
:101030009803B701A601481B590B6A0B7B0B8091E3
:10104000910390919203A0919303B0919403481758
:1010500059076A077B0788F12091B10380917903D2
:1010600090917A03A0917B03B0917C03222321F01D
:101070000196A11DB11D03C00197A109B10980937B
:10108000790390937A03A0937B03B0937C03409100
:10109000790350917A0360917B0370917C038EE613
:1010A00093E027D4C0929503D0929603E0929703E1
:1010B000F09298038EE693E091D78091CC029091C4
:1010C000CD02029709F051C081ED92E071D2892BD7
:1010D00009F44BC081ED92E00E94D1122091B00240
:1010E0003091B102853659F0F901EA55FD4F808300
:1010F0002F5F3F4F3093B1022093B00236C02A30A9
:10110000310539F54AE050E066E572E088E794E0A1
:101110000E94AB14A6EAB2E080E090E020917C044B
:1011200030917D048217930730F4E0917804F091B8
:101130007904309729F41092CB02EBECF2E002C074
:10114000E80FF91F2D91208301968A30910531F720
:1011500008C045E050E061E672E088E794E00E9454
:10116000AB141092B1021092B002DF91CF91FF90B8
:10117000EF90DF90CF900895DB01ED91FC911994F1
:101180004F925F926F927F928F929F92AF92BF9297
:10119000CF92DF92EF92FF920F931F93CF93DF9343
:1011A0001F92CDB7DEB72C01E62EF42EC22EDC0145
:1011B00014960D911C911597C8019ADAD82EF20158
:1011C0008481958198DA982EF1E0DF1203C02FE038
:1011D000A22E02C0AA24AA94D20114968D919C91A9
:1011E000159782DAD82EF2018481958179DAB82EAA
:1011F000D20114968D919C91159792DAB0E6BC15A8
:1012000038F4009729F0080F191F91E6D92E10C065
:10121000F2018481958186DAF0E4FC1538F40097B8
:1012200029F0080F191F81E4D82E02C00F5E1F4F4E
:10123000BC1480F4D20150961C92509753961C9285
:10124000539754961C92549751961C9251975296CC
:101250001C929EC0BD1470F3892D90E0F80124917A
:101260002F3F19F40F5F1F4F59C0DC104EC0D20141
:1012700014968D919C9115973BDA98012F5F3F4F03
:10128000F801882311F08230E1F48491D201539661
:101290008C935397F901249154962C935497F80109
:1012A0003396E4915096EC935097F8013496E4917C
:1012B0005196EC935197F8013596E4915296EC9340
:1012C00020C08491982F9F709250D20152969C9387
:1012D000529782958F7051968C935197F901249172
:1012E000822F8F7054968C93549722952F7053961B
:1012F0002C935397F8013296E491E295EF70509653
:10130000EC930115110579F443C0F8013296E4918C
:10131000EA219C012E0F311D020F131FDB1409F46B
:1013200089CFD3949BCFF20184819581E4D9D201F6
:1013300053963C91539754962C91549751965C91A7
:10134000519752969C915297920FF91A9FEF920FD4
:101350009F0DD4964C91D497D6966C916F1518F03A
:10136000941728F402C0941780F09F1570F4E50ECE
:101370009FEF930F9E0DD201D3964C91D397D596A4
:101380005C915E1538F4941738F4F20180893EC000
:1013900080E03CC0941710F49E15B8F7080F111D9B
:1013A000395F732E7694769476946F2C620E520188
:1013B000FCE1AF0EB11C872C912CF61431F35E2D9D
:1013C00068018C2D801B8715E8F4F6018491D20109
:1013D00012966D917C9113975C965C935C975D96E9
:1013E000FC925D975F961C925F975E968C93950139
:1013F0004BE3C2015983C0DEBFEFCB1ADB0A598130
:10140000585FDFCF080D191DF394D7CF0F90DF91F0
:10141000CF911F910F91FF90EF90DF90CF90BF90F1
:10142000AF909F908F907F906F905F904F900895B6
:101430009091B302911104C08093B3026093B20201
:1014400008951F93CF93DF931F921F92CDB7DEB7FE
:1014500020ED37E03A8329839091BC00982391F4E2
:1014600029813A81232B49F48091D002182F1270E0
:1014700081FD08C081E0DCDF06C029813A8121506E
:101480003109E8CF11E0812F0F900F90DF91CF91BC
:101490001F91089584E98093BC0064E080E1D1CF7E
:1014A000CF938093BB0084E88093BC0063E080E826
:1014B000C8DFC82F882381F08091D002C82FC27066
:1014C00081FD09C08091B900887F883221F063E0F6
:1014D00082E0AEDF01C0C1E08C2FCF910895CF93A1
:1014E000DF93FC0123A5222371F0EC010E94741408
:1014F000811102C080E008C08EA1811180E4D0DF9C
:101500008823C1F31BA681E0DF91CF9108950F934B
:101510001F93CF93C42F89016330B9F050F4613029
:1015200081F0623009F03FC0FC0146A321E023A70F
:101530003AC06630E9F0673041F1653009F033C0F8
:101540000CC0FC0186A5FFD82EC0FC0116A221E02C
:1015500023A7411128C09EDF26C0C1DF811103C02F
:1015600099DF80E021C08C2F9BDF81111CC0F8CF58
:10157000B6DF8823A9F3CC23B1F0F80181918F0164
:101580008FDF882369F3C150F6CFA9DF882341F3A9
:10159000CC2349F0F801849183DF882329F00F5F81
:1015A0001F4FC150F5CF81E0CF911F910F9108954A
:1015B000FC01918D228D892F90E0805C9F4F821BD2
:1015C00091098F739927089580E090E0892B21F08D
:1015D0000E94F312811125C080E090E0892B41F038
:1015E00080E090E0892B21F00E94000081111CC056
:1015F00080E090E0892B41F080E090E0892B21F0A1
:101600000E940000811113C080E090E0892BA1F0BE
:1016100080E090E0892B81F00E94000081110AC0D7
:1016200008950E940000D8CF0E940000E1CF0E94E0
:101630000000EACF0C9400000895CF93DF93DC0103
:101640004770552766277727FA013197CD91DC91AE
:101650001197E730F10530F48827EE58FF4F8F4F90
:101660000C94E419EC81FD8161E01BC0EC81FD81EB
:1016700065E017C0EC81FD8164E013C0EC81FD8161
:1016800066E00FC0EC81FD8162E00BC0EC81FD8162
:101690006AE007C0EC81FD8168E003C0EC81FD8158
:1016A00069E0CD01DF91CF911994CF93DF93EC01E5
:1016B000CB01BA0126E030E040E050E00E94C819BA
:1016C000623071058105910559F18CF46115710540
:1016D00081059105F1F06130710581059105C1F534
:1016E000E881F9810480F581E02D65E02DC064304A
:1016F00071058105910511F1D4F065307105810501
:10170000910531F5E881F9810480F581E02D66E0ED
:101710001BC0E881F9810480F581E02D64E014C0EC
:10172000E881F9810480F581E02D61E00DC0E88158
:10173000F9810480F581E02D63E006C0E881F9813C
:101740000480F581E02D62E0CE01DF91CF91199404
:10175000DF91CF9108954370552766277727DC01E5
:10176000ED91FC910480F581E02D42305105610539
:10177000710571F0433051056105710559F0413033
:1017800051056105710511F065E005C066E003C013
:101790006AE001C069E01994CF93DF93EC01CB01BB
:1017A000BA0123E030E040E050E00E94C819613007
:1017B00071058105910581F0623071058105910502
:1017C00091F0672B682B692BC1F4E881F9810480C3
:1017D000F581E02D64E00DC0E881F9810480F58198
:1017E000E02D61E006C0E881F9810480F581E02DFB
:1017F00062E0CE01DF91CF911994DF91CF910895EE
:101800004370552766277727DC01ED91FC91048012
:10181000F581E02D423051056105710571F04330CD
:1018200051056105710559F041305105610571059A
:1018300011F062E005C063E003C061E001C060E058
:1018400019940F931F93CF93DF93EC01E881F981F3
:101850000480F581E02D8C010D5B1F4FD8018C9128
:10186000811102C060E001C062E0CE011995E881FB
:10187000F9810480F581E02DD8018C91811102C09D
:1018800061E001C063E0CE011995EBA5FCA5E23053
:10189000F10538F0EE0FFF1FEE0FFF1F3597319760
:1018A000F1F7E881F9810480F581E02DD8018C9170
:1018B000811102C060E001C062E0CE01DF91CF91F2
:1018C0001F910F911994CF93DF93EC0120E030E04A
:1018D000A9016B897C898D899E890E94EA1A181654
:1018E0001CF4EFA5F8A902C0E9A9FAA9DF91CF91EC
:1018F00019940F931F93DC0112960C91129710E02C
:1019000009301105D8F5F8018827E758FF4F8F4FA8
:101910000C94E419ED91FC9111970084F185E02D70
:1019200029C0ED91FC9111970284F385E02D22C02E
:10193000ED91FC9111970484F585E02D1BC0ED918C
:10194000FC9111970684F785E02D14C0ED91FC9170
:1019500011970088F189E02D0DC0ED91FC91119750
:101960000288F389E02D06C0ED91FC91119704885F
:10197000F589E02DCD011F910F9119941F910F91C1
:1019800008950895DC011696ED91FC911797129633
:101990008C91481B477081E090E001C0880F4A9508
:1019A000EAF7E60FF11D3081222311F0832B02C0EC
:1019B0008095832380830895CF92DF92EF92FF92E8
:1019C0000F931F93CF93DF931F92CDB7DEB76C01B8
:1019D000DC01DC961C91DC97DB960C917C01B4E079
:1019E000EB0EF11CDC015996ED91FC915A97C70161
:1019F00069831995482F410F2981602FC701C0DBEA
:101A0000F60123AD082E000C990B820F911D83AFB8
:101A100081E090E00F90DF91CF911F910F91FF90A7
:101A2000EF90DF90CF900895FC01848DDF01A80F27
:101A3000B11DA35ABF4F2C91848D90E001968F73F6
:101A40009927848FA689B7892C93A089B1898C9115
:101A500080648C93938D848D981306C00288F389DB
:101A6000E02D80818F7D80830895362F90E0FC01EA
:101A7000E65DFD4F4491FC01EC51FE4F2491FC01C9
:101A8000E256FE4F9491992309F46BC0442309F464
:101A900055C050E0FA013197E231F10508F04EC02F
:101AA0008827EE57FF4F8F4F0C94E41980918000E8
:101AB0008F7707C0809180008F7D03C08091800068
:101AC000877F809380003AC084B58F7702C084B549
:101AD0008F7D84BD33C08091B0008F7703C080912B
:101AE000B0008F7D8093B00029C0809190008F77E7
:101AF00007C0809190008F7D03C080919000877F08
:101B0000809390001BC08091A0008F7707C08091C8
:101B1000A0008F7D03C08091A000877F8093A000EC
:101B20000DC0809120018F7707C0809120018F7DAB
:101B300003C080912001877F80932001E92FF0E08E
:101B4000EE0FFF1FEC57FE4FA591B4918FB7F8949D
:101B5000EC91311103C020952E2301C02E2B2C9324
:101B60008FBF0895CF92DF92EF92FF920F931F9352
:101B7000CF93DF93FC012281243041F0283031F0F3
:101B8000233031F0263021F012E003C014E001C010
:101B900013E0EC012796E12CF12CC62ED12C01E0AC
:101BA000C6010E2C02C0959587950A94E2F76881CC
:101BB00080FD6027FE013497808157DFFFEFEF1A29
:101BC000FF0A2196E11660F3DF91CF911F910F91EB
:101BD000FF90EF90DF90CF900895CF93DF9390E048
:101BE000FC01EC51FE4F2491FC01E256FE4F849122
:101BF000882361F190E0880F991FFC01E659FE4FA0
:101C0000C591D491FC01EC57FE4FA591B49161119F
:101C100009C09FB7F8948881209582238883EC912E
:101C20002E230BC0623061F49FB7F8943881822F65
:101C3000809583238883EC912E2B2C939FBF06C025
:101C40008FB7F894E8812E2B28838FBFDF91CF9137
:101C50000895CF93DF93FC012281222329F1EC0127
:101C600061E08381BADF61E08C81B7DF8A818430F3
:101C700011F0883031F461E08D81AFDF61E08E8159
:101C800006C0833011F0863019F461E08D81A5DF44
:101C90008EA58F3F49F061E0A0DF6DA581E0682748
:101CA0008EA5DF91CF91E1CEDF91CF910895CF93B3
:101CB000DF93FC012281222399F0EC010190F08155
:101CC000E02D0480F581E02D60E019958EA58F3F11
:101CD00039F061E082DF6DA58EA5DF91CF91C5CE91
:101CE000DF91CF9108951F920F920FB60F9211249A
:101CF0002F933F938F939F93AF93BF938091B9029C
:101D00009091BA02A091BB02B091BC023091B8028E
:101D100023E0230F2D3720F40196A11DB11D05C02E
:101D200026E8230F0296A11DB11D2093B8028093CF
:101D3000B9029093BA02A093BB02B093BC02809107
:101D4000B4029091B502A091B602B091B70201968B
:101D5000A11DB11D8093B4029093B502A093B60269
:101D6000B093B702BF91AF919F918F913F912F9107
:101D70000F900FBE0F901F901895CF93DF93DC014B
:101D8000FB01828112968C93129743815481658165
:101D9000768113964D935D936D937C93169747814F
:101DA00050856185728517964D935D936D937C93F5
:101DB0001A9743855485658576851B964D935D936B
:101DC0006D937C931E9747855089618972891F9610
:101DD0004D935D936D937C935297438954896589A4
:101DE000768953964D935D936D937C93569747896F
:101DF000508D618D728D57964D935D936D937C934D
:101E00005A97438D548D658D768D5B964D935D937A
:101E10006D937C935E97478D50A161A172A15F96EF
:101E20004D935D936D937C93929743A154A165A1CB
:101E300076A193964D935D936D937C93969747A16E
:101E400050A561A572A597964D935D936D937C9374
:101E50009A9783A594A59C969C938E939B9785A512
:101E60009D968C939D9786A59E968C939E9787A50D
:101E700090A9D0969C938E939F9781A992A9D29670
:101E80009C938E93D19743A954A965A976A9D3961B
:101E90004D935D936D937C93D69747A950AD61ADFB
:101EA00072ADD7964D935D936D937C93DA9743AD66
:101EB00054AD65AD76ADDB964D935D936D937C939C
:101EC000DE97EF01EF96488159816A817B81ED01B0
:101ED000EF96488359836A837B83ED5BFF4F808154
:101EE000FD01ED5BFF4F8083CD01DF91CF91089520
:101EF0001F920F920FB60F9211240BB60F922F93D1
:101F00003F934F935F936F937F938F939F93AF9381
:101F1000BF93EF93FF938091C3029091C40280938B
:101F2000B2008091C6029091C702A091C802B09100
:101F3000C9020196A11DB11D8093C6029093C702EC
:101F4000A093C802B093C9028091C6029091C702C3
:101F5000A091C802B091C9024091BF025091C00245
:101F60006091C1027091C20284179507A607B70756
:101F700010F18091C50281111EC081E08093C502DD
:101F80008091C6029091C702A091C802B091C90287
:101F9000841B950BA60BB70B8093C6029093C702C8
:101FA000A093C802B093C902E091BD02F091BE02B5
:101FB00019951092C502FF91EF91BF91AF919F913A
:101FC0008F917F916F915F914F913F912F910F90E2
:101FD0000BBE0F900FBE0F901F9018952F923F923F
:101FE0004F925F926F927F928F929F92AF92BF9229
:101FF000CF92DF92EF92FF920F931F93CF93DF93D5
:1020000000D01F92CDB7DEB71C01FC0187849088F9
:10201000A188B28883859485A585B685881A990A92
:10202000AA0ABB0A63897489858996899B01AC01D8
:102030000E9498206B017C01F101638D748D858D68
:10204000968D9B01AC010E94ED199B01AC01C7016B
:10205000B6010E94511A0E94B91A81149104A10478
:10206000B104A1F462307105810591050CF07CC0CA
:10207000F10113A214A215A216A2138A148A158ABA
:10208000168A13AA14AA15AA16AA03C1F10103A954
:1020900014A925A936A9ED5BFF4F181419041A04D9
:1020A0001B04FCF410161106120613064CF46815F6
:1020B00079058A059B054CF52081211155C025C065
:1020C000011511052105310509F44EC06815790582
:1020D0008A059B050CF048C08081882309F444C020
:1020E00037C01016110612061306F4F40027112744
:1020F0009801081919092A093B0960177107820715
:1021000093071CF42081222379F19B01AC018827DD
:102110009927DC01821B930BA40BB50BF10183AB58
:1021200094ABA5ABB6AB20C0011511052105310557
:10213000D9F0CC24DD247601C818D908EA08FB08B8
:102140006C157D058E059F057CF4808181110CC086
:1021500030952095109501951F4F2F4F3F4FF1015E
:1021600003AB14AB25AB36ABF101C3A8D4A8E5A8EB
:10217000F6A881010D5B1F4FC114D104E104F104E5
:1021800091F487A990ADA1ADB2AD83AF94AFA5AFE7
:10219000B6AF81E0181419041A041B040CF080E097
:1021A000F801808340C0F10183AC94ACA5ACB6AC1F
:1021B000A5019401C501B4010E94ED192B013C0158
:1021C000C701B6010E94392020E030E040E850E429
:1021D0000E94982020E030E040E85FE30E94ED1983
:1021E0009B01AC01C301B2010E94511A9B01AC01D9
:1021F000C501B4010E94EC194B015C01F101FF968D
:1022000040805180628073809201A3010E94EA1A8B
:10221000181614F042015301A401B501F10143AFB6
:1022200054AF65AF76AFFFEFCF1ADF0AEF0AFF0AB0
:10223000F101C3AAD4AAE5AAF6AA23AD34AD45ADEF
:1022400056ADCA01B90129833A834B835C830E944E
:10225000BE1AF10163A374A385A396A329813A81D1
:102260004B815C8160E074E284E799E40E94511A3A
:10227000F101638B748B858B968BF8012081211182
:1022800008C0DC01CB01B058F101838B948BA58B86
:10229000B68B0F900F900F900F90DF91CF911F9101
:1022A0000F91FF90EF90DF90CF90BF90AF909F90F5
:1022B0008F907F906F905F904F903F902F900895F8
:1022C0004F925F926F927F928F929F92AF92BF9246
:1022D000CF92DF92EF92FF92CF93DF93EC016A01EE
:1022E0007B018B8C9C8CAD8CBE8C9A01AB01C501A3
:1022F000B4010E943320882309F448C06BA97CA94B
:102300008DA99EA90E9439202B013C01A7019601AD
:10231000C501B4010E94511A9B01AC01C301B20175
:102320000E9498200E94B91A6BAB7CAB8DAB9EAB20
:10233000A701960160E070E080E090E40E94511AED
:102340000E94F21A26E53EE04DE25FE30E949820EB
:1023500020E034E244E759E40E9498206FAB78AF64
:1023600089AF9AAFCB8EDC8EED8EFE8ECE01DF91E3
:10237000CF91FF90EF90DF90CF90BF90AF909F9064
:102380008F907F906F905F904F9028CEDF91CF918C
:10239000FF90EF90DF90CF90BF90AF909F908F9085
:1023A0007F906F905F904F900895CF92EF920F9330
:1023B000CF93DF93EC0188E192E0998388836A836D
:1023C0001B861C861D861E861F86188A198A1A8AF5
:1023D0001B8A1C8A1D8A1E8A80E090E0A0E8BFE369
:1023E0008F8B988FA98FBA8F1B8E1C8E1D8E1E8E81
:1023F0008F8F98A3A9A3BAA31BA21CA21DA21EA2E1
:1024000061E070E07CA76BA73FEF3EA71FA218A674
:1024100019A61AA64B832C830D83EE821BAA1CAA35
:102420001DAA1EAA1FAA18AE19AE1AAE1BAE1CAE6C
:102430001DAE1EAEFE01FF9680839183A283B383FF
:10244000349610821F82188619861A86CC2011F0C5
:10245000CE01FFDB40E050E060E87FE3CE01DF919A
:10246000CF910F91EF90CF902BCFFB014181DC01F9
:1024700012962C911297421760F013962C91139795
:10248000241738F0608115962C91621710F424817E
:1024900079CA0895FC0180819281980F92832181ED
:1024A000921760F494819F5F94839381890F8217C0
:1024B00010F08FEF820F838381E0089580E008950C
:1024C000FC01128280818150838314820895EF92EF
:1024D000FF920F931F93CF93DF931F92CDB7DEB779
:1024E0008C01DC011296ED90FC901397D196ED9142
:1024F000FC91D29782E0199520E030E04AE0B701E4
:10250000C8010E94BC08F82ED801D196ED91FC912B
:10251000D29783E01995D801D196ED91FC91D2978D
:1025200080E01995FF20A1F1F801628173819E017D
:102530002F5F3F4F46E4C8010E94BC088981D80143
:102540008C9312966D917C9113979E012F5F3F4F54
:1025500047E4C8010E94BC088981F8018183628137
:10256000738120E030E048E4C8010E94BC08D80133
:102570001B968C931B9798012D5C3F4F12966D9183
:102580007C91139747E1C8010E94BC0881E001C01B
:1025900080E00F90DF91CF911F910F91FF90EF900E
:1025A0000895FC01918D828D981761F0828DDF0175
:1025B000A80FB11D5D968C91928D9F5F9F73928F36
:1025C00090E008958FEF9FEF0895FC01918D828D2B
:1025D000981731F0828DE80FF11D858D90E00895F8
:1025E0008FEF9FEF089581ED92E00E94D80A21E0DD
:1025F000892B09F420E0822F0895EF92FF920F9328
:102600001F93CF93DF93EC0181E0888F9B8D8C8D9E
:10261000981305C0E889F989808185FD23C0F62ECD
:102620000B8D10E00F5F1F4F0F731127E02E8C8D65
:10263000E8120BC00FB607FCFACFE889F989808150
:1026400085FFF5CFCE01F0D9F2CF8B8DFE01E80FDB
:10265000F11DE35AFF4FF0820B8FEA89FB898081DD
:10266000806207C0EE89FF896083E889F9898081EB
:102670008064808381E090E0DF91CF911F910F9182
:10268000FF90EF900895CF93DF93EC01888D88231E
:10269000C1F0EA89FB89808185FD05C0A889B989D7
:1026A0008C9186FD0EC00FB607FCF5CF808185FFAB
:1026B000F2CFA889B9898C9185FFEDCFCE01B4D92D
:1026C000E8CFDF91CF9108951F920F920FB60F922E
:1026D00011240BB60F922F933F934F935F936F93F9
:1026E0007F938F939F93AF93BF93EF93FF9381ED6E
:1026F00092E09AD9FF91EF91BF91AF919F918F9105
:102700007F916F915F914F913F912F910F900BBEF1
:102710000F900FBE0F901F9018951F920F920FB63B
:102720000F9211240BB60F922F938F939F93EF93D9
:10273000FF93E091E102F091E2028081E091E702F3
:10274000F091E80282FD12C090818091EA028F5FD1
:102750008F732091EB02821751F0E091EA02F0E0D2
:10276000EF52FD4F958F8093EA0201C08081FF9167
:10277000EF919F918F912F910F900BBE0F900FBEF5
:102780000F901F901895CF92DF92EF92FF920F93C8
:102790001F93CF93DF936C017A018B01C0E0D0E0EF
:1027A000CE15DF0589F0D8016D918D01D601ED912F
:1027B000FC910190F081E02DC6011995892B11F44F
:1027C0007E0102C02196ECCFC701DF91CF911F910E
:1027D0000F91FF90EF90DF90CF9008950E94561DCB
:1027E000CF92DF92FF920F931F93CF93DF931F92AD
:1027F0001F92CDB7DEB7F82E062FE0915304F0916B
:1028000054048EE394E049835A831995080F498153
:10281000C42E5A81D52E10E0F60121916F0122239A
:1028200049F0402F6F2D8EE394E00E94C008F80E0F
:10283000180FF2CF812F0F900F90DF91CF911F9142
:102840000F91FF90DF90CF9008958F929F92AF925B
:10285000BF920F931F93CF93DF93CDB7DEB7A197AE
:102860000FB6F894DEBF0FBECDBF19A2423008F4F8
:102870004AE08E010F5D1F4F842E912CA12CB12CAC
:10288000A501940163D5E62FB901CA0101501109D0
:10289000EA3014F4E05D01C0E95CD801EC93232B2D
:1028A000242B252B69F70115110569F0F80101901A
:1028B0000020E9F73197AF01401B510BB80181EDC2
:1028C00092E061DF02C080E090E0A1960FB6F8943C
:1028D000DEBF0FBECDBFDF91CF911F910F91BF9093
:1028E000AF909F908F900895CF9384EA8093BC001F
:1028F00061E080E80E94210A882359F08091B900A4
:10290000887F883041F0803131F061E082E00E94C0
:10291000180AC0E01DC088E78093BB0084E880935C
:10292000BC0062E080E80E94210A882391F3809134
:10293000D002C82FC27081FD0AC08091B900887F83
:10294000883129F062E082E00E94180A01C0C1E0EB
:102950008C2FCF910895EF92FF920F931F93CF93F7
:10296000DF93EC017B018A0188819981009729F02E
:102970002A813B8124173507E8F4B8016F5F7F4F48
:10298000B1D7009759F0998388831B830A832C81E0
:102990003D81232B79F4FC0110820CC08881998140
:1029A000009709F007D7198218821D821C821B82AA
:1029B0001A8207C01D830C83B701888199810E9408
:1029C000631DCE01DF91CF911F910F91FF90EF908A
:1029D00008958091780490917904ECC6CF93DF93A9
:1029E000CDB7DEB7C454D1090FB6F894DEBF0FBE21
:1029F000CDBF789484B5826084BD84B5816084BD88
:102A000085B5826085BD85B5816085BD80916E008C
:102A1000816080936E0010928100809181008260BD
:102A200080938100809181008160809381008091FA
:102A300080008160809380008091B10084608093E9
:102A4000B1008091B00081608093B00080919100CE
:102A500082608093910080919100816080939100C9
:102A6000809190008160809390008091A1008260AD
:102A70008093A1008091A10081608093A10080914A
:102A8000A00081608093A0008091210182608093EA
:102A90002101809121018160809321018091200199
:102AA00081608093200180917A00846080937A0015
:102AB00080917A00826080937A0080917A008160B0
:102AC00080937A0080917A00806880937A001092D7
:102AD000C10062E08DE181D862E08CE17ED862E0E5
:102AE0008BE17BD862E08AE178D861E089E175D832
:102AF00061E088E172D861E087E16FD861E086E14A
:102B00006CD81C821B8282E492E09A8389831CAE7B
:102B10001DAE1EAE1A8619861C861B861E8681E097
:102B20008D8782E28F871C8A1B8AFE01B896CE01B0
:102B3000C6962FEF2193E817F907E1F781E08DA3FF
:102B40002EE633E03B8F2A8F8C8F1D8E1E8E80E405
:102B50008F8F18A281EC9CE09FAB8EAB88E092E057
:102B600098878F831BAACE010596B1DC8B819C814F
:102B700090933D0480933C0487E3FE013596AEE3D9
:102B8000B4E001900D928A95E1F78CAD80937504C5
:102B90008DAD809376048EAD80937704809142044E
:102BA000909143048057924009F445C080E792E039
:102BB000909343048093420480915504811108C08E
:102BC000E5E7F2E0E491E0935604ECE7F2E011C0AF
:102BD000813041F4EFE7F2E0E491E0935604E0E85D
:102BE000F2E007C0EDE7F2E0E491E0935604EEE78F
:102BF000F2E0E491E093570480915604082E000C13
:102C0000990B20915704821B910927FD93952091E0
:102C10005804203441F0829FC001112436E096957B
:102C200087953A95E1F7809359048EE693E0909367
:102C300054048093530461E088E00E94ED0D61E04C
:102C400085E00E94ED0D61E086E00E94ED0D61E0FF
:102C500087E00E94ED0D61E082E00E94ED0D61E0F1
:102C600083E00E94ED0D61E084E00E94ED0D61E0E3
:102C700088E00E94350DCC24C39425E0E22E04E0C8
:102C800025E042E061E0CE0101965C018EDBB501FA
:102C900086EF93E072D826E043E061E0C50185DB72
:102CA000B50182EB93E069D827E044E061E0C5011B
:102CB0007CDBB5018EE693E060D820E030E04AE7A7
:102CC00054E460918503709186038091870390910D
:102CD00088030E943320882309F44BC080E090E0F1
:102CE000AAE7B4E48093850390938603A0938703B7
:102CF000B09388038093AD039093AE03A093AF038A
:102D0000B093B0038091A1039091A203A091A3037B
:102D1000B091A403181619061A061B0654F5609103
:102D200081037091820380918303909184039B01BE
:102D3000AC010E9498206B017C0160918903709125
:102D40008A0380918B0390918C039B01AC0145D346
:102D50009B01AC01C701B601A4D30BD46093A103BE
:102D60007093A2038093A3039093A4038EE693E051
:102D700035D920E030E04AE754E460918103709156
:102D8000820380918303909184030E9433208823DF
:102D900009F461C0C0908503D0908603E09087035A
:102DA000F09088032601370177FA709477F87094D1
:102DB00020E030E04AE754E4C301B2010BD4181616
:102DC0005CF020E030E04AE754E4C701B6010E941D
:102DD000332087FD03C014C07301620120E030E09E
:102DE000A901C701B6010E94332081110FC01092C2
:102DF000910310929203109293031092940323C0B4
:102E0000C12CD12C9AE7E92E94E4F92EA701960162
:102E100060E074E284E799E444D39F77AFD3609392
:102E2000910370939203809393039093940311E022
:102E300020E030E0A901C701B601CCD318160CF090
:102E400010E01093B103C0928103D0928203E0920C
:102E50008303F092840340E050E06AEF73E48EE66F
:102E600093E02EDA80917D0390917E03A0917F0301
:102E7000B091800381159941A105B10579F080E0F9
:102E800099E1A0E0B0E080937D0390937E03A0934E
:102E90007F03B09380038EE693E0A0D881E090E0BA
:102EA000A0E0B0E08093BF029093C002A093C10263
:102EB000B093C2028AE795E09093BE028093BD0270
:102EC000809170008E7F809370008091B0008C7F25
:102ED0008093B0008091B100877F8093B100809192
:102EE000B6008F7D8093B600809170008D7F8093B7
:102EF00070008091B10084608093B1008091B10036
:102F00008C7F8093B10086E090E09093C402809320
:102F1000C3021092C6021092C7021092C802109209
:102F2000C9021092C5028091C3029091C40280939D
:102F3000B20080917000816080937000E091E102A6
:102F4000F091E20282E08083E091DD02F091DE0206
:102F50001082E091DF02F091E0028FEC808310920A
:102F6000E902E091E502F091E60286E08083E091DB
:102F7000E302F091E402808180618083E091E302CA
:102F8000F091E402808188608083E091E302F09117
:102F9000E402808180688083E091E302F091E402A2
:102FA00080818F7D8083992493940DE712E080E4E3
:102FB000882E7090790360907A0380917704811154
:102FC00005C0909277048EE394E081DAE0904004AB
:102FD000F0904104E0916F04F091700482E0199543
:102FE000E0916F04F091700481E0199520E030E0E9
:102FF00044E1B7018EE394E00E94BC0821E734E08D
:1030000047E1B7018EE394E00E94BC08E0916F04B1
:10301000F091700480E01995C090CE02D090CF025C
:103020000D2C000CEE08FF08F7FE14C0E091D10251
:10303000F091D2020190F081E02D6DE281ED92E0FD
:10304000199566277727CB016C197D098E099F0991
:103050004AE003C04AE0C701B601F7DB42E050E0B6
:1030600067E672E081ED92E08EDB8091CC02909178
:10307000CD02009719F44AE652E00AC0813091056A
:1030800019F440E752E004C0029729F447E752E000
:103090006AE08DE2A5DB6F927F921F930F93BF9240
:1030A000AF9218D5A50164E184E09ADB80917B00A2
:1030B000886080937B0080927C0080917A0080649D
:1030C00080937A000F900F900F900F900F900F90B9
:1030D00080917A0086FDFCCF809178002091790064
:1030E00090E0922B9F938F931F930F93BF92AF9279
:1030F000F1D4A5016EE184E073DB40917C04509132
:103100007D042091780430917904F5010F900F909F
:103110000F900F900F900F9080E090E0841795072C
:1031200018F42115310529F41092CB02ABECB2E072
:1031300003C0D901A80FB91F6C91619301968A3021
:10314000910561F7A50168E284E04ADBE0914C0457
:10315000F0914D04309719F08EE394E01995E090CA
:103160004004F0904104E0916F04F091700482E01B
:103170001995E0916F04F091700481E0199520E0B9
:1031800030E045E1B7018EE394E00E94BC08D82E00
:10319000882341F021E734E047E1B7018EE394E072
:1031A0000E94BC08E0916F04F091700480E01995D2
:1031B000D11032CF0E94E40AFCCECF92EF920F934F
:1031C0001092D4021092D30288EE93E0A0E0B0E017
:1031D0008093D5029093D602A093D702B093D802E1
:1031E00082E392E09093D2028093D10285EC90E04A
:1031F0009093DE028093DD0284EC90E09093E002F5
:103200008093DF0280EC90E09093E2028093E102F1
:1032100081EC90E09093E4028093E30282EC90E0F2
:103220009093E6028093E50286EC90E09093E802AA
:103230008093E7021092EA021092EB021092EC02E5
:103240001092ED02CC24C39485E0E82E04E023E044
:1032500042E064E086EF93E0A8D823E042E064E037
:1032600082EB93E0A2D823E042E064E08EE693E0B4
:103270009CD810923D0410923C0482E492E090931A
:103280003B0480933A0410927504109276041092D5
:103290007704109243041092420410924504109255
:1032A00044041092470481E08093460482E28093B4
:1032B000480410924D0410924C04E1E6F4E09FEFB4
:1032C0008EE08E0F91938E13FDCF81E080935E048C
:1032D0002EE633E030935404209353048093550436
:1032E000109256041092570480E480935804109270
:1032F000590481EC9CE09093700480936F0488E003
:1033000092E0909341048093400410926C048EE309
:1033100094E0DDD882E592E090933B0480933A04F8
:10332000109279041092780410927B0410927A041F
:1033300010927D0410927C0446E050E060E872E058
:1033400088E794E00F91EF90CF9005CBA1E21A2E81
:10335000AA1BBB1BFD010DC0AA1FBB1FEE1FFF1F39
:10336000A217B307E407F50720F0A21BB30BE40B89
:10337000F50B661F771F881F991F1A9469F76095D0
:103380007095809590959B01AC01BD01CF0108958A
:10339000052E97FB16F400940FD057FD05D0D6DF0D
:1033A00007FC02D046F408C0509540953095219511
:1033B0003F4F4F4F5F4F0895909580957095619561
:1033C0007F4F8F4F9F4F0895EE0FFF1F881F8BBFBA
:1033D0000790F691E02D19945058BB27AA270ED0DC
:1033E00021C712D730F017D720F031F49F3F11F4E6
:1033F0001EF407C70EF4E095E7FBFDC6E92F23D7BF
:1034000080F3BA17620773078407950718F071F401
:103410009EF53BC70EF4E0950B2EBA2FA02D0B01A5
:10342000B90190010C01CA01A0011124FF27591B09
:1034300099F0593F50F4503E68F11A16F040A22F0F
:10344000232F342F4427585FF3CF46953795279580
:10345000A795F0405395C9F77EF41F16BA0B620B7F
:10346000730B840BBAF09150A1F0FF0FBB1F661FC6
:10347000771F881FC2F70EC0BA0F621F731F841F09
:1034800048F4879577956795B795F7959E3F08F02F
:10349000B3CF9395880F08F09927EE0F97958795EE
:1034A00008950CD0BFC6B7D640F0AED630F021F4A8
:1034B0005F3F19F0A0C65111E9C6A3C6C4D698F360
:1034C0009923C9F35523B1F3951B550BBB27AA27A5
:1034D00062177307840738F09F5F5F4F220F331F17
:1034E000441FAA1FA9F333D00E2E3AF0E0E830D0E3
:1034F00091505040E695001CCAF729D0FE2F27D0E6
:10350000660F771F881FBB1F261737074807AB07B3
:10351000B0E809F0BB0B802DBF01FF2793585F4F28
:103520002AF09E3F510568F066C6B0C65F3FECF3D7
:10353000983EDCF3869577956795B795F7959F5FED
:10354000C9F7880F911D9695879597F90895E1E041
:10355000660F771F881FBB1F621773078407BA07A0
:1035600020F0621B730B840BBA0BEE1F88F7E095FB
:10357000089504D06894B11189C608956CD688F076
:103580009F5790F0B92F9927B751A0F0D1F0660F4F
:10359000771F881F991F1AF0BA95C9F712C0B1306A
:1035A00081F073D6B1E0089570C6672F782F882711
:1035B000B85F39F0B93FCCF3869577956795B395A9
:1035C000D9F73EF490958095709561957F4F8F4F18
:1035D0009F4F089589D508F48FEF089511F40EF4E4
:1035E00010C63EC038D6D0F39923D9F3CEF39F57F7
:1035F000550B87FF43D00024A0E640EA9001805895
:103600005695979528F4805C660F771F881F20F0E9
:1036100026173707480730F4621B730B840B2029E9
:1036200031294A2BA69517940794202531254A273E
:1036300058F7660F771F881F20F0261737074807AF
:1036400030F4620B730B840B200D311D411DA095CE
:1036500081F7B901842F9158880F96958795089521
:103660009F3F31F0915020F4879577956795B795F6
:10367000880F911D9695879597F908959150504020
:10368000660F771F881FD2F70895CF93DF9382309C
:10369000910510F482E090E0E0910005F0910105C1
:1036A00020E030E0C0E0D0E0309711F1408151815E
:1036B00048175907C0F04817590761F48281938170
:1036C000209719F09B838A832BC0909301058093E8
:1036D000000526C02115310519F04217530718F4CB
:1036E0009A01BE01DF01EF010280F381E02DDCCF02
:1036F0002115310509F1281B390B2430310590F4CF
:1037000012968D919C9113976115710521F0FB0123
:103710009383828304C09093010580930005FD018B
:10372000329644C0FD01E20FF31F81939193225022
:1037300031092D933C933AC02091FE043091FF044F
:10374000232B41F420911002309111023093FF0499
:103750002093FE0420910E0230910F0221153105B5
:1037600041F42DB73EB74091120250911302241B31
:10377000350BE091FE04F091FF04E217F307A0F48B
:103780002E1B3F0B2817390778F0AC014E5F5F4FB7
:103790002417350748F04E0F5F1F5093FF044093E6
:1037A000FE048193919302C0E0E0F0E0CF01DF914D
:1037B000CF9108950F931F93CF93DF93009709F450
:1037C0008CC0FC0132971382128200910005109187
:1037D00001050115110581F420813181820F931FAC
:1037E0002091FE043091FF042817390779F5F093F2
:1037F000FF04E093FE0471C0D80140E050E0AE1732
:10380000BF0750F412962D913C911397AD012115ED
:10381000310509F1D901F3CF9D01DA013383228308
:1038200060817181860F971F8217930769F4EC01FD
:1038300028813981260F371F2E5F3F4F3183208328
:103840008A819B8193838283452B29F4F093010520
:10385000E093000542C01396FC93EE931297ED019E
:10386000499159919E01240F351FE217F30771F416
:1038700080819181840F951F029611969C938E935F
:103880008281938113969C938E931297E0E0F0E0EF
:10389000D80112968D919C911397009719F0F80119
:1038A0008C01F6CF8D919C9198012E5F3F4F820F36
:1038B000931F2091FE043091FF042817390769F403
:1038C000309729F4109201051092000502C013826E
:1038D00012821093FF040093FE04DF91CF911F9199
:1038E0000F9108956F927F928F929F92AF92BF92A5
:1038F000CF92DF92EF92FF920F931F93CF93DF93BC
:10390000EC01009781F4CB01DF91CF911F910F91D2
:10391000FF90EF90DF90CF90BF90AF909F908F90EF
:103920007F906F90B2CEFC01E60FF71F9C012250F2
:103930003109E217F30708F4A8C0D9010D911C91D1
:10394000119706171707A8F00530110508F49BC05A
:10395000C80104978617970708F495C0025011090B
:10396000061B170B019311936D937C93CF0122DFFC
:103970008AC05B01A01AB10A4C01800E911EA09171
:103980000005B091010540E050E0E12CF12C1097CA
:1039900009F44AC0A815B905D1F56D907C9011972E
:1039A000630182E0C80ED11CCA14DB0480F1A301BC
:1039B0004A195B096A0182E0C80ED11C1296BC90BC
:1039C00012971396AC91B5E0CB16D10440F0B282B9
:1039D000A38351834083D9016D937C930AC00E5F0A
:1039E0001F4FC301800F911FF90191838083EB2D3D
:1039F000FA2FE114F10431F0D7011396FC93EE9302
:103A0000129741C0F0930105E09300053CC08D91F1
:103A10009C9111974817590708F4AC017D01129643
:103A20000D90BC91A02DB3CF8091FE049091FF0426
:103A300088159905E1F446175707C8F480910E02DE
:103A400090910F02009741F48DB79EB740911202FA
:103A500050911302841B950BE817F907B0F4F0930B
:103A6000FF04E093FE04F901718360830CC0CB0175
:103A70000CDE7C01009749F0A801BE011BD0CE01ED
:103A800099DEC70104C0CE0102C080E090E0DF9162
:103A9000CF911F910F91FF90EF90DF90CF90BF904B
:103AA000AF909F908F907F906F90089581E090E00D
:103AB000F894F2C3FB01DC0102C001900D92415069
:103AC0005040D8F70895FB01DC0101900D920020D1
:103AD000E1F708950F931F93CF93DF93CDB7DEB730
:103AE0002E970FB6F894DEBF0FBECDBF0E891F898B
:103AF00086E08C831A8309838FEF9FE79E838D83F3
:103B0000AE01465E5F4F688D798DCE01019611D072
:103B10002F813885F801E20FF31F10822E960FB621
:103B2000F894DEBF0FBECDBFDF91CF911F910F91F3
:103B300008952F923F924F925F926F927F928F9251
:103B40009F92AF92BF92CF92DF92EF92FF920F932C
:103B50001F93CF93DF93CDB7DEB72C970FB6F894B2
:103B6000DEBF0FBECDBF7C016B018A01FC01178255
:103B70001682838181FFB0C1CE0101964C01F7010D
:103B80009381F60193FD859193FF81916F018823C5
:103B900009F49EC1853239F493FD859193FF81919B
:103BA0006F01853221F4B70190E0C7D1E8CF512CE5
:103BB000312C20E02032A0F48B3269F030F48032D6
:103BC00059F0833269F420612CC08D3239F0803392
:103BD00039F4216026C02260246023C0286021C0FF
:103BE00027FD27C030ED380F3A3078F426FF06C0A5
:103BF000FAE05F9E300D1124532E13C08AE0389EE8
:103C0000300D1124332E20620CC08E3221F426FD9B
:103C10005FC1206406C08C3611F4206802C088366B
:103C200041F4F60193FD859193FF81916F0181111C
:103C3000C1CF982F9F7D9554933028F40C5F1F4F70
:103C4000FFE3F9830DC0833631F0833771F083359C
:103C500009F057C021C0F801808189830E5F1F4F92
:103C600044244394512C540114C03801F2E06F0EE7
:103C7000711CF801A080B18026FF03C0652D70E0A3
:103C800002C06FEF7FEFC5012C874CD12C0183015F
:103C90002C852F77222E16C03801F2E06F0E711C92
:103CA000F801A080B18026FF03C0652D70E002C03E
:103CB0006FEF7FEFC5012C872AD12C012C8520685E
:103CC000222E830123FC19C0832D90E0481659064B
:103CD000A0F4B70180E290E030D13A94F5CFF5013D
:103CE00027FC859127FE81915F01B70190E025D1E6
:103CF00031103A94F1E04F1A51084114510479F708
:103D0000DEC0843611F0893631F5F80127FF07C08F
:103D100060817181828193810C5F1F4F08C0608137
:103D20007181072E000C880B990B0E5F1F4F2F76A9
:103D3000722E97FF09C090958095709561957F4F81
:103D40008F4F9F4F2068722E2AE030E0A4012DD1C2
:103D5000A82EA81843C0853729F42F7EB22E2AE05A
:103D600030E025C0F22FF97FBF2E8F36C1F018F456
:103D7000883579F0ADC0803719F0883721F0A8C0B8
:103D80002F2F2061B22EB4FE0DC08B2D8460B82E73
:103D900009C024FF0AC09F2F9660B92E06C028E0F4
:103DA00030E005C020E130E002C020E132E0F8015F
:103DB000B7FE07C060817181828193810C5F1F4FC4
:103DC00006C06081718180E090E00E5F1F4FA4010A
:103DD000ECD0A82EA818FB2DFF777F2E76FE0BC007
:103DE000372D3E7FA51450F474FE0AC072FC08C043
:103DF000372D3E7E05C0BA2C372D03C0BA2C01C02A
:103E0000B52C34FF0DC0FE01EA0DF11D8081803319
:103E100011F4397E09C032FF06C0B394B39404C0D4
:103E2000832F867809F0B39433FD12C030FF06C0AB
:103E30005A2CB31418F4530C5B18B32CB31460F45D
:103E4000B70180E290E03C8778D0B3943C85F6CF10
:103E5000B31410F43B1801C0312C34FF11C0B7016A
:103E600080E390E03C8769D03C8532FF16C031FD8D
:103E700003C088E790E002C088E590E0B7010CC07D
:103E8000832F867851F031FF02C08BE201C080E2BF
:103E900037FD8DE2B70190E050D0A51430F4B701A2
:103EA00080E390E04AD05A94F8CFAA94F401EA0D46
:103EB000F11D8081B70190E040D0A110F6CF3320F2
:103EC00009F45DCEB70180E290E037D03A94F7CFA5
:103ED000F7018681978102C08FEF9FEF2C960FB676
:103EE000F894DEBF0FBECDBFDF91CF911F910F9130
:103EF000FF90EF90DF90CF90BF90AF909F908F900A
:103F00007F906F905F904F903F902F900895FC01AD
:103F10000590615070400110D8F7809590958E0FF4
:103F20009F1F0895FC016150704001900110D8F767
:103F3000809590958E0F9F1F08950F931F93CF9399
:103F4000DF93FB01238121FD03C08FEF9FEF28C08A
:103F500022FF16C0468157812481358142175307BD
:103F600044F4A081B1819D012F5F3F4F31832083B5
:103F70008C93268137812F5F3F4F3783268310C074
:103F8000EB01092F182F0084F185E02D1995892B5D
:103F9000E1F68E819F8101969F838E83812F902FE2
:103FA000DF91CF911F910F910895FA01AA27283030
:103FB00051F1203181F1E8946F936E7F6E5F7F4FF6
:103FC0008F4F9F4FAF4FB1E03ED0B4E03CD0670F72
:103FD000781F891F9A1FA11D680F791F8A1F911DC5
:103FE000A11D6A0F711D811D911DA11D20D009F415
:103FF00068943F912AE0269F11243019305D319357
:10400000DEF6CF010895462F4770405D4193B3E03F
:104010000FD0C9F7F6CF462F4F70405D4A3318F0E6
:10402000495D31FD4052419302D0A9F7EACFB4E097
:10403000A6959795879577956795BA95C9F700974F
:104040006105710508959B01AC010A2E06945795F0
:10405000479537952795BA95C9F7620F731F841F47
:10406000951FA01D089540D008F481E00895E894BC
:1040700009C097FB3EF490958095709561957F4FB0
:104080008F4F9F4F9923A9F0F92F96E9BB2793955E
:10409000F695879577956795B795F111F8CFFAF46E
:1040A000BB0F11F460FF1BC06F5F7F4F8F4F9F4F9F
:1040B00016C0882311F096E911C0772321F09EE8FD
:1040C000872F762F05C0662371F096E8862F70E063
:1040D00060E02AF09A95660F771F881FDAF7880F3D
:1040E0009695879597F90895990F0008550FAA0B93
:1040F000E0E8FEEF16161706E807F907C0F01216FB
:104100001306E407F50798F0621B730B840B950BFD
:1041100039F40A2661F0232B242B252B21F4089552
:104120000A2609F4A140A6958FEF811D811D0895EF
:104130000BD078C069D028F06ED018F0952309F024
:104140005AC05FC01124A2C07ED0A0F3959FD1F3C6
:10415000950F50E0551F629FF001729FBB27F00D35
:10416000B11D639FAA27F00DB11DAA1F649F66278A
:10417000B00DA11D661F829F2227B00DA11D621FD9
:10418000739FB00DA11D621F839FA00D611D221F93
:10419000749F3327A00D611D231F849F600D211D77
:1041A000822F762F6A2F11249F5750408AF0E1F01A
:1041B00088234AF0EE0FFF1FBB1F661F771F881F63
:1041C00091505040A9F79E3F510570F014C05EC059
:1041D0005F3FECF3983EDCF3869577956795B7954E
:1041E000F795E7959F5FC1F7FE2B880F911D969578
:1041F000879597F9089597F99F6780E870E060E0E8
:1042000008959FEF80EC089500240A94161617066F
:1042100018060906089500240A94121613061406B7
:1042200005060895092E0394000C11F4882352F01A
:10423000BB0F40F4BF2B11F460FF04C06F5F7F4FD2
:104240008F4F9F4F089557FD9058440F551F59F0B9
:104250005F3F71F04795880F97FB991F61F09F3F73
:1042600079F087950895121613061406551FF2CF9C
:104270004695F1DF08C0161617061806991FF1CFEC
:1042800086957105610508940895E894BB27662713
:104290007727CB0197F9089513E0CBE3D3E000E053
:1042A00005C0802FFE0190D82196011DCC33D10787
:0A42B00080E00807B1F7F894FFCF93
:1042BA000840000000807E0435040002870A0000DE
:1042CA000205800000000000570E290EB20D790C7D
:1042DA00630C210C000CCC0BAB0B550B1D0B000017
:1042EA000000FD12C313D80AD112E51243130000CD
:1042FA000000DC0CC31300000000EE13C31300001F
:10430A000000DC0CC31320202020202020202020A5
:10431A00006572726F72000D0A00534C45455000D9
:10432A004D415354455200534C41564500256400B3
:08433A00726561647921000045
:00000001FF
