:100000003BC300006AC3000068C3000066C3000071
:1000100064C3000062C3000060C300005EC3000050
:100020005CC300005AC3000058C3000056C3000060
:1000300054C3000052C3000050C300000C9450137E
:100040004CC300004AC3000048C3000046C3000080
:1000500044C3000042C3000040C300000C944B1294
:100060003CC300000C94C3160C949A1636C30000CF
:1000700034C3000032C3000030C300002EC30000B0
:100080002CC300002AC3000028C3000026C30000C0
:1000900024C3000022C3000020C300001EC30000D0
:1000A0001CC300001AC3000018C3000016C30000E0
:1000B00014C3000012C3000010C300000EC30000F0
:1000C0000CC300000AC3000008C3000006C3000000
:1000D00004C3000002C3000000C30000FEC2000011
:1000E000FCC20000C80DCB0DBA0DBE0DC20D020E34
:1000F000CF0DD30DD90DDD0DE10DE70DEB0DEF0D9E
:10010000020EF50DF90DFD0D2F0E330E370E3B0EC1
:100110003F0E430E470EBE0FC50FCC0FD30FDA0FA5
:10012000F20FE10FF20FE80FFFE0FFD1AFFF32FF58
:10013000D0FFFEFFE0FFD1AEFFD0FFFEFFE0FFD11A
:100140001000FFFEFFD0FFE0FFC1FFD1AED580A8B9
:100150003FD300408D142000A1C8DA1281CFD9F11D
:10016000DB402EA4A6AFFFD0FFFE0000210024003C
:1001700027002A002D003000330001010000040197
:1001800007010A0100002200250028002B002E0094
:100190003100340002010000050108010B010505D2
:1001A0000505070508080808020202020A0A0808ED
:1001B000040404040101010101010101030303031B
:1001C00003030303040707070C0C0C0C0C0C0C0CAA
:1001D0000202020206060606060606060B0B0B0BBB
:1001E0000B0B0B0B010210202008081020401020E0
:1001F00040800201020108040201010204081020EB
:1002000040808040201008040201800402018040E8
:100210002010080402010804020101020408102051
:100220004080010204081020408000000A0B0209EF
:100230000C0D0E0807030401000000000000000080
:1002400000000000000000000000000000000000AE
:10025000000000000000121110000000000000006B
:10026000000000000000000000000000000000008E
:1002700001080D00FE09016102CD207FFE0BFE0981
:10028000FE0D00803219898080808080808000800F
:100290002843839090901367874848FC48FC48485F
:1002A0001259892078A0A0702828F020126989446A
:1002B000A44810102048548812678760909060947A
:1002C0008874381383808080323989204040808050
:1002D00080404020223989804040202020404080BA
:1002E0001665854830FC30481455852020F82020BC
:1002F000114383706080165181F821338340E040C0
:100300000279890202040810204080801269893035
:1003100048848484848448301259892060A0202035
:10032000202020F81269897884840408304080FCF9
:10033000126989FC04081038040484781269890859
:100340001828488888FC0808126989FC8080B8C48D
:100350000404847812698938408080B8C484847821
:10036000126989FC04081010202040401269897825
:1003700084848478848484781269897884848C74F1
:100380000404087021388840E040000040E040113B
:100390004888207020000070608022598908102051
:1003A000408040201008146484FC0000FC1259892D
:1003B00080402010081020408012698978848404CD
:1003C00008101000101269897884849CA4AC948071
:1003D000781269893048848484FC84848412698911
:1003E000F0888488F0888488F01269897884808015
:1003F0008080808478126989F088848484848488E9
:10040000F0126989FC808080F0808080FC1269890C
:10041000FC808080F0808080801269897884808070
:10042000809C848C7412698984848484FC84848490
:1004300084125989F820202020202020F812798960
:100440003E0808080808088870126989848890A006
:10045000C0A090888412698980808080808080809C
:10046000FC0279898282C6AA92928282821269896A
:100470008484C4A4948C8484841269897884848458
:100480008484848478126989F8848484F8808080E4
:1004900080116A8A788484848484A494780412699C
:1004A00089F8848484F8A09088841269897884808B
:1004B000807804048478027989FE101010101010DE
:1004C00010101269898484848484848484780279F5
:1004D00089828244444428282810027989828282B1
:1004E00082929292AA4402798982824428102844F6
:1004F00082820279898282442810101010101269B9
:1005000089FC04081020408080FC224989F080800A
:100510008080808080F002798980804020100804EB
:100520000202124989F010101010101010F0185328
:1005300083205088017181FE3A22828040126686B3
:1005400078047C848C74126989808080B8C4848427
:10055000C4B812668678848080847812698904041D
:1005600004748C84848C741266867884FC8084780D
:1005700012698938444040F840404040106888740F
:1005800088887080788478126989808080B8C48473
:1005900084848412588820006020202020F8105A7B
:1005A0008A080018080808088888701269898080FD
:1005B000808890E090888412598960202020202033
:1005C0002020F8027686EC9292929282126686B889
:1005D000C4848484841266867884848484781068D1
:1005E00088B8C484C4B8808080106888748C848C77
:1005F00074040404126686B8444040404012668683
:100600007884601884781268884040F840404044FC
:100610003812668688888888887412568688888802
:1006200050502002768682829292AA441266868474
:1006300048303048841068888484848C74048478BA
:10064000126686FC08102040FC2259893840402060
:10065000C02040403832198980808080808080802E
:1006600080125989E010102018201010E0185383D0
:1006700048A890FFEA22E22211241FBECFEFD1E268
:10068000DEBFCDBF00E00CBF12E0A0E0B2E0EAECBC
:10069000F7E500E00BBF02C007900D92AE3CB1073A
:1006A000D9F725E0AEECB2E001C01D92AE36B2073C
:1006B000E1F713E0CBE3D3E000E006C021970109A6
:1006C000802FFE010E94CC23CA33D10780E00807A7
:1006D000A9F70E94911E0C94D32B92CCFC0180812F
:1006E0009281980F92832181921760F494819F5F89
:1006F00094839381890F821710F08FEF820F838389
:1007000081E0089580E00895FC011282808181508B
:1007100083831482089580E008950B96FC018491F0
:1007200008950A96FC0184910895FC01849108952E
:10073000FCDF882321F0823011F083E0089586E009
:100740000895FC01E60FF11D849190E0982F882711
:100750003196E4918E0F911D089568E0F2CF66E026
:10076000F0CF2EE93FE0009729F0F9013197F1F73A
:100770000197F9CF08951092FC021092FB020895A0
:1007800080931C031092B90084FF02C08CE001C06A
:1007900088E48093B800EFCFDB011496ED91FC91D3
:1007A000159720E030E065E01994DB011496ED9197
:1007B000FC91159720E030E062E01994DB0114967B
:1007C000ED91FC91159720E030E063E01994CF9211
:1007D000DF92EF92FF920F931F93CF93DF938C01E1
:1007E0007B016A0180E0F601C49181110AC0CF3F0C
:1007F00009F447C04C2FB701C801CEDF81113FC0BB
:1008000045C0CF3F11F44FEFF6CFCE3F09F440C0C3
:10081000C03FA8F5C03E30F04C2F4F70B701C80163
:10082000C4DF2DC0C03D30F04C2F4F70B701C80160
:10083000C5DF25C0C03CF0F0D7011496ED91FC91C6
:10084000159720E030E040E064E0C8011995C295BA
:10085000C07FCE5FD0E0CE0184DFD7011496ED914A
:10086000FC91159720E030E041E064E0C801199563
:10087000CE0104C0C7FD03C08C2F90E072DF80E082
:1008800001C081E0BFEFCB1ADB0AADCF80E001C031
:1008900081E0DF91CF911F910F91FF90EF90DF905A
:1008A000CF9008958F929F92AF92BF92CF92DF9296
:1008B000FF920F931F93CF93DF931F921F92CDB799
:1008C000DEB76C018B01F42E490120E1421709F4D7
:1008D0005DC02417D8F03AE0431701F18FE04813C8
:1008E0005EC041E0C6016ADF40E0B801C6015DDFDD
:1008F00041E8B801C60150DFF4014081B801C601EA
:100900004BDF40E0B801C60159DF00C1A1E14A1741
:1009100009F43FC0B5E14B1789F041C0DB011496E3
:10092000ED91FC91159720E030E042E061E01995EF
:1009300044E451E0B801C6014ADF31C0FB01A280A6
:10094000B3804CE351E043DFD50114964C91406BEA
:10095000B801C60121DF41E0B801C60126DFF5017B
:1009600026813781D8011496ED91FC911597D50118
:1009700015964C9166E0C6011995811102C080E080
:10098000C6C040E0B801C60119DF09C043E351E029
:1009900002C048E251E0B801C60119DFB7C0D80172
:1009A00012960D911C911397B2E3FB1609F474C0D3
:1009B000BF15B8F0E5E1FE1609F47AC0F7E1FF16BD
:1009C00009F48BC024E1F212A1C0D8011696ED9172
:1009D000FC91179715968C919F01280F311DC90125
:1009E00060C036E4F31609F488C087E4F81609F409
:1009F00088C0ABE3FA128AC0F401818193819130FF
:100A000029F0933031F4482F885004C048E0480F53
:100A100001C0482F21E0D80113963C91381708F403
:100A200020E031E0F8015281451708F430E051E050
:100A3000481708F050E0822F852B382319F425231E
:100A400009F464C0D4011296FC90913051F030F05A
:100A5000923049F0933051F42FEF09C020E031E09B
:100A600007C021E004C020E03FEF02C020E030E0FA
:100A7000F7FE08C0B401C8012A8339830E94131607
:100A800039812A81F4018081830F80838181820FE3
:100A90008183FF0C69F73AC0B401C8010E941316A4
:100AA00035C01192E817F907E1F7C8012DDE2EC015
:100AB000C80114DE882309F462CFD8011696ED919F
:100AC000FC91179715968C919F01280F311DC90134
:100AD0001192E817F907E1F719C0D4011C92F80147
:100AE000828111968C9311978581815012968C93F7
:100AF0001297838113968C9309C0D80115968C9117
:100B000003C0D80111968C91F401808381E00F908D
:100B10000F90DF91CF911F910F91FF90DF90CF90B9
:100B2000BF90AF909F908F9008953F924F925F92A9
:100B30006F927F928F929F92AF92BF92CF92DF92ED
:100B4000EF92FF920F931F93CF93DF93CDB7DEB752
:100B50002C970FB6F894DEBF0FBECDBF87EF82B9DA
:100B600070B010B180B000B18BEF82B980B150B0DD
:100B700090B0C0B09DEF92B930B060B0A0B0B0B04E
:100B80009EEF92B940B0D0B0E0B0F0B0082E000CAB
:100B9000990B80959095692F661F6627661F70E0F8
:100BA00081EE92E00E944517832D330C990B8095BE
:100BB0009095692F661F6627661F70E087EE92E0AA
:100BC0000E944517842D440C990B80959095692FB0
:100BD000661F6627661F70E083EE92E00E9445174D
:100BE000612F629566956695637011E0612761706B
:100BF00070E08BEE92E00E944517652D6295669538
:100C0000669563706127617070E089EE92E00E94E2
:100C10004517662D629566956695637061276170CC
:100C200070E08DEE92E00E944517682D6295669502
:100C300067706127617070E08CED92E00E9445174B
:100C4000692D6295669567706127617070E085EE29
:100C500092E00E9445176A2D62956695677061273C
:100C6000617070E08AED92E00E9445176C2D6295EC
:100C70006F706127617070E088ED92E00E94451707
:100C8000872D770C990B80959095692F661F6627A5
:100C9000661F70E086ED92E00E944517D294D694CC
:100CA000D69493E0D922D1266D2D617070E084ED49
:100CB00092E00E944517E294E69427E0E222E126C2
:100CC0006E2D617070E082ED92E00E944517F29403
:100CD0003FE0F322F1266F2D617070E08FED92E01E
:100CE0000E94451702950F700127602F617070E018
:100CF00080ED92E00E9445176B2D62956F70612721
:100D0000617070E08EEC92E00E9445178091E102E4
:100D10009091E202019711F481E301C080E02091FB
:100D2000E7023091E8022130310509F482E3209195
:100D3000E3023091E4022130310509F483E320918C
:100D4000EB023091EC022130310509F484E320916B
:100D5000E9023091EA022130310509F485E320915E
:100D6000ED023091EE022130310509F486E3209145
:100D7000DC023091DD022130310509F487E3209156
:100D8000E5023091E6022130310509F488E3209133
:100D9000DA023091DB022130310509F489E3209138
:100DA000D8023091D9022130310509F480E3209135
:100DB000D0023091D1022130310509F48AE220912C
:100DC000CE023091CF022130310509F483E2209127
:100DD000D6023091D7022130310509F481E4209107
:100DE000D4023091D5022130310509F482E42091FA
:100DF000D2023091D3022130310509F483E42091ED
:100E0000DF023091E0022130310509F484E480935F
:100E100006032130310549F48091140390911503A4
:100E2000019690931503809314038091140390917D
:100E30001503039724F01092150310921403809168
:100E4000140390911503892B59F48B9A8091020118
:100E5000806280930201109219031092180316C049
:100E60008B98789B08C08091020180628093020178
:100E700081E090E007C0809102018F7D80930201A4
:100E800082E090E090931903809318038091DE0232
:100E9000082E000C990B2091140330911503821732
:100EA0009307C9F040E050E0BA0182EA94E00E9462
:100EB000A31540E050E0BA018EE594E00E94A3152E
:100EC00040E050E0BA018AE194E00E94A31510923C
:100ED00017031092160320911403309115032093E9
:100EE000DE022130310509F024C2409116035091F1
:100EF0001703809106034130510541F0813409F018
:100F000079C0309317032093160374C090ED980FA7
:100F10009A3018F40E94C41D6DC08A3209F043C093
:100F200066E572E0CE0101960E94E219BE016F5F94
:100F30007F4F84E194E00E943819182FCE0101966A
:100F40000E94D5191123D9F062E672E0CE01019614
:100F50000E94E21966E572E0CE0107960E94E2194E
:100F6000AE014F5F5F4FBE01695F7F4F84E194E048
:100F70000E94A217CE0107960E94D5190FC066E500
:100F800072E0CE0101960E94E219CE0101960E9404
:100F9000F51DBC0184E194E00E94C019CE010196C8
:100FA0000E94D51927C0833241F480911804909192
:100FB0001904009709F047C21DC08134D9F464E1D7
:100FC00074E0CE0101960E94DA19CE0101960E94CA
:100FD0003C1E182FCE0101960E94D519111137C25F
:100FE000109217031092160362E672E084E194E017
:100FF0000E94AB19209116033091170380910603CC
:101000002230310551F0823409F07BC082E090E05B
:10101000909317038093160374C090ED980F9A3045
:1010200018F40E94C41D6DC08A3209F043C066E501
:1010300072E0CE0101960E94E219BE016F5F7F4F00
:1010400084E194E00E943819182FCE0101960E9485
:10105000D5191123D9F062E672E0CE0101960E9403
:10106000E21966E572E0CE0107960E94E219AE0130
:101070004F5F5F4FBE01695F7F4F84E194E00E9444
:10108000A217CE0107960E94D5190FC066E572E03F
:10109000CE0101960E94E219CE0101960E94F51D33
:1010A000BC0184E194E00E94C019CE0101960E9427
:1010B000D51927C0833241F4809118049091190406
:1010C000009709F0DAC11DC08234D9F464E174E0FC
:1010D000CE0101960E94DA19CE0101960E943C1EB3
:1010E000182FCE0101960E94D5191111CAC1109274
:1010F00017031092160362E672E084E194E00E9406
:10110000AB19209116033091170380910603233009
:10111000310551F0833409F07BC083E090E0909377
:1011200017038093160374C090ED980F9A3018F44B
:101130000E94C41D6DC08A3209F043C066E572E0AA
:10114000CE0101960E94E219BE016F5F7F4F84E1DC
:1011500094E00E943819182FCE0101960E94D519EB
:101160001123D9F062E672E0CE0101960E94E219E5
:1011700066E572E0CE0107960E94E219AE014F5F6C
:101180005F4FBE01695F7F4F84E194E00E94A21728
:10119000CE0107960E94D5190FC066E572E0CE0118
:1011A00001960E94E219CE0101960E94F51DBC0134
:1011B00084E194E00E94C019CE0101960E94D519E5
:1011C00027C0833241F4809118049091190400974C
:1011D00009F06DC11DC08334D9F464E174E0CE011F
:1011E00001960E94DA19CE0101960E943C1E182F2A
:1011F000CE0101960E94D51911115DC110921703FD
:101200001092160362E672E084E194E00E94AB194A
:101210008091160390911703892B09F088C0809163
:10122000ED029091EE02029711F41D995AC180913E
:10123000EB029091EC02029731F08091E9029091DB
:10124000EA02029721F48091000186FD53C180914A
:10125000E7029091E802029711F4799954C18091C4
:10126000E5029091E602029731F08091E9029091B7
:10127000EA02029711F41C994FC18091E302909108
:10128000E402029741F444EF51E060E070E08AE14B
:1012900094E00E94A3158091E1029091E2020297EE
:1012A00041F44CE05EEF6FEF7FEF8AE194E00E9443
:1012B000A3158091EB029091EC02039731F080919D
:1012C000ED029091EE02039721F482EA94E00E94ED
:1012D000B1158091E7029091E802039731F0809177
:1012E000E5029091E602039721F48EE594E00E94D6
:1012F000B1158091E1029091E202039731F0809163
:10130000E3029091E402039721F48AE194E00E94C1
:10131000B1158091E9029091EA02039741F482EAC3
:1013200094E00E94B1158EE594E00E94B1150E94F0
:10133000C21C8091140390911503029709F050C0CC
:1013400083E393E0B1D3892BE9F183E393E08AD37C
:101350002091F9023091FA028B3359F0F901E151F1
:10136000FD4F80832F5F3F4F3093FA022093F902A5
:1013700029C02A303105E1F468E572E08EE094E09E
:101380000E94AB198FEEE82E82E0F82E00E010E00C
:10139000B8018EE094E00E94FA18F70121917F01D4
:1013A000FC0120830F5F1F4F0A30110589F706C02B
:1013B00063E672E08EE094E00E94AB191092FA02AC
:1013C0001092F9026EE074E0CE0101960E94DA19E3
:1013D000CE0101960E94F619CE0101960E94D51900
:1013E00080917B00877F80937B0084E480937C00E6
:1013F00080917A00806480937A0080917A0086FDE3
:10140000FCCF809178002091790090E0922B90930E
:101410001B0380931A032C960FB6F894DEBF0FBE01
:10142000CDBFDF91CF911F910F91FF90EF90DF9093
:10143000CF90BF90AF909F908F907F906F905F9074
:101440004F903F90089501970E94281ED3CD809120
:10145000180490911904892B59F084E194E00E94BA
:101460009717AB01BC0182EA94E00E948D15B8CDBC
:1014700082EA94E00E94B115B3CD01970E94281E24
:1014800040CE8091180490911904892B59F084E181
:1014900094E00E949717AB01BC018EE594E00E9496
:1014A0008D1525CE8EE594E00E94B11520CE0197D2
:1014B0000E94281EADCE8091180490911904892BAA
:1014C00059F084E194E00E949717AB01BC018AE1D6
:1014D00094E00E948D1592CE8AE194E00E94B115AD
:1014E0008DCE44EF51E060E070E082EA94E00E942B
:1014F000A3159DCE4CE05EEF6FEF7FEF82EA94E0A4
:101500000E94A315A4CE44EF51E060E070E08EE5A8
:1015100094E00E94A315A3CE4CE05EEF6FEF7FEF47
:101520008EE594E00E94A315A8CEDC011696ED91FD
:10153000FC91179712968C91481B477081E090E0C0
:1015400001C0880F4A95EAF7E60FF11D308122238A
:1015500011F0832B02C08095832380830895DB01E3
:10156000ED91FC911994EF92FF920F931F93CF93FB
:10157000DF931F92CDB7DEB78C01DC011296ED90A0
:10158000FC901397D196ED91FC91D29782E019953A
:1015900020E030E04AE0B701C801E1DFF82ED801D1
:1015A000D196ED91FC91D29783E01995D801D1960F
:1015B000ED91FC91D29780E01995FF2081F1F8011F
:1015C000628173819E012F5F3F4F46E4C801C7DFF0
:1015D0008981D8018C9312966D917C9113979E010D
:1015E0002F5F3F4F47E4C801BADF8981F80181834B
:1015F0006281738120E030E048E4C801B0DFD801A7
:101600001B968C931B9798012D5C3F4F12966D9102
:101610007C91139747E1C801A2DF81E001C080E01F
:101620000F90DF91CF911F910F91FF90EF90089550
:101630004F925F926F927F928F929F92AF92BF92E2
:10164000CF92DF92EF92FF920F931F93CF93DF938E
:101650001F92CDB7DEB72C01E62EF42EC22EDC0190
:1016600014960D911C911597C8015FD8D82EF201E0
:10167000848195815DD8982EF1E0DF1203C02FE0C0
:10168000A22E02C0AA24AA94D20114968D919C91F4
:10169000159747D8D82EF201848195813ED8B82E6F
:1016A000D20114968D919C91159757D8B0E6BC1530
:1016B00038F4009729F0080F191F91E6D92E10C0B1
:1016C000F201848195814BD8F0E4FC1538F4009741
:1016D00029F0080F191F81E4D82E02C00F5E1F4F9A
:1016E000BC1480F4D20150961C92509753961C92D1
:1016F000539754961C92549751961C925197529618
:101700001C929FC0BD1470F3892D90E0F8012491C4
:101710002F3F19F40F5F1F4F59C0DC104EC0D2018C
:1017200014968D919C91159700D898012F5F3F4F8B
:10173000F801882311F08230E1F48491D2015396AC
:101740008C935397F901249154962C935497F80154
:101750003396E4915096EC935097F8013496E491C7
:101760005196EC935197F8013596E4915296EC938B
:1017700020C08491982F9F709250D20152969C93D2
:10178000529782958F7051968C935197F9012491BD
:10179000822F8F7054968C93549722952F70539666
:1017A0002C935397F8013296E491E295EF7050969E
:1017B000EC930115110579F444C0F8013296E491D7
:1017C000EA219C012E0F311D020F131FDB1409F4B7
:1017D00089CFD3949BCFF201848195810E94980395
:1017E000D20153963C91539754962C91549751960D
:1017F0005C91519752969C915297920FF91A9FEFD4
:10180000920F9F0DD4964C91D497D6966C916F15EC
:1018100018F0941728F402C0941780F09F1570F404
:10182000E50E9FEF930F9E0DD201D3964C91D39767
:10183000D5965C915E1538F4941738F4F2018089DE
:101840003EC080E03CC0941710F49E15B8F7080F16
:10185000111D395F732E7694769476946F2C620EF8
:101860005201FCE1AF0EB11C872C912CF61431F320
:101870005E2D68018C2D801B8715E8F4F60184919C
:10188000D20112966D917C9113975C965C935C9754
:101890005D96FC925D975F961C925F975E968C9327
:1018A00095014BE3C20159835ADEBFEFCB1ADB0A25
:1018B0005981585FDFCF080D191DF394D7CF0F90D2
:1018C000DF91CF911F910F91FF90EF90DF90CF901C
:1018D000BF90AF909F908F907F906F905F904F9050
:1018E00008959091FC02911104C08093FC026093D2
:1018F000FB0208951F93CF93DF931F921F92CDB7E2
:10190000DEB720ED37E03A8329839091BC0098231D
:1019100091F429813A81232B49F480911C03182FDB
:10192000127081FD08C081E0DCDF06C029813A81A8
:1019300021503109E8CF11E0812F0F900F90DF91F6
:10194000CF911F91089584E98093BC0064E080E109
:10195000D1CFCF938093BB0084E88093BC0063E039
:1019600080E8C8DFC82F882381F080911C03C82F2E
:10197000C27081FD09C08091B900887F883221F052
:1019800063E082E0AEDF01C0C1E08C2FCF9108950B
:10199000CF93DF93FC0123A5222371F0EC010E9479
:1019A0006017811102C080E008C08EA1811180E41F
:1019B000D0DF8823C1F31BA681E0DF91CF9108958A
:1019C0000F931F93CF93C42F89016330C1F050F45C
:1019D000613081F0623009F040C0FC0146A321E093
:1019E00023A73BC06630F1F0673049F1653009F05C
:1019F00034C00DC0FC0186A50E94C0032EC0FC01AE
:101A000016A221E023A7411128C09DDF26C0C0DF18
:101A1000811103C098DF80E021C08C2F9ADF8111F3
:101A20001CC0F8CFB5DF8823A9F3CC23B1F0F801AF
:101A300081918F018EDF882369F3C150F6CFA8DF33
:101A4000882341F3CC2349F0F801849182DF882375
:101A500029F00F5F1F4FC150F5CF81E0CF911F914B
:101A60000F910895FC01918D828D981761F0828D00
:101A7000DF01A80FB11D5D968C91928D9F5F9F73C2
:101A8000928F90E008958FEF9FEF0895FC01918D64
:101A9000828D981731F0828DE80FF11D858D90E0D1
:101AA00008958FEF9FEF0895FC01918D228D892F6E
:101AB00090E0805C9F4F821B91098F739927089556
:101AC00080E090E0892B21F00E942916811125C029
:101AD00080E090E0892B41F080E090E0892B21F0BC
:101AE0000E94000081111CC080E090E0892B41F031
:101AF00080E090E0892B21F00E940000811113C04A
:101B000080E090E0892BA1F080E090E0892B81F0CB
:101B10000E94000081110AC008950E940000D8CFE1
:101B20000E940000E1CF0E940000EACF0C94000068
:101B30000895362F90E0FC01E65DFD4F4491FC01D5
:101B4000EC51FE4F2491FC01E256FE4F94919923F3
:101B500009F46BC0442309F455C050E0FA013197F1
:101B6000E231F10508F04EC08827EE58FF4F8F4F45
:101B70000C94CC23809180008F7707C080918000E7
:101B80008F7D03C080918000877F809380003AC062
:101B900084B58F7702C084B58F7D84BD33C08091BA
:101BA000B0008F7703C08091B0008F7D8093B0002C
:101BB00029C0809190008F7707C0809190008F7D21
:101BC00003C080919000877F809390001BC080911C
:101BD000A0008F7707C08091A0008F7D03C0809107
:101BE000A000877F8093A0000DC0809120018F7797
:101BF00007C0809120018F7D03C080912001877FE5
:101C000080932001E92FF0E0EE0FFF1FEC57FE4F0D
:101C1000A591B4918FB7F894EC91311103C0209540
:101C20002E2301C02E2B2C938FBF0895CF93DF93CB
:101C3000DC014770552766277727FA013197CD9148
:101C4000DC911197E730F10530F48827EC57FF4F0E
:101C50008F4F0C94CC23EC81FD8161E01BC0EC81A3
:101C6000FD8165E017C0EC81FD8164E013C0EC816B
:101C7000FD8166E00FC0EC81FD8162E00BC0EC816C
:101C8000FD816AE007C0EC81FD8168E003C0EC8162
:101C9000FD8169E0CD01DF91CF911994CF93DF935E
:101CA000EC01CB01BA0126E030E040E050E00E94B8
:101CB000B023623071058105910559F18CF46115ED
:101CC000710581059105F1F061307105810591057E
:101CD000C1F5E881F9810480F581E02D65E02DC032
:101CE000643071058105910511F1D4F065307105FD
:101CF0008105910531F5E881F9810480F581E02DB8
:101D000066E01BC0E881F9810480F581E02D64E084
:101D100014C0E881F9810480F581E02D61E00DC0F7
:101D2000E881F9810480F581E02D63E006C0E88157
:101D3000F9810480F581E02D62E0CE01DF91CF9141
:101D40001994DF91CF91089543705527662777271F
:101D5000DC01ED91FC910480F581E02D42305105CC
:101D60006105710571F0433051056105710559F048
:101D7000413051056105710511F065E005C066E06F
:101D800003C06AE001C069E01994CF93DF93EC01CE
:101D9000CB01BA0123E030E040E050E00E94B023E4
:101DA000613071058105910581F062307105810511
:101DB000910591F0672B682B692BC1F4E881F981BB
:101DC0000480F581E02D64E00DC0E881F981048094
:101DD000F581E02D61E006C0E881F9810480F5819C
:101DE000E02D62E0CE01DF91CF911994DF91CF9188
:101DF00008954370552766277727DC01ED91FC9104
:101E00000480F581E02D423051056105710571F0C6
:101E1000433051056105710559F0413051056105A7
:101E2000710511F062E005C063E003C061E001C02C
:101E300060E019940F931F93CF93DF93EC01E88137
:101E4000F9810480F581E02D8C010D5B1F4FD801D5
:101E50008C91811102C060E001C062E0CE01199551
:101E6000E881F9810480F581E02DD8018C91811100
:101E700002C061E001C063E0CE011995EBA5FCA5AD
:101E8000E230F10538F0EE0FFF1FEE0FFF1F359720
:101E90003197F1F7E881F9810480F581E02DD801CF
:101EA0008C91811102C060E001C062E0CE01DF913F
:101EB000CF911F910F911994CF93DF93EC0120E004
:101EC00030E0A9016B897C898D899E890E94F42468
:101ED00018161CF4EFA5F8A902C0E9A9FAA9DF9128
:101EE000CF911994CF92DF92EF92FF920F931F93AD
:101EF000CF93DF93FC012281243041F0283031F070
:101F0000233031F0263021F012E003C014E001C08C
:101F100013E0EC012796E12CF12CC62ED12C01E028
:101F2000C6010E2C02C0959587950A94E2F7688148
:101F300080FD6027FE0134978081FBDDFFEFEF1A03
:101F4000FF0A2196E11660F3DF91CF911F910F9167
:101F5000FF90EF90DF90CF9008950F931F93DC01D7
:101F600012960C91129710E009301105D8F5F8017E
:101F70008827E557FF4F8F4F0C94CC23ED91FC91B0
:101F800011970084F185E02D29C0ED91FC91119706
:101F90000284F385E02D22C0ED91FC911197048419
:101FA000F585E02D1BC0ED91FC9111970684F78516
:101FB000E02D14C0ED91FC9111970088F189E02D7E
:101FC0000DC0ED91FC9111970288F389E02D06C0B8
:101FD000ED91FC9111970488F589E02DCD011F91B9
:101FE0000F9119941F910F9108952F923F924F9244
:101FF0005F926F927F928F929F92AF92BF92CF9299
:10200000DF92EF92FF920F931F93CF93DF9300D055
:102010001F92CDB7DEB71C01FC0187849088A18890
:10202000B28883859485A585B685881A990AAA0AF7
:10203000BB0A63897489858996899B01AC010E94DA
:102040001F2B6B017C01F101638D748D858D968D45
:102050009B01AC010E94F7239B01AC01C701B601B3
:102060000E945B240E94C32481149104A104B10442
:10207000A1F462307105810591050CF07CC0F1017D
:1020800013A214A215A216A2138A148A158A168AFC
:1020900013AA14AA15AA16AA03C1F10103A914A927
:1020A00025A936A9ED5BFF4F181419041A041B0467
:1020B000FCF410161106120613064CF46815790587
:1020C0008A059B054CF52081211155C025C00115BD
:1020D00011052105310509F44EC0681579058A05F9
:1020E0009B050CF048C08081882309F444C037C0A8
:1020F0001016110612061306F4F400271127980192
:10210000081919092A093B09601771078207930703
:102110001CF42081222379F19B01AC0188279927A7
:10212000DC01821B930BA40BB50BF10183AB94ABC9
:10213000A5ABB6AB20C00115110521053105D9F0BD
:10214000CC24DD247601C818D908EA08FB086C15F0
:102150007D058E059F057CF4808181110CC0309532
:102160002095109501951F4F2F4F3F4FF10103AB65
:1021700014AB25AB36ABF101C3A8D4A8E5A8F6A8EB
:1021800081010D5B1F4FC114D104E104F10491F4EE
:1021900087A990ADA1ADB2AD83AF94AFA5AFB6AFF7
:1021A00081E0181419041A041B040CF080E0F801F3
:1021B000808340C0F10183AC94ACA5ACB6ACA50162
:1021C0009401C501B4010E94F7232B013C01C70112
:1021D000B6010E94C02A20E030E040E850E40E94AE
:1021E0001F2B20E030E040E85FE30E94F7239B01D3
:1021F000AC01C301B2010E945B249B01AC01C5018B
:10220000B4010E94F6234B015C01F101FF9640806E
:102210005180628073809201A3010E94F4241816F9
:1022200014F042015301A401B501F10143AF54AFD1
:1022300065AF76AFFFEFCF1ADF0AEF0AFF0AF101B1
:10224000C3AAD4AAE5AAF6AA23AD34AD45AD56ADCE
:10225000CA01B90129833A834B835C830E94C82455
:10226000F10163A374A385A396A329813A814B81CD
:102270005C8160E074E284E799E40E945B24F101F0
:10228000638B748B858B968BF8012081211108C09C
:10229000DC01CB01B058F101838B948BA58BB68BFD
:1022A0000F900F900F900F90DF91CF911F910F9192
:1022B000FF90EF90DF90CF90BF90AF909F908F9066
:1022C0007F906F905F904F903F902F90089508956A
:1022D0008EE193E00C94D519CF92DF92EF92FF92AA
:1022E0000F931F93CF93DF931F92CDB7DEB76C018F
:1022F000DC01DC961C91DC97DB960C917C01B4E050
:10230000EB0EF11CDC015996ED91FC915A97C70137
:1023100069831995482F410F2981602FC70188D9FA
:10232000F60123AD082E000C990B820F911D83AF8F
:1023300081E090E00F90DF91CF911F910F91FF907E
:10234000EF90DF90CF900895FC01848DDF01A80FFE
:10235000B11DA35ABF4F2C91848D90E001968F73CD
:102360009927848FA689B7892C93A089B1898C91EC
:1023700080648C93938D848D981306C00288F389B2
:10238000E02D80818F7D80830895CF93DF9390E04F
:10239000FC01EC51FE4F2491FC01E256FE4F84916A
:1023A000882361F190E0880F991FFC01E659FE4FE8
:1023B000C591D491FC01EC57FE4FA591B4916111E8
:1023C00009C09FB7F8948881209582238883EC9177
:1023D0002E230BC0623061F49FB7F8943881822FAE
:1023E000809583238883EC912E2B2C939FBF06C06E
:1023F0008FB7F894E8812E2B28838FBFDF91CF9180
:102400000895CF93DF93FC012281222329F1EC016F
:1024100061E08381BADF61E08C81B7DF8A8184303B
:1024200011F0883031F461E08D81AFDF61E08E81A1
:1024300006C0833011F0863019F461E08D81A5DF8C
:102440008EA58F3F49F061E0A0DF6DA581E0682790
:102450008EA5DF91CF916DCBDF91CF910895CF9372
:10246000DF93FC012281222399F0EC010190F0819D
:10247000E02D0480F581E02D60E019958EA58F3F59
:1024800039F061E082DF6DA58EA5DF91CF9151CB50
:10249000DF91CF9108951F920F920FB60F921124E2
:1024A0002F933F938F939F93AF93BF93809102039A
:1024B00090910303A0910403B091050330910103AF
:1024C00023E0230F2D3720F40196A11DB11D05C077
:1024D00026E8230F0296A11DB11D209301038093CE
:1024E000020390930303A0930403B0930503809128
:1024F000FD029091FE02A091FF02B09100030196AF
:10250000A11DB11D8093FD029093FE02A093FF02D6
:10251000B0930003BF91AF919F918F913F912F9105
:102520000F900FBE0F901F901895CF93DF93DC0193
:10253000FB01828112968C931297438154816581AD
:10254000768113964D935D936D937C931697478197
:1025500050856185728517964D935D936D937C933D
:102560001A9743855485658576851B964D935D93B3
:102570006D937C931E9747855089618972891F9658
:102580004D935D936D937C935297438954896589EC
:10259000768953964D935D936D937C9356974789B7
:1025A000508D618D728D57964D935D936D937C9395
:1025B0005A97438D548D658D768D5B964D935D93C3
:1025C0006D937C935E97478D50A161A172A15F9638
:1025D0004D935D936D937C93929743A154A165A114
:1025E00076A193964D935D936D937C93969747A1B7
:1025F00050A561A572A597964D935D936D937C93BD
:102600009A9783A594A59C969C938E939B9785A55A
:102610009D968C939D9786A59E968C939E9787A555
:1026200090A9D0969C938E939F9781A992A9D296B8
:102630009C938E93D19743A954A965A976A9D39663
:102640004D935D936D937C93D69747A950AD61AD43
:1026500072ADD7964D935D936D937C93DA9743ADAE
:1026600054AD65AD76ADDB964D935D936D937C93E4
:10267000DE97EF01EF96488159816A817B81ED01F8
:10268000EF96488359836A837B83ED5BFF4F80819C
:10269000FD01ED5BFF4F8083CD01DF91CF91089568
:1026A0001F920F920FB60F9211240BB60F922F9319
:1026B0003F934F935F936F937F938F939F93AF93CA
:1026C000BF93EF93FF9380910D0390910E0380933E
:1026D000B2008091100390911103A0911203B09168
:1026E00013030196A11DB11D809310039093110354
:1026F000A0931203B09313038091100390911103E0
:10270000A0911203B09113034091090350910A0361
:1027100060910B0370910C0384179507A607B70708
:1027200010F180910F0381111EC081E080930F038F
:102730008091100390911103A0911203B0911303A3
:10274000841B950BA60BB70B80931003909311037A
:10275000A0931203B0931303E0910703F0910803D1
:10276000199510920F03FF91EF91BF91AF919F9137
:102770008F917F916F915F914F913F912F910F902A
:102780000BBE0F900FBE0F901F9018954F925F9247
:102790006F927F928F929F92AF92BF92CF92DF9271
:1027A000EF92FF92CF93DF93EC016A017B018B8C58
:1027B0009C8CAD8CBE8C9A01AB01C501B4010E940A
:1027C000BA2A882309F448C06BA97CA98DA99EA9BF
:1027D0000E94C02A2B013C01A7019601C501B4014A
:1027E0000E945B249B01AC01C301B2010E941F2B1C
:1027F0000E94C3246BAB7CAB8DAB9EABA701960153
:1028000060E070E080E090E40E945B240E94FC2481
:1028100026E53EE04DE25FE30E941F2B20E034E21C
:1028200044E759E40E941F2B6FAB78AF89AF9AAF92
:10283000CB8EDC8EED8EFE8ECE01DF91CF91FF90A0
:10284000EF90DF90CF90BF90AF909F908F907F9050
:102850006F905F904F90C9CBDF91CF91FF90EF9039
:10286000DF90CF90BF90AF909F908F907F906F90B0
:102870005F904F900895CF92DF92EF92FF920F9367
:102880001F93CF93DF93EC016A017B019A01AB01A7
:102890006F89788D898D9A8D0E94BA2A882309F4D0
:1028A00045C0CF8AD88EE98EFA8E8E01015C1F4F0B
:1028B000A701960160E074E284E799E40E945B243A
:1028C000F80160837183828393838BA99CA9ADA94E
:1028D000BEA9181619061A061B0644F56B897C89D1
:1028E0008D899E899B01AC010E941F2B6B017C018D
:1028F0006B8D7C8D8D8D9E8D9B01AC010E94F7238D
:102900009B01AC01C701B6010E945B240E94C32455
:102910006BAB7CAB8DAB9EABCE01DF91CF911F91AA
:102920000F91FF90EF90DF90CF905FCBDF91CF9131
:102930001F910F91FF90EF90DF90CF900895CF926D
:10294000EF920F93CF93DF93EC0188E192E09983AC
:1029500088836A831B861C861D861E861F86188AAE
:10296000198A1A8A1B8A1C8A1D8A1E8A80E090E0B6
:10297000A0E8BFE38F8B988FA98FBA8F1B8E1C8E18
:102980001D8E1E8E8F8F98A3A9A3BAA31BA21CA273
:102990001DA21EA261E070E07CA76BA73FEF3EA7DF
:1029A0001FA218A619A61AA64B832C830D83EE82AC
:1029B0001BAA1CAA1DAA1EAA1FAA18AE19AE1AAEDF
:1029C0001BAE1CAE1DAE1EAEFE01FF968083918332
:1029D000A283B383349610821F82188619861A86C2
:1029E000CC2011F0CE010DDD40E050E060E87FE347
:1029F000CE01DF91CF910F91EF90CF90C7CECF92C4
:102A0000DF92EF92FF92CF93DF93EC018BA19CA119
:102A1000ADA1BEA1892B8A2B8B2B09F45BC03FB7DC
:102A2000F8948091FD029091FE02A091FF02B09176
:102A3000000326B5A89B05C02F3F19F00196A11DE4
:102A4000B11D3FBFCC24D82EE92EFA2EC20ED11CC8
:102A5000E11CF11C42E0CC0CDD1CEE1CFF1C4A9575
:102A6000D1F78FA198A5A9A5BAA5B701A601481BC2
:102A7000590B6A0B7B0B8BA19CA1ADA1BEA1481782
:102A800059076A077B0730F1FE01ED5BFF4F20819C
:102A90008B859C85AD85BE85222321F00196A11DE5
:102AA000B11D03C00197A109B1098B879C87AD8730
:102AB000BE87E881F9814B855C856D857E850680C2
:102AC000F781E02DCE011995CFA2D8A6E9A6FAA6E6
:102AD000CE018BDA20E030E0A9016B897C898D89F9
:102AE0009E890E94BA2A811110C081E0CF84D888C3
:102AF000E988FA884B855C856D857E85C416D50688
:102B0000E606F70619F480E001C081E0DF91CF917D
:102B1000FF90EF90DF90CF9008950F931F93FC01EB
:102B20000785108921893289041715072607370779
:102B300039F04787508B618B728B1F910F9155CA6B
:102B40001F910F9108950F931F93FC010385148526
:102B500025853685400F511F621F731F1F910F91EE
:102B6000DCCF8F929F92AF92BF92CF92DF92EF9283
:102B7000FF92CF93DF93EC018B889C88AD88BE8851
:102B800020E030E0A901C501B4010E94BA2A8823DF
:102B900009F43EC0A5019401C501B4010E941F2B98
:102BA0006B017C016B8D7C8D8D8D9E8D9B01AC01AD
:102BB0000E94F7239B01AC01C701B6010E945B2470
:102BC0000E94C3246B017C012FEFC21AD20AE20AD1
:102BD000F20A20E030E0A901C501B4010E94F4240A
:102BE00018161CF4B701A60107C044275527BA01DF
:102BF0004C195D096E097F09CE01DF91CF91FF90DD
:102C0000EF90DF90CF90BF90AF909F908F909BCF31
:102C1000DF91CF91FF90EF90DF90CF90BF90AF907A
:102C20009F908F900895FB014181DC0112962C91B9
:102C30001297421768F013962C911397241740F0BF
:102C4000608115962C91621718F424810C94950AD2
:102C5000089583E393E00E94540D21E0892B09F449
:102C600020E0822F0895EF92FF920F931F93CF934E
:102C7000DF93EC0181E0888F9B8D8C8D981305C0CC
:102C8000E889F989808185FD23C0F62E0B8D10E03F
:102C90000F5F1F4F0F731127E02E8C8DE8120BC0B2
:102CA0000FB607FCFACFE889F989808185FFF5CF57
:102CB000CE014ADBF2CF8B8DFE01E80FF11DE35A06
:102CC000FF4FF0820B8FEA89FB898081806207C009
:102CD000EE89FF896083E889F98980818064808337
:102CE00081E090E0DF91CF911F910F91FF90EF90E5
:102CF0000895CF93DF93EC01888D8823C1F0EA8992
:102D0000FB89808185FD05C0A889B9898C9186FDE4
:102D10000EC00FB607FCF5CF808185FFF2CFA889E2
:102D2000B9898C9185FFEDCFCE010EDBE8CFDF9125
:102D3000CF9108951F920F920FB60F9211240BB6E8
:102D40000F922F933F934F935F936F937F938F9344
:102D50009F93AF93BF93EF93FF9383E393E0F4DAF2
:102D6000FF91EF91BF91AF919F918F917F916F9163
:102D70005F914F913F912F910F900BBE0F900FBE1F
:102D80000F901F9018951F920F920FB60F9211245B
:102D90000BB60F922F938F939F93EF93FF93E09136
:102DA0004303F09144038081E0914903F0914A0389
:102DB00082FD12C0908180914C038F5F8F732091B0
:102DC0004D03821751F0E0914C03F0E0ED5CFC4FB5
:102DD000958F80934C0301C08081FF91EF919F916B
:102DE0008F912F910F900BBE0F900FBE0F901F90E1
:102DF0001895CF92DF92EF92FF920F931F93CF938C
:102E0000DF936C017A018B01C0E0D0E0CE15DF05C5
:102E100089F0D8016D918D01D601ED91FC91019061
:102E2000F081E02DC6011995892B11F47E0102C0B5
:102E30002196ECCFC701DF91CF911F910F91FF90A9
:102E4000EF90DF90CF900895FC0124813581232BF2
:102E500031F421E061157105A1F0FB0108C0FC010E
:102E6000808191816115710531F421E0FC0180813F
:102E7000882339F005C00E947E2721E0892B09F0C4
:102E800020E0822F08950E946027FC0180819181BB
:102E90006130710551F4009719F4718360830895CE
:102EA000019769F482E090E005C00197029728F449
:102EB00083E090E0918380830895118210820895C9
:102EC000CF9384EA8093BC0061E080E80E947A0C92
:102ED000882359F08091B900887F883041F0803193
:102EE00031F061E082E00E94710CC0E01DC088E713
:102EF0008093BB0084E88093BC0062E080E80E947D
:102F00007A0C882391F380911C03C82FC27081FD35
:102F10000AC08091B900887F883129F062E082E0A0
:102F20000E94710C01C0C1E08C2FCF910895FC016B
:102F300080819181009711F00C947F2A60E070E00D
:102F4000CB0108952F923F924F925F926F927F92A2
:102F50008F929F92AF92BF92CF92DF92EF92FF92A9
:102F60000F931F93CF93DF9300D01F92CDB7DEB79F
:102F7000FC01448055804114510409F413C1FB0144
:102F8000648075806114710409F40CC17A016B01CD
:102F90009C838B83FA01A480B580A618B708FC0136
:102FA00000811181A114B104C1F4F6016081718125
:102FB000C8010E949C275C01892B09F4F3C0F7012A
:102FC0006081718144815581C5010E946427F701A8
:102FD000048115810A0D1B1DE8CFB7FE02C0480110
:102FE00006C0FB01208031804201C80148C0F601C3
:102FF00060817181C4010E949C272C01892B29F1D9
:10300000320168187908A301B401C8010E9464273D
:10301000060D171DF7016081718144815581C8013A
:103020000E946427F70184819581080F191FF6011A
:1030300084809580840C951CEB81FC818481958132
:103040008A0D9B1D95838483D2CFB401C8010F9054
:103050000F900F900F90DF91CF911F910F91FF90E4
:10306000EF90DF90CF90BF90AF909F908F907F9028
:103070006F905F904F903F902F900C948727B101F5
:103080000E949C27009729F0860D971D8A0C9B1C97
:10309000F6CF8414950409F485C0EB81FC8182810C
:1030A00093818815990578F4B4016F5F7F4FC8014B
:1030B0000E947C26009709F475C0EB81FC81918306
:1030C000808393828282EB81FC810481158101508F
:1030D000110917FD67C0F6012480358021143104E1
:1030E00009F460C0EB81FC81648075806114710417
:1030F00009F458C06214730408F454C00615170587
:1031000018F0830101501109EB81FC81408051804E
:10311000C20188248A94982C9201200F311F28170D
:10312000390758F0F6016081718129833A830E9442
:103130009C2729813A81009761F597FC33C0280CC0
:10314000391CC201820D931DA30142195309BC0110
:103150008A0D9B1D0E946D27EB81FC8184819581E6
:103160008A0D9B1D9583848320813181F901E80FAD
:10317000F91F1082EB81FC8180819181F7016081D0
:10318000718144815581880D991D0E9464278401B5
:103190009ECFAC01441955090417150708F04A01E0
:1031A0000196BDCF0F900F900F900F90DF91CF91B0
:1031B0001F910F91FF90EF90DF90CF90BF90AF9055
:1031C0009F908F907F906F905F904F903F902F9047
:1031D0000895FC01248135816217730748F48081CA
:1031E0009181009729F0FC01E60FF71F8081089577
:1031F00080E00895FC01248135816217730720F473
:1032000080819181009729F41092240384E293E055
:103210000895860F971F0895EF92FF920F931F93C3
:10322000CF93DF937C018B01CB010A96FB0120E257
:103230002193E817F907E1F7C0E0D0E0BE01C7012C
:10324000D9DFFC018081882361F0BE01C701D2DF94
:10325000FC018081F80181938F012196CA30D1054C
:1032600069F7DF91CF911F910F91FF90EF90089533
:10327000FB0144815581FC012481358124173507E8
:1032800078F080819181009759F0FB016081718114
:103290006115710529F00E948E2721E0892B09F024
:1032A00020E0822F08950F931F93CF93DF93EC01BB
:1032B00088819981009729F02A813B812617370759
:1032C00088F48B016F5F7F4F0E947C26009761F02E
:1032D000998388831B830A832C813D81232B11F4DE
:1032E000FC01108281E001C080E0DF91CF911F914D
:1032F0000F910895CF93DF93EC0188819981009716
:1033000011F00E94E425198218821D821C821B8202
:103310001A82DF91CF910895EF92FF920F931F933E
:10332000CF93DF93EC017B018A01BA01BCDF8111ED
:1033300003C0CE01DFDF07C01D830C83B701888186
:1033400099810E948727CE01DF91CF911F910F9124
:10335000FF90EF900895CF93DF93EC016115710515
:1033600051F0FB0101900020E9F73197AF01461BB6
:10337000570BD2DF01C0BEDFCE01DF91CF910895A0
:10338000CF93DF93EC01FB018617970751F0608123
:1033900071816115710521F044815581BDDF01C046
:1033A000A9DFCE01DF91CF910895FC018081918149
:1033B0000C94E425FC011182108213821282158282
:1033C0001482DECFFC0111821082138212821582D8
:1033D00014826115710549F0FB0101900020E9F7A5
:1033E0003197AF01461B570B97CF0895FF920F936C
:1033F0001F93CF93DF93CDB7DEB76E970FB6F894D8
:10340000DEBF0FBECDBF8C0180912503811108C0A6
:1034100062E672E08EE193E0D5DF81E080932503E0
:10342000F80124813581809122039091230328178C
:10343000390749F58081918160911E0370911F03C6
:10344000009719F061157105C9F46115710559F0FE
:10345000232B09F445C2FB01208130E088279927FE
:10346000821B930B0DC0009709F43AC2232B09F479
:1034700037C2FC019081892F90E002C00E947E2714
:10348000892B09F42DC2B801CE01499693DF62E67B
:1034900072E0CE01019696DF61E672E0CE010796FA
:1034A00091DFAE014F5F5F4FBE01695F7F4FCE017D
:1034B000499648DDCE01079678DFCE01019675DF8B
:1034C000BE01675E7F4FCE01439674DF6AEA72E009
:1034D000CE01019677DFBE016F5F7F4FCE0143962D
:1034E000C7DEF82ECE01019660DFFF2009F43BC055
:1034F000BE016D5E7F4FCE010D965CDF62E672E02D
:10350000CE0107965FDF6AEA72E0CE0101965ADFCC
:10351000AE01495F5F4FBE016F5F7F4FCE010D96D9
:1035200011DDCE01019641DFCE0107963EDFBE01DF
:10353000635F7F4FCE0101963DDFCE0101969CD3A4
:10354000F82ECE01019631DFFF2051F0CE010D960D
:10355000EEDC0E94C02AAB01BC0182EA94E08BD968
:10356000CE010D9622DF62EB72E0CE0101962ADFDA
:10357000BE016F5F7F4FCE0143967ADEF82ECE01FB
:10358000019613DFFF2009F439C0BE016D5E7F4F45
:10359000CE010D960FDF62E672E0CE01079612DFD4
:1035A00062EB72E0CE0101960DDFAE01495F5F4F25
:1035B000BE016F5F7F4FCE010D96C4DCCE01019638
:1035C000F4DECE010796F1DEBE01635F7F4FCE01D0
:1035D0000196F0DECE0101964FD3F82ECE01019672
:1035E000E4DEFF2041F0CE010D96A1DCAB01BC0171
:1035F00082EA94E092DACE010D96D7DE6DEA72E0AF
:10360000CE01439621DC81117CC164EB72E0CE01D6
:1036100043961ADC811175C1CE014396C6DEBE0108
:10362000675E7F4FCE014396C5DE69EB72E0CE0147
:103630000196C8DEBE016F5F7F4FCE01439618DE54
:10364000F82ECE010196B1DEFF2009F43BC0BE0189
:103650006D5E7F4FCE010D96ADDE62E672E0CE016B
:103660000796B0DE69EB72E0CE010196ABDEAE01EB
:10367000495F5F4FBE016F5F7F4FCE010D9662DCE9
:10368000CE01019692DECE0107968FDEBE01635F0A
:103690007F4FCE0101968EDECE010196EDD2F82E3F
:1036A000CE01019682DEFF2051F0CE010D963FDC67
:1036B0000E94C02AAB01BC018EE594E0DCD8CE01AB
:1036C0000D9673DE61EC72E0CE0101967BDEBE01E9
:1036D0006F5F7F4FCE014396CBDDF82ECE01019672
:1036E00064DEFF2009F439C0BE016D5E7F4FCE015C
:1036F0000D9660DE62E672E0CE01079663DE61EC55
:1037000072E0CE0101965EDEAE01495F5F4FBE0101
:103710006F5F7F4FCE010D9615DCCE01019645DE21
:10372000CE01079642DEBE01635F7F4FCE01019658
:1037300041DECE010196A0D2F82ECE01019635DEF3
:10374000FF2041F0CE010D96F2DBAB01BC018EE50E
:1037500094E0E3D9CE010D9628DE6CEB72E0CE0149
:10376000439672DB8111D1C064EB72E0CE014396C7
:103770006BDB8111CAC0CE01439617DEBE01675EC6
:103780007F4FCE01439616DE63EC72E0CE010196C8
:1037900019DEBE016F5F7F4FCE01439669DDF82EC3
:1037A000CE01019602DEFF2009F43BC0BE016D5E32
:1037B0007F4FCE010D96FEDD62E672E0CE010796E8
:1037C00001DE63EC72E0CE010196FCDDAE01495FE3
:1037D0005F4FBE016F5F7F4FCE010D96B3DBCE0111
:1037E0000196E3DDCE010796E0DDBE01635F7F4F0A
:1037F000CE010196DFDDCE0101963ED2F82ECE013C
:103800000196D3DDFF2051F0CE010D9690DB0E9492
:10381000C02AAB01BC018AE194E02DD8CE010D96FF
:10382000C4DD6BEC72E0CE010196CCDDBE016F5FB2
:103830007F4FCE0143961CDDF82ECE010196B5DDFB
:10384000FF2009F439C0BE016D5E7F4FCE010D9699
:10385000B1DD62E672E0CE010796B4DD6BEC72E09A
:10386000CE010196AFDDAE01495F5F4FBE016F5FD4
:103870007F4FCE010D9666DBCE01019696DDCE011F
:10388000079693DDBE01635F7F4FCE01019692DD07
:10389000CE010196F1D1F82ECE01019686DDFF20F2
:1038A00041F0CE010D9643DBAB01BC018AE194E00F
:1038B00034D9CE010D9679DD66EC72E0CE014396E7
:1038C000C3DA811126C064EB72E0CE014396BCDA04
:1038D00081111FC0CE01439668DDCE01499665DD9A
:1038E000B8018EE193E04CDD4DD06E960FB6F894A2
:1038F000DEBF0FBECDBFDF91CF911F910F91FF9023
:10390000089582EA94E02DD987CE8EE594E029D9F6
:1039100032CF8AE194E025D9DDCFCF92DF92FF92BA
:103920000F931F93CF93DF931F921F92CDB7DEB7F4
:10393000F82E062FE091E903F091EA0384ED93E07D
:1039400049835A831995080F4981C42E5A81D52E6F
:1039500010E0F60121916F01222349F0402F6F2DD5
:1039600084ED93E00E94180BF80E180FF2CF812F10
:103970000F900F90DF91CF911F910F91FF90DF90EB
:10398000CF900895DF92EF92FF920F931F93CF9302
:10399000DF93809100018074E82EF12CC3B1C071D7
:1039A0000C2F10E093B19072D92EDFB1D27020911C
:1039B000680530916905232B51F5882341F1109258
:1039C000AD041092AE041092AF041092B0041092A5
:1039D000B1041092B2041092B3041092B404109285
:1039E000D5041092D6041092D7041092D8041092E5
:1039F000C5041092C6041092C7041092C804109215
:103A0000B5041092B6041092B7041092B804209135
:103A1000660530916705232B51F5CC2341F11092B7
:103A2000690410926A0410926B0410926C04109254
:103A30006D0410926E0410926F0410927004109234
:103A40009104109292041092930410929404109294
:103A500081041092820410928304109284041092C4
:103A60007104109272041092730410927404811104
:103A700019C08091B1049091B204A091B304B091A7
:103A8000B4044091AD045091AE046091AF047091C4
:103A9000B004841B950BA60BB70BB7FF03C082EADB
:103AA00094E05FD8D1101CC08091B1049091B20411
:103AB000A091B304B091B4044091AD045091AE0410
:103AC0006091AF047091B004841B950BA60BB70BEB
:103AD000181619061A061B061CF482EA94E041D84F
:103AE000C11119C080916D0490916E04A0916F0472
:103AF000B09170044091690450916A0460916B0424
:103B000070916C04841B950BA60BB70BB7FF03C019
:103B10008EE594E026D8D1111CC080916D0490915F
:103B20006E04A0916F04B0917004409169045091AB
:103B30006A0460916B0470916C04841B950BA60B56
:103B4000B70B181619061A061B061CF48EE594E02E
:103B500008D8F0926905E092680510936705009314
:103B6000660582EA94E00E94FF148EE594E00E94CC
:103B7000FF148AE194E0DF91CF911F910F91FF90A4
:103B8000EF90DF900C94FF140F931F93CF93DF936C
:103B90001F921F92CDB7DEB789831A820091180455
:103BA000109119040F5F1F4FB80184E194E07BDB93
:103BB0008823A1F0209114043091150480911804F9
:103BC00090911904BE016F5F7F4F820F931F0E9477
:103BD0008727109319040093180481E00F900F9029
:103BE000DF91CF911F910F910895EF92FF920F9364
:103BF0001F93CF93DF93EC018091180490911904E7
:103C0000E0901404F09015040C811D81E114F1047E
:103C1000A9F00097A9F0080F191FB801CE0143DBE6
:103C2000882361F0288139818C819D81B701820FC1
:103C3000931F0E9487271D830C8302C0CE015ADB8D
:103C4000CE01DF91CF911F910F91FF90EF900895DA
:103C500020911804309119048217930760F490930F
:103C60001904809318042091140430911504F9016B
:103C7000E80FF91F10820895CF92DF92FF920F9301
:103C80001F93CF93DF9300D000D0CDB7DEB78C0168
:103C900062E672E0CE01019695DB60E070E0C8015B
:103CA00098DA8B3219F18D3209F1B801CE01019603
:103CB00067DBCD80DE8000E010E0F12C0C151D05E7
:103CC00089F0B801CE01019684DA8E3229F4F11020
:103CD0000BC0FF24F39403C080538A3028F40F5F95
:103CE0001F4FECCF11E00BC010E009C061E070E0A5
:103CF000C80180DABC01CE0101962DDBDACFCE01FE
:103D0000019653DB812F26960FB6F894DEBF0FBEC7
:103D1000CDBFDF91CF911F910F91FF90DF90CF909A
:103D20000895CF93DF93CDB7DEB7CA54D1090FB64C
:103D3000F894DEBF0FBECDBF789484B5826084BD99
:103D400084B5816084BD85B5826085BD85B581609F
:103D500085BD80916E00816080936E00109281001D
:103D600080918100826080938100809181008160D8
:103D70008093810080918000816080938000809199
:103D8000B10084608093B1008091B0008160809325
:103D9000B0008091910082608093910080919100A9
:103DA0008160809391008091900081608093900069
:103DB0008091A10082608093A1008091A100816028
:103DC0008093A1008091A00081608093A0008091E9
:103DD0002101826080932101809121018160809383
:103DE00021018091200181608093200180917A00DF
:103DF000846080937A0080917A00826080937A0058
:103E000080917A00816080937A0080917A00806846
:103E100080937A001092C1008FE081B980EF82B95F
:103E2000109206031C821B8282E492E09A838983AB
:103E30001CAE1DAE1EAE1A8619861C861B861E86FB
:103E400081E08D8782E28F871C8A1B8AFE01B896EB
:103E5000CE01C6962FEF2193E817F907E1F781E02D
:103E60008DA32BE833E03B8F2A8F8C8F1D8E1E8E07
:103E700080E48F8F18A287E691E19FAB8EAB88E03C
:103E800092E098878F831BAACE0105960E94B30A01
:103E90008B819C819093D3038093D20387E3FE01AF
:103EA0003596A4EDB3E001900D928A95E1F78CADC3
:103EB00080930B048DAD80930C048EAD80930D0424
:103EC0008091D8039091D9038057924009F445C05E
:103ED00080E792E09093D9038093D8038091EB031D
:103EE000811108C0E5E7F2E0E491E093EC03ECE730
:103EF000F2E011C0813041F4EFE7F2E0E491E093A9
:103F0000EC03E0E8F2E007C0EDE7F2E0E491E093D3
:103F1000EC03EEE7F2E0E491E093ED038091EC0333
:103F2000082E000C990B2091ED03821B910927FDAF
:103F300093952091EE03203441F0829FC00111241B
:103F400026E0969587952A95E1F78093EF038BE815
:103F500093E09093EA038093E90361E088E00E9494
:103F6000C51161E089E30E94C51180910201806260
:103F7000809302018B9A62E086E30E94C51162E0A1
:103F800089E00E94C51162E08AE00E94C51162E0EA
:103F90008BE00E94C51162E087E30E94C51161E0D9
:103FA00085E00E94C51161E086E00E94C51161E0D4
:103FB00087E00E94C51161E082E00E94C51161E0C6
:103FC00083E00E94C51161E084E00E94C511CC2409
:103FD000C39485E0E82E04E025E042E061E0CE01F4
:103FE00001965C010E949F14B50182EA94E00E9450
:103FF000951226E043E061E0C5010E949F14B501DF
:104000008EE594E00E94951227E044E061E0C5014E
:104010000E949F14B5018AE194E00E9495121092CB
:1040200017031092160362E672E084E194E093D9DC
:10403000109219031092180340E050E06AE774E40C
:1040400082EA94E00E943B1440E050E06AE774E4A6
:104050008EE594E00E943B1440E050E06AE774E48F
:104060008AE194E00E943B1440E050E46CE975E47E
:1040700082EA94E00E94C61340E050E46CE975E4E3
:104080008EE594E00E94C61340E050E46CE975E4CC
:104090008AE194E00E94C61380917A008B7F80931E
:1040A0007A0080917A00826080937A0080917A0011
:1040B000816080937A0081E090E0A0E0B0E080939E
:1040C000090390930A03A0930B03B0930C0385E9B3
:1040D00095E09093080380930703809170008E7F92
:1040E000809370008091B0008C7F8093B0008091AD
:1040F000B100877F8093B1008091B6008F7D80935F
:10410000B600809170008D7F809370008091B10027
:1041100084608093B1008091B1008C7F8093B10066
:1041200086E090E090930E0380930D0310921003AD
:1041300010921103109212031092130310920F03A6
:1041400080910D0390910E038093B20080917000D6
:10415000816080937000E0914303F091440382E01A
:104160008083E0913F03F09140031082E09141038E
:10417000F09142038FEC808310924B03E091470350
:10418000F091480386E08083E0914503F091460377
:10419000808180618083E0914503F09146038081B6
:1041A00088608083E0914503F091460380818068B8
:1041B0008083E0914503F091460380818F7D808369
:1041C00001E812E097EAE92E92E0F92E80910D04C1
:1041D000811106C0C0920D0484ED93E00E94B30AE1
:1041E0008090D6039090D703E0910504F0910604E7
:1041F00082E01995E0910504F091060481E019959B
:1042000020E030E044E1B40184ED93E00E94AF0A85
:1042100027E034E047E1B40184ED93E00E94AF0A67
:10422000E0910504F091060480E019958091140353
:1042300090911503009719F44EE652E00AC08130C0
:10424000910519F444E752E004C0029729F44BE7C2
:1042500052E06AE08DE261DB8091160390911703D2
:10426000009709F045C08091B0048F938091AF040E
:104270008F938091AE048F938091AD048F931F93A1
:104280000F93BF92AF9272D645E852E064E182E0AC
:1042900044DBA50164E181E140DB80916C048F93F4
:1042A00080916B048F9380916A048F93809169044D
:1042B0008F931F930F93BF92AF9258D648E852E066
:1042C0006EE182E02ADBA5016EE181E126DB8091CF
:1042D00028048F93809127048F93809126048F93D5
:1042E000809125048F931F930F93BF92AF928AC042
:1042F0008130910509F038C04EE852E064E182E077
:104300000CDB64E174E0CE018B5B9F4F53D8B501A9
:10431000CE018B5B9F4F0E940C19CE018B5B9F4F90
:1043200044D8A50164E189E1F8DA42E952E064E1A8
:1043300089E1F3DA80916C048F9380916B048F9301
:1043400080916A048F93809169048F931F930F93D8
:10435000BF92AF920BD648E852E06EE182E0DDDA20
:10436000A5016EE181E13DC08230910509F054C0A4
:104370008091B0048F938091AF048F938091AE04AD
:104380008F938091AD048F931F930F93BF92AF9241
:10439000EDD545E852E064E182E0BFDAA50164E1D1
:1043A00081E1BBDA4DE952E06EE182E0B6DA64E128
:1043B00074E0CE018B5B9F4F0E94DA19B501CE01EC
:1043C0008B5B9F4F0E940C19CE018B5B9F4F0E940D
:1043D000D519A5016EE189E1A0DA42E952E06EE16A
:1043E00089E19BDA809128048F93809127048F9331
:1043F000809126048F93809125048F931F930F93B0
:10440000BF92AF92B3D54BE852E068E282E085DA22
:10441000A50168E281E156C0039709F059C0809177
:10442000B0048F938091AF048F938091AE048F93EB
:104430008091AD048F931F930F93BF92AF9296D547
:1044400045E852E064E182E068DAA50164E181E1D7
:1044500064DA80916C048F9380916B048F938091C8
:104460006A048F93809169048F931F930F93BF9277
:10447000AF927CD548E852E06EE182E04EDAA501C9
:104480006EE181E14ADA41EA52E068E282E045DA2F
:1044900064E174E0CE018B5B9F4F0E94DA19B50195
:1044A000CE018B5B9F4F0E940C19CE018B5B9F4FFF
:1044B0000E94D519A50168E289E12FDA42E952E0AC
:1044C00068E289E12ADA0FB6F894DEBF0FBECDBFED
:1044D00080911803909119038130910561F0029742
:1044E00079F445EA52E064E18EE617DA45EA52E0F3
:1044F0006EE18EE612DA45EA52E068E28EE60DDA07
:1045000080911B038F9380911A038F93FF92EF92F8
:10451000BF92AF922BD5A50162E382E0FED96EE097
:1045200074E0CE018B5B9F4F0E94DA19B501CE017A
:104530008B5B9F4F0E940C19CE018B5B9F4F0E949B
:10454000D519A50162E388E2E8D9E091E203F09190
:10455000E3030F900F900F900F900F900F903097F4
:1045600019F084ED93E019958090D6039090D703CD
:10457000E0910504F091060482E01995E0910504AC
:10458000F091060481E0199520E030E045E1B401A6
:1045900084ED93E00E94AF0AD82E882341F027E0F3
:1045A00034E047E1B40184ED93E00E94AF0AE0916A
:1045B0000504F091060480E01995D11037CE0E94D1
:1045C000600D04CE8EE094E00E94D51984E194E061
:1045D0000C94D519CF92EF920F931092360310924C
:1045E000350388EE93E0A0E0B0E08093370390932A
:1045F0003803A0933903B0933A0382E392E0909397
:1046000034038093330385EC90E0909340038093D0
:104610003F0384EC90E0909342038093410380EC4D
:1046200090E0909344038093430381EC90E0909357
:1046300046038093450382EC90E090934803809377
:10464000470386EC90E090934A03809349031092CD
:104650004C0310924D0310924E0310924F03CC2442
:10466000C39485E0E82E04E023E042E064E082EABF
:1046700094E00E949F1423E042E064E08EE594E021
:104680000E949F1423E042E064E08AE194E00E94EB
:104690009F1462E672E084E194E00E94E2191092B5
:1046A000D3031092D20382E492E09093D1038093DB
:1046B000D00310920B0410920C0410920D0410926F
:1046C000D9031092D8031092DB031092DA031092F0
:1046D000DD0381E08093DC0382E28093DE031092AD
:1046E000E3031092E203E7EFF3E09FEF8EE08E0F1B
:1046F00091938E13FDCF81E08093F4032BE833E098
:104700003093EA032093E9038093EB031092EC03C8
:104710001092ED0380E48093EE031092EF0387E69E
:1047200091E1909306048093050488E092E09093D1
:10473000D7038093D6031092020484ED93E00E9485
:10474000B30A82E592E09093D1038093D00363E6AD
:1047500072E08EE094E00F91EF90CF900C94E2190C
:10476000052E97FB16F400940FD057FD05D01CD0F2
:1047700007FC02D046F408C050954095309521952D
:104780003F4F4F4F5F4F089590958095709561957D
:104790007F4F8F4F9F4F0895EE0FFF1F881F8BBFD6
:1047A0000790F691E02D1994A1E21A2EAA1BBB1BCB
:1047B000FD010DC0AA1FBB1FEE1FFF1FA217B307ED
:1047C000E407F50720F0A21BB30BE40BF50B661F03
:1047D000771F881F991F1A9469F7609570958095C7
:1047E00090959B01AC01BD01CF0108955058BB27A6
:1047F000AA270ED09EC78FD730F094D720F031F47F
:104800009F3F11F41EF484C70EF4E095E7FB7AC7CE
:10481000E92FA0D780F3BA176207730784079507BB
:1048200018F071F49EF5B8C70EF4E0950B2EBA2F70
:10483000A02D0B01B90190010C01CA01A0011124A6
:10484000FF27591B99F0593F50F4503E68F11A1652
:10485000F040A22F232F342F4427585FF3CF4695E3
:1048600037952795A795F0405395C9F77EF41F1605
:10487000BA0B620B730B840BBAF09150A1F0FF0FCF
:10488000BB1F661F771F881FC2F70EC0BA0F621FBB
:10489000731F841F48F4879577956795B795F795AB
:1048A0009E3F08F0B3CF9395880F08F09927EE0F3D
:1048B0009795879508950CD03CC734D740F02BD7F7
:1048C00030F021F45F3F19F01DC7511166C720C7B2
:1048D00041D798F39923C9F35523B1F3951B550B91
:1048E000BB27AA2762177307840738F09F5F5F4FC3
:1048F000220F331F441FAA1FA9F333D00E2E3AF004
:10490000E0E830D091505040E695001CCAF729D01D
:10491000FE2F27D0660F771F881FBB1F261737076C
:104920004807AB07B0E809F0BB0B802DBF01FF279C
:1049300093585F4F2AF09E3F510568F0E3C62DC79C
:104940005F3FECF3983EDCF3869577956795B795D6
:10495000F7959F5FC9F7880F911D9695879597F9F1
:104960000895E1E0660F771F881FBB1F621773076A
:104970008407BA0720F0621B730B840BBA0BEE1F7F
:1049800088F7E095089504D06894B11106C708959A
:10499000E9D688F09F5790F0B92F9927B751A0F02A
:1049A000D1F0660F771F881F991F1AF0BA95C9F7C3
:1049B00012C0B13081F0F0D6B1E00895EDC6672F96
:1049C000782F8827B85F39F0B93FCCF38695779573
:1049D0006795B395D9F73EF490958095709561955C
:1049E0007F4F8F4F9F4F089506D608F48FEF08959D
:1049F00011F40EF48DC63EC0B5D6D0F39923D9F389
:104A0000CEF39F57550B87FF43D00024A0E640EA22
:104A1000900180585695979528F4805C660F771F13
:104A2000881F20F026173707480730F4621B730BE6
:104A3000840B202931294A2BA69517940794202509
:104A400031254A2758F7660F771F881F20F0261751
:104A50003707480730F4620B730B840B200D311DB0
:104A6000411DA09581F7B901842F9158880F969523
:104A7000879508959F3F31F0915020F48795779561
:104A80006795B795880F911D9695879597F9089525
:104A900091505040660F771F881FD2F70895CF932B
:104AA000DF938230910510F482E090E0E0916C0594
:104AB000F0916D0520E030E0C0E0D0E0309711F1DA
:104AC0004081518148175907C0F04817590761F4D0
:104AD00082819381209719F09B838A832BC09093C6
:104AE0006D0580936C0526C02115310519F042171C
:104AF000530718F49A01BE01DF01EF010280F38130
:104B0000E02DDCCF2115310509F1281B390B2430AC
:104B1000310590F412968D919C9113976115710552
:104B200021F0FB019383828304C090936D058093F1
:104B30006C05FD01329644C0FD01E20FF31F819325
:104B40009193225031092D933C933AC020916A05EC
:104B500030916B05232B41F420911002309111020A
:104B600030936B0520936A0520910E0230910F025D
:104B70002115310541F42DB73EB7409112025091F5
:104B80001302241B350BE0916A05F0916B05E217C7
:104B9000F307A0F42E1B3F0B2817390778F0AC0160
:104BA0004E5F5F4F2417350748F04E0F5F1F50933D
:104BB0006B0540936A058193919302C0E0E0F0E0B9
:104BC000CF01DF91CF9108950F931F93CF93DF9380
:104BD000009709F48CC0FC01329713821282009175
:104BE0006C0510916D050115110581F4208131814D
:104BF000820F931F20916A0530916B0528173907A2
:104C000079F5F0936B05E0936A0571C0D80140E037
:104C100050E0AE17BF0750F412962D913C911397B8
:104C2000AD012115310509F1D901F3CF9D01DA015B
:104C30003383228360817181860F971F82179307C8
:104C400069F4EC0128813981260F371F2E5F3F4F11
:104C5000318320838A819B8193838283452B29F42E
:104C6000F0936D05E0936C0542C01396FC93EE93B0
:104C70001297ED01499159919E01240F351FE217BA
:104C8000F30771F480819181840F951F029611962C
:104C90009C938E938281938113969C938E9312970B
:104CA000E0E0F0E0D80112968D919C911397009767
:104CB00019F0F8018C01F6CF8D919C9198012E5F2F
:104CC0003F4F820F931F20916A0530916B05281783
:104CD000390769F4309729F410926D0510926C052C
:104CE00002C01382128210936B0500936A05DF9154
:104CF000CF911F910F9108956F927F928F929F9203
:104D0000AF92BF92CF92DF92EF92FF920F931F93D9
:104D1000CF93DF93EC01009781F4CB01DF91CF912A
:104D20001F910F91FF90EF90DF90CF90BF90AF90C9
:104D30009F908F907F906F90B2CEFC01E60FF71F8F
:104D40009C0122503109E217F30708F4A8C0D901E9
:104D50000D911C91119706171707A8F00530110542
:104D600008F49BC0C80104978617970708F495C0FC
:104D700002501109061B170B019311936D937C933D
:104D8000CF0122DF8AC05B01A01AB10A4C01800E5C
:104D9000911EA0916C05B0916D0540E050E0E12CB2
:104DA000F12C109709F44AC0A815B905D1F56D90FA
:104DB0007C901197630182E0C80ED11CCA14DB04F9
:104DC00080F1A3014A195B096A0182E0C80ED11C77
:104DD0001296BC9012971396AC91B5E0CB16D10405
:104DE00040F0B282A38351834083D9016D937C93B9
:104DF0000AC00E5F1F4FC301800F911FF9019183FD
:104E00008083EB2DFA2FE114F10431F0D7011396D2
:104E1000FC93EE93129741C0F0936D05E0936C05FF
:104E20003CC08D919C9111974817590708F4AC012B
:104E30007D0112960D90BC91A02DB3CF80916A0593
:104E400090916B0588159905E1F446175707C8F44A
:104E500080910E0290910F02009741F48DB79EB79A
:104E60004091120250911302841B950BE817F90729
:104E7000B0F4F0936B05E0936A05F90171836083E8
:104E80000CC0CB010CDE7C01009749F0A801BE01EB
:104E90001BD0CE0199DEC70104C0CE0102C080E064
:104EA00090E0DF91CF911F910F91FF90EF90DF90F5
:104EB000CF90BF90AF909F908F907F906F9008950C
:104EC00081E090E0F8946FC4FB01DC0102C0019026
:104ED0000D9241505040D8F708956817790768F44B
:104EE000FB01DC01E40FF51FA40FB51F02C0029007
:104EF0000E9241505040D8F70895E6CFFB01DC01F7
:104F00008D91019080190110D9F3990B0895FB013F
:104F1000DC0101900D920020E1F70895FB01DC0116
:104F20004150504030F08D910190801919F40020CB
:104F3000B9F7881B990B0895FB0151915523A9F0EE
:104F4000BF01DC014D9145174111E1F759F4CD0145
:104F50000190002049F04D9140154111C9F3FB012A
:104F60004111EFCF81E090E0019708950F931F93D7
:104F7000CF93DF93CDB7DEB72E970FB6F894DEBF91
:104F80000FBECDBF0E891F8986E08C831A830983EB
:104F90008FEF9FE79E838D83AE01465E5F4F688DE6
:104FA000798DCE01019611D02F813885F801E20F5D
:104FB000F31F10822E960FB6F894DEBF0FBECDBF42
:104FC000DF91CF911F910F9108952F923F924F92B1
:104FD0005F926F927F928F929F92AF92BF92CF9289
:104FE000DF92EF92FF920F931F93CF93DF93CDB792
:104FF000DEB72C970FB6F894DEBF0FBECDBF7C0195
:105000006B018A01FC0117821682838181FFB0C186
:10501000CE0101964C01F7019381F60193FD859134
:1050200093FF81916F01882309F49EC1853239F481
:1050300093FD859193FF81916F01853221F4B70132
:1050400090E0C7D1E8CF512C312C20E02032A0F4E1
:105050008B3269F030F4803259F0833269F4206188
:105060002CC08D3239F0803339F4216026C02260A3
:10507000246023C0286021C027FD27C030ED380FF1
:105080003A3078F426FF06C0FAE05F9E300D112416
:10509000532E13C08AE0389E300D1124332E206227
:1050A0000CC08E3221F426FD5FC1206406C08C3610
:1050B00011F4206802C0883641F4F60193FD859111
:1050C00093FF81916F018111C1CF982F9F7D9554DE
:1050D000933028F40C5F1F4FFFE3F9830DC0833634
:1050E00031F0833771F0833509F057C021C0F801E2
:1050F000808189830E5F1F4F44244394512C5401B7
:1051000014C03801F2E06F0E711CF801A080B1806C
:1051100026FF03C0652D70E002C06FEF7FEFC50171
:105120002C874CD12C0183012C852F77222E16C081
:105130003801F2E06F0E711CF801A080B18026FFEB
:1051400003C0652D70E002C06FEF7FEFC5012C87B3
:105150002AD12C012C852068222E830123FC19C022
:10516000832D90E048165906A0F4B70180E290E044
:1051700030D13A94F5CFF50127FC859127FE819136
:105180005F01B70190E025D131103A94F1E04F1A58
:1051900051084114510479F7DEC0843611F0893684
:1051A00031F5F80127FF07C0608171818281938109
:1051B0000C5F1F4F08C060817181072E000C880BA7
:1051C000990B0E5F1F4F2F76722E97FF09C0909597
:1051D0008095709561957F4F8F4F9F4F2068722EFD
:1051E0002AE030E0A4012DD1A82EA81843C08537AD
:1051F00029F42F7EB22E2AE030E025C0F22FF97F6D
:10520000BF2E8F36C1F018F4883579F0ADC08037E5
:1052100019F0883721F0A8C02F2F2061B22EB4FEDC
:105220000DC08B2D8460B82E09C024FF0AC09F2FAB
:105230009660B92E06C028E030E005C020E130E0DD
:1052400002C020E132E0F801B7FE07C06081718141
:10525000828193810C5F1F4F06C06081718180E065
:1052600090E00E5F1F4FA401ECD0A82EA818FB2DD4
:10527000FF777F2E76FE0BC0372D3E7FA51450F4AE
:1052800074FE0AC072FC08C0372D3E7E05C0BA2CE1
:10529000372D03C0BA2C01C0B52C34FF0DC0FE0160
:1052A000EA0DF11D8081803311F4397E09C032FF8F
:1052B00006C0B394B39404C0832F867809F0B394E6
:1052C00033FD12C030FF06C05A2CB31418F4530C2F
:1052D0005B18B32CB31460F4B70180E290E03C8714
:1052E00078D0B3943C85F6CFB31410F43B1801C0CA
:1052F000312C34FF11C0B70180E390E03C8769D0C6
:105300003C8532FF16C031FD03C088E790E002C043
:1053100088E590E0B7010CC0832F867851F031FF0B
:1053200002C08BE201C080E237FD8DE2B70190E060
:1053300050D0A51430F4B70180E390E04AD05A94DD
:10534000F8CFAA94F401EA0DF11D8081B70190E035
:1053500040D0A110F6CF332009F45DCEB70180E232
:1053600090E037D03A94F7CFF7018681978102C059
:105370008FEF9FEF2C960FB6F894DEBF0FBECDBF18
:10538000DF91CF911F910F91FF90EF90DF90CF9021
:10539000BF90AF909F908F907F906F905F904F9055
:1053A0003F902F900895FC010590615070400110CE
:1053B000D8F7809590958E0F9F1F0895FC0161503E
:1053C000704001900110D8F7809590958E0F9F1F27
:1053D00008950F931F93CF93DF93FB01238121FD4A
:1053E00003C08FEF9FEF28C022FF16C04681578170
:1053F000248135814217530744F4A081B1819D0176
:105400002F5F3F4F318320838C93268137812F5F1D
:105410003F4F3783268310C0EB01092F182F0084DC
:10542000F185E02D1995892BE1F68E819F810196FA
:105430009F838E83812F902FDF91CF911F910F91AA
:105440000895FA01AA27283051F1203181F1E8941A
:105450006F936E7F6E5F7F4F8F4F9F4FAF4FB1E067
:105460003ED0B4E03CD0670F781F891F9A1FA11D62
:10547000680F791F8A1F911DA11D6A0F711D811D63
:10548000911DA11D20D009F468943F912AE0269F28
:1054900011243019305D3193DEF6CF010895462F87
:1054A0004770405D4193B3E00FD0C9F7F6CF462F68
:1054B0004F70405D4A3318F0495D31FD40524193D1
:1054C00002D0A9F7EACFB4E0A6959795879577958E
:1054D0006795BA95C9F700976105710508959B0115
:1054E000AC010A2E06945795479537952795BA959E
:1054F000C9F7620F731F841F951FA01D08951F9386
:10550000FC0199278827BC01E89411911032E9F336
:10551000193010F01E30C8F31B3249F01D3241F42F
:10552000689405C012D0610F711D811D911D1191EC
:1055300010531A30B8F33EF49095809570956195AC
:105540007F4F8F4F9F4F1F910895592F482F372F0F
:10555000262F660F771F881F991F660F771F881FDA
:10556000991F620F731F841F951F660F771F881F77
:10557000991F089540D008F481E00895E89409C087
:1055800097FB3EF490958095709561957F4F8F4F76
:105590009F4F9923A9F0F92F96E9BB279395F6958C
:1055A000879577956795B795F111F8CFFAF4BB0F0A
:1055B00011F460FF1BC06F5F7F4F8F4F9F4F16C06E
:1055C000882311F096E911C0772321F09EE8872FF8
:1055D000762F05C0662371F096E8862F70E060E0B4
:1055E0002AF09A95660F771F881FDAF7880F96952D
:1055F000879597F90895990F0008550FAA0BE0E8D1
:10560000FEEF16161706E807F907C0F01216130684
:10561000E407F50798F0621B730B840B950B39F4C4
:105620000A2661F0232B242B252B21F408950A262A
:1056300009F4A140A6958FEF811D811D08950BD01F
:1056400078C069D028F06ED018F0952309F05AC0C0
:105650005FC01124A2C07ED0A0F3959FD1F3950F17
:1056600050E0551F629FF001729FBB27F00DB11DE6
:10567000639FAA27F00DB11DAA1F649F6627B00D76
:10568000A11D661F829F2227B00DA11D621F739F5F
:10569000B00DA11D621F839FA00D611D221F749F6D
:1056A0003327A00D611D231F849F600D211D822FB4
:1056B000762F6A2F11249F5750408AF0E1F08823FB
:1056C0004AF0EE0FFF1FBB1F661F771F881F915008
:1056D0005040A9F79E3F510570F014C05EC05F3F77
:1056E000ECF3983EDCF3869577956795B795F7953B
:1056F000E7959F5FC1F7FE2B880F911D96958795C3
:1057000097F9089597F99F6780E870E060E0089541
:105710009FEF80EC089500240A94161617061806C9
:105720000906089500240A941216130614060506A5
:105730000895092E0394000C11F4882352F0BB0F36
:1057400040F4BF2B11F460FF04C06F5F7F4F8F4F99
:105750009F4F089557FD9058440F551F59F05F3FD4
:1057600071F04795880F97FB991F61F09F3F79F083
:1057700087950895121613061406551FF2CF469505
:10578000F1DF08C0161617061806991FF1CF869587
:105790007105610508940895E894BB27662777276B
:1057A000CB0197F9089513E0CBE3D3E000E006C006
:1057B000802FFE010E94CC232196011DCC33D107FE
:0A57C00080E00807A9F7F894FFCF76
:1057CA00084000000080E60452040002E00C0000D9
:1057DA006E058000000000002F120112720FAD0F3B
:1057EA005C0F1A0FF90EC50EA40E4E0E160E00000F
:1057FA0000003316F916540D320D460D79160000C5
:10580A0000006C11F916000000004317F916000099
:10581A0000006C11F9162D002020202020202020C5
:10582A002020006E6F20636F6D6D616E6400534CB3
:10583A00454550004D415354455200534C4156453D
:10584A0000256C6400583A00593A005A3A00582D1B
:10585A003E005F5F5F5F5F5F5F5F5F5F00592D3E86
:10586A00005A2D3E002A0025640056780053544FF2
:10587A00505F580053544F500056790053544F50BC
:0E588A005F5900567A0053544F505F5A000089
:00000001FF
