:100000003BC300006AC3000068C3000066C3000071
:1000100064C3000062C3000060C300005EC3000050
:100020005CC300005AC3000058C3000056C3000060
:1000300054C3000052C3000050C300000C943E1E85
:100040004CC300004AC3000048C3000046C3000080
:1000500044C3000042C3000040C300000C94391D9B
:100060003CC300000C94410E0C94180E36C30000E3
:1000700034C3000032C3000030C300002EC30000B0
:100080002CC300002AC3000028C3000026C30000C0
:1000900024C3000022C3000020C300001EC30000D0
:1000A0001CC300001AC3000018C3000016C30000E0
:1000B00014C3000012C3000010C300000EC30000F0
:1000C0000CC300000AC3000008C3000006C3000000
:1000D00004C3000002C3000000C30000FEC2000011
:1000E000FCC200004D1A501A3F1A431A471A871AC9
:1000F000541A581A5E1A621A661A6C1A701A741A0E
:10010000871A7A1A7E1A821AB41AB81ABC1AC01A36
:10011000C41AC81ACC1A431C4A1C511C581C5F1C18
:10012000771C661C771C6D1C01080D00FE0901611F
:1001300002CD207FFE0BFE09FE0D00803219898062
:100140008080808080800080284383909090136717
:10015000874848FC48FC48481259892078A0A0707C
:100160002828F02012698944A44810102048548897
:1001700012678760909060948874381383808080C1
:100180003239892040408080804040202239898057
:1001900040402020204040801665854830FC304893
:1001A0001455852020F8202011438370608016515B
:1001B00081F821338340E04002798902020408106B
:1001C0002040808012698930488484848484483047
:1001D0001259892060A02020202020F812698978F7
:1001E00084840408304080FC126989FC04081038BB
:1001F00004048478126989081828488888FC08084B
:10020000126989FC8080B8C4040484781269893832
:10021000408080B8C4848478126989FC0408101076
:10022000202040401269897884848478848484788A
:100230001269897884848C74040408702138884099
:10024000E040000040E0401148882070200000702D
:1002500060802259890810204080402010081464D2
:1002600084FC0000FC1259898040201008102040B6
:10027000801269897884840408101000101269893A
:100280007884849CA4AC94807812698930488484F2
:1002900084FC848484126989F0888488F088848846
:1002A000F0126989788480808080808478126989DE
:1002B000F088848484848488F0126989FC8080803A
:1002C000F0808080FC126989FC808080F0808080D2
:1002D0008012698978848080809C848C74126989FA
:1002E00084848484FC84848484125989F8202020A6
:1002F00020202020F81279893E080808080808887C
:1003000070126989848890A0C0A09088841269893D
:100310008080808080808080FC0279898282C6AA69
:1003200092928282821269898484C4A4948C848487
:1003300084126989788484848484848478126989A5
:10034000F8848484F880808080116A8A7884848428
:100350008484A4947804126989F8848484F8A09031
:10036000888412698978848080780404847802798A
:1003700089FE1010101010101010126989848484E6
:10038000848484848478027989828244444428283D
:10039000281002798982828282929292AA440279FA
:1003A0008982824428102844828202798982824488
:1003B000281010101010126989FC040810204080C9
:1003C00080FC224989F080808080808080F00279E2
:1003D00089808040201008040202124989F0101020
:1003E0001010101010F0185383205088017181FEF6
:1003F0003A2282804012668678047C848C7412696A
:1004000089808080B8C48484C4B812668678848069
:10041000808478126989040404748C84848C741236
:1004200066867884FC80847812698938444040F874
:1004300040404040106888748888708078847812C2
:100440006989808080B8C48484848412588820009C
:100450006020202020F8105A8A0800180808080890
:100460008888701269898080808890E090888412E2
:1004700059896020202020202020F8027686EC92E6
:1004800092929282126686B8C484848484126686AC
:10049000788484848478106888B8C484C4B88080E0
:1004A00080106888748C848C74040404126686B886
:1004B0004440404040126686788460188478126810
:1004C000884040F8404040443812668688888888D2
:1004D00088741256868888885050200276868282D8
:1004E0009292AA4412668684483030488410688804
:1004F0008484848C74048478126686FC08102040FE
:10050000FC22598938404020C020404038321989A7
:10051000808080808080808080125989E010102047
:1005200018201010E018538348A890FFFFE0FFD177
:10053000AFFF32FFD0FFFEFFE0FFD1AEFFD0FFFEE6
:10054000FFE0FFD11000FFFEFFD0FFE0FFC1FFD1B1
:10055000AED580A83FD300408D142000A1C8DA1288
:1005600081CFD9F1DB402EA4A6AFFFD0FFFE000063
:100570002100240027002A002D0030003300010153
:100580000000040107010A010000220025002800E4
:100590002B002E003100340002010000050108018B
:1005A0000B010505050507050808080802020202F7
:1005B0000A0A0808040404040101010101010101FF
:1005C0000303030303030303040707070C0C0C0CCA
:1005D0000C0C0C0C020202020606060606060606B3
:1005E0000B0B0B0B0B0B0B0B010210202008081040
:1005F0002040102040800201020108040201010293
:10060000040810204080804020100804020180046B
:1006100002018040201008040201080402010102C6
:1006200004081020408001020408102040800000CF
:100630000A0B02090C0D0E0807030401000000005C
:1006400000000000000000000000000000000000AA
:100650000000000000000000000012111000000067
:10066000000000000000000000000000000000008A
:10067000000000004924102511241FBECFEFD1E255
:10068000DEBFCDBF00E00CBF12E0A0E0B2E0E0EBC7
:10069000FAE500E00BBF02C007900D92AA3EB10739
:1006A000D9F725E0AAEEB2E001C01D92A837B20743
:1006B000E1F713E0CBE3D3E000E006C021970109A6
:1006C000802FFE010E943425CA33D10780E008073D
:1006D000A9F70E94E61F0C94462D92CC3F924F92B0
:1006E0005F926F927F928F929F92AF92BF92CF92C2
:1006F000DF92EF92FF920F931F93CF93DF93CDB7CB
:10070000DEB768970FB6F894DEBF0FBECDBF87EF98
:1007100082B970B010B180B000B18BEF82B980B1F6
:1007200050B090B0C0B09DEF92B930B060B0A0B002
:10073000B0B09EEF92B940B0D0B0E0B0F0B0082EAB
:10074000000C990B80959095692F661F6627661F90
:1007500070E08DEF92E00E946617832D330C990BA9
:1007600080959095692F661F6627661F70E083E06D
:1007700093E00E946617842D440C990B8095909508
:10078000692F661F6627661F70E08FEF92E00E9458
:100790006617612F629566956695637011E0612713
:1007A000617070E087E093E00E946617652D6295A6
:1007B0006695669563706127617070E085E093E0EF
:1007C0000E946617662D629566956695637061272F
:1007D000617070E089E093E00E946617682D629571
:1007E000669567706127617070E088EF92E00E9403
:1007F0006617692D6295669567706127617070E074
:1008000081E093E00E9466176A2D62956695677095
:100810006127617070E086EF92E00E9466176C2D90
:1008200062956F706127617070E084EF92E00E94C2
:100830006617872D770C990B80959095692F661F09
:100840006627661F70E082EF92E00E946617D294DE
:10085000D694D69493E0D922D1266D2D617070E0A4
:1008600080EF92E00E946617E294E69427E0E2228D
:10087000E1266E2D617070E08EEE92E00E946617A8
:10088000F2943FE0F322F1266F2D617070E08BEF60
:1008900092E00E94661702950F700127602F617029
:1008A00070E08CEE92E00E9466176B2D62956F707F
:1008B0006127617070E08AEE92E00E946617809175
:1008C000FD029091FE02019711F481E301C080E0E6
:1008D00020910303309104032130310509F482E3B0
:1008E0002091FF02309100032130310509F483E3A8
:1008F00020910703309108032130310509F484E386
:1009000020910503309106032130310509F485E378
:100910002091090330910A032130310509F486E35F
:100920002091F8023091F9022130310509F487E372
:1009300020910103309102032130310509F488E34D
:100940002091F6023091F7022130310509F489E354
:100950002091F4023091F5022130310509F480E351
:100960002091EC023091ED022130310509F48AE248
:100970002091EA023091EB022130310509F483E243
:100980002091F2023091F3022130310509F481E423
:100990002091F0023091F1022130310509F482E416
:1009A0002091EE023091EF022130310509F483E409
:1009B0002091FB023091FC022130310509F484E4DE
:1009C000809317032130310549F4809126039091DB
:1009D0002703019690932703809326038091260393
:1009E00090912703039724F0109227031092260377
:1009F0008091260390912703892B59F48B9A80913B
:100A0000020180628093020110922B0310922A034C
:100A100016C08B98789B08C08091020180628093F9
:100A2000020181E090E007C0809102018F7D8093F8
:100A3000020182E090E090932B0380932A0380913F
:100A4000FA02082E000C990B2091260330912703FF
:100A50008217930721F140E050E0BA0184E694E068
:100A60000E94B41240E050E0BA0180E294E00E949B
:100A7000B41240E050E0BA018CED93E00E94B41251
:100A8000109229031092280383E393E0DAD70196AA
:100A9000D9F766E572E080ED93E00E947E1920911F
:100AA0002603309127032093FA022130310509F003
:100AB00031C280912A0390912B03029709F00CC157
:100AC000409128035091290380911703413051052B
:100AD00041F0813409F079C0309329032093280331
:100AE00074C090ED980F9A3018F40E94EE166DC005
:100AF0008A3209F043C061E672E0CE0101960E949D
:100B0000B519BE016F5F7F4F86ED93E00E944419D7
:100B1000182FCE0101960E94A8191123D9F061E780
:100B200072E0CE0101960E94B51961E672E0CE0135
:100B300007960E94B519AE014F5F5F4FBE01695F16
:100B40007F4F86ED93E00E94BF17CE0107960E946B
:100B5000A8190FC061E672E0CE0101960E94B51996
:100B6000CE0101960E941F17BC0186ED93E00E9402
:100B70009319CE0101960E94A81927C0833241F42F
:100B80008091DA039091DB03009709F09CC51DC0AA
:100B90008134D9F466ED73E0CE0101960E94AD195F
:100BA000CE0101960E94C919182FCE0101960E940C
:100BB000A81911118CC5109229031092280361E71E
:100BC00072E086ED93E00E947E1920912803309117
:100BD0002903809117032230310551F0823409F046
:100BE0007BC082E090E0909329038093280374C037
:100BF00090ED980F9A3018F40E94EE166DC08A326C
:100C000009F043C061E672E0CE0101960E94B51979
:100C1000BE016F5F7F4F86ED93E00E944419182F4D
:100C2000CE0101960E94A8191123D9F061E772E064
:100C3000CE0101960E94B51961E672E0CE010796D9
:100C40000E94B519AE014F5F5F4FBE01695F7F4FD4
:100C500086ED93E00E94BF17CE0107960E94A81967
:100C60000FC061E672E0CE0101960E94B519CE0177
:100C700001960E941F17BC0186ED93E00E94931914
:100C8000CE0101960E94A81927C0833241F48091B9
:100C9000DA039091DB03009709F0A5C51DC08234EB
:100CA000D9F466ED73E0CE0101960E94AD19CE0134
:100CB00001960E94C919182FCE0101960E94A81909
:100CC00011114BC5109229031092280361E772E0BD
:100CD00086ED93E00E947E1920912803309129032C
:100CE000809117032330310551F0833409F07BC024
:100CF00083E090E0909329038093280374C090EDE3
:100D0000980F9A3018F40E94EE166DC08A3209F0DE
:100D100043C061E672E0CE0101960E94B519BE01A2
:100D20006F5F7F4F86ED93E00E944419182FCE012C
:100D300001960E94A8191123D9F061E772E0CE0153
:100D400001960E94B51961E672E0CE0107960E94F5
:100D5000B519AE014F5F5F4FBE01695F7F4F86EDF2
:100D600093E00E94BF17CE0107960E94A8190FC0FA
:100D700061E672E0CE0101960E94B519CE0101969E
:100D80000E941F17BC0186ED93E00E949319CE01CB
:100D900001960E94A81927C0833241F48091DA039A
:100DA0009091DB03009709F022C51DC08334D9F46C
:100DB00066ED73E0CE0101960E94AD19CE01019659
:100DC0000E94C919182FCE0101960E94A81911116D
:100DD00012C5109229031092280361E772E086ED94
:100DE00093E00E947E198091280390912903892B1A
:100DF00009F08EC080912A0390912B03029771F520
:100E00008091090390910A03029711F41D9939C545
:100E10008091070390910803029731F080910503B8
:100E200090910603029721F48091000186FD31C55F
:100E30008091030390910403029711F4799931C5CD
:100E40008091010390910203029731F08091050394
:100E500090910603029711F41C992BC58091FF0213
:100E600090910003029741F444EF51E060E070E09C
:100E70008CED93E00E94B4128091FD029091FE02ED
:100E8000029741F44CE05EEF6FEF7FEF8CED93E063
:100E90000E94B4128091070390910803039731F0E8
:100EA0008091090390910A03039721F484E694E06A
:100EB0000E94261F8091030390910403039731F051
:100EC0008091010390910203039721F480E294E062
:100ED0000E94261F8091FD029091FE02039731F03F
:100EE0008091FF0290910003039721F48CED93E031
:100EF0000E94261F8091050390910603039741F4F9
:100F000084E694E00E94261F80E294E00E94261F5F
:100F10000E94EB158091260390912703029709F018
:100F20009FC383E393E0AFD5892B09F440C083E3EB
:100F300093E087D520911503309116038B3359F038
:100F4000F901E55FFC4F80832F5F3F4F309316031D
:100F5000209315032CC02A303105F9F467E672E0BE
:100F600080ED93E00E947E198BE0E82E83E0F82E5E
:100F700000E010E0B80180ED93E00E940619F7014F
:100F800021917F01FC0120830F5F1F4F0A30110563
:100F900089F781E08093180306C066E572E080ED72
:100FA00093E00E947E19109216031092150380910F
:100FB0001803882309F452C3E090D003F090D103C2
:100FC000E114F10409F444C00091D4031091D50355
:100FD00001151105E9F157016501FFEFAF1ABF0ACD
:100FE000F6018081082E000C990B0E94222C892B7F
:100FF00099F7015011090E0D1F1DF8018081082E6F
:10100000000C990B0E94222C892B89F4A8014F5FB8
:101010005F4F4C195D095093D5034093D403EC14F2
:10102000FD0458F4B601C7010E94CC2806C00C1577
:101030001D0560F301501109E0CFE091D003F0915C
:10104000D1038091D4039091D503E80FF91F10824A
:1010500080912A0390912B03029709F000C260ED62
:1010600073E0CE0143960E94AD1962E772E0CE01B3
:1010700001960E94B519BE016F5F7F4FCE01439666
:101080000E944419182FCE0101960E94A81911231D
:1010900009F447C0BE016D5E7F4FCE010D960E94E0
:1010A000AD1961E772E0CE0107960E94B51962E7BB
:1010B00072E0CE0101960E94B519AE01495F5F4F03
:1010C000BE016F5F7F4FCE010D960E94BF17CE010C
:1010D00001960E94A819CE0107960E94A819BE0188
:1010E000635F7F4FCE0101960E94AD19CE0101963C
:1010F0000E94C919182FCE0101960E94A819112328
:1011000061F0CE010D960E94B4170E94302CAB0105
:10111000BC0184E694E00E94851FCE010D960E94DA
:10112000A81962E872E0CE0101960E94B519BE01CD
:101130006F5F7F4FCE0143960E944419182FCE0156
:1011400001960E94A819112309F445C0BE016D5EE5
:101150007F4FCE010D960E94AD1961E772E0CE017E
:1011600007960E94B51962E872E0CE0101960E94CE
:10117000B519AE01495F5F4FBE016F5F7F4FCE0172
:101180000D960E94BF17CE0101960E94A819CE01AC
:1011900007960E94A819BE01635F7F4FCE0101969A
:1011A0000E94AD19CE0101960E94C919182FCE01D7
:1011B00001960E94A819112351F0CE010D960E94AC
:1011C000B417AB01BC0184E694E00E949E12CE01EC
:1011D0000D960E94A81965E772E0CE0143960E9421
:1011E0005F19882341F110926F04109270041092DD
:1011F000710410927204109273041092740410928D
:10120000750410927604109297041092980410922C
:10121000990410929A0410928704109288041092F4
:10122000890410928A041092770410927804109224
:10123000790410927A046DE772E0CE0143960E9421
:101240005F1981113EC364E872E0CE0143960E94AB
:101250005F19811136C3CE0143960E94A81960ED33
:1012600073E0CE0143960E94AD1969E872E0CE01A9
:1012700001960E94B519BE016F5F7F4FCE01439664
:101280000E944419182FCE0101960E94A81911231B
:1012900009F447C0BE016D5E7F4FCE010D960E94DE
:1012A000AD1961E772E0CE0107960E94B51969E8B1
:1012B00072E0CE0101960E94B519AE01495F5F4F01
:1012C000BE016F5F7F4FCE010D960E94BF17CE010A
:1012D00001960E94A819CE0107960E94A819BE0186
:1012E000635F7F4FCE0101960E94AD19CE0101963A
:1012F0000E94C919182FCE0101960E94A819112326
:1013000061F0CE010D960E94B4170E94302CAB0103
:10131000BC0180E294E00E94851FCE010D960E94E0
:10132000A81969E972E0CE0101960E94B519BE01C3
:101330006F5F7F4FCE0143960E944419182FCE0154
:1013400001960E94A819112309F445C0BE016D5EE3
:101350007F4FCE010D960E94AD1961E772E0CE017C
:1013600007960E94B51969E972E0CE0101960E94C4
:10137000B519AE01495F5F4FBE016F5F7F4FCE0170
:101380000D960E94BF17CE0101960E94A819CE01AA
:1013900007960E94A819BE01635F7F4FCE01019698
:1013A0000E94AD19CE0101960E94C919182FCE01D5
:1013B00001960E94A819112351F0CE010D960E94AA
:1013C000B417AB01BC0180E294E00E949E12CE01F2
:1013D0000D960E94A8196CE872E0CE0143960E9417
:1013E0005F19882341F110922B0410922C04109263
:1013F0002D0410922E0410922F041092300410929B
:10140000310410923204109253041092540410923A
:101410005504109256041092430410924404109202
:101420004504109246041092330410923404109232
:1014300035041092360464E972E0CE0143960E94AE
:101440005F19811143C264E872E0CE0143960E94A5
:101450005F1981113BC2CE0143960E94A81960ED2D
:1014600073E0CE0143960E94AD196BE972E0CE01A4
:1014700001960E94B519BE016F5F7F4FCE01439662
:101480000E944419182FCE0101960E94A819112319
:1014900009F447C0BE016D5E7F4FCE010D960E94DC
:1014A000AD1961E772E0CE0107960E94B5196BE9AC
:1014B00072E0CE0101960E94B519AE01495F5F4FFF
:1014C000BE016F5F7F4FCE010D960E94BF17CE0108
:1014D00001960E94A819CE0107960E94A819BE0184
:1014E000635F7F4FCE0101960E94AD19CE01019638
:1014F0000E94C919182FCE0101960E94A819112324
:1015000061F0CE010D960E94B4170E94302CAB0101
:10151000BC018CED93E00E94851FCE010D960E94C8
:10152000A8196BEA72E0CE0101960E94B519BE01BE
:101530006F5F7F4FCE0143960E944419182FCE0152
:1015400001960E94A819112309F444C0BE016D5EE2
:101550007F4FCE010D960E94AD1961E772E0CE017A
:1015600007960E94B5196BEA72E0CE0101960E94BF
:10157000B519AE01495F5F4FBE016F5F7F4FCE016E
:101580000D960E94BF17CE0101960E94A819CE01A8
:1015900007960E94A819BE01635F7F4FCE01019696
:1015A0000E94AD19CE0101960E94C919182FCE01D3
:1015B00001960E94A819112349F0CE010D960E94B0
:1015C000B417AB01BC018CED93E0B8D7CE010D96FA
:1015D0000E94A8196EE972E0CE0143960E945F193D
:1015E000882341F11092E7031092E8031092E90377
:1015F0001092EA031092EB031092EC031092ED03A9
:101600001092EE0310920F04109210041092110425
:10161000109212041092FF03109200041092010421
:10162000109202041092EF031092F0031092F10353
:101630001092F20366EA72E0CE0143960E945F19AF
:10164000811149C164E872E0CE0143960E945F199E
:10165000811141C1CE0143960E94A8190E94EB1549
:1016600080917B00877F80937B0084E480937C0063
:1016700080917A00806480937A0080917A0086FD60
:10168000FCCF809178002091790090E0922B90938C
:101690002D0380932C0368960FB6F894DEBF0FBE1F
:1016A000CDBFDF91CF911F910F91FF90EF90DF9011
:1016B000CF90BF90AF909F908F907F906F905F90F2
:1016C0004F903F90089501970E9452177ECA8091D3
:1016D000DA039091DB03892BD9F163E672E086EDA2
:1016E00093E00E945F19882349F110926F041092D1
:1016F000700410927104109272041092730410928C
:10170000740410927504109276041092970410924B
:1017100098041092990410929A04109287041092DF
:1017200088041092890410928A041092770410920F
:1017300078041092790410927A043DCA86ED93E001
:101740000E94B417AB01BC0184E694E0F7D633CA1B
:1017500084E694E00E94261F2ECA8091DA039091BD
:10176000DB03892BD9F163E672E086ED93E00E94FA
:101770005F19882349F110922B0410922C041092C7
:101780002D0410922E0410922F0410923004109207
:1017900031041092320410925304109254041092A7
:1017A000550410925604109243041092440410926F
:1017B000450410924604109233041092340410929F
:1017C0003504109236047ECA86ED93E00E94B41769
:1017D000AB01BC0180E294E0B1D674CA80E294E02F
:1017E0000E94261F6FCA01970E94521775CA01975F
:1017F0000E945217F8CA8091DA039091DB03892B7B
:10180000D9F163E672E086ED93E00E945F198823C8
:1018100049F11092E7031092E8031092E903109245
:10182000EA031092EB031092EC031092ED03109276
:10183000EE0310920F0410921004109211041092F3
:1018400012041092FF0310920004109201041092EF
:1018500002041092EF031092F0031092F103109221
:10186000F203B7CA86ED93E00E94B417AB01BC0146
:101870008CED93E063D6ADCA8CED93E00E94261FF9
:10188000A8CA44EF51E060E070E084E694E06CD6D2
:10189000BFCA4CE05EEF6FEF7FEF84E694E064D662
:1018A000C7CA44EF51E060E070E080E294E05CD6AB
:1018B000C7CA4CE05EEF6FEF7FEF80E294E054D652
:1018C000CDCA84E694E00E94261FC5CC80E294E055
:1018D0000E94261FC0CD8CED93E00E94261FBACE39
:1018E000DB011496ED91FC91159720E030E065E066
:1018F0001994DB011496ED91FC91159720E030E0EE
:1019000062E01994DB011496ED91FC91159720E0AB
:1019100030E063E01994CF92DF92EF92FF920F9341
:101920001F93CF93DF938C017B016A0180E0F60166
:10193000C49181110AC0CF3F09F447C04C2FB701B1
:10194000C801CEDF81113FC045C0CF3F11F44FEF3A
:10195000F6CFCE3F09F440C0C03FA8F5C03E30F0FE
:101960004C2F4F70B701C801C4DF2DC0C03D30F00F
:101970004C2F4F70B701C801C5DF25C0C03CF0F047
:10198000D7011496ED91FC91159720E030E040E0EE
:1019900064E0C8011995C295C07FCE5FD0E0CE014A
:1019A000B2D7D7011496ED91FC91159720E030E065
:1019B00041E064E0C8011995CE0104C0C7FD03C031
:1019C0008C2F90E0A0D780E001C081E0BFEFCB1A60
:1019D000DB0AADCF80E001C081E0DF91CF911F91A4
:1019E0000F91FF90EF90DF90CF900895CF92DF920C
:1019F000EF92FF920F931F93CF93DF936C017A01C5
:101A00008B01C0E0D0E0CE15DF0589F0D8016D91E3
:101A10008D01D601ED91FC910190F081E02DC60180
:101A20001995892B11F47E0102C02196ECCFC701D4
:101A3000DF91CF911F910F91FF90EF90DF90CF90AA
:101A40000895FC01918D828D981761F0828DDF01E0
:101A5000A80FB11D5D968C91928D9F5F9F73928FA1
:101A600090E008958FEF9FEF0895FC01918D828D96
:101A7000981731F0828DE80FF11D858D90E0089563
:101A80008FEF9FEF0895FC01918D228D892F90E0BB
:101A9000805C9F4F821B91098F739927089583E380
:101AA00093E0F1DF21E0892B09F420E0822F0895F3
:101AB000FC01848DDF01A80FB11DA35ABF4F2C91EB
:101AC000848D90E001968F739927848FA689B789BA
:101AD0002C93A089B1898C9180648C93938D848D93
:101AE000981306C00288F389E02D80818F7D808362
:101AF0000895EF92FF920F931F93CF93DF93EC0122
:101B000081E0888F9B8D8C8D981305C0E889F989B9
:101B1000808185FD23C0F62E0B8D10E00F5F1F4FD7
:101B20000F731127E02E8C8DE8120BC00FB607FC47
:101B3000FACFE889F989808185FFF5CFCE01B8DF3A
:101B4000F2CF8B8DFE01E80FF11DE35AFF4FF082BB
:101B50000B8FEA89FB898081806207C0EE89FF894B
:101B60006083E889F98980818064808381E090E0E6
:101B7000DF91CF911F910F91FF90EF900895CF9338
:101B8000DF93EC01888D8823C1F0EA89FB8980818D
:101B900085FD05C0A889B9898C9186FD0EC00FB658
:101BA00007FCF5CF808185FFF2CFA889B9898C9198
:101BB00085FFEDCFCE017CDFE8CFDF91CF91089597
:101BC00080E090E0892B19F06ADF811125C080E068
:101BD00090E0892B41F080E090E0892B21F00E9479
:101BE000000081111CC080E090E0892B41F080E072
:101BF00090E0892B21F00E940000811113C080E049
:101C000090E0892BA1F080E090E0892B81F00E9488
:101C1000000081110AC008950E940000D8CF0E94E0
:101C20000000E1CF0E940000EACF0C94000008956C
:101C30001F920F920FB60F9211240BB60F922F9393
:101C40003F934F935F936F937F938F939F93AF9344
:101C5000BF93EF93FF9383E393E02ADFFF91EF912C
:101C6000BF91AF919F918F917F916F915F914F91B4
:101C70003F912F910F900BBE0F900FBE0F901F90B2
:101C800018951F920F920FB60F9211240BB60F9258
:101C90002F938F939F93EF93FF93E0914303F091E2
:101CA00044038081E0914903F0914A0382FD12C010
:101CB000908180914C038F5F8F7320914D03821729
:101CC00051F0E0914C03F0E0ED5CFC4F958F809378
:101CD0004C0301C08081FF91EF919F918F912F91D3
:101CE0000F900BBE0F900FBE0F901F901895089588
:101CF000DC011696ED91FC91179712968C91481B7A
:101D0000477081E090E001C0880F4A95EAF7E60F3E
:101D1000F11D3081222311F0832B02C08095832393
:101D200080830895FB014181DC0112962C9112976A
:101D3000421760F013962C911397241738F06081A6
:101D400015962C91621710F42481D2CF0895FC01CE
:101D500080819281980F92832181921760F49481FF
:101D60009F5F94839381890F821710F08FEF820F0A
:101D7000838381E0089580E00895FC0112828081D0
:101D8000815083831482089580E008950B96FC01AE
:101D9000849108950A96FC0184910895FC01849130
:101DA0000895FCDF882321F0823011F083E008954C
:101DB00086E00895FC01E60FF11D849190E0982FD4
:101DC00088273196E4918E0F911D089568E0F2CF37
:101DD00066E0F0CF10922F0310922E0308958093A7
:101DE00030031092B90084FF02C08CE001C088E487
:101DF0008093B800EFCF8F929F92AF92BF92CF9215
:101E0000DF92FF920F931F93CF93DF931F921F9246
:101E1000CDB7DEB76C018B01F42E490120E14217EA
:101E200009F45DC02417D8F03AE0431701F18FE0C0
:101E300048135EC041E0C60165DD40E0B801C6015F
:101E400058DD41E8B801C6014BDDF4014081B8011D
:101E5000C60146DD40E0B801C60154DDFEC0A1E187
:101E60004A1709F43FC0B5E14B1789F041C0DB01C7
:101E70001496ED91FC91159720E030E042E061E08E
:101E8000199548E455E0B801C60145DD31C0FB01B4
:101E9000A280B38040E455E03EDDD50114964C911C
:101EA000406BB801C6011CDD41E0B801C60121DD6F
:101EB000F50126813781D8011496ED91FC91159793
:101EC000D50115964C9166E0C6011995811102C0A5
:101ED00080E0C4C040E0B801C60114DD09C047E39A
:101EE00055E002C04CE255E0B801C60114DDB5C0B2
:101EF000D80112960D911C911397B2E3FB1609F4C9
:101F000073C0BF15B8F0E5E1FE1609F478C0F7E13B
:101F1000FF1609F489C024E1F2129FC0D801169679
:101F2000ED91FC91179715968C919F01280F311D0B
:101F3000C9015EC036E4F31609F486C087E4F816DA
:101F400009F486C0ABE3FA1288C0F4018181938161
:101F5000913029F0933031F4482F885004C048E084
:101F6000480F01C0482F21E0D80113963C91381743
:101F700008F420E031E0F8015281451708F430E020
:101F800051E0481708F050E0822F852B382319F4D0
:101F9000252309F462C0D4011296FC90913051F0CF
:101FA00030F0923049F0933051F42FEF09C020E027
:101FB00031E007C021E004C020E03FEF02C020E094
:101FC00030E0F7FE07C0B401C8012A833983AADED6
:101FD00039812A81F4018081830F80838181820F7E
:101FE0008183FF0C71F739C0B401C8019BDE35C095
:101FF0001192E817F907E1F7C801BFDE2EC0C8014A
:10200000A6DE882309F464CFD8011696ED91FC91E1
:10201000179715968C919F01280F311DC9011192B8
:10202000E817F907E1F719C0D4011C92F801828181
:1020300011968C9311978581815012968C931297EB
:10204000838113968C9309C0D80115968C9103C097
:10205000D80111968C91F401808381E00F900F904C
:10206000DF91CF911F910F91FF90DF90CF90BF90A4
:10207000AF909F908F900895CF92EF920F93CF9350
:10208000DF93EC0188E192E0998388836A831B8661
:102090001C861D861E861F86188A198A1A8A1B8A24
:1020A0001C8A1D8A1E8A80E090E0A0E8BFE38F8B27
:1020B000988FA98FBA8F1B8E1C8E1D8E1E8E8F8FB0
:1020C00098A3A9A3BAA31BA21CA21DA21EA261E0F1
:1020D00070E07CA76BA73FEF3EA71FA218A619A62A
:1020E0001AA64B832C830D83EE821BAA1CAA1DAA61
:1020F0001EAA1FAA18AE19AE1AAE1BAE1CAE1DAE9C
:102100001EAEFE01FF9680839183A283B383349633
:1021100010821F82188619861A86CC2019F0CE01EB
:102120000E94EF1C40E050E060E87FE3CE01DF91C9
:10213000CF910F91EF90CF900C94B41E2F923F92BD
:102140004F925F926F927F928F929F92AF92BF92C7
:10215000CF92DF92EF92FF920F931F93CF93DF9373
:1021600000D01F92CDB7DEB71C01FC018784908898
:10217000A188B28883859485A585B685881A990A31
:10218000AA0ABB0A63897489858996899B01AC0177
:102190000E948F2C6B017C01F101638D748D858D04
:1021A000968D9B01AC010E945F259B01AC01C7018C
:1021B000B6010E94C3250E942B2681149104A1041C
:1021C000B104A1F462307105810591050CF07CC069
:1021D000F10113A214A215A216A2138A148A158A59
:1021E000168A13AA14AA15AA16AA03C1F10103A9F3
:1021F00014A925A936A9ED5BFF4F181419041A0478
:102200001B04FCF410161106120613064CF4681594
:1022100079058A059B054CF52081211155C025C003
:10222000011511052105310509F44EC06815790520
:102230008A059B050CF048C08081882309F444C0BE
:1022400037C01016110612061306F4F400271127E2
:102250009801081919092A093B09601771078207B3
:1022600093071CF42081222379F19B01AC0188277C
:102270009927DC01821B930BA40BB50BF10183ABF7
:1022800094ABA5ABB6AB20C00115110521053105F6
:10229000D9F0CC24DD247601C818D908EA08FB0857
:1022A0006C157D058E059F057CF4808181110CC025
:1022B00030952095109501951F4F2F4F3F4FF101FD
:1022C00003AB14AB25AB36ABF101C3A8D4A8E5A88A
:1022D000F6A881010D5B1F4FC114D104E104F10484
:1022E00091F487A990ADA1ADB2AD83AF94AFA5AF86
:1022F000B6AF81E0181419041A041B040CF080E036
:10230000F801808340C0F10183AC94ACA5ACB6ACBD
:10231000A5019401C501B4010E945F252B013C0178
:10232000C701B6010E94302C20E030E040E850E4C4
:102330000E948F2C20E030E040E85FE30E945F25A0
:102340009B01AC01C301B2010E94C3259B01AC01FA
:10235000C501B4010E945E254B015C01F101FF96AD
:1023600040805180628073809201A3010E945C26AC
:10237000181614F042015301A401B501F10143AF55
:1023800054AF65AF76AFFFEFCF1ADF0AEF0AFF0A4F
:10239000F101C3AAD4AAE5AAF6AA23AD34AD45AD8E
:1023A00056ADCA01B90129833A834B835C830E94ED
:1023B0003026F10163A374A385A396A329813A81F2
:1023C0004B815C8160E074E284E799E40E94C3255C
:1023D000F101638B748B858B968BF8012081211121
:1023E00008C0DC01CB01B058F101838B948BA58B25
:1023F000B68B0F900F900F900F90DF91CF911F91A0
:102400000F91FF90EF90DF90CF90BF90AF909F9093
:102410008F907F906F905F904F903F902F90089596
:10242000CF92DF92EF92FF92CF93DF93EC018BA1DB
:102430009CA1ADA1BEA1892B8A2B8B2B09F45BC07B
:102440003FB7F89480916B0590916C05A0916D0554
:10245000B0916E0526B5A89B05C02F3F19F00196D7
:10246000A11DB11D3FBFCC24D82EE92EFA2EC20EDD
:10247000D11CE11CF11C42E0CC0CDD1CEE1CFF1C4D
:102480004A95D1F78FA198A5A9A5BAA5B701A6012C
:10249000481B590B6A0B7B0B8BA19CA1ADA1BEA164
:1024A000481759076A077B0730F1FE01ED5BFF4FC4
:1024B00020818B859C85AD85BE85222321F00196E8
:1024C000A11DB11D03C00197A109B1098B879C878C
:1024D000AD87BE87E881F9814B855C856D857E85FA
:1024E0000680F781E02DCE011995CFA2D8A6E9A6E6
:1024F000FAA6CE0123DE20E030E0A9016B897C89B9
:102500008D899E890E942A2C811110C081E0CF8480
:10251000D888E988FA884B855C856D857E85C416E8
:10252000D506E606F70619F480E001C081E0DF91E8
:10253000CF91FF90EF90DF90CF9008950F931F936E
:10254000FC010785108921893289041715072607A0
:10255000370739F04787508B618B728B1F910F9132
:10256000EDCD1F910F9108950F931F93FC010385EB
:10257000148525853685400F511F621F731F1F91DB
:102580000F91DCCFDB01ED91FC911994EF92FF925A
:102590000F931F93CF93DF931F92CDB7DEB78C01BC
:1025A000DC011296ED90FC901397D196ED91FC9181
:1025B000D29782E0199520E030E04AE0B701C801E7
:1025C000E1DFF82ED801D196ED91FC91D29783E00E
:1025D0001995D801D196ED91FC91D29780E019958B
:1025E000FF2081F1F801628173819E012F5F3F4FCF
:1025F00046E4C801C7DF8981D8018C9312966D919A
:102600007C9113979E012F5F3F4F47E4C801BADFCB
:102610008981F80181836281738120E030E048E4A0
:10262000C801B0DFD8011B968C931B9798012D5CD5
:102630003F4F12966D917C91139747E1C801A2DF3D
:1026400081E001C080E00F90DF91CF911F910F9149
:10265000FF90EF9008954F925F926F927F928F92CA
:102660009F92AF92BF92CF92DF92EF92FF920F9321
:102670001F93CF93DF931F92CDB7DEB72C01E62EC9
:10268000F42EC22EDC0114960D911C911597C801F1
:1026900085DBD82EF2018481958183DB982EF1E0D1
:1026A000DF1203C02FE0A22E02C0AA24AA94D201F6
:1026B00014968D919C9115976DDBD82EF201848133
:1026C000958164DBB82ED20114968D919C9115975B
:1026D0007DDBB0E6BC1538F4009729F0080F191F10
:1026E00091E6D92E10C0F2018481958171DBF0E46E
:1026F000FC1538F4009729F0080F191F81E4D82E33
:1027000002C00F5E1F4FBC1480F4D20150961C9281
:10271000509753961C92539754961C9254975196E7
:102720001C92519752961C929EC0BD1470F3892D35
:1027300090E0F80124912F3F19F40F5F1F4F59C00B
:10274000DC104EC0D20114968D919C91159726DB1A
:1027500098012F5F3F4FF801882311F08230E1F498
:102760008491D20153968C935397F90124915496F6
:102770002C935497F8013396E4915096EC9350972C
:10278000F8013496E4915196EC935197F8013596FF
:10279000E4915296EC9320C08491982F9F709250B0
:1027A000D20152969C93529782958F7051968C933A
:1027B0005197F9012491822F8F7054968C935497DE
:1027C00022952F7053962C935397F8013296E491EB
:1027D000E295EF705096EC930115110579F443C022
:1027E000F8013296E491EA219C012E0F311D020F6F
:1027F000131FDB1409F489CFD3949BCFF20184819A
:102800009581CFDAD20153963C91539754962C91EF
:10281000549751965C91519752969C915297920F72
:10282000F91A9FEF920F9F0DD4964C91D497D6969C
:102830006C916F1518F0941728F402C0941780F06B
:102840009F1570F4E50E9FEF930F9E0DD201D39666
:102850004C91D397D5965C915E1538F4941738F463
:10286000F20180893EC080E03CC0941710F49E15B0
:10287000B8F7080F111D395F732E7694769476940D
:102880006F2C620E5201FCE1AF0EB11C872C912C13
:10289000F61431F35E2D68018C2D801B8715E8F44A
:1028A000F6018491D20112966D917C9113975C96FA
:1028B0005C935C975D96FC925D975F961C925F9728
:1028C0005E968C9395014BE3C20159835BDEBFEFAB
:1028D000CB1ADB0A5981585FDFCF080D191DF3941D
:1028E000D7CF0F90DF91CF911F910F91FF90EF9075
:1028F000DF90CF90BF90AF909F908F907F906F9020
:102900005F904F9008952EE93FE0009729F0F9017C
:102910003197F1F70197F9CF089590912F03911115
:1029200004C080932F0360932E0308951F93CF93C9
:10293000DF931F921F92CDB7DEB720ED37E03A83C9
:1029400029839091BC00982391F429813A81232B0B
:1029500049F480913003182F127081FD08C081E086
:10296000DCDF06C029813A8121503109E8CF11E02E
:10297000812F0F900F90DF91CF911F91089584E9DF
:102980008093BC0064E080E1D1CFCF938093BB0003
:1029900084E88093BC0063E080E8C8DFC82F882308
:1029A00081F080913003C82FC27081FD09C08091F1
:1029B000B900887F883221F063E082E0AEDF01C099
:1029C000C1E08C2FCF910895CF93DF93FC0123A515
:1029D000222369F0EC0195D2811102C080E008C089
:1029E0008EA1811180E4D1DF8823C1F31BA681E091
:1029F000DF91CF9108950F931F93CF93C42F890137
:102A00006330B9F050F4613081F0623009F03FC0BA
:102A1000FC0146A321E023A73AC06630E9F0673005
:102A200041F1653009F033C00CC0FC0186A5D7D94F
:102A30002EC0FC0116A221E023A7411128C09FDF70
:102A400026C0C2DF811103C09ADF80E021C08C2F35
:102A50009CDF81111CC0F8CFB7DF8823A9F3CC23FA
:102A6000B1F0F80181918F0190DF882369F3C150A3
:102A7000F6CFAADF882341F3CC2349F0F8018491F3
:102A800084DF882329F00F5F1F4FC150F5CF81E00D
:102A9000CF911F910F910895FC0124813581621718
:102AA000730748F480819181009729F0FC01E60FBB
:102AB000F71F8081089580E008950E94C8280F9331
:102AC0001F93CF93DF93EC0188819981009729F0C0
:102AD0002A813B812617370788F48B016F5F7F4F70
:102AE0000E94E427009761F0998388831B830A83FF
:102AF0002C813D81232B11F4FC01108281E001C067
:102B000080E0DF91CF911F910F910895CF93DF93D4
:102B1000EC0188819981009711F00E944C2719825D
:102B200018821D821C821B821A82DF91CF91089528
:102B3000EF92FF920F931F93CF93DF93EC017B01F2
:102B40008A01BA01BCDF811103C0CE01DFDF07C0FB
:102B50001D830C83B701888199810E94EF28CE01E3
:102B6000DF91CF911F910F91FF90EF900895CF9239
:102B7000DF92FF920F931F93CF93DF931F921F92C9
:102B8000CDB7DEB7F82E062FE091C104F091C20454
:102B90008CEA94E049835A831995080F4981C42E21
:102BA0005A81D52E10E0F60121916F01222341F0C8
:102BB000402F6F2D8CEA94E04EDDF80E180FF3CF06
:102BC000812F0F900F90DF91CF911F910F91FF9068
:102BD000DF90CF900895DF92EF92FF920F931F93B3
:102BE000CF93DF93809100018074E82EF12CC3B164
:102BF000C0710C2F10E093B19072D92EDFB1D2705A
:102C00002091690530916A05232B51F5882341F104
:102C100010926F041092700410927104109272045A
:102C2000109273041092740410927504109276043A
:102C300010929704109298041092990410929A049A
:102C400010928704109288041092890410928A04CA
:102C500010927704109278041092790410927A04FA
:102C60002091670530916805232B51F5CC2341F164
:102C700010922B0410922C0410922D0410922E040A
:102C800010922F04109230041092310410923204EA
:102C9000109253041092540410925504109256044A
:102CA000109243041092440410924504109246047A
:102CB00010923304109234041092350410923604AA
:102CC00081111AC08091730490917404A0917504CD
:102CD000B091760440916F0450917004609171043A
:102CE00070917204841B950BA60BB70BB7FF04C041
:102CF00084E694E00E94261FD1101DC080917304C9
:102D000090917404A0917504B091760440916F0481
:102D1000509170046091710470917204841B950B42
:102D2000A60BB70B181619061A061B0624F484E620
:102D300094E00E94261FC1111AC080912F04909127
:102D40003004A0913104B091320440912B04509191
:102D50002C0460912D0470912E04841B950BA60BFE
:102D6000B70BB7FF04C080E294E00E94261FD11188
:102D70001DC080912F0490913004A0913104B09136
:102D8000320440912B0450912C0460912D047091D9
:102D90002E04841B950BA60BB70B181619061A06E2
:102DA0001B0624F480E294E00E94261FF0926A053C
:102DB000E0926905109368050093670584E694E046
:102DC0002FDB80E294E02CDB8CED93E0DF91CF9160
:102DD0001F910F91FF90EF90DF9022CB0F931F93E5
:102DE000CF93DF931F921F92CDB7DEB789831A82EC
:102DF0000091DA031091DB030F5F1F4FB80186EDDE
:102E000093E05DDE8823A1F02091D6033091D703B3
:102E10008091DA039091DB03BE016F5F7F4F820FD9
:102E2000931F0E94EF281093DB030093DA0381E0E5
:102E30000F900F90DF91CF911F910F910895EF9216
:102E4000FF920F931F93CF93DF93EC018091DA03EE
:102E50009091DB03E090D603F090D7030C811D81A5
:102E6000E114F104A9F00097A9F0080F191FB801A7
:102E7000CE0125DE882361F0288139818C819D81F6
:102E8000B701820F931F0E94EF281D830C8302C09D
:102E9000CE013CDECE01DF91CF911F910F91FF90CB
:102EA000EF9008952091DA033091DB0382179307A6
:102EB00060F49093DB038093DA032091D603309182
:102EC000D703F901E80FF91F10820895FC018081F2
:102ED00091816130710551F4009719F47183608319
:102EE0000895019769F482E090E005C00197029788
:102EF00028F483E090E0918380830895118210820A
:102F00000895CF9384EA8093BC0061E080E80EDDF1
:102F1000882351F08091B900887F883039F0803162
:102F200029F061E082E0F9DCC0E01BC088E7809313
:102F3000BB0084E88093BC0062E080E8F7DC882373
:102F400099F380913003C82FC27081FD09C0809130
:102F5000B900887F883121F062E082E0DEDC01C0C8
:102F6000C1E08C2FCF910895FC0180819181009761
:102F700011F00C94E72B60E070E0CB0108952F92E4
:102F80003F924F925F926F927F928F929F92AF92F9
:102F9000BF92CF92DF92EF92FF920F931F93CF9346
:102FA000DF9300D01F92CDB7DEB7FC01448055807F
:102FB0004114510409F413C1FB016480758061144C
:102FC000710409F40CC17A016B019C838B83FA01B3
:102FD000A480B580A618B708FC0100811181A11456
:102FE000B104C1F4F60160817181C8010E94042915
:102FF0005C01892B09F4F3C0F70160817181448180
:103000005581C5010E94CC28F701048115810A0D64
:103010001B1DE8CFB7FE02C0480106C0FB0120809F
:1030200031804201C80148C0F60160817181C4014C
:103030000E9404292C01892B29F132016818790892
:10304000A301B401C8010E94CC28060D171DF70189
:103050006081718144815581C8010E94CC28F701AB
:1030600084819581080F191FF60184809580840C56
:10307000951CEB81FC81848195818A0D9B1D958334
:103080008483D2CFB401C8010F900F900F900F909E
:10309000DF91CF911F910F91FF90EF90DF90CF9034
:1030A000BF90AF909F908F907F906F905F904F9068
:1030B0003F902F900C94EF28B1010E9404290097B3
:1030C00029F0860D971D8A0C9B1CF6CF841495045D
:1030D00009F485C0EB81FC81828193818815990573
:1030E00078F4B4016F5F7F4FC8010E94E427009716
:1030F00009F475C0EB81FC81918380839382828285
:10310000EB81FC81048115810150110917FD67C015
:10311000F601248035802114310409F460C0EB816C
:10312000FC81648075806114710409F458C06214D4
:10313000730408F454C00615170518F083010150F4
:103140001109EB81FC8140805180C20188248A945E
:10315000982C9201200F311F2817390758F0F601DB
:103160006081718129833A830E94042929813A81EF
:10317000009761F597FC33C0280C391CC201820D01
:10318000931DA30142195309BC018A0D9B1D0E9486
:10319000D528EB81FC81848195818A0D9B1D9583C7
:1031A000848320813181F901E80FF91F1082EB81BE
:1031B000FC8180819181F701608171814481558119
:1031C000880D991D0E94CC2884019ECFAC01441922
:1031D00055090417150708F04A010196BDCF0F9055
:1031E0000F900F900F90DF91CF911F910F91FF9053
:1031F000EF90DF90CF90BF90AF909F908F907F9097
:103200006F905F904F903F902F900895FC01248124
:1032100035816217730720F480819181009729F42A
:103220001092660586E695E00895860F971F08952B
:10323000EF92FF920F931F93CF93DF937C018B014B
:10324000CB010A96FB0120E22193E817F907E1F789
:10325000C0E0D0E0BE01C701D9DFFC018081882336
:1032600061F0BE01C701D2DFFC018081F8018193CA
:103270008F012196CA30D10569F7DF91CF911F9157
:103280000F91FF90EF900895FB0144815581FC015F
:10329000248135812417350778F08081918100974A
:1032A00059F0FB01608171816115710529F00E945F
:1032B000F62821E0892B09F020E0822F0895FC01F7
:1032C00024813581232B31F421E061157105A1F0B2
:1032D000FB0108C0FC01808191816115710531F409
:1032E00021E0FC018081882339F005C00E94E62896
:1032F00021E0892B09F020E0822F0895CF93DF93FE
:10330000EC016115710551F0FB0101900020E9F716
:103310003197AF01461B570B0BDC01C0F7DBCE0129
:10332000DF91CF910895CF93DF93EC01FB018617D6
:10333000970751F0608171816115710521F0448119
:103340005581F6DB01C0E2DBCE01DF91CF9108951C
:10335000FC01808191810C944C27FC011182108228
:103360001382128215821482DECFFC011182108238
:1033700013821282158214826115710549F0FB01D6
:1033800001900020E9F73197AF01461B570BD0CBD6
:103390000895CF92DF92FF920F931F93CF93DF9305
:1033A00000D000D0CDB7DEB78C0161E772E0CE016E
:1033B0000196DBDF60E070E0C8016EDB8B3219F153
:1033C0008D3209F1B801CE010196ADDFCD80DE80EE
:1033D00000E010E0F12C0C151D0589F0B801CE01BC
:1033E00001965ADB8E3229F4F1100BC0FF24F394BE
:1033F00003C080538A3028F40F5F1F4FECCF11E0D9
:103400000BC010E009C061E070E0C801FFDEBC0144
:10341000CE01019673DFDACFCE01019699DF812FBD
:1034200026960FB6F894DEBF0FBECDBFDF91CF91C9
:103430001F910F91FF90DF90CF900895362F90E06D
:10344000FC01E25DF94F4491FC01E851FA4F2491EF
:10345000FC01EE55FA4F9491992309F46BC0442373
:1034600009F455C050E0FA013197E231F10508F056
:103470004EC08827EE58FF4F8F4F0C943425809113
:1034800080008F7707C0809180008F7D03C080917E
:103490008000877F809380003AC084B58F7702C018
:1034A00084B58F7D84BD33C08091B0008F7703C019
:1034B0008091B0008F7D8093B00029C080919000F2
:1034C0008F7707C0809190008F7D03C0809190001E
:1034D000877F809390001BC08091A0008F7707C0EA
:1034E0008091A0008F7D03C08091A000877F809392
:1034F000A0000DC0809120018F7707C0809120012E
:103500008F7D03C080912001877F80932001E92F68
:10351000F0E0EE0FFF1FE857FA4FA591B4918FB777
:10352000F894EC91311103C020952E2301C02E2B6D
:103530002C938FBF0895CF93DF93DC0147705527FD
:1035400066277727FA013197CD91DC911197E73003
:10355000F10530F48827EC57FF4F8F4F0C9434253A
:10356000EC81FD8161E01BC0EC81FD8165E017C04D
:10357000EC81FD8164E013C0EC81FD8166E00FC049
:10358000EC81FD8162E00BC0EC81FD816AE007C047
:10359000EC81FD8168E003C0EC81FD8169E0CD0133
:1035A000DF91CF911994CF93DF93EC01CB01BA0156
:1035B00026E030E040E050E00E94182562307105BE
:1035C0008105910559F18CF461157105810591050D
:1035D000F1F06130710581059105C1F5E881F9814E
:1035E0000480F581E02D65E02DC064307105810512
:1035F000910511F1D4F0653071058105910531F522
:10360000E881F9810480F581E02D66E01BC0E88146
:10361000F9810480F581E02D64E014C0E881F9812E
:103620000480F581E02D61E00DC0E881F98104801E
:10363000F581E02D63E006C0E881F9810480F58121
:10364000E02D62E0CE01DF91CF911994DF91CF910F
:1036500008954370552766277727DC01ED91FC918B
:103660000480F581E02D423051056105710571F04E
:10367000433051056105710559F04130510561052F
:10368000710511F065E005C066E003C06AE001C0A5
:1036900069E01994CF93DF93EC01CB01BA0123E0E9
:1036A00030E040E050E00E9418256130710581054E
:1036B000910581F0623071058105910591F0672BCC
:1036C000682B692BC1F4E881F9810480F581E02D34
:1036D00064E00DC0E881F9810480F581E02D61E0AE
:1036E00006C0E881F9810480F581E02D62E0CE0119
:1036F000DF91CF911994DF91CF91089543705527B1
:1037000066277727DC01ED91FC910480F581E02D9F
:10371000423051056105710571F043305105610575
:10372000710559F0413051056105710511F062E0F4
:1037300005C063E003C061E001C060E019940F932D
:103740001F93CF93DF93EC01E881F9810480F58129
:10375000E02D8C010D5B1F4FD8018C91811102C0AF
:1037600060E001C062E0CE011995E881F981048032
:10377000F581E02DD8018C91811102C061E001C07A
:1037800063E0CE011995EBA5FCA5E230F10538F018
:10379000EE0FFF1FEE0FFF1F35973197F1F7E8810E
:1037A000F9810480F581E02DD8018C91811102C04E
:1037B00060E001C062E0CE01DF91CF911F910F91D7
:1037C0001994CF93DF93EC0120E030E0A9016B89DD
:1037D0007C898D899E890E945C2618161CF4EFA5B1
:1037E000F8A902C0E9A9FAA9DF91CF911994CF9263
:1037F000DF92EF92FF920F931F93CF93DF93FC0121
:103800002281243041F0283031F0233031F026304D
:1038100021F012E003C014E001C013E0EC01279690
:10382000E12CF12CC62ED12C01E0C6010E2C02C0D9
:10383000959587950A94E2F7688180FD6027FE01DF
:1038400034978081FBDDFFEFEF1AFF0A2196E11626
:1038500060F3DF91CF911F910F91FF90EF90DF9078
:10386000CF9008950F931F93DC0112960C9112973D
:1038700010E009301105D8F5F8018827E557FF4F0A
:103880008F4F0C943425ED91FC9111970084F185B4
:10389000E02D29C0ED91FC9111970284F385E02D74
:1038A00022C0ED91FC9111970484F585E02D1BC099
:1038B000ED91FC9111970684F785E02D14C0ED91F0
:1038C000FC9111970088F189E02D0DC0ED91FC91DC
:1038D00011970288F389E02D06C0ED91FC911197B4
:1038E0000488F589E02DCD011F910F9119941F9146
:1038F0000F910895CF92DF92EF92FF920F931F9353
:10390000CF93DF931F92CDB7DEB76C01DC01DC965D
:103910001C91DC97DB960C917C01B4E0EB0EF11C62
:10392000DC015996ED91FC915A97C701698319956D
:10393000482F410F2981602FC7010E942B13F601E8
:1039400023AD082E000C990B820F911D83AF81E0EF
:1039500090E00F90DF91CF911F910F91FF90EF902A
:10396000DF90CF900895CF93DF9390E0FC01E85172
:10397000FA4F2491FC01EE55FA4F8491882361F1AE
:1039800090E0880F991FFC01E259FA4FC591D4913C
:10399000FC01E857FA4FA591B491611109C09FB796
:1039A000F8948881209582238883EC912E230BC084
:1039B000623061F49FB7F8943881822F8095832319
:1039C0008883EC912E2B2C939FBF06C08FB7F89461
:1039D000E8812E2B28838FBFDF91CF910895CF935D
:1039E000DF93FC012281222329F1EC0161E0838134
:1039F000BADF61E08C81B7DF8A81843011F08830D2
:103A000031F461E08D81AFDF61E08E8106C08330EB
:103A100011F0863019F461E08D81A5DF8EA58F3F0E
:103A200049F061E0A0DF6DA581E068278EA5DF91F8
:103A3000CF9104CDDF91CF910895CF93DF93FC0117
:103A40002281222399F0EC010190F081E02D048085
:103A5000F581E02D60E019958EA58F3F39F061E08A
:103A600082DF6DA58EA5DF91CF91E8CCDF91CF915C
:103A700008951F920F920FB60F9211242F933F9328
:103A80008F939F93AF93BF93809170059091710531
:103A9000A0917205B091730530916F0523E0230F5B
:103AA0002D3720F40196A11DB11D05C026E8230F76
:103AB0000296A11DB11D20936F0580937005909310
:103AC0007105A0937205B093730580916B05909179
:103AD0006C05A0916D05B0916E050196A11DB11DFB
:103AE00080936B0590936C05A0936D05B0936E0564
:103AF000BF91AF919F918F913F912F910F900FBEEA
:103B00000F901F901895CF93DF93DC01FB0182810A
:103B100012968C9312974381548165817681139616
:103B20004D935D936D937C93169747815085618586
:103B3000728517964D935D936D937C931A97438589
:103B40005485658576851B964D935D936D937C9327
:103B50001E9747855089618972891F964D935D93A1
:103B60006D937C93529743895489658976895396DE
:103B70004D935D936D937C9356974789508D618DDE
:103B8000728D57964D935D936D937C935A97438DA9
:103B9000548D658D768D5B964D935D936D937C937F
:103BA0005E97478D50A161A172A15F964D935D9381
:103BB0006D937C93929743A154A165A176A19396AE
:103BC0004D935D936D937C93969747A150A561A506
:103BD00072A597964D935D936D937C939A9783A569
:103BE00094A59C969C938E939B9785A59D968C936C
:103BF0009D9786A59E968C939E9787A590A9D09613
:103C00009C938E939F9781A992A9D2969C938E9311
:103C1000D19743A954A965A976A9D3964D935D93ED
:103C20006D937C93D69747A950AD61AD72ADD79691
:103C30004D935D936D937C93DA9743AD54AD65AD31
:103C400076ADDB964D935D936D937C93DE97EF019C
:103C5000EF96488159816A817B81ED01EF96488317
:103C600059836A837B83ED5BFF4F8081FD01ED5BB0
:103C7000FF4F8083CD01DF91CF9108951F920F9266
:103C80000FB60F9211240BB60F922F933F934F93C1
:103C90005F936F937F938F939F93AF93BF93EF93B4
:103CA000FF9380911F03909120038093B200809135
:103CB000220390912303A0912403B0912503019640
:103CC000A11DB11D8093220390932303A09324038D
:103CD000B09325038091220390912303A0912403A4
:103CE000B091250340911B0350911C0360911D036B
:103CF00070911E0384179507A607B70710F18091EE
:103D0000210381111EC081E0809321038091220351
:103D100090912303A0912403B0912503841B950B5C
:103D2000A60BB70B8093220390932303A093240345
:103D3000B0932503E0911903F0911A03199510929D
:103D40002103FF91EF91BF91AF919F918F917F914F
:103D50006F915F914F913F912F910F900BBE0F90FC
:103D60000FBE0F901F9018954F925F926F927F92A7
:103D70008F929F92AF92BF92CF92DF92EF92FF927B
:103D8000CF93DF93EC016A017B018B8C9C8CAD8C13
:103D9000BE8C9A01AB01C501B4010E942A2C882374
:103DA00009F445C06BA97CA98DA99EA90E94302C5D
:103DB0002B013C01A7019601C501B401E4D69B018A
:103DC000AC01C301B2010E948F2C45D76BAB7CAB19
:103DD0008DAB9EABA701960160E070E080E090E4BF
:103DE000D2D672D726E53EE04DE25FE30E948F2CEB
:103DF00020E034E244E759E40E948F2C6FAB78AFA7
:103E000089AF9AAFCB8EDC8EED8EFE8ECE01DF9128
:103E1000CF91FF90EF90DF90CF90BF90AF909F90A9
:103E20008F907F906F905F904F900C949E10DF91D9
:103E3000CF91FF90EF90DF90CF90BF90AF909F9089
:103E40008F907F906F905F904F9008958F929F9288
:103E5000AF92BF92CF92DF92EF92FF92CF93DF9318
:103E6000EC018B889C88AD88BE8820E030E0A901F9
:103E7000C501B4010E942A2C882309F43BC0A50186
:103E80009401C501B4010E948F2C6B017C016B8DE4
:103E90007C8D8D8D9E8D9B01AC0111D69B01AC015B
:103EA000C701B60170D6D7D66B017C012FEFC21ABD
:103EB000D20AE20AF20A20E030E0A901C501B40109
:103EC000FBD618161CF4B701A60107C044275527D6
:103ED000BA014C195D096E097F09CE01DF91CF91BE
:103EE000FF90EF90DF90CF90BF90AF909F908F901A
:103EF0000C94B412DF91CF91FF90EF90DF90CF90B0
:103F0000BF90AF909F908F900895CF92DF92EF92E5
:103F1000FF920F931F93CF93DF93EC016A017B0114
:103F20009A01AB016F89788D898D9A8D0E942A2C18
:103F3000882309F442C0CF8AD88EE98EFA8E8E018A
:103F4000015C1F4FA701960160E074E284E799E4E9
:103F50001AD6F80160837183828393838BA99CA90D
:103F6000ADA9BEA9181619061A061B0634F56B89E9
:103F70007C898D899E899B01AC010E948F2C6B01ED
:103F80007C016B8D7C8D8D8D9E8D9B01AC0197D5B9
:103F90009B01AC01C701B601F6D55DD66BAB7CAB1E
:103FA0008DAB9EABCE01DF91CF911F910F91FF9012
:103FB000EF90DF90CF900C949E10DF91CF911F91E6
:103FC0000F91FF90EF90DF90CF900895CF93DF9304
:103FD000CDB7DEB7CA54D1090FB6F894DEBF0FBE15
:103FE000CDBF789484B5826084BD84B5816084BD82
:103FF00085B5826085BD85B5816085BD80916E0087
:10400000816080936E0010928100809181008260B7
:1040100080938100809181008160809381008091F4
:1040200080008160809380008091B10084608093E3
:10403000B1008091B00081608093B00080919100C8
:1040400082608093910080919100816080939100C3
:10405000809190008160809390008091A1008260A7
:104060008093A1008091A10081608093A100809144
:10407000A00081608093A0008091210182608093E4
:104080002101809121018160809321018091200193
:1040900081608093200180917A00846080937A000F
:1040A00080917A00826080937A0080917A008160AA
:1040B00080937A0080917A00806880937A001092D1
:1040C000C1008FE081B980EF82B9109217031C8282
:1040D0001B8282E492E09A8389831CAE1DAE1EAEE1
:1040E0001A8619861C861B861E8681E08D8782E2D1
:1040F0008F871C8A1B8AFE01B896CE01C6962FEFC9
:104100002193E817F907E1F781E08DA324EC3EE065
:104110003B8F2A8F8C8F1D8E1E8E80E48F8F18A26E
:1041200087E79EE09FAB8EAB88E092E098878F8315
:104130001BAACE0105960E94C6128B819C8190938A
:10414000AB048093AA0487E3FE013596ACEAB4E0A1
:1041500001900D928A95E1F78CAD8093E3048DADCB
:104160008093E4048EAD8093E5048091B004909137
:10417000B1048852914009F445C088E291E09093DF
:10418000B1048093B0048091C304811108C0EDE2B2
:10419000F1E0E491E093C404E4E3F1E011C0813084
:1041A00041F4E7E3F1E0E491E093C404E8E3F1E0F3
:1041B00007C0E5E3F1E0E491E093C404E6E3F1E055
:1041C000E491E093C5048091C404082E000C990B7F
:1041D0002091C504821B910927FD93952091C60467
:1041E000203441F0829FC001112426E096958795E6
:1041F0002A95E1F78093C70484EC9EE09093C20473
:104200008093C10461E088E0AEDB61E089E3ABDB71
:10421000809102018062809302018B9A62E086E3C2
:10422000A2DB62E089E09FDB62E08AE09CDB62E087
:104230008BE099DB62E087E396DB61E085E093DB6E
:1042400061E086E090DB61E087E08DDB61E082E0A9
:104250008ADB61E083E087DB61E084E084DBCC24FF
:10426000C39485E0E82E04E025E042E061E0CE0161
:1042700001965C010E943C10B50184E694E043DCA9
:1042800026E043E061E0C5010E943C10B50180E2F8
:1042900094E039DC27E044E061E0C5010E943C1075
:1042A000B5018CED93E02FDC1092270310922603CA
:1042B000109229031092280361E772E086ED93E0E3
:1042C0001DD810922B0310922A031092180366E552
:1042D00072E080ED93E012D840E050E06AE774E4C9
:1042E00084E694E012DE40E050E06AE774E480E2A5
:1042F00094E00BDE40E050E06AE774E48CED93E07C
:1043000004DE40E050E46CE975E484E694E02CDDE2
:1043100040E050E46CE975E480E294E025DD40E0A3
:1043200050E46CE975E48CED93E01EDD80917A0039
:104330008B7F80937A0080917A00826080937A00EC
:1043400080917A00816080937A0081E090E0A0E023
:10435000B0E080931B0390931C03A0931D03B093C4
:104360001E038EE693E090931A03809319038091C5
:1043700070008E7F809370008091B0008C7F80935E
:10438000B0008091B100877F8093B1008091B6002A
:104390008F7D8093B600809170008D7F8093700038
:1043A0008091B10084608093B1008091B1008C7FD6
:1043B0008093B10086E090E09093200380931F03E8
:1043C00010922203109223031092240310922503CB
:1043D0001092210380911F03909120038093B200DB
:1043E00080917000816080937000E0914303F091B0
:1043F000440382E08083E0913F03F0914003108208
:10440000E0914103F09142038FEC808310924B03C3
:10441000E0914703F091480386E08083E0914503F3
:10442000F0914603808180618083E0914503F091A3
:104430004603808188608083E0914503F0914603C4
:10444000808180688083E0914503F09146038081FC
:104450008F7D808300EC12E096EEE92E92E0F92E3B
:104460008091E504811106C0C092E5048CEA94E0D5
:104470000E94C6128090AE049090AF04E091DD04DB
:10448000F091DE0482E01995E091DD04F091DE0404
:1044900081E0199520E030E044E1B4018CEA94E039
:1044A0000E94C2122FED34E047E1B4018CEA94E09F
:1044B0000E94C212E091DD04F091DE0480E01995C3
:1044C0008091260390912703009719F44DEA52E05A
:1044D0000AC08130910519F443EB52E004C0029701
:1044E00031F44AEB52E06AE08DE20E94B715809108
:1044F000280390912903009709F049C08091720424
:104500008F93809171048F93809170048F93809129
:104510006F048F931F930F93BF92AF928FD644EC8B
:1045200052E064E182E00E94B715A50164E181E1F7
:104530000E94B71580912E048F9380912D048F9344
:1045400080912C048F9380912B048F931F930F9352
:10455000BF92AF9273D647EC52E06EE182E00E94C8
:10456000B715A5016EE181E10E94B7158091EA03BC
:104570008F938091E9038F938091E8038F938091CB
:10458000E7038F931F930F93BF92AF9295C0813033
:10459000910509F03EC04DEC52E064E182E00E94DA
:1045A000B71566ED73E0CE018B5B9F4F0E94AD198E
:1045B000B501CE018B5B9F4F0E941819CE018B5B1A
:1045C0009F4F0E94A819A50164E189E10E94B715D7
:1045D00041ED52E064E189E10E94B71580912E041B
:1045E0008F9380912D048F9380912C048F938091D1
:1045F0002B048F931F930F93BF92AF921FD647EC5C
:1046000052E06EE182E00E94B715A5016EE181E102
:1046100041C08230910509F05AC0809172048F9395
:10462000809171048F93809170048F9380916F04B7
:104630008F931F930F93BF92AF9200D644EC52E03A
:1046400064E182E00E94B715A50164E181E10E9466
:10465000B7154CED52E06EE182E00E94B71566EDB1
:1046600073E0CE018B5B9F4F0E94AD19B501CE0167
:104670008B5B9F4F0E941819CE018B5B9F4F0E944E
:10468000A819A5016EE189E10E94B71541ED52E03C
:104690006EE189E10E94B7158091EA038F938091C2
:1046A000E9038F938091E8038F938091E7038F93C1
:1046B0001F930F93BF92AF92C1D54AEC52E068E2CC
:1046C00082E00E94B715A50168E281E15CC0039712
:1046D00009F060C0809172048F93809171048F9370
:1046E000809170048F9380916F048F931F930F9329
:1046F000BF92AF92A3D544EC52E064E182E00E9405
:10470000B715A50164E181E10E94B71580912E04DF
:104710008F9380912D048F9380912C048F9380919F
:104720002B048F931F930F93BF92AF9287D547ECC3
:1047300052E06EE182E00E94B715A5016EE181E1D1
:104740000E94B71540EE52E068E282E00E94B71581
:1047500066ED73E0CE018B5B9F4F0E94AD19B501F2
:10476000CE018B5B9F4F0E941819CE018B5B9F4F30
:104770000E94A819A50168E289E10E94B71541EDE0
:1047800052E068E289E10E94B7150FB6F894DEBFE7
:104790000FBECDBF80912A0390912B0381309105EC
:1047A00071F0029791F444EE52E064E183E70E94D5
:1047B000B71544EE52E06EE183E70E94B71544EE70
:1047C00052E068E283E70E94B71580912D038F9332
:1047D00080912C038F93FF92EF92BF92AF922ED5D0
:1047E000A50162E382E00E94B71560ED73E0CE019F
:1047F0008B5B9F4F0E94AD19B501CE018B5B9F4F24
:104800000E941819CE018B5B9F4F0E94A819A50129
:1048100062E388E20E94B715E091BA04F091BB040C
:104820000F900F900F900F900F900F90309719F0FE
:104830008CEA94E019958090AE049090AF04E091DA
:10484000DD04F091DE0482E01995E091DD04F09141
:10485000DE0481E0199520E030E045E1B4018CEA06
:1048600094E00E94C212D82E882341F02FED34E04C
:1048700047E1B4018CEA94E00E94C212E091DD04A9
:10488000F091DE0480E01995D1101ACE0E94E00D5F
:10489000E7CDCF92EF920F9310923603109235032B
:1048A00088EE93E0A0E0B0E0809337039093380364
:1048B000A0933903B0933A0382E392E090933403D8
:1048C0008093330385EC90E09093400380933F0303
:1048D00084EC90E0909342038093410380EC90E05D
:1048E000909344038093430381EC90E090934603BC
:1048F0008093450382EC90E09093480380934703B4
:1049000086EC90E090934A038093490310924C0305
:1049100010924D0310924E0310924F03CC24C39477
:1049200085E0E82E04E023E042E064E084E694E0E1
:104930000E943C1023E042E064E080E294E00E94A8
:104940003C1023E042E064E08CED93E00E943C10D8
:1049500061E772E086ED93E00E94B51961E772E0CD
:1049600080ED93E00E94B5191092AB041092AA0456
:1049700082E492E09093A9048093A8041092E30447
:104980001092E4041092E5041092B1041092B00465
:104990001092B3041092B2041092B50481E0809397
:1049A000B40482E28093B6041092BB041092BA045D
:1049B000EFECF4E09FEF8EE08E0F91938E13FDCF1E
:1049C00081E08093CC0424EC3EE03093C204209339
:1049D000C1048093C3041092C4041092C50480E4FF
:1049E0008093C6041092C70487E79EE09093DE048C
:1049F0008093DD0488E092E09093AF048093AE044E
:104A00001092DA048CEA94E00E94C61282E592E0E9
:104A10009093A9048093A8040F91EF90CF900895EC
:104A200080ED93E00E94A81986ED93E00C94A819FC
:104A3000052E97FB16F400940FD057FD05D01CD01F
:104A400007FC02D046F408C050954095309521955A
:104A50003F4F4F4F5F4F08959095809570956195AA
:104A60007F4F8F4F9F4F0895EE0FFF1F881F8BBF03
:104A70000790F691E02D1994A1E21A2EAA1BBB1BF8
:104A8000FD010DC0AA1FBB1FEE1FFF1FA217B3071A
:104A9000E407F50720F0A21BB30BE40BF50B661F30
:104AA000771F881F991F1A9469F7609570958095F4
:104AB00090959B01AC01BD01CF0108955058BB27D3
:104AC000AA270ED0A9C79AD730F09FD720F031F48B
:104AD0009F3F11F41EF48FC70EF4E095E7FB85C7E6
:104AE000E92FABD780F3BA176207730784079507DE
:104AF00018F071F49EF5C3C70EF4E0950B2EBA2F93
:104B0000A02D0B01B90190010C01CA01A0011124D3
:104B1000FF27591B99F0593F50F4503E68F11A167F
:104B2000F040A22F232F342F4427585FF3CF469510
:104B300037952795A795F0405395C9F77EF41F1632
:104B4000BA0B620B730B840BBAF09150A1F0FF0FFC
:104B5000BB1F661F771F881FC2F70EC0BA0F621FE8
:104B6000731F841F48F4879577956795B795F795D8
:104B70009E3F08F0B3CF9395880F08F09927EE0F6A
:104B80009795879508950CD047C73FD740F036D703
:104B900030F021F45F3F19F028C7511171C72BC7BE
:104BA0004CD798F39923C9F35523B1F3951B550BB3
:104BB000BB27AA2762177307840738F09F5F5F4FF0
:104BC000220F331F441FAA1FA9F333D00E2E3AF031
:104BD000E0E830D091505040E695001CCAF729D04B
:104BE000FE2F27D0660F771F881FBB1F261737079A
:104BF0004807AB07B0E809F0BB0B802DBF01FF27CA
:104C000093585F4F2AF09E3F510568F0EEC638C7B3
:104C10005F3FECF3983EDCF3869577956795B79503
:104C2000F7959F5FC9F7880F911D9695879597F91E
:104C30000895E1E0660F771F881FBB1F6217730797
:104C40008407BA0720F0621B730B840BBA0BEE1FAC
:104C500088F7E095089504D06894B11111C70895BC
:104C6000F4D688F09F5790F0B92F9927B751A0F04C
:104C7000D1F0660F771F881F991F1AF0BA95C9F7F0
:104C800012C0B13081F0FBD6B1E00895F8C6672FAD
:104C9000782F8827B85F39F0B93FCCF386957795A0
:104CA0006795B395D9F73EF4909580957095619589
:104CB0007F4F8F4F9F4F08950ED608F48FEF0895C2
:104CC00011F40EF498C63EC0C0D6D0F39923D9F3A0
:104CD000CEF39F57550B87FF43D00024A0E640EA50
:104CE000900180585695979528F4805C660F771F41
:104CF000881F20F026173707480730F4621B730B14
:104D0000840B202931294A2BA69517940794202536
:104D100031254A2758F7660F771F881F20F026177E
:104D20003707480730F4620B730B840B200D311DDD
:104D3000411DA09581F7B901842F9158880F969550
:104D4000879508959F3F31F0915020F4879577958E
:104D50006795B795880F911D9695879597F9089552
:104D600091505040660F771F881FD2F70895CF9358
:104D7000DF938230910510F482E090E0E0917605B7
:104D8000F091770520E030E0C0E0D0E0309711F1FD
:104D90004081518148175907C0F04817590761F4FD
:104DA00082819381209719F09B838A832BC09093F3
:104DB00077058093760526C02115310519F0421735
:104DC000530718F49A01BE01DF01EF010280F3815D
:104DD000E02DDCCF2115310509F1281B390B2430DA
:104DE000310590F412968D919C9113976115710580
:104DF00021F0FB019383828304C090937705809315
:104E00007605FD01329644C0FD01E20FF31F819348
:104E10009193225031092D933C933AC0209174050F
:104E200030917505232B41F420911002309111022D
:104E3000309375052093740520910E0230910F0276
:104E40002115310541F42DB73EB740911202509122
:104E50001302241B350BE0917405F0917505E217E0
:104E6000F307A0F42E1B3F0B2817390778F0AC018D
:104E70004E5F5F4F2417350748F04E0F5F1F50936A
:104E80007505409374058193919302C0E0E0F0E0D2
:104E9000CF01DF91CF9108950F931F93CF93DF93AD
:104EA000009709F48CC0FC013297138212820091A2
:104EB0007605109177050115110581F42081318166
:104EC000820F931F209174053091750528173907BB
:104ED00079F5F0937505E093740571C0D80140E051
:104EE00050E0AE17BF0750F412962D913C911397E6
:104EF000AD012115310509F1D901F3CF9D01DA0189
:104F00003383228360817181860F971F82179307F5
:104F100069F4EC0128813981260F371F2E5F3F4F3E
:104F2000318320838A819B8193838283452B29F45B
:104F3000F0937705E093760542C01396FC93EE93C9
:104F40001297ED01499159919E01240F351FE217E7
:104F5000F30771F480819181840F951F0296119659
:104F60009C938E938281938113969C938E93129738
:104F7000E0E0F0E0D80112968D919C911397009794
:104F800019F0F8018C01F6CF8D919C9198012E5F5C
:104F90003F4F820F931F209174053091750528179C
:104FA000390769F4309729F4109277051092760545
:104FB00002C0138212821093750500937405DF916D
:104FC000CF911F910F9108956F927F928F929F9230
:104FD000AF92BF92CF92DF92EF92FF920F931F9307
:104FE000CF93DF93EC01009781F4CB01DF91CF9158
:104FF0001F910F91FF90EF90DF90CF90BF90AF90F7
:105000009F908F907F906F90B2CEFC01E60FF71FBC
:105010009C0122503109E217F30708F4A8C0D90116
:105020000D911C91119706171707A8F0053011056F
:1050300008F49BC0C80104978617970708F495C029
:1050400002501109061B170B019311936D937C936A
:10505000CF0122DF8AC05B01A01AB10A4C01800E89
:10506000911EA0917605B091770540E050E0E12CCB
:10507000F12C109709F44AC0A815B905D1F56D9027
:105080007C901197630182E0C80ED11CCA14DB0426
:1050900080F1A3014A195B096A0182E0C80ED11CA4
:1050A0001296BC9012971396AC91B5E0CB16D10432
:1050B00040F0B282A38351834083D9016D937C93E6
:1050C0000AC00E5F1F4FC301800F911FF90191832A
:1050D0008083EB2DFA2FE114F10431F0D701139600
:1050E000FC93EE93129741C0F0937705E093760519
:1050F0003CC08D919C9111974817590708F4AC0159
:105100007D0112960D90BC91A02DB3CF80917405B6
:105110009091750588159905E1F446175707C8F46D
:1051200080910E0290910F02009741F48DB79EB7C7
:105130004091120250911302841B950BE817F90756
:10514000B0F4F0937505E0937405F9017183608301
:105150000CC0CB010CDE7C01009749F0A801BE0118
:105160001BD0CE0199DEC70104C0CE0102C080E091
:1051700090E0DF91CF911F910F91FF90EF90DF9022
:10518000CF90BF90AF909F908F907F906F90089539
:1051900081E090E0F8947AC4FB01DC0102C0019048
:1051A0000D9241505040D8F708956817790768F478
:1051B000FB01DC01E40FF51FA40FB51F02C0029034
:1051C0000E9241505040D8F70895E6CFFB01DC0124
:1051D0008D91019080190110D9F3990B0895FB016D
:1051E000DC0101900D920020E1F70895FB01DC0144
:1051F0004150504030F08D910190801919F40020F9
:10520000B9F7881B990B0895FB0151915523A9F01B
:10521000BF01DC014D9145174111E1F759F4CD0172
:105220000190002049F04D9140154111C9F3FB0157
:105230004111EFCF81E090E0019708950F931F9304
:10524000CF93DF93CDB7DEB72E970FB6F894DEBFBE
:105250000FBECDBF0E891F8986E08C831A83098318
:105260008FEF9FE79E838D83AE01465E5F4F688D13
:10527000798DCE01019611D02F813885F801E20F8A
:10528000F31F10822E960FB6F894DEBF0FBECDBF6F
:10529000DF91CF911F910F9108952F923F924F92DE
:1052A0005F926F927F928F929F92AF92BF92CF92B6
:1052B000DF92EF92FF920F931F93CF93DF93CDB7BF
:1052C000DEB72C970FB6F894DEBF0FBECDBF7C01C2
:1052D0006B018A01FC0117821682838181FFB0C1B4
:1052E000CE0101964C01F7019381F60193FD859162
:1052F00093FF81916F01882309F49EC1853239F4AF
:1053000093FD859193FF81916F01853221F4B7015F
:1053100090E0C7D1E8CF512C312C20E02032A0F40E
:105320008B3269F030F4803259F0833269F42061B5
:105330002CC08D3239F0803339F4216026C02260D0
:10534000246023C0286021C027FD27C030ED380F1E
:105350003A3078F426FF06C0FAE05F9E300D112443
:10536000532E13C08AE0389E300D1124332E206254
:105370000CC08E3221F426FD5FC1206406C08C363D
:1053800011F4206802C0883641F4F60193FD85913E
:1053900093FF81916F018111C1CF982F9F7D95540B
:1053A000933028F40C5F1F4FFFE3F9830DC0833661
:1053B00031F0833771F0833509F057C021C0F8010F
:1053C000808189830E5F1F4F44244394512C5401E4
:1053D00014C03801F2E06F0E711CF801A080B1809A
:1053E00026FF03C0652D70E002C06FEF7FEFC5019F
:1053F0002C874CD12C0183012C852F77222E16C0AF
:105400003801F2E06F0E711CF801A080B18026FF18
:1054100003C0652D70E002C06FEF7FEFC5012C87E0
:105420002AD12C012C852068222E830123FC19C04F
:10543000832D90E048165906A0F4B70180E290E071
:1054400030D13A94F5CFF50127FC859127FE819163
:105450005F01B70190E025D131103A94F1E04F1A85
:1054600051084114510479F7DEC0843611F08936B1
:1054700031F5F80127FF07C0608171818281938136
:105480000C5F1F4F08C060817181072E000C880BD4
:10549000990B0E5F1F4F2F76722E97FF09C09095C4
:1054A0008095709561957F4F8F4F9F4F2068722E2A
:1054B0002AE030E0A4012DD1A82EA81843C08537DA
:1054C00029F42F7EB22E2AE030E025C0F22FF97F9A
:1054D000BF2E8F36C1F018F4883579F0ADC0803713
:1054E00019F0883721F0A8C02F2F2061B22EB4FE0A
:1054F0000DC08B2D8460B82E09C024FF0AC09F2FD9
:105500009660B92E06C028E030E005C020E130E00A
:1055100002C020E132E0F801B7FE07C0608171816E
:10552000828193810C5F1F4F06C06081718180E092
:1055300090E00E5F1F4FA401ECD0A82EA818FB2D01
:10554000FF777F2E76FE0BC0372D3E7FA51450F4DB
:1055500074FE0AC072FC08C0372D3E7E05C0BA2C0E
:10556000372D03C0BA2C01C0B52C34FF0DC0FE018D
:10557000EA0DF11D8081803311F4397E09C032FFBC
:1055800006C0B394B39404C0832F867809F0B39413
:1055900033FD12C030FF06C05A2CB31418F4530C5C
:1055A0005B18B32CB31460F4B70180E290E03C8741
:1055B00078D0B3943C85F6CFB31410F43B1801C0F7
:1055C000312C34FF11C0B70180E390E03C8769D0F3
:1055D0003C8532FF16C031FD03C088E790E002C071
:1055E00088E590E0B7010CC0832F867851F031FF39
:1055F00002C08BE201C080E237FD8DE2B70190E08E
:1056000050D0A51430F4B70180E390E04AD05A940A
:10561000F8CFAA94F401EA0DF11D8081B70190E062
:1056200040D0A110F6CF332009F45DCEB70180E25F
:1056300090E037D03A94F7CFF7018681978102C086
:105640008FEF9FEF2C960FB6F894DEBF0FBECDBF45
:10565000DF91CF911F910F91FF90EF90DF90CF904E
:10566000BF90AF909F908F907F906F905F904F9082
:105670003F902F900895FC010590615070400110FB
:10568000D8F7809590958E0F9F1F0895FC0161506B
:10569000704001900110D8F7809590958E0F9F1F54
:1056A00008950F931F93CF93DF93FB01238121FD77
:1056B00003C08FEF9FEF28C022FF16C0468157819D
:1056C000248135814217530744F4A081B1819D01A3
:1056D0002F5F3F4F318320838C93268137812F5F4B
:1056E0003F4F3783268310C0EB01092F182F00840A
:1056F000F185E02D1995892BE1F68E819F81019628
:105700009F838E83812F902FDF91CF911F910F91D7
:105710000895FA01AA27283051F1203181F1E89447
:105720006F936E7F6E5F7F4F8F4F9F4FAF4FB1E094
:105730003ED0B4E03CD0670F781F891F9A1FA11D8F
:10574000680F791F8A1F911DA11D6A0F711D811D90
:10575000911DA11D20D009F468943F912AE0269F55
:1057600011243019305D3193DEF6CF010895462FB4
:105770004770405D4193B3E00FD0C9F7F6CF462F95
:105780004F70405D4A3318F0495D31FD40524193FE
:1057900002D0A9F7EACFB4E0A695979587957795BB
:1057A0006795BA95C9F700976105710508959B0142
:1057B000AC010A2E06945795479537952795BA95CB
:1057C000C9F7620F731F841F951FA01D08951F93B3
:1057D000FC0199278827BC01E89411911032E9F364
:1057E000193010F01E30C8F31B3249F01D3241F45D
:1057F000689405C012D0610F711D811D911D11911A
:1058000010531A30B8F33EF49095809570956195D9
:105810007F4F8F4F9F4F1F910895592F482F372F3C
:10582000262F660F771F881F991F660F771F881F07
:10583000991F620F731F841F951F660F771F881FA4
:10584000991F08959111CEC0803219F0895085506A
:10585000D0F7089540D008F481E00895E89409C095
:1058600097FB3EF490958095709561957F4F8F4F93
:105870009F4F9923A9F0F92F96E9BB279395F695A9
:10588000879577956795B795F111F8CFFAF4BB0F27
:1058900011F460FF1BC06F5F7F4F8F4F9F4F16C08B
:1058A000882311F096E911C0772321F09EE8872F15
:1058B000762F05C0662371F096E8862F70E060E0D1
:1058C0002AF09A95660F771F881FDAF7880F96954A
:1058D000879597F90895990F0008550FAA0BE0E8EE
:1058E000FEEF16161706E807F907C0F012161306A2
:1058F000E407F50798F0621B730B840B950B39F4E2
:105900000A2661F0232B242B252B21F408950A2647
:1059100009F4A140A6958FEF811D811D08950BD03C
:105920007BC06CD028F071D018F0952309F05DC0D1
:1059300062C01124A5C081D0A0F3959FD1F3950F2B
:1059400050E0551F629FF001729FBB27F00DB11D03
:10595000639FAA27F00DB11DAA1F649F6627B00D93
:10596000A11D661F829F2227B00DA11D621F739F7C
:10597000B00DA11D621F839FA00D611D221F749F8A
:105980003327A00D611D231F849F600D211D822FD1
:10599000762F6A2F11249F5750408AF0E1F0882318
:1059A0004AF0EE0FFF1FBB1F661F771F881F915025
:1059B0005040A9F79E3F510570F017C061C05F3F8E
:1059C000ECF3983EDCF3869577956795B795F79558
:1059D000E7959F5FC1F7FE2B880F911D96958795E0
:1059E00097F9089599278827089597F99F6780E880
:1059F00070E060E008959FEF80EC089500240A9421
:105A00001616170618060906089500240A94121699
:105A10001306140605060895092E0394000C11F4CC
:105A2000882352F0BB0F40F4BF2B11F460FF04C079
:105A30006F5F7F4F8F4F9F4F089557FD9058440FD2
:105A4000551F59F05F3F71F04795880F97FB991FDD
:105A500061F09F3F79F0879508951216130614069A
:105A6000551FF2CF4695F1DF08C016161706180627
:105A7000991FF1CF86957105610508940895E89402
:105A8000BB2766277727CB0197F9089513E0CBE36F
:105A9000D3E000E006C0802FFE010E94342521964D
:105AA000011DCC33D10780E00807A9F7F894FFCF98
:105AB000084000000080E604FB0E0002FB1400001A
:105AC00078058000000000001D1DEF1CF71B321C34
:105AD000E11B9F1B7E1B4A1B291BD31A9B1A00002C
