:100000003BC300006AC3000068C3000066C3000071
:1000100064C3000062C3000060C300005EC3000050
:100020005CC300005AC3000058C3000056C3000060
:1000300054C3000052C3000050C300000C94E00FF2
:100040004CC300004AC3000048C3000046C3000080
:1000500044C3000042C3000040C300000C94DB0E08
:100060003CC300000C94230B0C94FA0A36C3000026
:1000700034C3000032C3000030C300002EC30000B0
:100080002CC300002AC3000028C3000026C30000C0
:1000900024C3000022C3000020C300001EC30000D0
:1000A0001CC300001AC3000018C3000016C30000E0
:1000B00014C3000012C3000010C300000EC30000F0
:1000C0000CC300000AC3000008C3000006C3000000
:1000D00004C3000002C3000000C30000FEC2000011
:1000E000FCC20000CC0BCF0BBE0BC20BC60B060C28
:1000F000D30BD70BDD0BE10BE50BEB0BEF0BF30B8E
:10010000060CF90BFD0B010C330C370C3B0C3F0CB0
:10011000430C470C4B0CC20DC90DD00DD70DDE0D95
:10012000F60DE50DF60DEC0DFFE0FFD1AFFF32FF50
:10013000D0FFFEFFE0FFD1AEFFD0FFFEFFE0FFD11A
:100140001000FFFEFFD0FFE0FFC1FFD1AED580A8B9
:100150003FD300408D142000A1C8DA1281CFD9F11D
:10016000DB402EA4A6AFFFD0FFFE01080D00FE0964
:10017000016102CD207FFE0BFE09FE0D00803219C9
:100180008980808080808080008028438390909048
:100190001367874848FC48FC48481259892078A0D2
:1001A000A0702828F02012698944A4481010204823
:1001B00054881267876090906094887438138380A5
:1001C0008080323989204040808080404020223920
:1001D000898040402020204040801665854830FCC2
:1001E00030481455852020F820201143837060800A
:1001F000165181F821338340E040027989020204DC
:100200000810204080801269893048848484848466
:1002100048301259892060A02020202020F812693F
:10022000897884840408304080FC126989FC0408C1
:10023000103804048478126989081828488888FCD2
:100240000808126989FC8080B8C4040484781269A3
:100250008938408080B8C4848478126989FC040895
:100260001010202040401269897884848478848426
:1002700084781269897884848C7404040870213825
:100280008840E040000040E0401148882070200095
:10029000007060802259890810204080402010089A
:1002A000146484FC0000FC1259898040201008105E
:1002B000204080126989788484040810100010128C
:1002C00069897884849CA4AC9480781269893048C8
:1002D000848484FC848484126989F0888488F0880A
:1002E0008488F01269897884808080808084781284
:1002F0006989F088848484848488F0126989FC8008
:100300008080F0808080FC126989FC808080F08091
:1003100080808012698978848080809C848C7412AB
:10032000698984848484FC84848484125989F820B3
:10033000202020202020F81279893E08080808088B
:10034000088870126989848890A0C0A0908884125F
:1003500069898080808080808080FC0279898282A7
:10036000C6AA92928282821269898484C4A4948CDF
:10037000848484126989788484848484848478124F
:100380006989F8848484F880808080116A8A7884FE
:1003900084848484A4947804126989F8848484F819
:1003A000A090888412698978848080780404847895
:1003B000027989FE10101010101010101269898433
:1003C0008484848484848478027989828244444445
:1003D0002828281002798982828282929292AA44E5
:1003E0000279898282442810284482820279898293
:1003F0008244281010101010126989FC0408102083
:10040000408080FC224989F080808080808080F05C
:10041000027989808040201008040202124989F084
:1004200010101010101010F0185383205088017114
:1004300081FE3A2282804012668678047C848C7425
:10044000126989808080B8C48484C4B812668678B2
:100450008480808478126989040404748C84848C78
:10046000741266867884FC808478126989384440E6
:1004700040F84040404010688874888870807884D4
:1004800078126989808080B8C484848484125888F2
:1004900020006020202020F8105A8A080018080840
:1004A00008088888701269898080808890E0908828
:1004B000841259896020202020202020F80276868E
:1004C000EC9292929282126686B8C48484848412DA
:1004D0006686788484848478106888B8C484C4B8B4
:1004E000808080106888748C848C74040404126684
:1004F00086B844404040401266867884601884780C
:100500001268884040F84040404438126686888827
:10051000888888741256868888885050200276868B
:1005200082829292AA4412668684483030488410AF
:1005300068888484848C74048478126686FC08102D
:100540002040FC22598938404020C02040403832A9
:100550001989808080808080808080125989E01095
:10056000102018201010E018538348A890FF0000B6
:100570002100240027002A002D0030003300010153
:100580000000040107010A010000220025002800E4
:100590002B002E003100340002010000050108018B
:1005A0000B010505050507050808080802020202F7
:1005B0000A0A0808040404040101010101010101FF
:1005C0000303030303030303040707070C0C0C0CCA
:1005D0000C0C0C0C020202020606060606060606B3
:1005E0000B0B0B0B0B0B0B0B010210202008081040
:1005F0002040102040800201020108040201010293
:10060000040810204080804020100804020180046B
:1006100002018040201008040201080402010102C6
:1006200004081020408001020408102040800000CF
:100630000A0B02090C0D0E0807030401000000005C
:1006400000000000000000000000000000000000AA
:100650000000000000000000000012111000000067
:10066000000000000000000000000000000000008A
:100670000000000053244B2411241FBECFEFD1E211
:10068000DEBFCDBF00E00CBF12E0A0E0B2E0ECE9BD
:10069000FAE500E00BBF02C007900D92AE3CB10737
:1006A000D9F725E0AEECB2E001C01D92AE36B2073C
:1006B000E1F713E0CBE3D3E000E006C021970109A6
:1006C000802FFE010E943525CA33D10780E008073C
:1006D000A9F70E94B01F0C943C2D92CC0895DC0128
:1006E0001696ED91FC91179712968C91481B4770C6
:1006F00081E090E001C0880F4A95EAF7E60FF11D0E
:100700003081222311F0832B02C0809583238083C4
:100710000895FB014181DC0112962C91129742173A
:1007200060F013962C911397241738F0608115967A
:100730002C91621710F42481D2CF0895FC0180819E
:100740009281980F92832181921760F494819F5F28
:1007500094839381890F821710F08FEF820F838328
:1007600081E0089580E00895FC011282808181502B
:1007700083831482089580E008950B96FC01849190
:1007800008950A96FC0184910895FC0184910895CE
:10079000FCDF882321F0823011F083E0089586E0A9
:1007A0000895FC01E60FF11D849190E0982F8827B1
:1007B0003196E4918E0F911D089568E0F2CF66E0C6
:1007C000F0CF2EE93FE0009729F0F9013197F1F7DA
:1007D0000197F9CF08951092CF021092CE0208959A
:1007E0008093F0021092B90084FF02C08CE001C037
:1007F00088E48093B800EFCFDB011496ED91FC9173
:10080000159720E030E065E01994DB011496ED9136
:10081000FC91159720E030E062E01994DB0114961A
:10082000ED91FC91159720E030E063E01994CF92B0
:10083000DF92EF92FF920F931F93CF93DF938C0180
:100840007B016A0180E0F601C49181110AC0CF3FAB
:1008500009F447C04C2FB701C801CEDF81113FC05A
:1008600045C0CF3F11F44FEFF6CFCE3F09F440C063
:10087000C03FA8F5C03E30F04C2F4F70B701C80103
:10088000C4DF2DC0C03D30F04C2F4F70B701C80100
:10089000C5DF25C0C03CF0F0D7011496ED91FC9166
:1008A000159720E030E040E064E0C8011995C2955A
:1008B000C07FCE5FD0E0CE0184DFD7011496ED91EA
:1008C000FC91159720E030E041E064E0C801199503
:1008D000CE0104C0C7FD03C08C2F90E072DF80E022
:1008E00001C081E0BFEFCB1ADB0AADCF80E001C0D1
:1008F00081E0DF91CF911F910F91FF90EF90DF90FA
:10090000CF9008958F929F92AF92BF92CF92DF9235
:10091000FF920F931F93CF93DF931F921F92CDB738
:10092000DEB76C018B01F42E490120E1421709F476
:100930005DC02417D8F03AE0431701F18FE0481367
:100940005EC041E0C6016ADF40E0B801C6015DDF7C
:1009500041E8B801C60150DFF4014081B801C60189
:100960004BDF40E0B801C60159DFFEC0A1E14A17E4
:1009700009F43FC0B5E14B1789F041C0DB01149683
:10098000ED91FC91159720E030E042E061E019958F
:1009900044E451E0B801C6014ADF31C0FB01A28046
:1009A000B3804CE351E043DFD50114964C91406B8A
:1009B000B801C60121DF41E0B801C60126DFF5011B
:1009C00026813781D8011496ED91FC911597D501B8
:1009D00015964C9166E0C6011995811102C080E020
:1009E000C4C040E0B801C60119DF09C043E351E0CB
:1009F00002C048E251E0B801C60119DFB5C0D80114
:100A000012960D911C911397B2E3FB1609F473C073
:100A1000BF15B8F0E5E1FE1609F478C0F7E1FF165E
:100A200009F489C024E1F2129FC0D8011696ED9115
:100A3000FC91179715968C919F01280F311DC901C4
:100A40005EC036E4F31609F486C087E4F81609F4AC
:100A500086C0ABE3FA1288C0F401818193819130A2
:100A600029F0933031F4482F885004C048E0480FF3
:100A700001C0482F21E0D80113963C91381708F4A3
:100A800020E031E0F8015281451708F430E051E0F0
:100A9000481708F050E0822F852B382319F42523BE
:100AA00009F462C0D4011296FC90913051F030F0FC
:100AB000923049F0933051F42FEF09C020E031E03B
:100AC00007C021E004C020E03FEF02C020E030E09A
:100AD000F7FE07C0B401C8012A8339831ADE3981C1
:100AE0002A81F4018081830F80838181820F818339
:100AF000FF0C71F739C0B401C8010BDE35C011928B
:100B0000E817F907E1F7C8012FDE2EC0C80116DE8D
:100B1000882309F464CFD8011696ED91FC911797BC
:100B200015968C919F01280F311DC9011192E8176C
:100B3000F907E1F719C0D4011C92F80182811196DE
:100B40008C9311978581815012968C931297838193
:100B500013968C9309C0D80115968C9103C0D801C7
:100B600011968C91F401808381E00F900F90DF91BA
:100B7000CF911F910F91FF90DF90CF90BF90AF90DA
:100B80009F908F9008952F923F924F925F926F9215
:100B90007F928F929F92AF92BF92CF92DF92EF920D
:100BA000FF920F931F93CF93DF9300D01F92CDB787
:100BB000DEB71C01FC0187849088A188B2888385F8
:100BC0009485A585B685881A990AAA0ABB0A6389FD
:100BD0007489858996899B01AC010E94882C6B01E0
:100BE0007C01F101638D748D858D968D9B01AC0127
:100BF0000E9460259B01AC01C701B6010E94C4257B
:100C00000E942C2681149104A104B104A1F4623045
:100C10007105810591050CF07CC0F10113A214A2AD
:100C200015A216A2138A148A158A168A13AA14AA60
:100C300015AA16AA03C1F10103A914A925A936A969
:100C4000ED5BFF4F181419041A041B04FCF4101672
:100C50001106120613064CF4681579058A059B05E2
:100C60004CF52081211155C025C001151105210524
:100C7000310509F44EC0681579058A059B050CF00D
:100C800048C08081882309F444C037C0101611067B
:100C900012061306F4F40027112798010819190900
:100CA0002A093B0960177107820793071CF420810A
:100CB000222379F19B01AC0188279927DC01821B53
:100CC000930BA40BB50BF10183AB94ABA5ABB6AB07
:100CD00020C00115110521053105D9F0CC24DD24F2
:100CE0007601C818D908EA08FB086C157D058E0541
:100CF0009F057CF4808181110CC030952095109562
:100D000001951F4F2F4F3F4FF10103AB14AB25ABA4
:100D100036ABF101C3A8D4A8E5A8F6A881010D5B04
:100D20001F4FC114D104E104F10491F487A990ADDF
:100D3000A1ADB2AD83AF94AFA5AFB6AF81E018144B
:100D400019041A041B040CF080E0F801808340C0F1
:100D5000F10183AC94ACA5ACB6ACA5019401C5017E
:100D6000B4010E9460252B013C01C701B6010E941D
:100D7000292C20E030E040E850E40E94882C20E05C
:100D800030E040E85FE30E9460259B01AC01C301B5
:100D9000B2010E94C4259B01AC01C501B4010E94AF
:100DA0005F254B015C01F101FF964080518062801C
:100DB00073809201A3010E945D26181614F042016F
:100DC0005301A401B501F10143AF54AF65AF76AF54
:100DD000FFEFCF1ADF0AEF0AFF0AF101C3AAD4AA74
:100DE000E5AAF6AA23AD34AD45AD56ADCA01B901A9
:100DF00029833A834B835C830E943126F10163A3EC
:100E000074A385A396A329813A814B815C8160E01C
:100E100074E284E799E40E94C425F101638B748B2A
:100E2000858B968BF8012081211108C0DC01CB0154
:100E3000B058F101838B948BA58BB68B0F900F90DC
:100E40000F900F90DF91CF911F910F91FF90EF9036
:100E5000DF90CF90BF90AF909F908F907F906F90DA
:100E60005F904F903F902F900895CF92DF92EF9236
:100E7000FF92CF93DF93EC018BA19CA1ADA1BEA10A
:100E8000892B8A2B8B2B09F45BC03FB7F894809198
:100E9000E7029091E802A091E902B091EA0226B53A
:100EA000A89B05C02F3F19F00196A11DB11D3FBFA2
:100EB000CC24D82EE92EFA2EC20ED11CE11CF11C36
:100EC00042E0CC0CDD1CEE1CFF1C4A95D1F78FA133
:100ED00098A5A9A5BAA5B701A601481B590B6A0B8D
:100EE0007B0B8BA19CA1ADA1BEA1481759076A0736
:100EF0007B0730F1FE01ED5BFF4F20818B859C85E8
:100F0000AD85BE85222321F00196A11DB11D03C030
:100F10000197A109B1098B879C87AD87BE87E881BE
:100F2000F9814B855C856D857E850680F781E02D96
:100F3000CE011995CFA2D8A6E9A6FAA6CE0123DE46
:100F400020E030E0A9016B897C898D899E890E940F
:100F5000232C811110C081E0CF84D888E988FA88D9
:100F60004B855C856D857E85C416D506E606F7063D
:100F700019F480E001C081E0DF91CF91FF90EF9004
:100F8000DF90CF9008950F931F93FC010785108980
:100F900021893289041715072607370739F0478753
:100FA000508B618B728B1F910F91EDCD1F910F9123
:100FB00008950F931F93FC010385148525853685BD
:100FC000400F511F621F731F1F910F91DCCFDB0178
:100FD000ED91FC911994EF92FF920F931F93CF9391
:100FE000DF931F92CDB7DEB78C01DC011296ED9036
:100FF000FC901397D196ED91FC91D29782E01995D0
:1010000020E030E04AE0B701C801E1DFF82ED80166
:10101000D196ED91FC91D29783E01995D801D196A4
:10102000ED91FC91D29780E01995FF2081F1F801B4
:10103000628173819E012F5F3F4F46E4C801C7DF85
:101040008981D8018C9312966D917C9113979E01A2
:101050002F5F3F4F47E4C801BADF8981F8018183E0
:101060006281738120E030E048E4C801B0DFD8013C
:101070001B968C931B9798012D5C3F4F12966D9198
:101080007C91139747E1C801A2DF81E001C080E0B5
:101090000F90DF91CF911F910F91FF90EF900895E6
:1010A0004F925F926F927F928F929F92AF92BF9278
:1010B000CF92DF92EF92FF920F931F93CF93DF9324
:1010C0001F92CDB7DEB72C01E62EF42EC22EDC0126
:1010D00014960D911C911597C80157DBD82EF2017B
:1010E0008481958155DB982EF1E0DF1203C02FE05B
:1010F000A22E02C0AA24AA94D20114968D919C918A
:1011000015973FDBD82EF2018481958136DBB82E0E
:10111000D20114968D919C9115974FDBB0E6BC15CA
:1011200038F4009729F0080F191F91E6D92E10C046
:10113000F2018481958143DBF0E4FC1538F40097DB
:1011400029F0080F191F81E4D82E02C00F5E1F4F2F
:10115000BC1480F4D20150961C92509753961C9266
:10116000539754961C92549751961C9251975296AD
:101170001C929EC0BD1470F3892D90E0F80124915B
:101180002F3F19F40F5F1F4F59C0DC104EC0D20122
:1011900014968D919C911597F8DA98012F5F3F4F27
:1011A000F801882311F08230E1F48491D201539642
:1011B0008C935397F901249154962C935497F801EA
:1011C0003396E4915096EC935097F8013496E4915D
:1011D0005196EC935197F8013596E4915296EC9321
:1011E00020C08491982F9F709250D20152969C9368
:1011F000529782958F7051968C935197F901249153
:10120000822F8F7054968C93549722952F705396FB
:101210002C935397F8013296E491E295EF70509633
:10122000EC930115110579F443C0F8013296E4916D
:10123000EA219C012E0F311D020F131FDB1409F44C
:1012400089CFD3949BCFF20184819581A1DAD20119
:1012500053963C91539754962C91549751965C9188
:10126000519752969C915297920FF91A9FEF920FB5
:101270009F0DD4964C91D497D6966C916F1518F01B
:10128000941728F402C0941780F09F1570F4E50EAF
:101290009FEF930F9E0DD201D3964C91D397D59685
:1012A0005C915E1538F4941738F4F20180893EC0E1
:1012B00080E03CC0941710F49E15B8F7080F111D7C
:1012C000395F732E7694769476946F2C620E520169
:1012D000FCE1AF0EB11C872C912CF61431F35E2D7E
:1012E00068018C2D801B8715E8F4F6018491D201EA
:1012F00012966D917C9113975C965C935C975D96CA
:10130000FC925D975F961C925F975E968C93950119
:101310004BE3C20159835BDEBFEFCB1ADB0A598175
:10132000585FDFCF080D191DF394D7CF0F90DF91D1
:10133000CF911F910F91FF90EF90DF90CF90BF90D2
:10134000AF909F908F907F906F905F904F90089597
:101350009091CF02911104C08093CF026093CE028E
:1013600008951F93CF93DF931F921F92CDB7DEB7DF
:1013700020ED37E03A8329839091BC00982391F4C3
:1013800029813A81232B49F48091F002182F1270A1
:1013900081FD08C081E0DCDF06C029813A8121504F
:1013A0003109E8CF11E0812F0F900F90DF91CF919D
:1013B0001F91089584E98093BC0064E080E1D1CF5F
:1013C000CF938093BB0084E88093BC0063E080E807
:1013D000C8DFC82F882381F08091F002C82FC27027
:1013E00081FD09C08091B900887F883221F063E0D7
:1013F00082E0AEDF01C0C1E08C2FCF910895CF9382
:10140000DF93FC0123A5222371F0EC010E94BC12A2
:10141000811102C080E008C08EA1811180E4D0DF7C
:101420008823C1F31BA681E0DF91CF9108950F932C
:101430001F93CF93C42F89016330B9F050F461300A
:1014400081F0623009F03FC0FC0146A321E023A7F0
:101450003AC06630E9F0673041F1653009F033C0D9
:101460000CC0FC0186A5BCD92EC0FC0116A221E04F
:1014700023A7411128C09EDF26C0C1DF811103C010
:1014800099DF80E021C08C2F9BDF81111CC0F8CF39
:10149000B6DF8823A9F3CC23B1F0F80181918F0145
:1014A0008FDF882369F3C150F6CFA9DF882341F38A
:1014B000CC2349F0F801849183DF882329F00F5F62
:1014C0001F4FC150F5CF81E0CF911F910F9108952B
:1014D000FC01918D828D981761F0828DDF01A80F3C
:1014E000B11D5D968C91928D9F5F9F73928F90E05E
:1014F00008958FEF9FEF0895FC01918D828D9817CD
:1015000031F0828DE80FF11D858D90E008958FEF09
:101510009FEF089583E393E0CCD021E0892B09F479
:1015200020E0822F0895EF92FF920F931F93CF93A5
:10153000DF93EC0181E0888F9B8D8C8D981305C023
:10154000E889F989808185FD23C0F62E0B8D10E096
:101550000F5F1F4F0F731127E02E8C8DE8120BC009
:101560000FB607FCFACFE889F989808185FFF5CFAE
:10157000CE017AD3F2CF8B8DFE01E80FF11DE35A35
:10158000FF4FF0820B8FEA89FB898081806207C060
:10159000EE89FF896083E889F9898081806480838E
:1015A00081E090E0DF91CF911F910F91FF90EF903C
:1015B0000895CF93DF93EC01888D8823C1F0EA89E9
:1015C000FB89808185FD05C0A889B9898C9186FD3C
:1015D0000EC00FB607FCF5CF808185FFF2CFA8893A
:1015E000B9898C9185FFEDCFCE013ED3E8CFDF9155
:1015F000CF9108951F920F920FB60F9211240BB640
:101600000F922F933F934F935F936F937F938F939B
:101610009F93AF93BF93EF93FF9383E393E024D320
:10162000FF91EF91BF91AF919F918F917F916F91BA
:101630005F914F913F912F910F900BBE0F900FBE76
:101640000F901F9018951F920F920FB60F921124B2
:101650000BB60F922F938F939F93EF93FF93E0918D
:101660004303F09144038081E0914903F0914A03E0
:1016700082FD12C0908180914C038F5F8F73209107
:101680004D03821751F0E0914C03F0E0ED5CFC4F0C
:10169000958F80934C0301C08081FF91EF919F91C2
:1016A0008F912F910F900BBE0F900FBE0F901F9038
:1016B0001895FC01918D228D892F90E0805C9F4FC1
:1016C000821B91098F739927089580E090E0892B00
:1016D00019F020DF811125C080E090E0892B41F0D6
:1016E00080E090E0892B21F00E94000081111CC055
:1016F00080E090E0892B41F080E090E0892B21F0A0
:101700000E940000811113C080E090E0892BA1F0BD
:1017100080E090E0892B81F00E94000081110AC0D6
:1017200008950E940000D8CF0E940000E1CF0E94DF
:101730000000EACF0C9400000895362F90E0FC01E1
:10174000E25DF94F4491FC01E851FA4F2491FC010C
:10175000EE55FA4F9491992309F46BC0442309F490
:1017600055C050E0FA013197E231F10508F04EC062
:101770008827EE58FF4F8F4F0C94352580918000BD
:101780008F7707C0809180008F7D03C0809180009B
:10179000877F809380003AC084B58F7702C084B57C
:1017A0008F7D84BD33C08091B0008F7703C080915E
:1017B000B0008F7D8093B00029C0809190008F771A
:1017C00007C0809190008F7D03C080919000877F3B
:1017D000809390001BC08091A0008F7707C08091FC
:1017E000A0008F7D03C08091A000877F8093A00020
:1017F0000DC0809120018F7707C0809120018F7DDF
:1018000003C080912001877F80932001E92FF0E0C1
:10181000EE0FFF1FE857FA4FA591B4918FB7F894D8
:10182000EC91311103C020952E2301C02E2B2C9357
:101830008FBF0895CF93DF93DC014770552766274C
:101840007727FA013197CD91DC911197E730F105B7
:1018500030F48827EC57FF4F8F4F0C943525EC81DF
:10186000FD8161E01BC0EC81FD8165E017C0EC816A
:10187000FD8164E013C0EC81FD8166E00FC0EC8166
:10188000FD8162E00BC0EC81FD816AE007C0EC8164
:10189000FD8168E003C0EC81FD8169E0CD01DF914D
:1018A000CF911994CF93DF93EC01CB01BA0126E0DD
:1018B00030E040E050E00E9419256230710581055A
:1018C000910559F18CF46115710581059105F1F0CF
:1018D0006130710581059105C1F5E881F9810480C8
:1018E000F581E02D65E02DC064307105810591051D
:1018F00011F1D4F0653071058105910531F5E8816C
:10190000F9810480F581E02D66E01BC0E881F98152
:101910000480F581E02D64E014C0E881F981048041
:10192000F581E02D61E00DC0E881F9810480F58149
:10193000E02D63E006C0E881F9810480F581E02DA7
:1019400062E0CE01DF91CF911994DF91CF9108959C
:101950004370552766277727DC01ED91FC910480C1
:10196000F581E02D423051056105710571F043307C
:1019700051056105710559F0413051056105710549
:1019800011F065E005C066E003C06AE001C069E0EF
:101990001994CF93DF93EC01CB01BA0123E030E03F
:1019A00040E050E00E9419256130710581059105E4
:1019B00081F0623071058105910591F0672B682BEC
:1019C000692BC1F4E881F9810480F581E02D64E0A0
:1019D0000DC0E881F9810480F581E02D61E006C049
:1019E000E881F9810480F581E02D62E0CE01DF918C
:1019F000CF911994DF91CF910895437055276627B1
:101A00007727DC01ED91FC910480F581E02D4230D7
:101A100051056105710571F043305105610571058E
:101A200059F0413051056105710511F062E005C0C2
:101A300063E003C061E001C060E019940F931F935D
:101A4000CF93DF93EC01E881F9810480F581E02DEB
:101A50008C010D5B1F4FD8018C91811102C060E099
:101A600001C062E0CE011995E881F9810480F58119
:101A7000E02DD8018C91811102C061E001C063E0CA
:101A8000CE011995EBA5FCA5E230F10538F0EE0F7B
:101A9000FF1FEE0FFF1F35973197F1F7E881F981AE
:101AA0000480F581E02DD8018C91811102C060E0A5
:101AB00001C062E0CE01DF91CF911F910F91199487
:101AC000CF93DF93EC0120E030E0A9016B897C89A2
:101AD0008D899E890E945D2618161CF4EFA5F8A931
:101AE00002C0E9A9FAA9DF91CF911994CF92DF92B0
:101AF000EF92FF920F931F93CF93DF93FC0122810C
:101B0000243041F0283031F0233031F0263021F0FC
:101B100012E003C014E001C013E0EC012796E12CB1
:101B2000F12CC62ED12C01E0C6010E2C02C09595D9
:101B300087950A94E2F7688180FD6027FE0134975B
:101B40008081FBDDFFEFEF1AFF0A2196E11660F3BB
:101B5000DF91CF911F910F91FF90EF90DF90CF9089
:101B600008950F931F93DC0112960C91129710E0C9
:101B700009301105D8F5F8018827E557FF4F8F4F39
:101B80000C943525ED91FC9111970084F185E02DA1
:101B900029C0ED91FC9111970284F385E02D22C0BC
:101BA000ED91FC9111970484F585E02D1BC0ED911A
:101BB000FC9111970684F785E02D14C0ED91FC91FE
:101BC00011970088F189E02D0DC0ED91FC911197DE
:101BD0000288F389E02D06C0ED91FC9111970488ED
:101BE000F589E02DCD011F910F9119941F910F914F
:101BF000089581EF92E035C7CF92DF92EF92FF9286
:101C00000F931F93CF93DF931F92CDB7DEB76C0175
:101C1000DC01DC961C91DC97DB960C917C01B4E036
:101C2000EB0EF11CDC015996ED91FC915A97C7011E
:101C300069831995482F410F2981602FC70130DA38
:101C4000F60123AD082E000C990B820F911D83AF76
:101C500081E090E00F90DF91CF911F910F91FF9065
:101C6000EF90DF90CF900895FC01848DDF01A80FE5
:101C7000B11DA35ABF4F2C91848D90E001968F73B4
:101C80009927848FA689B7892C93A089B1898C91D3
:101C900080648C93938D848D981306C00288F38999
:101CA000E02D80818F7D80830895CF93DF9390E036
:101CB000FC01E851FA4F2491FC01EE55FA4F849152
:101CC000882361F190E0880F991FFC01E259FA4FD7
:101CD000C591D491FC01E857FA4FA591B4916111D7
:101CE00009C09FB7F8948881209582238883EC915E
:101CF0002E230BC0623061F49FB7F8943881822F95
:101D0000809583238883EC912E2B2C939FBF06C054
:101D10008FB7F894E8812E2B28838FBFDF91CF9166
:101D20000895CF93DF93FC012281222329F1EC0156
:101D300061E08381BADF61E08C81B7DF8A81843022
:101D400011F0883031F461E08D81AFDF61E08E8188
:101D500006C0833011F0863019F461E08D81A5DF73
:101D60008EA58F3F49F061E0A0DF6DA581E0682777
:101D70008EA5DF91CF91E1CCDF91CF910895CF93E4
:101D8000DF93FC012281222399F0EC010190F08184
:101D9000E02D0480F581E02D60E019958EA58F3F40
:101DA00039F061E082DF6DA58EA5DF91CF91C5CCC2
:101DB000DF91CF9108951F920F920FB60F921124C9
:101DC0002F933F938F939F93AF93BF938091EC0298
:101DD0009091ED02A091EE02B091EF023091EB02F2
:101DE00023E0230F2D3720F40196A11DB11D05C05E
:101DF00026E8230F0296A11DB11D2093EB028093CC
:101E0000EC029093ED02A093EE02B093EF0280916A
:101E1000E7029091E802A091E902B091EA020196EE
:101E2000A11DB11D8093E7029093E802A093E902FF
:101E3000B093EA02BF91AF919F918F913F912F9103
:101E40000F900FBE0F901F901895CF93DF93DC017A
:101E5000FB01828112968C93129743815481658194
:101E6000768113964D935D936D937C93169747817E
:101E700050856185728517964D935D936D937C9324
:101E80001A9743855485658576851B964D935D939A
:101E90006D937C931E9747855089618972891F963F
:101EA0004D935D936D937C935297438954896589D3
:101EB000768953964D935D936D937C93569747899E
:101EC000508D618D728D57964D935D936D937C937C
:101ED0005A97438D548D658D768D5B964D935D93AA
:101EE0006D937C935E97478D50A161A172A15F961F
:101EF0004D935D936D937C93929743A154A165A1FB
:101F000076A193964D935D936D937C93969747A19D
:101F100050A561A572A597964D935D936D937C93A3
:101F20009A9783A594A59C969C938E939B9785A541
:101F30009D968C939D9786A59E968C939E9787A53C
:101F400090A9D0969C938E939F9781A992A9D2969F
:101F50009C938E93D19743A954A965A976A9D3964A
:101F60004D935D936D937C93D69747A950AD61AD2A
:101F700072ADD7964D935D936D937C93DA9743AD95
:101F800054AD65AD76ADDB964D935D936D937C93CB
:101F9000DE97EF01EF96488159816A817B81ED01DF
:101FA000EF96488359836A837B83ED5BFF4F808183
:101FB000FD01ED5BFF4F8083CD01DF91CF9108954F
:101FC0001F920F920FB60F9211240BB60F922F9300
:101FD0003F934F935F936F937F938F939F93AF93B1
:101FE000BF93EF93FF938091D7029091D802809393
:101FF000B2008091DA029091DB02A091DC02B091F4
:10200000DD020196A11DB11D8093DA029093DB02DF
:10201000A093DC02B093DD028091DA029091DB02A2
:10202000A091DC02B091DD024091D3025091D40224
:102030006091D5027091D60284179507A607B7075D
:1020400010F18091D90281111EC081E08093D902E4
:102050008091DA029091DB02A091DC02B091DD0266
:10206000841B950BA60BB70B8093DA029093DB02CF
:10207000A093DC02B093DD02E091D102F091D20294
:1020800019951092D902FF91EF91BF91AF919F9155
:102090008F917F916F915F914F913F912F910F9011
:1020A0000BBE0F900FBE0F901F9018954F925F922E
:1020B0006F927F928F929F92AF92BF92CF92DF9258
:1020C000EF92FF92CF93DF93EC016A017B018B8C3F
:1020D0009C8CAD8CBE8C9A01AB01C501B4010E94F1
:1020E000232C882309F449C06BA97CA98DA99EA93A
:1020F0000E94292C2B013C01A7019601C501B401C6
:102100000E94C4259B01AC01C301B2010E94882C2E
:102110000E942C266BAB7CAB8DAB9EABA7019601CE
:1021200060E070E080E090E40E94C4250E94652693
:1021300026E53EE04DE25FE30E94882C20E034E299
:1021400044E759E40E94882C6FAB78AF89AF9AAF0F
:10215000CB8EDC8EED8EFE8ECE01DF91CF91FF9087
:10216000EF90DF90CF90BF90AF909F908F907F9037
:102170006F905F904F900C94C305DF91CF91FF90CB
:10218000EF90DF90CF90BF90AF909F908F907F9017
:102190006F905F904F9008958F929F92AF92BF92F1
:1021A000CF92DF92EF92FF92CF93DF93EC018B8877
:1021B0009C88AD88BE8820E030E0A901C501B4014B
:1021C0000E94232C882309F43FC0A5019401C50176
:1021D000B4010E94882C6B017C016B8D7C8D8D8DF0
:1021E0009E8D9B01AC010E9460259B01AC01C70143
:1021F000B6010E94C4250E942C266B017C012FEFA2
:10220000C21AD20AE20AF20A20E030E0A901C501AE
:10221000B4010E945D2618161CF4B701A60107C080
:1022200044275527BA014C195D096E097F09CE0173
:10223000DF91CF91FF90EF90DF90CF90BF90AF9064
:102240009F908F900C94D907DF91CF91FF90EF90E2
:10225000DF90CF90BF90AF909F908F9008954F9256
:102260005F926F927F92AF92BF92CF92DF92EF9286
:10227000FF920F931F93CF93DF93EC015A018B01D1
:102280002B893C894D895E89B501C8010E94232CA8
:10229000882309F451C0CF88D88CE98CFA8C2601A8
:1022A000370177FA709477F87094A3019201B50121
:1022B000C8010E94232C87FD0BC0A7019601B50120
:1022C000C8010E945D2618162CF06501780102C035
:1022D0007301620120E030E0A901C701B6010E944C
:1022E000232C811105C01BA21CA21DA21EA220C06E
:1022F000A701960160E074E284E799E40E94C42596
:102300009F770E9431266BA37CA38DA39EA35E01C1
:1023100083E4A80EB11C11E020E030E0A901C70160
:10232000B6010E945D2618160CF010E0F50110832E
:10233000CB8ADC8AED8AFE8ADF91CF911F910F91C3
:10234000FF90EF90DF90CF90BF90AF907F906F9015
:102350005F904F900895CF92DF92EF92FF920F938C
:102360001F93CF93DF93EC016A017B019A01AB01CC
:102370006F89788D898D9A8D0E94232C882309F48A
:1023800046C0CF8AD88EE98EFA8E8E01015C1F4F2F
:10239000A701960160E074E284E799E40E94C425F5
:1023A000F80160837183828393838BA99CA9ADA973
:1023B000BEA9181619061A061B064CF56B897C89EE
:1023C0008D899E899B01AC010E94882C6B017C0148
:1023D0006B8D7C8D8D8D9E8D9B01AC010E94602547
:1023E0009B01AC01C701B6010E94C4250E942C26A6
:1023F0006BAB7CAB8DAB9EABCE01DF91CF911F91D0
:102400000F91FF90EF90DF90CF900C94C305DF9178
:10241000CF911F910F91FF90EF90DF90CF90089593
:10242000CF92EF920F93CF93DF93EC0188E192E08C
:10243000998388836A831B861C861D861E861F8659
:10244000188A198A1A8A1B8A1C8A1D8A1E8A80E0A9
:1024500090E0A0E8BFE38F8B988FA98FBA8F1B8E77
:102460001C8E1D8E1E8E8F8F98A3A9A3BAA31BA2AC
:102470001CA21DA21EA261E070E07CA76BA73FEF2B
:102480003EA71FA218A619A61AA64B832C830D835C
:10249000EE821BAA1CAA1DAA1EAA1FAA18AE19AE5C
:1024A0001AAE1BAE1CAE1DAE1EAEFE01FF968083A3
:1024B0009183A283B383349610821F821886198673
:1024C0001A86CC2011F0CE012CDC40E050E060E810
:1024D0007FE3CE01DF91CF910F91EF90CF90E6CDCA
:1024E000CF92DF92EF92FF920F931F93CF93DF93E0
:1024F0006C017A018B01C0E0D0E0CE15DF0589F0D8
:10250000D8016D918D01D601ED91FC910190F08182
:10251000E02DC6011995892B11F47E0102C0219688
:10252000ECCFC701DF91CF911F910F91FF90EF90FA
:10253000DF90CF900895FC0124813581232B31F465
:1025400021E061157105A1F0FB0108C0FC0180814B
:1025500091816115710531F421E0FC0180818823AE
:1025600039F005C00E94E72821E0892B09F020E01E
:10257000822F08950E94C928CF9384EA8093BC00DB
:1025800061E080E80E94B109882359F08091B90088
:10259000887F883041F0803131F061E082E00E9434
:1025A000A809C0E01DC088E78093BB0084E8809341
:1025B000BC0062E080E80E94B109882391F3809119
:1025C000F002C82FC27081FD0AC08091B900887FD7
:1025D000883129F062E082E00E94A80901C0C1E0D0
:1025E0008C2FCF910895FC0180819181009711F08B
:1025F0000C94E82B60E070E0CB0108952F923F929D
:102600004F925F926F927F928F929F92AF92BF9202
:10261000CF92DF92EF92FF920F931F93CF93DF93AE
:1026200000D01F92CDB7DEB7FC0144805580411425
:10263000510409F413C1FB016480758061147104B5
:1026400009F40CC17A016B019C838B83FA01A4808D
:10265000B580A618B708FC0100811181A114B1044E
:10266000C1F4F60160817181C8010E9405295C01F5
:10267000892B09F4F3C0F701608171814481558190
:10268000C5010E94CD28F701048115810A0D1B1D8B
:10269000E8CFB7FE02C0480106C0FB0120803180B0
:1026A0004201C80148C0F60160817181C4010E94E5
:1026B00005292C01892B29F1320168187908A30119
:1026C000B401C8010E94CD28060D171DF7016081D5
:1026D000718144815581C8010E94CD28F701848110
:1026E0009581080F191FF60184809580840C951C34
:1026F000EB81FC81848195818A0D9B1D9583848368
:10270000D2CFB401C8010F900F900F900F90DF91BE
:10271000CF911F910F91FF90EF90DF90CF90BF90DE
:10272000AF909F908F907F906F905F904F903F9071
:102730002F900C94F028B1010E940529009729F0F0
:10274000860D971D8A0C9B1CF6CF8414950409F402
:1027500085C0EB81FC81828193818815990578F48D
:10276000B4016F5F7F4FC8010E94E527009709F40D
:1027700075C0EB81FC819183808393828282EB819F
:10278000FC81048115810150110917FD67C0F60114
:10279000248035802114310409F460C0EB81FC8170
:1027A000648075806114710409F458C06214730464
:1027B00008F454C00615170518F0830101501109DB
:1027C000EB81FC8140805180C20188248A94982C3E
:1027D0009201200F311F2817390758F0F601608148
:1027E000718129833A830E94052929813A810097C2
:1027F00061F597FC33C0280C391CC201820D931D72
:10280000A30142195309BC018A0D9B1D0E94D628C1
:10281000EB81FC81848195818A0D9B1D9583848346
:1028200020813181F901E80FF91F1082EB81FC81D1
:1028300080819181F7016081718144815581880D8A
:10284000991D0E94CD2884019ECFAC0144195509E1
:102850000417150708F04A010196BDCF0F900F909D
:102860000F900F90DF91CF911F910F91FF90EF90FC
:10287000DF90CF90BF90AF909F908F907F906F90A0
:102880005F904F903F902F900895FC0124813581F7
:102890006217730748F480819181009729F0FC0149
:1028A000E60FF71F8081089580E00895FC012481E0
:1028B00035816217730720F480819181009729F494
:1028C0001092F70287EF92E00895860F971F089500
:1028D000EF92FF920F931F93CF93DF937C018B01B5
:1028E000CB010A96FB0120E22193E817F907E1F7F3
:1028F000C0E0D0E0BE01C701D9DFFC0180818823A0
:1029000061F0BE01C701D2DFFC018081F801819333
:102910008F012196CA30D10569F7DF91CF911F91C0
:102920000F91FF90EF900895FB0144815581FC01C8
:10293000248135812417350778F0808191810097B3
:1029400059F0FB01608171816115710529F00E94C8
:10295000F72821E0892B09F020E0822F08950F93BA
:102960001F93CF93DF93EC0188819981009729F021
:102970002A813B812617370788F48B016F5F7F4FD1
:102980000E94E527009761F0998388831B830A835F
:102990002C813D81232B11F4FC01108281E001C0C8
:1029A00080E0DF91CF911F910F910895CF93DF9336
:1029B000EC0188819981009711F00E944D271982BE
:1029C00018821D821C821B821A82DF91CF9108958A
:1029D000EF92FF920F931F93CF93DF93EC017B0154
:1029E0008A01BA01BCDF811103C0CE01DFDF07C05D
:1029F0001D830C83B701888199810E94F028CE0144
:102A0000DF91CF911F910F91FF90EF900895CF9399
:102A1000DF93EC016115710551F0FB01019000207D
:102A2000E9F73197AF01461B570BD2DF01C0BEDF7C
:102A3000CE01DF91CF910895CF93DF93EC01FB019D
:102A40008617970751F0608171816115710521F03A
:102A500044815581BDDF01C0A9DFCE01DF91CF9157
:102A60000895FC01808191810C944D27FC01118215
:102A700010821382128215821482DECFFC01118231
:102A8000108213821282158214826115710549F039
:102A9000FB0101900020E9F73197AF01461B570B6E
:102AA00097CF0895FF920F931F93CF93DF93CDB7E6
:102AB000DEB76E970FB6F894DEBF0FBECDBF8C01A8
:102AC0008091F802811108C061EC72E081EF92E020
:102AD000D5DF81E08093F802F8012481358180916F
:102AE000F5029091F6022817390749F58081918106
:102AF0006091F1027091F202009719F06115710571
:102B0000C9F46115710559F0232B09F44CC2FB017E
:102B1000208130E088279927821B930B0DC00097F6
:102B200009F441C2232B09F43EC2FC019081892F94
:102B300090E002C00E94E728892B09F434C2B80152
:102B4000CE01499693DF61EC72E0CE01019696DFEB
:102B500060EC72E0CE01079691DFAE014F5F5F4FF0
:102B6000BE01695F7F4FCE01499648DDCE010796D1
:102B700078DFCE01019675DFBE01675E7F4FCE0123
:102B8000439674DF62E972E0CE01019677DFBE0101
:102B90006F5F7F4FCE014396C7DEF82ECE010196C0
:102BA00060DFFF2009F43CC0BE016D5E7F4FCE01A7
:102BB0000D965CDF61EC72E0CE0107965FDF62E9A3
:102BC00072E0CE0101965ADFAE01495F5F4FBE0150
:102BD0006F5F7F4FCE010D9611DDCE01019641DF73
:102BE000CE0107963EDFBE01635F7F4FCE010196A7
:102BF0003DDFCE0101960E94541FF82ECE010196B2
:102C000030DFFF2051F0CE010D96EDDC0E94292C23
:102C1000AB01BC0182EA94E09EDBCE010D9621DF80
:102C20006AE972E0CE01019629DFBE016F5F7F4F36
:102C3000CE01439679DEF82ECE01019612DFFF20F9
:102C400009F43BC0BE016D5E7F4FCE010D960EDFD5
:102C500061EC72E0CE01079611DF6AE972E0CE0105
:102C600001960CDFAE01495F5F4FBE016F5F7F4F82
:102C7000CE010D96C3DCCE010196F3DECE010796A0
:102C8000F0DEBE01635F7F4FCE010196EFDECE0125
:102C900001960E94541FF82ECE010196E2DEFF201D
:102CA00049F0CE010D969FDCAB01BC0182EA94E0B5
:102CB0000E94C307CE010D96D4DE65E972E0CE0115
:102CC000439639DC811180C16CE972E0CE014396F4
:102CD00032DC811179C1CE014396C3DEBE01675E4D
:102CE0007F4FCE014396C2DE61EA72E0CE010196CB
:102CF000C5DEBE016F5F7F4FCE01439615DEF82E15
:102D0000CE010196AEDEFF2009F43CC0BE016D5E2F
:102D10007F4FCE010D96AADE61EC72E0CE010796E0
:102D2000ADDE61EA72E0CE010196A8DEAE01495F38
:102D30005F4FBE016F5F7F4FCE010D965FDCCE010E
:102D400001968FDECE0107968CDEBE01635F7F4F5A
:102D5000CE0101968BDECE0101960E94541FF82E03
:102D6000CE0101967EDEFF2051F0CE010D963BDCB8
:102D70000E94292CAB01BC018EE594E0ECDACE0177
:102D80000D966FDE69EA72E0CE01019677DEBE0134
:102D90006F5F7F4FCE014396C7DDF82ECE010196BF
:102DA00060DEFF2009F43BC0BE016D5E7F4FCE01A7
:102DB0000D965CDE61EC72E0CE0107965FDE69EA9B
:102DC00072E0CE0101965ADEAE01495F5F4FBE014F
:102DD0006F5F7F4FCE010D9611DCCE01019641DE73
:102DE000CE0107963EDEBE01635F7F4FCE010196A6
:102DF0003DDECE0101960E94541FF82ECE010196B1
:102E000030DEFF2049F0CE010D96EDDBAB01BC01B9
:102E10008EE594E00E94C307CE010D9622DE64EA9F
:102E200072E0CE01439687DB8111D2C06CE972E07B
:102E3000CE01439680DB8111CBC0CE01439611DEDB
:102E4000BE01675E7F4FCE01439610DE6BEA72E0F3
:102E5000CE01019613DEBE016F5F7F4FCE01439618
:102E600063DDF82ECE010196FCDDFF2009F43BC0A6
:102E7000BE016D5E7F4FCE010D96F8DD61EC72E014
:102E8000CE010796FBDD6BEA72E0CE010196F6DD1E
:102E9000AE01495F5F4FBE016F5F7F4FCE010D9660
:102EA000ADDBCE010196DDDDCE010796DADDBE0198
:102EB000635F7F4FCE010196D9DDCE010196F4D735
:102EC000F82ECE010196CDDDFF2051F0CE010D96FA
:102ED0008ADB0E94292CAB01BC018AE194E03BDA39
:102EE000CE010D96BEDD63EB72E0CE010196C6DD2C
:102EF000BE016F5F7F4FCE01439616DDF82ECE01E7
:102F00000196AFDDFF2009F43AC0BE016D5E7F4F30
:102F1000CE010D96ABDD61EC72E0CE010796AEDD21
:102F200063EB72E0CE010196A9DDAE01495F5F4F10
:102F3000BE016F5F7F4FCE010D9660DBCE01019623
:102F400090DDCE0107968DDDBE01635F7F4FCE0120
:102F500001968CDDCE010196A7D7F82ECE01019601
:102F600080DDFF2049F0CE010D963DDBAB01BC01B9
:102F70008AE194E00E94C307CE010D9672DD6EEAED
:102F800072E0CE014396D7DA811126C06CE972E077
:102F9000CE014396D0DA81111FC0CE01439661DD88
:102FA000CE0149965EDDB80181EF92E045DDEFD5B7
:102FB0006E960FB6F894DEBF0FBECDBFDF91CF91F6
:102FC0001F910F91FF90089582EA94E0E5D883CE97
:102FD0008EE594E0E1D831CF8AE194E0DDD8DDCF11
:102FE000CF92DF92EF92FF920F931F93CF93DF93D5
:102FF000CDB7DEB72C970FB6F894DEBF0FBECDBFAE
:1030000087EF82B910B1B0B1B074E0B1E07280B1B5
:103010008071E82E8BEF82B9D0B0A0B1A07470B1EE
:103020007072C0B08DEF82B9F0B0F0B1F07460B1E1
:10303000607220B120718EEF82B900B150B150742E
:1030400040B1407230B1307180911F0390912003E4
:10305000C4FC0EC0009719F481E090E004C0019711
:1030600089F482E090E09093200380931F030AC0CC
:103070000197029718F483E090E0F5CF10922003B7
:1030800010921F038091130390911403D7FC0EC07C
:10309000009719F481E090E004C0019789F482E080
:1030A00090E090931403809313030AC00197029752
:1030B00018F483E090E0F5CF1092140310921303FC
:1030C0008091190390911A03F7FC0EC0009719F430
:1030D00081E090E004C0019789F482E090E0909351
:1030E0001A03809319030AC00197029718F483E02A
:1030F00090E0F5CF10921A031092190380911503F6
:103100009091160307FD0EC0009719F481E090E03E
:1031100004C0019789F482E090E0909316038093B5
:1031200015030AC00197029718F483E090E0F5CFE9
:10313000109216031092150380911B0390911C03AB
:10314000B1110EC0009719F481E090E004C001971E
:1031500089F482E090E090931C0380931B030AC0E3
:103160000197029718F483E090E0F5CF10921C03CA
:1031700010921B0380910E0390910F03A1110EC0BA
:10318000009719F481E090E004C0019789F482E08F
:1031900090E090930F0380930E030AC0019702976B
:1031A00018F483E090E0F5CF10920F0310920E0315
:1031B00080911D0390911E03F1110EC0009719F428
:1031C00081E090E004C0019789F482E090E0909360
:1031D0001E0380931D030AC00197029718F483E031
:1031E00090E0F5CF10921E0310921D0380910C0306
:1031F00090910D03E1110EC0009719F481E090E069
:1032000004C0019789F482E090E090930D038093CD
:103210000C030AC00197029718F483E090E0F5CF01
:1032200010920D0310920C038091170390911803D4
:1032300071110EC0009719F481E090E004C001976D
:1032400089F482E090E090931803809317030AC0FA
:103250000197029718F483E090E0F5CF10921803DD
:103260001092170380910A0390910B0361110EC015
:10327000009719F481E090E004C0019789F482E09E
:1032800090E090930B0380930A030AC00197029782
:1032900018F483E090E0F5CF10920B0310920A032C
:1032A000809108039091090317FD0EC0009719F44F
:1032B00081E090E004C0019789F482E090E090936F
:1032C0000903809308030AC00197029718F483E06A
:1032D00090E0F5CF10920903109208038091060345
:1032E0009091070351110EC0009719F481E090E00E
:1032F00004C0019789F482E090E0909307038093E3
:1033000006030AC00197029718F483E090E0F5CF16
:103310001092070310920603809104039091050315
:1033200041110EC0009719F481E090E004C00197AC
:1033300089F482E090E090930503809304030AC02F
:103340000197029718F483E090E0F5CF10920503FF
:1033500010920403809111039091120331110EC059
:10336000009719F481E090E004C0019789F482E0AD
:1033700090E090931203809311030AC00197029783
:1033800018F483E090E0F5CF10921203109211032D
:10339000809102039091030321110EC0009719F44C
:1033A00081E090E004C0019789F482E090E090937E
:1033B0000303809302030AC00197029718F483E085
:1033C00090E0F5CF10920303109202038091000366
:1033D00090910103E1100EC0009719F481E090E094
:1033E00004C0019789F482E090E0909301038093F8
:1033F00000030AC00197029718F483E090E0F5CF2C
:103400001092010310920003809113039091140312
:10341000019711F481E301C080E0209119033091FC
:103420001A032130310509F482E32091150330910C
:1034300016032130310509F483E320911B033091F9
:103440001C032130310509F484E320910E033091EF
:103450000F032130310509F485E320911D033091DC
:103460001E032130310509F486E320910C033091CD
:103470000D032130310509F487E3209117033091C2
:1034800018032130310509F488E320910A033091B3
:103490000B032130310509F489E320911F0330919A
:1034A00020032130310509F480E32091000330919D
:1034B00001032130310509F48AE2209102033091A1
:1034C00003032130310509F483E220910803309190
:1034D00009032130310509F481E42091060330917C
:1034E00007032130310509F482E42091040330916F
:1034F00005032130310509F483E420911103309153
:1035000012032130310509F484E48093D002213084
:10351000310549F48091DF029091E0020196909389
:10352000E0028093DF028091DF029091E002039736
:1035300024F01092E0021092DF028091DF0290915D
:10354000E002892B59F48B9A80910201806280936A
:1035500002011092E4021092E30216C08B98789B4D
:1035600008C08091020180628093020181E090E0B6
:1035700007C0809102018F7D8093020182E090E07C
:103580009093E4028093E30280911003082E000CD4
:10359000990B2091DF023091E00282179307C9F066
:1035A00040E050E0BA0182EA94E00E94D90740E08E
:1035B00050E0BA018EE594E00E94D90740E050E067
:1035C000BA018AE194E00E94D9071092E2021092B7
:1035D000E1028091DF028093100380917B0088607C
:1035E00080937B0080E480937C0080917A008064EB
:1035F00080937A0080917A0086FDFCCF80917800DC
:103600002091790090E0922B9093E6028093E5025E
:103610002091DF023091E0022130310509F0C9C16B
:103620004091E1025091E2028091D0024130510577
:1036300041F0813409F06AC03093E2022093E10244
:1036400065C090ED980F9A3010F4B3D35FC08A3202
:1036500009F039C065EB72E0CE0101960FDABE01C8
:103660006F5F7F4F84E194E05FD9182FCE01019600
:10367000F8D91123C1F061EC72E0CE010196FED9B8
:1036800065EB72E0CE010796F9D9AE014F5F5F4F4F
:10369000BE01695F7F4F84E194E00E94FE12CE017B
:1036A0000796DFD90CC065EB72E0CE010196E6D932
:1036B000CE010196B0D3BC0184E194E0BDD9CE0126
:1036C0000196CFD923C0833241F4809118049091A0
:1036D0001904009709F0C3C119C08134B9F464E139
:1036E00074E0CE010196C2D9CE010196DDD3182F28
:1036F000CE010196B6D91111B5C11092E202109215
:10370000E10261EC72E084E194E081D92091E10270
:103710003091E2028091D0022230310551F08234A2
:1037200009F06CC082E090E09093E2028093E102A5
:1037300065C090ED980F9A3010F43BD35FC08A3289
:1037400009F039C065EB72E0CE01019697D9BE0150
:103750006F5F7F4F84E194E0E7D8182FCE01019688
:1037600080D91123C1F061EC72E0CE01019686D9B7
:1037700065EB72E0CE01079681D9AE014F5F5F4FD6
:10378000BE01695F7F4F84E194E00E94FE12CE018A
:10379000079667D90CC065EB72E0CE0101966ED931
:1037A000CE01019638D3BC0184E194E045D9CE0125
:1037B000019657D923C0833241F480911804909127
:1037C0001904009709F067C119C08234B9F464E1A3
:1037D00074E0CE0101964AD9CE01019665D3182F27
:1037E000CE0101963ED9111159C11092E2021092F8
:1037F000E10261EC72E084E194E009D92091E102F8
:103800003091E2028091D0022330310551F08334AF
:1038100009F06CC083E090E09093E2028093E102B3
:1038200065C090ED980F9A3010F4C3D25FC08A3211
:1038300009F039C065EB72E0CE0101961FD9BE01D7
:103840006F5F7F4F84E194E06FD8182FCE0101960F
:1038500008D91123C1F061EC72E0CE0101960ED9B6
:1038600065EB72E0CE01079609D9AE014F5F5F4F5D
:10387000BE01695F7F4F84E194E00E94FE12CE0199
:103880000796EFD80CC065EB72E0CE010196F6D832
:10389000CE010196C0D2BC0184E194E0CDD8CE0126
:1038A0000196DFD823C0833241F4809118049091AF
:1038B0001904009709F00BC119C08334B9F464E10D
:1038C00074E0CE010196D2D8CE010196EDD2182F28
:1038D000CE010196C6D81111FDC01092E2021092DD
:1038E000E10261EC72E084E194E091D88091E10220
:1038F0009091E202892B09F05BC080911F039091A7
:103900002003892B09F454C080911D0390911E035C
:10391000892B41F04AEF50E060E070E082EA94E0E9
:103920000E94D90780911B0390911C03892B41F0C1
:1039300046E05FEF6FEF7FEF82EA94E00E94D907E5
:103940008091190390911A03892B41F04AEF50E0BE
:1039500060E070E08EE594E00E94D9078091170343
:1039600090911803892B41F046E05FEF6FEF7FEFF6
:103970008EE594E00E94D90780911503909116037B
:10398000892B41F04AEF50E060E070E08AE194E07A
:103990000E94D9078091130390911403892B41F061
:1039A00046E05FEF6FEF7FEF8AE194E00E94D90776
:1039B000EED08091DF029091E002029709F0A3C05F
:1039C00083E393E00E94590B892BE9F183E393E0B1
:1039D0000E94680A20912B0330912C038B3359F0FD
:1039E000F901EF5DFC4F80832F5F3F4F30932C0335
:1039F00020932B0328C02A303105D9F467EB72E0FD
:103A00008EE094E004D881E2E82E83E0F82E00E016
:103A100010E0B8018EE094E00E945614F701219165
:103A20007F01FC0120830F5F1F4F0A30110589F7CA
:103A300006C062EC72E08EE094E00E9407151092DE
:103A40002C0310922B036EE074E0CE0101960ED889
:103A5000CE01019627D8CE01019603D854C0019714
:103A60000FD254CE8091180490911904892B59F0EB
:103A700084E194E00E94F312AB01BC0182EA94E07D
:103A80000E94C3073ACE40E050E0BA0182EA94E0D7
:103A90000E94D90732CE0197F3D1B0CE809118049D
:103AA00090911904892B59F084E194E00E94F3125B
:103AB000AB01BC018EE594E00E94C30796CE40E0C6
:103AC00050E0BA018EE594E00E94D9078ECE0197AE
:103AD000D7D10CCF8091180490911904892B59F0FB
:103AE00084E194E00E94F312AB01BC018AE194E00E
:103AF0000E94C307F2CE40E050E0BA018AE194E0B0
:103B00000E94D907EACE2C960FB6F894DEBF0FBEFE
:103B1000CDBFDF91CF911F910F91FF90EF90DF907C
:103B2000CF900895CF92DF92FF920F931F93CF9380
:103B3000DF931F921F92CDB7DEB7F82E062FE091CC
:103B4000E903F091EA0384ED93E049835A831995E0
:103B5000080F4981C42E5A81D52E10E0F60121911B
:103B60006F01222349F0402F6F2D84ED93E00E94D6
:103B70005008F80E180FF2CF812F0F900F90DF91A1
:103B8000CF911F910F91FF90DF90CF900895DF921A
:103B9000EF92FF920F931F93CF93DF9380910001D9
:103BA0008074E82EF12CC3B1C0710C2F10E093B1DA
:103BB0009072D92EDFB1D2702091680530916905DD
:103BC000232B51F5882341F11092AD041092AE04DD
:103BD0001092AF041092B0041092B1041092B2048B
:103BE0001092B3041092B4041092D5041092D6042B
:103BF0001092D7041092D8041092C5041092C604F3
:103C00001092C7041092C8041092B5041092B60422
:103C10001092B7041092B8042091660530916705A0
:103C2000232B51F5CC2341F11092690410926A04C0
:103C300010926B0410926C0410926D0410926E043A
:103C400010926F04109270041092910410929204DA
:103C500010929304109294041092810410928204A2
:103C600010928304109284041092710410927204D2
:103C7000109273041092740481111DC08091B104DC
:103C80009091B204A091B304B091B4044091AD04FA
:103C90005091AE046091AF047091B004841B950BF9
:103CA000A60BB70BB7FF07C040E050E0BA0182EAAD
:103CB00094E00E94D907D11020C08091B104909166
:103CC000B204A091B304B091B4044091AD045091FA
:103CD000AE046091AF047091B004841B950BA60BE9
:103CE000B70B181619061A061B063CF440E050E004
:103CF000BA0182EA94E00E94D907C1111DC08091E7
:103D00006D0490916E04A0916F04B0917004409185
:103D1000690450916A0460916B0470916C04841B77
:103D2000950BA60BB70BB7FF07C040E050E0BA01F8
:103D30008EE594E00E94D907D11120C080916D04D6
:103D400090916E04A0916F04B09170044091690449
:103D500050916A0460916B0470916C04841B950B04
:103D6000A60BB70B181619061A061B063CF440E002
:103D700050E0BA018EE594E00E94D907F0926905FF
:103D8000E0926805109367050093660582EA94E067
:103D90000E9435078EE594E00E9435078AE194E0A1
:103DA000DF91CF911F910F91FF90EF90DF900C94D6
:103DB00035070F931F93CF93DF931F921F92CDB7B9
:103DC000DEB789831A8200911804109119040F5FDD
:103DD0001F4FB80184E194E00E94AF148823A1F042
:103DE00020911404309115048091180490911904C5
:103DF000BE016F5F7F4F820F931F0E94F0281093C8
:103E000019040093180481E00F900F90DF91CF9177
:103E10001F910F910895EF92FF920F931F93CF93ED
:103E2000DF93EC018091180490911904E090140440
:103E3000F09015040C811D81E114F104B1F000979C
:103E4000B9F0080F191FB801CE010E94AF148823E2
:103E500061F0288139818C819D81B701820F931F88
:103E60000E94F0281D830C8303C0CE010E94D6144B
:103E7000CE01DF91CF911F910F91FF90EF900895A8
:103E800020911804309119048217930760F49093DD
:103E90001904809318042091140430911504F90139
:103EA000E80FF91F10820895CF92DF92FF920F93CF
:103EB0001F93CF93DF9300D000D0CDB7DEB78C0136
:103EC00061EC72E0CE0101960E943E1560E070E068
:103ED000C8010E9445148B3229F18D3219F1B801C5
:103EE000CE0101960E941C15CD80DE8000E010E01E
:103EF000F12C0C151D0591F0B801CE0101960E9420
:103F000045148E3229F4F1100BC0FF24F39403C042
:103F100080538A3028F40F5F1F4FEBCF11E00DC0A4
:103F200010E00BC061E070E0C8010E945614BC01B3
:103F3000CE0101960E940715D7CFCE0101960E94AF
:103F40003115812F26960FB6F894DEBF0FBECDBF78
:103F5000DF91CF911F910F91FF90DF90CF90089547
:103F6000CF93DF93CDB7DEB7CA54D1090FB6F8941B
:103F7000DEBF0FBECDBF789484B5826084BD84B5AA
:103F8000816084BD85B5826085BD85B5816085BD54
:103F900080916E00816080936E001092810080910C
:103FA0008100826080938100809181008160809394
:103FB0008100809180008160809380008091B100B9
:103FC00084608093B1008091B00081608093B000E4
:103FD0008091910082608093910080919100816036
:103FE00080939100809190008160809390008091F7
:103FF000A10082608093A1008091A10081608093E4
:10400000A1008091A00081608093A0008091210197
:104010008260809321018091210181608093210140
:104020008091200181608093200180917A008460DA
:1040300080937A0080917A00826080937A008091E8
:104040007A00816080937A0080917A008068809302
:104050007A001092C1008FE081B980EF82B910928E
:10406000D0021C821B8282E492E09A8389831CAE78
:104070001DAE1EAE1A8619861C861B861E8681E022
:104080008D8782E28F871C8A1B8AFE01B896CE013B
:10409000C6962FEF2193E817F907E1F781E08DA38A
:1040A0002BEB33E03B8F2A8F8C8F1D8E1E8E80E48E
:1040B0008F8F18A28EE693E09FAB8EAB88E092E0E4
:1040C00098878F831BAACE0105960E94EB078B81F0
:1040D0009C819093D3038093D20387E3FE013596AE
:1040E000A4EDB3E001900D928A95E1F78CAD809339
:1040F0000B048DAD80930C048EAD80930D048091E4
:10410000D8039091D9038A56914009F445C08AE6B4
:1041100091E09093D9038093D8038091EB038111B0
:1041200008C0EFE6F1E0E491E093EC03E6E7F1E0AC
:1041300011C0813041F4E9E7F1E0E491E093EC0350
:10414000EAE7F1E007C0E7E7F1E0E491E093EC0390
:10415000E8E7F1E0E491E093ED038091EC03082EB1
:10416000000C990B2091ED03821B910927FD93957B
:104170002091EE03203441F0829FC001112426E0FB
:10418000969587952A95E1F78093EF038BEB93E063
:104190009093EA038093E90361E088E00E94550E62
:1041A00061E089E30E94550E809102018062809354
:1041B00002018B9A62E086E30E94550E62E089E07C
:1041C0000E94550E62E08AE00E94550E62E08BE08C
:1041D0000E94550E62E087E30E94550E61E085E083
:1041E0000E94550E61E086E00E94550E61E087E076
:1041F0000E94550E61E082E00E94550E61E083E06E
:104200000E94550E61E084E00E94550ECC24C394B8
:1042100085E0E82E04E025E042E061E0CE01019671
:104220005C010E941012B50182EA94E00E94250F01
:1042300026E043E061E0C5010E941012B5018EE561
:1042400094E00E94250F27E044E061E0C5010E9450
:104250001012B5018AE194E00E94250F88EE93E0E8
:10426000909332038093310390932E0380932D0318
:104270009093300380932F031092E2021092E10298
:1042800061EC72E084E194E00E9407151092E40270
:104290001092E30260912D0370912E03072E000C03
:1042A000880B990B0E94292CAB01BC0182EA94E097
:1042B0000E94AB1160912F0370913003072E000C08
:1042C000880B990B0E94292CAB01BC018EE594E070
:1042D0000E94AB116091310370913203072E000CE4
:1042E000880B990B0E94292CAB01BC018AE194E058
:1042F0000E94AB1160912D0370912E03072E000CCC
:10430000880B990B0E94292CAB01BC0182EA94E036
:104310000E942F1160912F0370913003072E000C23
:10432000880B990B0E94292CAB01BC018EE594E00F
:104330000E942F116091310370913203072E000CFF
:10434000880B990B0E94292CAB01BC018AE194E0F7
:104350000E942F1140E050E06AE774E482EA94E0A2
:104360000E94561040E050E06AE774E48EE594E065
:104370000E94561040E050E06AE774E48AE194E05D
:104380000E94561081E090E0A0E0B0E08093D3025C
:104390009093D402A093D502B093D60280EF97E118
:1043A0009093D2028093D102809170008E7F80938F
:1043B00070008091B0008C7F8093B0008091B1003C
:1043C000877F8093B1008091B6008F7D8093B60087
:1043D000809170008D7F809370008091B100846027
:1043E0008093B1008091B1008C7F8093B10086E012
:1043F00090E09093D8028093D7021092DA02109244
:10440000DB021092DC021092DD021092D902809140
:10441000D7029091D8028093B200809170008160A1
:1044200080937000E0914303F091440382E0808325
:10443000E0913F03F09140031082E0914103F0913D
:1044400042038FEC808310924B03E0914703F0917D
:10445000480386E08083E0914503F0914603808124
:1044600080618083E0914503F091460380818860FC
:104470008083E0914503F0914603808180688083CA
:10448000E0914503F091460380818F7D808309E6AA
:1044900012E09FE8E92E92E0F92E80910D0481113F
:1044A00006C0C0920D0484ED93E00E94EB0780905B
:1044B000D6039090D703E0910504F091060482E0C2
:1044C0001995E0910504F091060481E0199520E02A
:1044D00030E044E1B40184ED93E00E94E70727E077
:1044E00034E047E1B40184ED93E00E94E707E091F6
:1044F0000504F091060480E019958091DF02909107
:10450000E002009719F446E552E00AC081309105B7
:1045100019F44CE552E004C0029729F443E652E056
:104520006AE08DE2FFDA8091E1029091E202009769
:1045300009F045C08091B0048F938091AF048F93B0
:104540008091AE048F938091AD048F931F930F934E
:10455000BF92AF9274D64DE652E064E182E0E2DAB7
:10456000A50164E181E1DEDA80916C048F93809192
:104570006B048F9380916A048F93809169048F9369
:104580001F930F93BF92AF925AD640E752E06EE16D
:1045900082E0C8DAA5016EE181E1C4DA80912804E5
:1045A0008F93809127048F93809126048F9380911D
:1045B00025048F931F930F93BF92AF928CC08130CD
:1045C000910509F03AC046E752E064E182E0AADAD8
:1045D00064E174E0CE018B5B9F4F0E943615B501FC
:1045E000CE018B5B9F4F0E946814CE018B5B9F4F67
:1045F0000E943115A50164E189E194DA4AE752E0AD
:1046000064E189E18FDA80916C048F9380916B046F
:104610008F9380916A048F93809169048F931F9385
:104620000F93BF92AF920BD640E752E06EE182E06B
:1046300079DAA5016EE181E13DC08230910509F092
:1046400054C08091B0048F938091AF048F93809178
:10465000AE048F938091AD048F931F930F93BF92FD
:10466000AF92EDD54DE652E064E182E05BDAA50160
:1046700064E181E157DA45E852E06EE182E052DA26
:1046800064E174E0CE018B5B9F4F0E943615B5014B
:10469000CE018B5B9F4F0E946814CE018B5B9F4FB6
:1046A0000E943115A5016EE189E13CDA4AE752E04A
:1046B0006EE189E137DA809128048F938091270495
:1046C0008F93809126048F93809125048F931F935D
:1046D0000F93BF92AF92B3D543E752E068E282E016
:1046E00021DAA50168E281E156C0039709F059C0BB
:1046F0008091B0048F938091AF048F938091AE042A
:104700008F938091AD048F931F930F93BF92AF92BD
:1047100096D54DE652E064E182E004DAA50164E159
:1047200081E100DA80916C048F9380916B048F9308
:1047300080916A048F93809169048F931F930F93E4
:10474000BF92AF927CD540E752E06EE182E0EAD9B9
:10475000A5016EE181E1E6D949E852E068E282E034
:10476000E1D964E174E0CE018B5B9F4F0E94361566
:10477000B501CE018B5B9F4F0E946814CE018B5B0D
:104780009F4F0E943115A50168E289E1CBD94AE724
:1047900052E068E289E1C6D90FB6F894DEBF0FBED9
:1047A000CDBF8091E3029091E4028130910561F0E8
:1047B000029779F44DE852E064E18EE6B3D94DE812
:1047C00052E06EE18EE6AED94DE852E068E28EE648
:1047D000A9D98091E6028F938091E5028F93FF9291
:1047E000EF92BF92AF922BD5A50162E382E09AD9F6
:1047F0006EE074E0CE018B5B9F4F0E943615B501D1
:10480000CE018B5B9F4F0E946814CE018B5B9F4F44
:104810000E943115A50162E388E284D9E091E203A8
:10482000F091E3030F900F900F900F900F900F9067
:10483000309719F084ED93E019958090D60390900D
:10484000D703E0910504F091060482E01995E09108
:104850000504F091060481E0199520E030E045E17F
:10486000B40184ED93E00E94E707D82E882341F03D
:1048700027E034E047E1B40184ED93E00E94E707CC
:10488000E0910504F091060480E01995D11035CE31
:104890000E94650B02CE8EE094E00E94311584E107
:1048A00094E00C943115CF92EF920F93109236034F
:1048B0001092350388EE93E0A0E0B0E080933703D8
:1048C00090933803A0933903B0933A0382E392E0C4
:1048D000909334038093330385EC90E090934003EE
:1048E00080933F0384EC90E09093420380934103D4
:1048F00080EC90E0909344038093430381EC90E03C
:10490000909346038093450382EC90E09093480394
:104910008093470386EC90E090934A038093490389
:1049200010924C0310924D0310924E0310924F03BD
:10493000CC24C39485E0E82E04E023E042E064E068
:1049400082EA94E00E94101223E042E064E08EE5E7
:1049500094E00E94101223E042E064E08AE194E0D7
:104960000E94101261EC72E084E194E00E943E1516
:104970001092D3031092D20382E492E09093D10379
:104980008093D00310920B0410920C0410920D042B
:104990001092D9031092D8031092DB031092DA031D
:1049A0001092DD0381E08093DC0382E28093DE03DA
:1049B0001092E3031092E203E7EFF3E09FEF8EE043
:1049C0008E0F91938E13FDCF81E08093F4032BEB38
:1049D00033E03093EA032093E9038093EB031092D2
:1049E000EC031092ED0380E48093EE031092EF034A
:1049F0008EE693E0909306048093050488E092E0AD
:104A00009093D7038093D6031092020484ED93E031
:104A10000E94EB0782E592E09093D1038093D0034C
:104A200062EC72E08EE094E00F91EF90CF900C94E6
:104A30003E15052E97FB16F400940FD057FD05D0B8
:104A40001CD007FC02D046F408C050954095309524
:104A500021953F4F4F4F5F4F0895909580957095EA
:104A600061957F4F8F4F9F4F0895EE0FFF1F881F57
:104A70008BBF0790F691E02D1994A1E21A2EAA1B84
:104A8000BB1BFD010DC0AA1FBB1FEE1FFF1FA217FE
:104A9000B307E407F50720F0A21BB30BE40BF50BFB
:104AA000661F771F881F991F1A9469F76095709584
:104AB000809590959B01AC01BD01CF0108955058A0
:104AC000BB27AA270ED09EC78FD730F094D720F0EF
:104AD00031F49F3F11F41EF484C70EF4E095E7FB18
:104AE0007AC7E92FA0D780F3BA1762077307840744
:104AF000950718F071F49EF5B8C70EF4E0950B2EEB
:104B0000BA2FA02D0B01B90190010C01CA01A0011F
:104B10001124FF27591B99F0593F50F4503E68F17A
:104B20001A16F040A22F232F342F4427585FF3CFBB
:104B3000469537952795A795F0405395C9F77EF48C
:104B40001F16BA0B620B730B840BBAF09150A1F0D5
:104B5000FF0FBB1F661F771F881FC2F70EC0BA0F5B
:104B6000621F731F841F48F4879577956795B795E3
:104B7000F7959E3F08F0B3CF9395880F08F09927DB
:104B8000EE0F9795879508950CD03CC734D740F029
:104B90002BD730F021F45F3F19F01DC7511166C7C4
:104BA00020C741D798F39923C9F35523B1F3951B37
:104BB000550BBB27AA2762177307840738F09F5F3E
:104BC0005F4F220F331F441FAA1FA9F333D00E2EAD
:104BD0003AF0E0E830D091505040E695001CCAF71A
:104BE00029D0FE2F27D0660F771F881FBB1F2617DF
:104BF00037074807AB07B0E809F0BB0B802DBF01B2
:104C0000FF2793585F4F2AF09E3F510568F0E3C697
:104C10002DC75F3FECF3983EDCF38695779567955B
:104C2000B795F7959F5FC9F7880F911D9695879562
:104C300097F90895E1E0660F771F881FBB1F621781
:104C400073078407BA0720F0621B730B840BBA0B3F
:104C5000EE1F88F7E095089504D06894B11106C757
:104C60000895E9D688F09F5790F0B92F9927B7514A
:104C7000A0F0D1F0660F771F881F991F1AF0BA9520
:104C8000C9F712C0B13081F0F0D6B1E00895EDC699
:104C9000672F782F8827B85F39F0B93FCCF3869516
:104CA00077956795B395D9F73EF490958095709573
:104CB00061957F4F8F4F9F4F089506D608F48FEF71
:104CC000089511F40EF48DC63EC0B5D6D0F39923E5
:104CD000D9F3CEF39F57550B87FF43D00024A0E6AE
:104CE00040EA900180585695979528F4805C660FAD
:104CF000771F881F20F026173707480730F4621BFC
:104D0000730B840B202931294A2BA69517940794FD
:104D1000202531254A2758F7660F771F881F20F076
:104D200026173707480730F4620B730B840B200DEE
:104D3000311D411DA09581F7B901842F9158880F2D
:104D40009695879508959F3F31F0915020F487956F
:104D500077956795B795880F911D9695879597F9E3
:104D6000089591505040660F771F881FD2F708951D
:104D7000CF93DF938230910510F482E090E0E091D0
:104D80006C05F0916D0520E030E0C0E0D0E0309798
:104D900011F14081518148175907C0F04817590750
:104DA00061F482819381209719F09B838A832BC0C1
:104DB00090936D0580936C0526C02115310519F07F
:104DC0004217530718F49A01BE01DF01EF01028078
:104DD000F381E02DDCCF2115310509F1281B390BBA
:104DE0002430310590F412968D919C9113976115A2
:104DF000710521F0FB019383828304C090936D05BC
:104E000080936C05FD01329644C0FD01E20FF31F53
:104E100081939193225031092D933C933AC0209174
:104E20006A0530916B05232B41F4209110023091DB
:104E3000110230936B0520936A0520910E02309188
:104E40000F022115310541F42DB73EB740911202F2
:104E500050911302241B350BE0916A05F0916B050C
:104E6000E217F307A0F42E1B3F0B2817390778F041
:104E7000AC014E5F5F4F2417350748F04E0F5F1FA0
:104E800050936B0540936A058193919302C0E0E0D3
:104E9000F0E0CF01DF91CF9108950F931F93CF934F
:104EA000DF93009709F48CC0FC01329713821282C1
:104EB00000916C0510916D050115110581F420819B
:104EC0003181820F931F20916A0530916B0528175D
:104ED000390779F5F0936B05E0936A0571C0D80145
:104EE00040E050E0AE17BF0750F412962D913C9170
:104EF0001397AD012115310509F1D901F3CF9D01BA
:104F0000DA013383228360817181860F971F8217B4
:104F1000930769F4EC0128813981260F371F2E5F32
:104F20003F4F318320838A819B8193838283452BEA
:104F300029F4F0936D05E0936C0542C01396FC9341
:104F4000EE931297ED01499159919E01240F351F5F
:104F5000E217F30771F480819181840F951F029607
:104F600011969C938E938281938113969C938E933A
:104F70001297E0E0F0E0D80112968D919C91139782
:104F8000009719F0F8018C01F6CF8D919C91980152
:104F90002E5F3F4F820F931F20916A0530916B0562
:104FA0002817390769F4309729F410926D0510928B
:104FB0006C0502C01382128210936B0500936A0580
:104FC000DF91CF911F910F9108956F927F928F92F1
:104FD0009F92AF92BF92CF92DF92EF92FF920F9388
:104FE0001F93CF93DF93EC01009781F4CB01DF9106
:104FF000CF911F910F91FF90EF90DF90CF90BF90D6
:10500000AF909F908F907F906F90B2CEFC01E60F93
:10501000F71F9C0122503109E217F30708F4A8C0DA
:10502000D9010D911C91119706171707A8F00530AB
:10503000110508F49BC0C80104978617970708F468
:1050400095C002501109061B170B019311936D9324
:105050007C93CF0122DF8AC05B01A01AB10A4C0108
:10506000800E911EA0916C05B0916D0540E050E05E
:10507000E12CF12C109709F44AC0A815B905D1F517
:105080006D907C901197630182E0C80ED11CCA1408
:10509000DB0480F1A3014A195B096A0182E0C80EB2
:1050A000D11C1296BC9012971396AC91B5E0CB161A
:1050B000D10440F0B282A38351834083D9016D9320
:1050C0007C930AC00E5F1F4FC301800F911FF9012F
:1050D00091838083EB2DFA2FE114F10431F0D70195
:1050E0001396FC93EE93129741C0F0936D05E093F5
:1050F0006C053CC08D919C9111974817590708F495
:10510000AC017D0112960D90BC91A02DB3CF809182
:105110006A0590916B0588159905E1F446175707C4
:10512000C8F480910E0290910F02009741F48DB760
:105130009EB74091120250911302841B950BE81701
:10514000F907B0F4F0936B05E0936A05F9017183F8
:1051500060830CC0CB010CDE7C01009749F0A801F4
:10516000BE011BD0CE0199DEC70104C0CE0102C032
:1051700080E090E0DF91CF911F910F91FF90EF9031
:10518000DF90CF90BF90AF909F908F907F906F9067
:10519000089581E090E0F8946FC4FB01DC0102C047
:1051A00001900D9241505040D8F708956817790743
:1051B00068F4FB01DC01E40FF51FA40FB51F02C06A
:1051C00002900E9241505040D8F70895E6CFFB016F
:1051D000DC018D91019080190110D9F3990B08958C
:1051E000FB01DC0101900D920020E1F70895FB0125
:1051F000DC014150504030F08D910190801919F43C
:105200000020B9F7881B990B0895FB015191552394
:10521000A9F0BF01DC014D9145174111E1F759F4A7
:10522000CD010190002049F04D9140154111C9F385
:10523000FB014111EFCF81E090E0019708950F93BA
:105240001F93CF93DF93CDB7DEB72E970FB6F894A9
:10525000DEBF0FBECDBF0E891F8986E08C831A8307
:1052600009838FEF9FE79E838D83AE01465E5F4F7C
:10527000688D798DCE01019611D02F813885F80186
:10528000E20FF31F10822E960FB6F894DEBF0FBE0A
:10529000CDBFDF91CF911F910F9108952F923F9233
:1052A0004F925F926F927F928F929F92AF92BF9236
:1052B000CF92DF92EF92FF920F931F93CF93DF93E2
:1052C000CDB7DEB72C970FB6F894DEBF0FBECDBFBB
:1052D0007C016B018A01FC0117821682838181FFA8
:1052E000B0C1CE0101964C01F7019381F60193FD07
:1052F000859193FF81916F01882309F49EC18532C6
:1053000039F493FD859193FF81916F01853221F4EA
:10531000B70190E0C7D1E8CF512C312C20E02032EA
:10532000A0F48B3269F030F4803259F0833269F4A2
:1053300020612CC08D3239F0803339F4216026C0D1
:105340002260246023C0286021C027FD27C030EDE3
:10535000380F3A3078F426FF06C0FAE05F9E300D31
:105360001124532E13C08AE0389E300D1124332EA1
:1053700020620CC08E3221F426FD5FC1206406C07D
:105380008C3611F4206802C0883641F4F60193FD92
:10539000859193FF81916F018111C1CF982F9F7DDE
:1053A0009554933028F40C5F1F4FFFE3F9830DC031
:1053B000833631F0833771F0833509F057C021C04F
:1053C000F801808189830E5F1F4F44244394512C40
:1053D000540114C03801F2E06F0E711CF801A08076
:1053E000B18026FF03C0652D70E002C06FEF7FEF34
:1053F000C5012C874CD12C0183012C852F77222EBF
:1054000016C03801F2E06F0E711CF801A080B18067
:1054100026FF03C0652D70E002C06FEF7FEFC5016E
:105420002C872AD12C012C852068222E830123FC75
:1054300019C0832D90E048165906A0F4B70180E208
:1054400090E030D13A94F5CFF50127FC859127FE05
:1054500081915F01B70190E025D131103A94F1E0DC
:105460004F1A51084114510479F7DEC0843611F007
:10547000893631F5F80127FF07C06081718182818B
:1054800093810C5F1F4F08C060817181072E000C53
:10549000880B990B0E5F1F4F2F76722E97FF09C056
:1054A00090958095709561957F4F8F4F9F4F2068A5
:1054B000722E2AE030E0A4012DD1A82EA81843C0F6
:1054C000853729F42F7EB22E2AE030E025C0F22F56
:1054D000F97FBF2E8F36C1F018F4883579F0ADC052
:1054E000803719F0883721F0A8C02F2F2061B22E05
:1054F000B4FE0DC08B2D8460B82E09C024FF0AC0F5
:105500009F2F9660B92E06C028E030E005C020E14C
:1055100030E002C020E132E0F801B7FE07C0608150
:105520007181828193810C5F1F4F06C06081718100
:1055300080E090E00E5F1F4FA401ECD0A82EA818C9
:10554000FB2DFF777F2E76FE0BC0372D3E7FA514F7
:1055500050F474FE0AC072FC08C0372D3E7E05C0B0
:10556000BA2C372D03C0BA2C01C0B52C34FF0DC0A6
:10557000FE01EA0DF11D8081803311F4397E09C0EE
:1055800032FF06C0B394B39404C0832F867809F029
:10559000B39433FD12C030FF06C05A2CB31418F474
:1055A000530C5B18B32CB31460F4B70180E290E0A5
:1055B0003C8778D0B3943C85F6CFB31410F43B18F5
:1055C00001C0312C34FF11C0B70180E390E03C876B
:1055D00069D03C8532FF16C031FD03C088E790E0FA
:1055E00002C088E590E0B7010CC0832F867851F0A7
:1055F00031FF02C08BE201C080E237FD8DE2B701CE
:1056000090E050D0A51430F4B70180E390E04AD088
:105610005A94F8CFAA94F401EA0DF11D8081B701E4
:1056200090E040D0A110F6CF332009F45DCEB70151
:1056300080E290E037D03A94F7CFF70186819781E6
:1056400002C08FEF9FEF2C960FB6F894DEBF0FBE0F
:10565000CDBFDF91CF911F910F91FF90EF90DF9021
:10566000CF90BF90AF909F908F907F906F905F9002
:105670004F903F902F900895FC010590615070402D
:105680000110D8F7809590958E0F9F1F0895FC010B
:105690006150704001900110D8F7809590958E0F61
:1056A0009F1F08950F931F93CF93DF93FB012381D7
:1056B00021FD03C08FEF9FEF28C022FF16C0468157
:1056C0005781248135814217530744F4A081B18169
:1056D0009D012F5F3F4F318320838C93268137813B
:1056E0002F5F3F4F3783268310C0EB01092F182F00
:1056F0000084F185E02D1995892BE1F68E819F813B
:1057000001969F838E83812F902FDF91CF911F91E0
:105710000F910895FA01AA27283051F1203181F123
:10572000E8946F936E7F6E5F7F4F8F4F9F4FAF4FA9
:10573000B1E03ED0B4E03CD0670F781F891F9A1FBC
:10574000A11D680F791F8A1F911DA11D6A0F711D70
:10575000811D911DA11D20D009F468943F912AE07C
:10576000269F11243019305D3193DEF6CF01089564
:10577000462F4770405D4193B3E00FD0C9F7F6CF95
:10578000462F4F70405D4A3318F0495D31FD40525D
:10579000419302D0A9F7EACFB4E0A69597958795F3
:1057A00077956795BA95C9F70097610571050895D2
:1057B0009B01AC010A2E069457954795379527957E
:1057C000BA95C9F7620F731F841F951FA01D089516
:1057D0001F93FC0199278827BC01E894119110328E
:1057E000E9F3193010F01E30C8F31B3249F01D32B6
:1057F00041F4689405C012D0610F711D811D911D87
:10580000119110531A30B8F33EF49095809570952D
:1058100061957F4F8F4F9F4F1F910895592F482FAC
:10582000372F262F660F771F881F991F660F771F48
:10583000881F991F620F731F841F951F660F771FA4
:10584000881F991F089540D008F481E00895E894D6
:1058500009C097FB3EF490958095709561957F4FB8
:105860008F4F9F4F9923A9F0F92F96E9BB27939566
:10587000F695879577956795B795F111F8CFFAF476
:10588000BB0F11F460FF1BC06F5F7F4F8F4F9F4FA7
:1058900016C0882311F096E911C0772321F09EE805
:1058A000872F762F05C0662371F096E8862F70E06B
:1058B00060E02AF09A95660F771F881FDAF7880F45
:1058C0009695879597F90895990F0008550FAA0B9B
:1058D000E0E8FEEF16161706E807F907C0F0121603
:1058E0001306E407F50798F0621B730B840B950B06
:1058F00039F40A2661F0232B242B252B21F408955B
:105900000A2609F4A140A6958FEF811D811D0895F7
:105910000BD078C069D028F06ED018F0952309F02C
:105920005AC05FC01124A2C07ED0A0F3959FD1F3CE
:10593000950F50E0551F629FF001729FBB27F00D3D
:10594000B11D639FAA27F00DB11DAA1F649F662792
:10595000B00DA11D661F829F2227B00DA11D621FE1
:10596000739FB00DA11D621F839FA00D611D221F9B
:10597000749F3327A00D611D231F849F600D211D7F
:10598000822F762F6A2F11249F5750408AF0E1F022
:1059900088234AF0EE0FFF1FBB1F661F771F881F6B
:1059A00091505040A9F79E3F510570F014C05EC061
:1059B0005F3FECF3983EDCF3869577956795B79556
:1059C000F795E7959F5FC1F7FE2B880F911D969580
:1059D000879597F9089597F99F6780E870E060E0F0
:1059E00008959FEF80EC089500240A941616170678
:1059F00018060906089500240A94121613061406C0
:105A000005060895092E0394000C11F4882352F022
:105A1000BB0F40F4BF2B11F460FF04C06F5F7F4FDA
:105A20008F4F9F4F089557FD9058440F551F59F0C1
:105A30005F3F71F04795880F97FB991F61F09F3F7B
:105A400079F087950895121613061406551FF2CFA4
:105A50004695F1DF08C0161617061806991FF1CFF4
:105A600086957105610508940895E894BB2766271B
:105A70007727CB0197F9089513E0CBE3D3E000E05B
:105A800006C0802FFE010E9435252196011DCC33D2
:0C5A9000D10780E00807A9F7F894FFCFC9
:105A9C00084000000080E60482040002170A00009F
:105AAC006E05800000000000BF0E910E760DB10D4A
:105ABC00600D1E0DFD0CC90CA80C520C1A0C00002C
:105ACC000000930A7012590B680A7C0AD90A00006C
