:100000003BC300006AC3000068C3000066C3000071
:1000100064C3000062C3000060C300005EC3000050
:100020005CC300005AC3000058C3000056C3000060
:1000300054C3000052C3000050C300000C94EA13E4
:100040004CC300004AC3000048C3000046C3000080
:1000500044C3000042C3000040C300000C94E512FA
:100060003CC300000C945D170C94341736C3000099
:1000700034C3000032C3000030C300002EC30000B0
:100080002CC300002AC3000028C3000026C30000C0
:1000900024C3000022C3000020C300001EC30000D0
:1000A0001CC300001AC3000018C3000016C30000E0
:1000B00014C3000012C3000010C300000EC30000F0
:1000C0000CC300000AC3000008C3000006C3000000
:1000D00004C3000002C3000000C30000FEC2000011
:1000E000FCC20000620E650E540E580E5C0E9C0E93
:1000F000690E6D0E730E770E7B0E810E850E890EC6
:100100009C0E8F0E930E970EC90ECD0ED10ED50EEE
:10011000D90EDD0EE10E58105F1066106D107410D0
:100120008C107B108C108210FFE0FFD1AFFF32FFEC
:10013000D0FFFEFFE0FFD1AEFFD0FFFEFFE0FFD11A
:100140001000FFFEFFD0FFE0FFC1FFD1AED580A8B9
:100150003FD300408D142000A1C8DA1281CFD9F11D
:10016000DB402EA4A6AFFFD0FFFE0000210024003C
:1001700027002A002D003000330001010000040197
:1001800007010A0100002200250028002B002E0094
:100190003100340002010000050108010B010505D2
:1001A0000505070508080808020202020A0A0808ED
:1001B000040404040101010101010101030303031B
:1001C00003030303040707070C0C0C0C0C0C0C0CAA
:1001D0000202020206060606060606060B0B0B0BBB
:1001E0000B0B0B0B010210202008081020401020E0
:1001F00040800201020108040201010204081020EB
:1002000040808040201008040201800402018040E8
:100210002010080402010804020101020408102051
:100220004080010204081020408000000A0B0209EF
:100230000C0D0E0807030401000000000000000080
:1002400000000000000000000000000000000000AE
:10025000000000000000121110000000000000006B
:10026000000000000000000000000000000000008E
:1002700001080D00FE09016102CD207FFE0BFE0981
:10028000FE0D00803219898080808080808000800F
:100290002843839090901367874848FC48FC48485F
:1002A0001259892078A0A0702828F020126989446A
:1002B000A44810102048548812678760909060947A
:1002C0008874381383808080323989204040808050
:1002D00080404020223989804040202020404080BA
:1002E0001665854830FC30481455852020F82020BC
:1002F000114383706080165181F821338340E040C0
:100300000279890202040810204080801269893035
:1003100048848484848448301259892060A0202035
:10032000202020F81269897884840408304080FCF9
:10033000126989FC04081038040484781269890859
:100340001828488888FC0808126989FC8080B8C48D
:100350000404847812698938408080B8C484847821
:10036000126989FC04081010202040401269897825
:1003700084848478848484781269897884848C74F1
:100380000404087021388840E040000040E040113B
:100390004888207020000070608022598908102051
:1003A000408040201008146484FC0000FC1259892D
:1003B00080402010081020408012698978848404CD
:1003C00008101000101269897884849CA4AC948071
:1003D000781269893048848484FC84848412698911
:1003E000F0888488F0888488F01269897884808015
:1003F0008080808478126989F088848484848488E9
:10040000F0126989FC808080F0808080FC1269890C
:10041000FC808080F0808080801269897884808070
:10042000809C848C7412698984848484FC84848490
:1004300084125989F820202020202020F812798960
:100440003E0808080808088870126989848890A006
:10045000C0A090888412698980808080808080809C
:10046000FC0279898282C6AA92928282821269896A
:100470008484C4A4948C8484841269897884848458
:100480008484848478126989F8848484F8808080E4
:1004900080116A8A788484848484A494780412699C
:1004A00089F8848484F8A09088841269897884808B
:1004B000807804048478027989FE101010101010DE
:1004C00010101269898484848484848484780279F5
:1004D00089828244444428282810027989828282B1
:1004E00082929292AA4402798982824428102844F6
:1004F00082820279898282442810101010101269B9
:1005000089FC04081020408080FC224989F080800A
:100510008080808080F002798980804020100804EB
:100520000202124989F010101010101010F0185328
:1005300083205088017181FE3A22828040126686B3
:1005400078047C848C74126989808080B8C4848427
:10055000C4B812668678848080847812698904041D
:1005600004748C84848C741266867884FC8084780D
:1005700012698938444040F840404040106888740F
:1005800088887080788478126989808080B8C48473
:1005900084848412588820006020202020F8105A7B
:1005A0008A080018080808088888701269898080FD
:1005B000808890E090888412598960202020202033
:1005C0002020F8027686EC9292929282126686B889
:1005D000C4848484841266867884848484781068D1
:1005E00088B8C484C4B8808080106888748C848C77
:1005F00074040404126686B8444040404012668683
:100600007884601884781268884040F840404044FC
:100610003812668688888888887412568688888802
:1006200050502002768682829292AA441266868474
:1006300048303048841068888484848C74048478BA
:10064000126686FC08102040FC2259893840402060
:10065000C02040403832198980808080808080802E
:1006600080125989E010102018201010E0185383D0
:1006700048A890FF1824102411241FBECFEFD1E208
:10068000DEBFCDBF00E00CBF12E0A0E0B2E0E6E2CA
:10069000FAE500E00BBF02C007900D92AA3EB10739
:1006A000D9F725E0AAEEB2E001C01D92AA38B20740
:1006B000E1F713E0CBE3D3E000E006C021970109A6
:1006C000802FFE010E94FA24CA33D10780E0080778
:1006D000A9F70E94BD1F0C94012D92CCFC018081D2
:1006E0009281980F92832181921760F494819F5F89
:1006F00094839381890F821710F08FEF820F838389
:1007000081E0089580E00895FC011282808181508B
:1007100083831482089580E008950B96FC018491F0
:1007200008950A96FC0184910895FC01849108952E
:10073000FCDF882321F0823011F083E0089586E009
:100740000895FC01E60FF11D849190E0982F882711
:100750003196E4918E0F911D089568E0F2CF66E026
:10076000F0CF2EE93FE0009729F0F9013197F1F73A
:100770000197F9CF08951092180310921703089566
:10078000809338031092B90084FF02C08CE001C04E
:1007900088E48093B800EFCFDB011496ED91FC91D3
:1007A000159720E030E065E01994DB011496ED9197
:1007B000FC91159720E030E062E01994DB0114967B
:1007C000ED91FC91159720E030E063E01994CF9211
:1007D000DF92EF92FF920F931F93CF93DF938C01E1
:1007E0007B016A0180E0F601C49181110AC0CF3F0C
:1007F00009F447C04C2FB701C801CEDF81113FC0BB
:1008000045C0CF3F11F44FEFF6CFCE3F09F440C0C3
:10081000C03FA8F5C03E30F04C2F4F70B701C80163
:10082000C4DF2DC0C03D30F04C2F4F70B701C80160
:10083000C5DF25C0C03CF0F0D7011496ED91FC91C6
:10084000159720E030E040E064E0C8011995C295BA
:10085000C07FCE5FD0E0CE0184DFD7011496ED914A
:10086000FC91159720E030E041E064E0C801199563
:10087000CE0104C0C7FD03C08C2F90E072DF80E082
:1008800001C081E0BFEFCB1ADB0AADCF80E001C031
:1008900081E0DF91CF911F910F91FF90EF90DF905A
:1008A000CF9008958F929F92AF92BF92CF92DF9296
:1008B000FF920F931F93CF93DF931F921F92CDB799
:1008C000DEB76C018B01F42E490120E1421709F4D7
:1008D0005DC02417D8F03AE0431701F18FE04813C8
:1008E0005EC041E0C6016ADF40E0B801C6015DDFDD
:1008F00041E8B801C60150DFF4014081B801C601EA
:100900004BDF40E0B801C60159DF00C1A1E14A1741
:1009100009F43FC0B5E14B1789F041C0DB011496E3
:10092000ED91FC91159720E030E042E061E01995EF
:1009300044E451E0B801C6014ADF31C0FB01A280A6
:10094000B3804CE351E043DFD50114964C91406BEA
:10095000B801C60121DF41E0B801C60126DFF5017B
:1009600026813781D8011496ED91FC911597D50118
:1009700015964C9166E0C6011995811102C080E080
:10098000C6C040E0B801C60119DF09C043E351E029
:1009900002C048E251E0B801C60119DFB7C0D80172
:1009A00012960D911C911397B2E3FB1609F474C0D3
:1009B000BF15B8F0E5E1FE1609F47AC0F7E1FF16BD
:1009C00009F48BC024E1F212A1C0D8011696ED9172
:1009D000FC91179715968C919F01280F311DC90125
:1009E00060C036E4F31609F488C087E4F81609F409
:1009F00088C0ABE3FA128AC0F401818193819130FF
:100A000029F0933031F4482F885004C048E0480F53
:100A100001C0482F21E0D80113963C91381708F403
:100A200020E031E0F8015281451708F430E051E050
:100A3000481708F050E0822F852B382319F425231E
:100A400009F464C0D4011296FC90913051F030F05A
:100A5000923049F0933051F42FEF09C020E031E09B
:100A600007C021E004C020E03FEF02C020E030E0FA
:100A7000F7FE08C0B401C8012A8339830E94AD166D
:100A800039812A81F4018081830F80838181820FE3
:100A90008183FF0C69F73AC0B401C8010E94AD160A
:100AA00035C01192E817F907E1F7C8012DDE2EC015
:100AB000C80114DE882309F462CFD8011696ED919F
:100AC000FC91179715968C919F01280F311DC90134
:100AD0001192E817F907E1F719C0D4011C92F80147
:100AE000828111968C9311978581815012968C93F7
:100AF0001297838113968C9309C0D80115968C9117
:100B000003C0D80111968C91F401808381E00F908D
:100B10000F90DF91CF911F910F91FF90DF90CF90B9
:100B2000BF90AF909F908F9008953F924F925F92A9
:100B30006F927F928F929F92AF92BF92CF92DF92ED
:100B4000EF92FF920F931F93CF93DF93CDB7DEB752
:100B50002C970FB6F894DEBF0FBECDBF87EF82B9DA
:100B600070B010B180B000B18BEF82B980B150B0DD
:100B700090B0C0B09DEF92B930B060B0A0B0B0B04E
:100B80009EEF92B940B0D0B0E0B0F0B0082E000CAB
:100B9000990B80959095692F661F6627661F70E0F8
:100BA0008DEF92E00E94C017832D330C990B809536
:100BB0009095692F661F6627661F70E083E093E0BB
:100BC0000E94C017842D440C990B80959095692F35
:100BD000661F6627661F70E08FEF92E00E94C017C5
:100BE000612F629566956695637011E0612761706B
:100BF00070E087E093E00E94C017652D62956695CE
:100C0000669563706127617070E085E093E00E94F3
:100C1000C017662D62956695669563706127617051
:100C200070E089E093E00E94C017682D6295669598
:100C300067706127617070E088EF92E00E94C017D2
:100C4000692D6295669567706127617070E081E03B
:100C500093E00E94C0176A2D6295669567706127C0
:100C6000617070E086EF92E00E94C0176C2D629573
:100C70006F706127617070E084EF92E00E94C0178E
:100C8000872D770C990B80959095692F661F6627A5
:100C9000661F70E082EF92E00E94C017D294D69453
:100CA000D69493E0D922D1266D2D617070E080EF4B
:100CB00092E00E94C017E294E69427E0E222E12647
:100CC0006E2D617070E08EEE92E00E94C017F2947B
:100CD0003FE0F322F1266F2D617070E08BEF92E020
:100CE0000E94C01702950F700127602F617070E09D
:100CF0008CEE92E00E94C0176B2D62956F70612799
:100D0000617070E08AEE92E00E94C0178091FD024F
:100D10009091FE02019711F481E301C080E02091DF
:100D20000303309104032130310509F482E320915B
:100D3000FF02309100032130310509F483E3209153
:100D40000703309108032130310509F484E3209131
:100D50000503309106032130310509F485E3209124
:100D6000090330910A032130310509F486E320910B
:100D7000F8023091F9022130310509F487E320911E
:100D80000103309102032130310509F488E32091F9
:100D9000F6023091F7022130310509F489E3209100
:100DA000F4023091F5022130310509F480E32091FD
:100DB000EC023091ED022130310509F48AE22091F4
:100DC000EA023091EB022130310509F483E22091EF
:100DD000F2023091F3022130310509F481E42091CF
:100DE000F0023091F1022130310509F482E42091C2
:100DF000EE023091EF022130310509F483E42091B5
:100E0000FB023091FC022130310509F484E4809327
:100E100022032130310549F4809130039091310350
:100E20000196909331038093300380913003909129
:100E30003103039724F01092310310923003809114
:100E4000300390913103892B59F48B9A80910201E0
:100E5000806280930201109235031092340316C011
:100E60008B98789B08C08091020180628093020178
:100E700081E090E007C0809102018F7D80930201A4
:100E800082E090E090933503809334038091FA02DE
:100E9000082E000C990B20913003309131038217FA
:100EA0009307C9F040E050E0BA018EEB94E00E9455
:100EB0003D1640E050E0BA018AE794E00E943D16FA
:100EC00040E050E0BA0186E394E00E943D161092A3
:100ED0003303109232032091300330913103209379
:100EE000FA022130310509F024C2409132035091B9
:100EF0003303809122034130510541F0813409F0E0
:100F000079C0309333032093320374C090ED980F6F
:100F10009A3018F40E94F01E6DC08A3209F043C066
:100F200066E572E0CE0101960E947C1ABE016F5FF9
:100F30007F4F80E394E00E94B319182FCE010196F1
:100F40000E946F1A1123D9F066E672E0CE01019675
:100F50000E947C1A66E572E0CE0107960E947C1A18
:100F6000AE014F5F5F4FBE01695F7F4F80E394E04A
:100F70000E941D18CE0107960E946F1A0FC066E5E9
:100F800072E0CE0101960E947C1ACE0101960E9469
:100F9000211FBC0180E394E00E945A1ACE01019601
:100FA0000E946F1A27C0833241F4809134049091DB
:100FB0003504009709F047C21DC08134D9F460E3BD
:100FC00074E0CE0101960E94741ACE0101960E942F
:100FD000681F182FCE0101960E946F1A111137C297
:100FE000109233031092320366E672E080E394E0DD
:100FF0000E94451A209132033091330380912203DD
:101000002230310551F0823409F07BC082E090E05B
:10101000909333038093320374C090ED980F9A300D
:1010200018F40E94F01E6DC08A3209F043C066E5D4
:1010300072E0CE0101960E947C1ABE016F5F7F4F65
:1010400080E394E00E94B319182FCE0101960E940C
:101050006F1A1123D9F066E672E0CE0101960E9464
:101060007C1A66E572E0CE0107960E947C1AAE01FA
:101070004F5F5F4FBE01695F7F4F80E394E00E9446
:101080001D18CE0107960E946F1A0FC066E572E028
:10109000CE0101960E947C1ACE0101960E94211F6A
:1010A000BC0180E394E00E945A1ACE0101960E948E
:1010B0006F1A27C0833241F4809134049091350433
:1010C000009709F00BC21DC08234D9F460E374E0CC
:1010D000CE0101960E94741ACE0101960E94681FEB
:1010E000182FCE0101960E946F1A1111FBC11092A8
:1010F00033031092320366E672E080E394E00E94CC
:10110000451A20913203309133038091220323301A
:10111000310551F0833409F07BC083E090E0909377
:1011200033038093320374C090ED980F9A3018F413
:101130000E94F01E6DC08A3209F043C066E572E07D
:10114000CE0101960E947C1ABE016F5F7F4F80E343
:1011500094E00E94B319182FCE0101960E946F1AD5
:101160001123D9F066E672E0CE0101960E947C1A46
:1011700066E572E0CE0107960E947C1AAE014F5FD1
:101180005F4FBE01695F7F4F80E394E00E941D18AE
:10119000CE0107960E946F1A0FC066E572E0CE017D
:1011A00001960E947C1ACE0101960E94211FBC016B
:1011B00080E394E00E945A1ACE0101960E946F1AB1
:1011C00027C0833241F48091340490913504009714
:1011D00009F0CFC11DC08334D9F460E374E0CE01BF
:1011E00001960E94741ACE0101960E94681F182F62
:1011F000CE0101960E946F1A1111BFC110923303E4
:101200001092320366E672E080E394E00E94451A91
:101210008091320390913303892B09F088C080912B
:10122000090390910A03029711F41D99EDC1809171
:10123000070390910803029731F080910503909184
:101240000603029721F48091000186FDE6C180919A
:10125000030390910403029711F47999E7C18091F7
:10126000010390910203029731F080910503909160
:101270000603029711F41C99E2C18091FF0290913C
:101280000003029741F444EF51E060E070E086E330
:1012900094E00E943D168091FD029091FE0202971B
:1012A00041F44CE05EEF6FEF7FEF86E394E00E9445
:1012B0003D168091070390910803039731F08091C8
:1012C000090390910A03039721F48EEB94E00E94A6
:1012D0004B168091030390910403039731F08091A2
:1012E000010390910203039721F48AE794E00E949E
:1012F0004B168091FD029091FE02039731F0809190
:10130000FF0290910003039721F486E394E00E948A
:101310004B168091050390910603039741F48EEBE1
:1013200094E00E944B168AE794E00E944B160E94BC
:10133000EA1D8091300390913103029709F050C06B
:101340008FE493E04BD4892BE9F18FE493E024D42C
:1013500020911503309116038B3359F0F901E55FA5
:10136000FC4F80832F5F3F4F30931603209315036C
:1013700029C02A303105E1F46CE572E08AE294E09C
:101380000E94451A8BE0E82E83E0F82E00E010E082
:10139000B8018AE294E00E947519F70121917F015A
:1013A000FC0120830F5F1F4F0A30110589F706C02B
:1013B00067E672E08AE294E00E94451A10921603F2
:1013C000109215036AE274E0CE0101960E94741A2D
:1013D000CE0101960E94901ACE0101960E946F1ACA
:1013E00080917B00877F80937B0084E480937C00E6
:1013F00080917A00806480937A0080917A0086FDE3
:10140000FCCF809178002091790090E0922B90930E
:101410003703809336032C960FB6F894DEBF0FBEC9
:10142000CDBFDF91CF911F910F91FF90EF90DF9093
:10143000CF90BF90AF909F908F907F906F905F9074
:101440004F903F90089501970E94541FD3CD8091F3
:10145000340490913504892BE1F168E572E080E372
:1014600094E00E94CE19882349F11092C904109289
:10147000CA041092CB041092CC041092CD041092A6
:10148000CE041092CF041092D0041092F104109266
:10149000F2041092F3041092F4041092E1041092FA
:1014A000E2041092E3041092E4041092D10410922A
:1014B000D2041092D3041092D40492CD80E394E02D
:1014C0000E941218AB01BC018EEB94E00E9427161B
:1014D00087CD8EEB94E00E944B1682CD01970E943F
:1014E000541F0FCE8091340490913504892BE1F183
:1014F00068E572E080E394E00E94CE19882349F108
:101500001092850410928604109287041092880429
:101510001092890410928A0410928B0410928C0409
:101520001092AD041092AE041092AF041092B00469
:1015300010929D0410929E0410929F041092A00499
:1015400010928D0410928E0410928F0410929004C9
:10155000CECD80E394E00E941218AB01BC018AE773
:1015600094E00E942716C3CD8AE794E00E944B16B0
:10157000BECD01970E94541F4BCE809134049091B0
:101580003504892BE1F168E572E080E394E00E9484
:10159000CE19882349F1109241041092420410920E
:1015A0004304109244041092450410924604109291
:1015B0004704109248041092690410926A04109231
:1015C0006B0410926C041092590410925A041092F9
:1015D0005B0410925C041092490410924A04109229
:1015E0004B0410924C040ACE80E394E00E9412183F
:1015F000AB01BC0186E394E00E942716FFCD86E391
:1016000094E00E944B16FACD44EF51E060E070E0A8
:101610008EEB94E00E943D160ACE4CE05EEF6FEF39
:101620007FEF8EEB94E00E943D1611CE44EF51E027
:1016300060E070E08AE794E00E943D1610CE4CE036
:101640005EEF6FEF7FEF8AE794E00E943D1615CEC4
:10165000DC011696ED91FC91179712968C91481B20
:10166000477081E090E001C0880F4A95EAF7E60FE5
:10167000F11D3081222311F0832B02C0809583233A
:1016800080830895DB01ED91FC911994EF92FF9214
:101690000F931F93CF93DF931F92CDB7DEB78C01CB
:1016A000DC011296ED90FC901397D196ED91FC9190
:1016B000D29782E0199520E030E04AE0B701C801F6
:1016C000E1DFF82ED801D196ED91FC91D29783E01D
:1016D0001995D801D196ED91FC91D29780E019959A
:1016E000FF2081F1F801628173819E012F5F3F4FDE
:1016F00046E4C801C7DF8981D8018C9312966D91A9
:101700007C9113979E012F5F3F4F47E4C801BADFDA
:101710008981F80181836281738120E030E048E4AF
:10172000C801B0DFD8011B968C931B9798012D5CE4
:101730003F4F12966D917C91139747E1C801A2DF4C
:1017400081E001C080E00F90DF91CF911F910F9158
:10175000FF90EF9008954F925F926F927F928F92D9
:101760009F92AF92BF92CF92DF92EF92FF920F9330
:101770001F93CF93DF931F92CDB7DEB72C01E62ED8
:10178000F42EC22EDC0114960D911C911597C80100
:101790000E949503D82EF201848195810E949803BE
:1017A000982EF1E0DF1203C02FE0A22E02C0AA247F
:1017B000AA94D20114968D919C9115970E94910341
:1017C000D82EF201848195810E948D03B82ED2011A
:1017D00014968D919C9115970E94AD03B0E6BC15AF
:1017E00038F4009729F0080F191F91E6D92E11C07F
:1017F000F201848195810E94AF03F0E4FC1538F476
:10180000009729F0080F191F81E4D82E02C00F5E3F
:101810001F4FBC1480F4D20150961C9250975396DF
:101820001C92539754961C92549751961C92519720
:1018300052961C92A0C0BD1470F3892D90E0F8015F
:1018400024912F3F19F40F5F1F4F5AC0DC104FC077
:10185000D20114968D919C9115970E949503980141
:101860002F5F3F4FF801882311F08230E1F484911B
:10187000D20153968C935397F901249154962C934B
:101880005497F8013396E4915096EC935097F801F1
:101890003496E4915196EC935197F8013596E49182
:1018A0005296EC9320C08491982F9F709250D20151
:1018B00052969C93529782958F7051968C93519724
:1018C000F9012491822F8F7054968C93549722950E
:1018D0002F7053962C935397F8013296E491E2952A
:1018E000EF705096EC930115110579F444C0F8019E
:1018F0003296E491EA219C012E0F311D020F131F35
:10190000DB1409F488CFD3949ACFF20184819581B6
:101910000E949803D20153963C91539754962C9170
:10192000549751965C91519752969C915297920F71
:10193000F91A9FEF920F9F0DD4964C91D497D6969B
:101940006C916F1518F0941728F402C0941780F06A
:101950009F1570F4E50E9FEF930F9E0DD201D39665
:101960004C91D397D5965C915E1538F4941738F462
:10197000F20180893EC080E03CC0941710F49E15AF
:10198000B8F7080F111D395F732E7694769476940C
:101990006F2C620E5201FCE1AF0EB11C872C912C12
:1019A000F61431F35E2D68018C2D801B8715E8F449
:1019B000F6018491D20112966D917C9113975C96F9
:1019C0005C935C975D96FC925D975F961C925F9727
:1019D0005E968C9395014BE3C201598353DEBFEFB2
:1019E000CB1ADB0A5981585FDFCF080D191DF3941C
:1019F000D7CF0F90DF91CF911F910F91FF90EF9074
:101A0000DF90CF90BF90AF909F908F907F906F901E
:101A10005F904F90089590911803911104C08093A6
:101A200018036093170308951F93CF93DF931F92BA
:101A30001F92CDB7DEB720ED37E03A83298390912E
:101A4000BC00982391F429813A81232B49F4809199
:101A50003803182F127081FD08C081E0DCDF06C05A
:101A600029813A8121503109E8CF11E0812F0F906F
:101A70000F90DF91CF911F91089584E98093BC006E
:101A800064E080E1D1CFCF938093BB0084E8809362
:101A9000BC0063E080E8C8DFC82F882381F0809114
:101AA0003803C82FC27081FD09C08091B900887FBA
:101AB000883221F063E082E0AEDF01C0C1E08C2F0C
:101AC000CF910895CF93DF93FC0123A5222371F0DA
:101AD000EC010E94DB17811102C080E008C08EA1DA
:101AE000811180E4D0DF8823C1F31BA681E0DF9160
:101AF000CF9108950F931F93CF93C42F8901633023
:101B0000C1F050F4613081F0623009F040C0FC0156
:101B100046A321E023A73BC06630F1F0673049F1CE
:101B2000653009F034C00DC0FC0186A50E94C003D9
:101B30002EC0FC0116A221E023A7411128C09DDF81
:101B400026C0C0DF811103C098DF80E021C08C2F48
:101B50009ADF81111CC0F8CFB5DF8823A9F3CC230D
:101B6000B1F0F80181918F018EDF882369F3C150B4
:101B7000F6CFA8DF882341F3CC2349F0F801849104
:101B800082DF882329F00F5F1F4FC150F5CF81E01E
:101B9000CF911F910F910895FC01918D828D98171F
:101BA00061F0828DDF01A80FB11D5D968C91928D41
:101BB0009F5F9F73928F90E008958FEF9FEF08953E
:101BC000FC01918D828D981731F0828DE80FF11D07
:101BD000858D90E008958FEF9FEF0895FC01918D22
:101BE000228D892F90E0805C9F4F821B91098F731B
:101BF0009927089580E090E0892B21F00E94C31678
:101C0000811125C080E090E0892B41F080E090E0D8
:101C1000892B21F00E94000081111CC080E090E01F
:101C2000892B41F080E090E0892B21F00E94000098
:101C3000811113C080E090E0892BA1F080E090E05A
:101C4000892B81F00E94000081110AC008950E9432
:101C50000000D8CF0E940000E1CF0E940000EACF30
:101C60000C9400000895362F90E0FC01E65DFD4FD6
:101C70004491FC01EC51FE4F2491FC01E256FE4FD1
:101C80009491992309F46BC0442309F455C050E0A2
:101C9000FA013197E231F10508F04EC08827EE587D
:101CA000FF4F8F4F0C94FA24809180008F7707C0EC
:101CB000809180008F7D03C080918000877F80931A
:101CC00080003AC084B58F7702C084B58F7D84BD13
:101CD00033C08091B0008F7703C08091B0008F7DBA
:101CE0008093B00029C0809190008F7707C08091C9
:101CF00090008F7D03C080919000877F809390003B
:101D00001BC08091A0008F7707C08091A0008F7DBD
:101D100003C08091A000877F8093A0000DC08091B8
:101D200020018F7707C0809120018F7D03C08091B3
:101D30002001877F80932001E92FF0E0EE0FFF1F45
:101D4000EC57FE4FA591B4918FB7F894EC913111F7
:101D500003C020952E2301C02E2B2C938FBF0895F6
:101D6000CF93DF93DC014770552766277727FA0169
:101D70003197CD91DC911197E730F10530F4882748
:101D8000EC57FF4F8F4F0C94FA24EC81FD8161E0FA
:101D90001BC0EC81FD8165E017C0EC81FD8164E032
:101DA00013C0EC81FD8166E00FC0EC81FD8162E033
:101DB0000BC0EC81FD816AE007C0EC81FD8168E029
:101DC00003C0EC81FD8169E0CD01DF91CF911994D1
:101DD000CF93DF93EC01CB01BA0126E030E040E085
:101DE00050E00E94DE24623071058105910559F1B1
:101DF0008CF46115710581059105F1F06130710573
:101E000081059105C1F5E881F9810480F581E02D16
:101E100065E02DC0643071058105910511F1D4F0A4
:101E2000653071058105910531F5E881F9810480FE
:101E3000F581E02D66E01BC0E881F9810480F58121
:101E4000E02D64E014C0E881F9810480F581E02D83
:101E500061E00DC0E881F9810480F581E02D63E047
:101E600006C0E881F9810480F581E02D62E0CE01B1
:101E7000DF91CF911994DF91CF9108954370552749
:101E800066277727DC01ED91FC910480F581E02D38
:101E9000423051056105710571F04330510561050E
:101EA000710559F0413051056105710511F065E08A
:101EB00005C066E003C06AE001C069E01994CF93F1
:101EC000DF93EC01CB01BA0123E030E040E050E0C9
:101ED0000E94DE24613071058105910581F0623038
:101EE00071058105910591F0672B682B692BC1F471
:101EF000E881F9810480F581E02D64E00DC0E8817E
:101F0000F9810480F581E02D61E006C0E881F98166
:101F10000480F581E02D62E0CE01DF91CF9119942C
:101F2000DF91CF9108954370552766277727DC010D
:101F3000ED91FC910480F581E02D42305105610561
:101F4000710571F0433051056105710559F041305B
:101F500051056105710511F062E005C063E003C041
:101F600061E001C060E019940F931F93CF93DF935A
:101F7000EC01E881F9810480F581E02D8C010D5B95
:101F80001F4FD8018C91811102C060E001C062E056
:101F9000CE011995E881F9810480F581E02DD80101
:101FA0008C91811102C061E001C063E0CE011995FE
:101FB000EBA5FCA5E230F10538F0EE0FFF1FEE0FA8
:101FC000FF1F35973197F1F7E881F9810480F5819A
:101FD000E02DD8018C91811102C060E001C062E067
:101FE000CE01DF91CF911F910F911994CF93DF9381
:101FF000EC0120E030E0A9016B897C898D899E8904
:102000000E94222618161CF4EFA5F8A902C0E9A91F
:10201000FAA9DF91CF911994CF92DF92EF92FF92BC
:102020000F931F93CF93DF93FC012281243041F063
:10203000283031F0233031F0263021F012E003C097
:1020400014E001C013E0EC012796E12CF12CC62E20
:10205000D12C01E0C6010E2C02C0959587950A94FB
:10206000E2F7688180FD6027FE0134978081FBDD07
:10207000FFEFEF1AFF0A2196E11660F3DF91CF918F
:102080001F910F91FF90EF90DF90CF9008950F93E5
:102090001F93DC0112960C91129710E00930110584
:1020A000D8F5F8018827E557FF4F8F4F0C94FA2495
:1020B000ED91FC9111970084F185E02D29C0ED91FF
:1020C000FC9111970284F385E02D22C0ED91FC91E3
:1020D00011970484F585E02D1BC0ED91FC911197BB
:1020E0000684F785E02D14C0ED91FC9111970088CE
:1020F000F189E02D0DC0ED91FC9111970288F389D3
:10210000E02D06C0ED91FC9111970488F589E02D32
:10211000CD011F910F9119941F910F9108952F9246
:102120003F924F925F926F927F928F929F92AF9267
:10213000BF92CF92DF92EF92FF920F931F93CF93B4
:10214000DF9300D01F92CDB7DEB71C01FC0187845E
:102150009088A188B28883859485A585B685881ADC
:10216000990AAA0ABB0A63897489858996899B01A1
:10217000AC010E944D2C6B017C01F101638D748DCB
:10218000858D968D9B01AC010E9425259B01AC019C
:10219000C701B6010E9489250E94F125811491048E
:1021A000A104B104A1F462307105810591050CF020
:1021B0007CC0F10113A214A215A216A2138A148ADC
:1021C000158A168A13AA14AA15AA16AA03C1F10120
:1021D00003A914A925A936A9ED5BFF4F181419040A
:1021E0001A041B04FCF410161106120613064CF414
:1021F000681579058A059B054CF52081211155C08C
:1022000025C0011511052105310509F44EC06815D9
:1022100079058A059B050CF048C08081882309F464
:1022200044C037C01016110612061306F4F4002736
:1022300011279801081919092A093B096017710724
:10224000820793071CF42081222379F19B01AC01C2
:1022500088279927DC01821B930BA40BB50BF10196
:1022600083AB94ABA5ABB6AB20C00115110521051E
:102270003105D9F0CC24DD247601C818D908EA0844
:10228000FB086C157D058E059F057CF4808181110E
:102290000CC030952095109501951F4F2F4F3F4F43
:1022A000F10103AB14AB25AB36ABF101C3A8D4A845
:1022B000E5A8F6A881010D5B1F4FC114D104E1040C
:1022C000F10491F487A990ADA1ADB2AD83AF94AF05
:1022D000A5AFB6AF81E0181419041A041B040CF062
:1022E00080E0F801808340C0F10183AC94ACA5ACE0
:1022F000B6ACA5019401C501B4010E9425252B01AE
:102300003C01C701B6010E94EE2B20E030E040E81E
:1023100050E40E944D2C20E030E040E85FE30E9452
:1023200025259B01AC01C301B2010E9489259B01B7
:10233000AC01C501B4010E9424254B015C01F101EF
:10234000FF9640805180628073809201A3010E94B9
:102350002226181614F042015301A401B501F1011F
:1023600043AF54AF65AF76AFFFEFCF1ADF0AEF0A86
:10237000FF0AF101C3AAD4AAE5AAF6AA23AD34AD97
:1023800045AD56ADCA01B90129833A834B835C83BD
:102390000E94F625F10163A374A385A396A3298166
:1023A0003A814B815C8160E074E284E799E40E94A9
:1023B0008925F101638B748B858B968BF8012081C5
:1023C000211108C0DC01CB01B058F101838B948B43
:1023D000A58BB68B0F900F900F900F90DF91CF9140
:1023E0001F910F91FF90EF90DF90CF90BF90AF9033
:1023F0009F908F907F906F905F904F903F902F9025
:10240000089508958AE393E00C946F1ACF92DF92B7
:10241000EF92FF920F931F93CF93DF931F92CDB74D
:10242000DEB76C01DC01DC961C91DC97DB960C912D
:102430007C01B4E0EB0EF11CDC015996ED91FC91AE
:102440005A97C70169831995482F410F2981602F39
:10245000C70181D9F60123AD082E000C990B820F1C
:10246000911D83AF81E090E00F90DF91CF911F919C
:102470000F91FF90EF90DF90CF900895FC01848D35
:10248000DF01A80FB11DA35ABF4F2C91848D90E09E
:1024900001968F739927848FA689B7892C93A08979
:1024A000B1898C9180648C93938D848D981306C030
:1024B0000288F389E02D80818F7D80830895CF93FA
:1024C000DF9390E0FC01EC51FE4F2491FC01E256B9
:1024D000FE4F8491882361F190E0880F991FFC01E1
:1024E000E659FE4FC591D491FC01EC57FE4FA591E2
:1024F000B491611109C09FB7F89488812095822317
:102500008883EC912E230BC0623061F49FB7F8945E
:102510003881822F809583238883EC912E2B2C93F6
:102520009FBF06C08FB7F894E8812E2B28838FBFFA
:10253000DF91CF910895CF93DF93FC012281222375
:1025400029F1EC0161E08381BADF61E08C81B7DFC2
:102550008A81843011F0883031F461E08D81AFDF01
:1025600061E08E8106C0833011F0863019F461E09D
:102570008D81A5DF8EA58F3F49F061E0A0DF6DA5BD
:1025800081E068278EA5DF91CF916DCBDF91CF9150
:102590000895CF93DF93FC012281222399F0EC016F
:1025A0000190F081E02D0480F581E02D60E0199527
:1025B0008EA58F3F39F061E082DF6DA58EA5DF919A
:1025C000CF9151CBDF91CF9108951F920F920FB60B
:1025D0000F9211242F933F938F939F93AF93BF93A9
:1025E00080911E0390911F03A0912003B0912103BD
:1025F00030911D0323E0230F2D3720F40196A11DF8
:10260000B11D05C026E8230F0296A11DB11D209320
:102610001D0380931E0390931F03A0932003B09388
:1026200021038091190390911A03A0911B03B0918B
:102630001C030196A11DB11D8093190390931A03E9
:10264000A0931B03B0931C03BF91AF919F918F91F7
:102650003F912F910F900FBE0F901F901895CF9321
:10266000DF93DC01FB01828112968C9312974381E8
:1026700054816581768113964D935D936D937C9320
:102680001697478150856185728517964D935D93A6
:102690006D937C931A9743855485658576851B9643
:1026A0004D935D936D937C931E9747855089618907
:1026B00072891F964D935D936D937C9352974389D6
:1026C00054896589768953964D935D936D937C9378
:1026D00056974789508D618D728D57964D935D93B6
:1026E0006D937C935A97438D548D658D768D5B9653
:1026F0004D935D936D937C935E97478D50A161A13F
:1027000072A15F964D935D936D937C93929743A1D5
:1027100054A165A176A193964D935D936D937C939F
:10272000969747A150A561A572A597964D935D9385
:102730006D937C939A9783A594A59C969C938E9376
:102740009B9785A59D968C939D9786A59E968C9329
:102750009E9787A590A9D0969C938E939F9781A9C9
:1027600092A9D2969C938E93D19743A954A965A917
:1027700076A9D3964D935D936D937C93D69747A995
:1027800050AD61AD72ADD7964D935D936D937C93D3
:10279000DA9743AD54AD65AD76ADDB964D935D9361
:1027A0006D937C93DE97EF01EF96488159816A81A2
:1027B0007B81ED01EF96488359836A837B83ED5BD0
:1027C000FF4F8081FD01ED5BFF4F8083CD01DF91E5
:1027D000CF9108951F920F920FB60F9211240BB64E
:1027E0000F922F933F934F935F936F937F938F93AA
:1027F0009F93AF93BF93EF93FF93809129039091A1
:102800002A038093B20080912C0390912D03A09114
:102810002E03B0912F030196A11DB11D80932C03AF
:1028200090932D03A0932E03B0932F0380912C033C
:1028300090912D03A0912E03B0912F034091250379
:102840005091260360912703709128038417950700
:10285000A607B70710F180912B0381111EC081E0FC
:1028600080932B0380912C0390912D03A0912E0334
:10287000B0912F03841B950BA60BB70B80932C03F1
:1028800090932D03A0932E03B0932F03E091230385
:10289000F0912403199510922B03FF91EF91BF91B2
:1028A000AF919F918F917F916F915F914F913F91E8
:1028B0002F910F900BBE0F900FBE0F901F90189589
:1028C0004F925F926F927F928F929F92AF92BF9240
:1028D000CF92DF92EF92FF92CF93DF93EC016A01E8
:1028E0007B018B8C9C8CAD8CBE8C9A01AB01C5019D
:1028F000B4010E94E82B882309F448C06BA97CA985
:102900008DA99EA90E94EE2B2B013C01A7019601E7
:10291000C501B4010E9489259B01AC01C301B2012C
:102920000E944D2C0E94F1256BAB7CAB8DAB9EAB16
:10293000A701960160E070E080E090E40E948925A4
:102940000E942A2626E53EE04DE25FE30E944D2CE0
:1029500020E034E244E759E40E944D2C6FAB78AF9D
:1029600089AF9AAFCB8EDC8EED8EFE8ECE01DF91DD
:10297000CF91FF90EF90DF90CF90BF90AF909F905E
:102980008F907F906F905F904F90C9CBDF91CF91E8
:10299000FF90EF90DF90CF90BF90AF909F908F907F
:1029A0007F906F905F904F900895CF92DF92EF925B
:1029B000FF920F931F93CF93DF93EC016A017B018A
:1029C0009A01AB016F89788D898D9A8D0E94E82BD1
:1029D000882309F445C0CF8AD88EE98EFA8E8E01FD
:1029E000015C1F4FA701960160E074E284E799E45F
:1029F0000E948925F80160837183828393838BA968
:102A00009CA9ADA9BEA9181619061A061B0644F5FD
:102A10006B897C898D899E899B01AC010E944D2C1C
:102A20006B017C016B8D7C8D8D8D9E8D9B01AC012E
:102A30000E9425259B01AC01C701B6010E94892592
:102A40000E94F1256BAB7CAB8DAB9EABCE01DF91D1
:102A5000CF911F910F91FF90EF90DF90CF905FCBC0
:102A6000DF91CF911F910F91FF90EF90DF90CF906A
:102A70000895CF92EF920F93CF93DF93EC0188E10B
:102A800092E0998388836A831B861C861D861E8636
:102A90001F86188A198A1A8A1B8A1C8A1D8A1E8A0E
:102AA00080E090E0A0E8BFE38F8B988FA98FBA8F6A
:102AB0001B8E1C8E1D8E1E8E8F8F98A3A9A3BAA36A
:102AC0001BA21CA21DA21EA261E070E07CA76BA746
:102AD0003FEF3EA71FA218A619A61AA64B832C8368
:102AE0000D83EE821BAA1CAA1DAA1EAA1FAA18AE3D
:102AF00019AE1AAE1BAE1CAE1DAE1EAEFE01FF9689
:102B000080839183A283B383349610821F821886B8
:102B100019861A86CC2011F0CE010DDD40E050E080
:102B200060E87FE3CE01DF91CF910F91EF90CF90DE
:102B3000C7CECF92DF92EF92FF92CF93DF93EC015B
:102B40008BA19CA1ADA1BEA1892B8A2B8B2B09F453
:102B50005BC03FB7F8948091190390911A03A0913C
:102B60001B03B0911C0326B5A89B05C02F3F19F08D
:102B70000196A11DB11D3FBFCC24D82EE92EFA2EFF
:102B8000C20ED11CE11CF11C42E0CC0CDD1CEE1C81
:102B9000FF1C4A95D1F78FA198A5A9A5BAA5B701A1
:102BA000A601481B590B6A0B7B0B8BA19CA1ADA105
:102BB000BEA1481759076A077B0730F1FE01ED5B9C
:102BC000FF4F20818B859C85AD85BE85222321F01A
:102BD0000196A11DB11D03C00197A109B1098B8701
:102BE0009C87AD87BE87E881F9814B855C856D85C3
:102BF0007E850680F781E02DCE011995CFA2D8A65B
:102C0000E9A6FAA6CE018BDA20E030E0A9016B89B3
:102C10007C898D899E890E94E82B811110C081E0FA
:102C2000CF84D888E988FA884B855C856D857E8558
:102C3000C416D506E606F70619F480E001C081E067
:102C4000DF91CF91FF90EF90DF90CF9008950F9399
:102C50001F93FC0107851089218932890417150704
:102C60002607370739F04787508B618B728B1F918E
:102C70000F9155CA1F910F9108950F931F93FC0157
:102C80000385148525853685400F511F621F731FEC
:102C90001F910F91DCCF8F929F92AF92BF92CF92F4
:102CA000DF92EF92FF92CF93DF93EC018B889C88A9
:102CB000AD88BE8820E030E0A901C501B4010E94C2
:102CC000E82B882309F43EC0A5019401C501B40195
:102CD0000E944D2C6B017C016B8D7C8D8D8D9E8DAA
:102CE0009B01AC010E9425259B01AC01C701B601E7
:102CF0000E9489250E94F1256B017C012FEFC21AE9
:102D0000D20AE20AF20A20E030E0A901C501B401CA
:102D10000E94222618161CF4B701A60107C04427FA
:102D20005527BA014C195D096E097F09CE01DF9163
:102D3000CF91FF90EF90DF90CF90BF90AF909F909A
:102D40008F909BCFDF91CF91FF90EF90DF90CF904E
:102D5000BF90AF909F908F900895FB014181DC015F
:102D600012962C911297421768F013962C91139794
:102D7000241740F0608115962C91621718F4248175
:102D80000C94280B08958FE493E00E94EE0D21E04F
:102D9000892B09F420E0822F0895EF92FF920F9380
:102DA0001F93CF93DF93EC0181E0888F9B8D8C8DF7
:102DB000981305C0E889F989808185FD23C0F62E26
:102DC0000B8D10E00F5F1F4F0F731127E02E8C8DBE
:102DD000E8120BC00FB607FCFACFE889F9898081A9
:102DE00085FFF5CFCE014ADBF2CF8B8DFE01E80FD8
:102DF000F11DE35AFF4FF0820B8FEA89FB89808136
:102E0000806207C0EE89FF896083E889F989808143
:102E10008064808381E090E0DF91CF911F910F91DA
:102E2000FF90EF900895CF93DF93EC01888D882376
:102E3000C1F0EA89FB89808185FD05C0A889B9892F
:102E40008C9186FD0EC00FB607FCF5CF808185FF03
:102E5000F2CFA889B9898C9185FFEDCFCE010EDB29
:102E6000E8CFDF91CF9108951F920F920FB60F9286
:102E700011240BB60F922F933F934F935F936F9351
:102E80007F938F939F93AF93BF93EF93FF938FE4C1
:102E900093E0F4DAFF91EF91BF91AF919F918F9101
:102EA0007F916F915F914F913F912F910F900BBE4A
:102EB0000F900FBE0F901F9018951F920F920FB694
:102EC0000F9211240BB60F922F938F939F93EF9332
:102ED000FF93E0915F03F09160038081E0916503CF
:102EE000F091660382FD12C09081809168038F5F2C
:102EF0008F7320916903821751F0E0916803F0E02D
:102F0000E15BFC4F958F8093680301C08081FF9146
:102F1000EF919F918F912F910F900BBE0F900FBE4D
:102F20000F901F901895CF92DF92EF92FF920F9320
:102F30001F93CF93DF936C017A018B01C0E0D0E047
:102F4000CE15DF0589F0D8016D918D01D601ED9187
:102F5000FC910190F081E02DC6011995892B11F4A7
:102F60007E0102C02196ECCFC701DF91CF911F9166
:102F70000F91FF90EF90DF90CF9008950E948E28E0
:102F8000FC01808191816130710551F4009719F441
:102F9000718360830895019769F482E090E005C031
:102FA0000197029728F483E090E09183808308954D
:102FB000118210820895CF9384EA8093BC0061E06F
:102FC00080E80E94140D882359F08091B900887F11
:102FD000883041F0803131F061E082E00E940B0DD9
:102FE000C0E01DC088E78093BB0084E88093BC00EC
:102FF00062E080E80E94140D882391F380913803E9
:10300000C82FC27081FD0AC08091B900887F8831C5
:1030100029F062E082E00E940B0D01C0C1E08C2F1C
:10302000CF910895FC0180819181009711F00C945B
:10303000AD2B60E070E0CB0108952F923F924F924C
:103040005F926F927F928F929F92AF92BF92CF9238
:10305000DF92EF92FF920F931F93CF93DF9300D0F5
:103060001F92CDB7DEB7FC01448055804114510456
:1030700009F413C1FB01648075806114710409F4C3
:103080000CC17A016B019C838B83FA01A480B5800B
:10309000A618B708FC0100811181A114B104C1F484
:1030A000F60160817181C8010E94CA285C01892BE8
:1030B00009F4F3C0F7016081718144815581C50134
:1030C0000E949228F701048115810A0D1B1DE8CF8B
:1030D000B7FE02C0480106C0FB01208031804201DA
:1030E000C80148C0F60160817181C4010E94CA28EC
:1030F0002C01892B29F1320168187908A301B40148
:10310000C8010E949228060D171DF7016081718188
:1031100044815581C8010E949228F70184819581DC
:10312000080F191FF60184809580840C951CEB8193
:10313000FC81848195818A0D9B1D95838483D2CFE8
:10314000B401C8010F900F900F900F90DF91CF91B5
:103150001F910F91FF90EF90DF90CF90BF90AF90B5
:103160009F908F907F906F905F904F903F902F90A7
:103170000C94B528B1010E94CA28009729F0860D49
:10318000971D8A0C9B1CF6CF8414950409F485C006
:10319000EB81FC81828193818815990578F4B401D3
:1031A0006F5F7F4FC8010E94AA27009709F475C07E
:1031B000EB81FC819183808393828282EB81FC810D
:1031C000048115810150110917FD67C0F6012480A3
:1031D00035802114310409F460C0EB81FC816480E6
:1031E00075806114710409F458C06214730408F402
:1031F00054C00615170518F0830101501109EB8121
:10320000FC8140805180C20188248A94982C9201CC
:10321000200F311F2817390758F0F601608171819E
:1032200029833A830E94CA2829813A81009761F54F
:1032300097FC33C0280C391CC201820D931DA301D9
:1032400042195309BC018A0D9B1D0E949B28EB81EA
:10325000FC81848195818A0D9B1D958384832081C7
:103260003181F901E80FF91F1082EB81FC81808127
:103270009181F7016081718144815581880D991D8B
:103280000E94922884019ECFAC014419550904176D
:10329000150708F04A010196BDCF0F900F900F90CF
:1032A0000F90DF91CF911F910F91FF90EF90DF90E2
:1032B000CF90BF90AF909F908F907F906F905F90D6
:1032C0004F903F902F900895FC0124813581621723
:1032D000730748F480819181009729F0FC01E60F83
:1032E000F71F8081089580E00895FC0124813581D5
:1032F0006217730720F480819181009729F410925E
:10330000400380E493E00895860F971F0895EF929D
:10331000FF920F931F93CF93DF937C018B01CB011F
:103320000A96FB0120E22193E817F907E1F7C0E0D4
:10333000D0E0BE01C701D9DFFC018081882361F0A4
:10334000BE01C701D2DFFC018081F80181938F01AA
:103350002196CA30D10569F7DF91CF911F910F9166
:10336000FF90EF900895FB0144815581FC01248179
:1033700035812417350778F080819181009759F0C5
:10338000FB01608171816115710529F00E94BC28E3
:1033900021E0892B09F020E0822F0895FC0124818F
:1033A0003581232B31F421E061157105A1F0FB017A
:1033B00008C0FC01808191816115710531F421E023
:1033C000FC018081882339F005C00E94AC2821E0EF
:1033D000892B09F020E0822F08950F931F93CF933C
:1033E000DF93EC0188819981009729F02A813B8144
:1033F0002617370788F48B016F5F7F4F0E94AA273B
:10340000009761F0998388831B830A832C813D8117
:10341000232B11F4FC01108281E001C080E0DF91D8
:10342000CF911F910F910895CF93DF93EC01888185
:103430009981009711F00E941227198218821D822B
:103440001C821B821A82DF91CF910895EF92FF9226
:103450000F931F93CF93DF93EC017B018A01BA0195
:10346000BCDF811103C0CE01DFDF07C01D830C83E9
:10347000B701888199810E94B528CE01DF91CF9153
:103480001F910F91FF90EF900895CF93DF93EC0180
:103490006115710551F0FB0101900020E9F73197AA
:1034A000AF01461B570BD2DF01C0BEDFCE01DF915B
:1034B000CF910895CF93DF93EC01FB018617970717
:1034C00051F0608171816115710521F04481558150
:1034D000BDDF01C0A9DFCE01DF91CF910895FC01CE
:1034E000808191810C941227FC0111821082138239
:1034F000128215821482DECFFC01118210821382A7
:103500001282158214826115710549F0FB01019048
:103510000020E9F73197AF01461B570B97CF08956D
:10352000FF920F931F93CF93DF93CDB7DEB76E97C4
:103530000FB6F894DEBF0FBECDBF8C018091410362
:10354000811108C066E672E08AE393E0D5DF81E08E
:1035500080934103F8012481358180913E0390914D
:103560003F032817390749F58081918160913A031B
:1035700070913B03009719F061157105C9F461154D
:10358000710559F0232B09F4D3C2FB01208130E0EF
:1035900088279927821B930B0DC0009709F4C8C296
:1035A000232B09F4C5C2FC019081892F90E002C051
:1035B0000E94AC28892B09F4BBC2B801CE01499600
:1035C00093DF66E672E0CE01019696DF65E672E073
:1035D000CE01079691DFAE014F5F5F4FBE01695F7D
:1035E0007F4FCE01499629DDCE01079678DFCE01C7
:1035F000019675DFBE01675E7F4FCE01439674DF93
:103600006EEA72E0CE01019677DFBE016F5F7F4FF9
:10361000CE014396A8DEF82ECE01019660DFFF2092
:1036200009F43BC0BE016D5E7F4FCE010D965CDF9D
:1036300066E672E0CE0107965FDF6EEA72E0CE01C9
:1036400001965ADFAE01495F5F4FBE016F5F7F4F4A
:10365000CE010D96F2DCCE01019641DFCE01079638
:103660003EDFBE01635F7F4FCE0101963DDFCE019D
:1036700001962ED4F82ECE01019631DFFF2051F0B5
:10368000CE010D96CFDC0E94EE2BAB01BC018EEB80
:1036900094E08BD9CE010D9622DF6EEB72E0CE0165
:1036A00001962ADFBE016F5F7F4FCE0143965BDE3E
:1036B000F82ECE01019613DFFF2009F439C0BE01B8
:1036C0006D5E7F4FCE010D960FDF66E672E0CE0194
:1036D000079612DF6EEB72E0CE0101960DDFAE01B0
:1036E000495F5F4FBE016F5F7F4FCE010D96A5DC36
:1036F000CE010196F4DECE010796F1DEBE01635FD6
:103700007F4FCE010196F0DECE010196E1D3F82E77
:10371000CE010196E4DEFF2041F0CE010D9682DC61
:10372000AB01BC018EEB94E092DACE010D96D7DEB0
:1037300061EB72E0CE01439631DE882341F11092B5
:10374000C9041092CA041092CB041092CC041092B7
:10375000CD041092CE041092CF041092D004109297
:10376000F1041092F2041092F3041092F4041092F7
:10377000E1041092E2041092E3041092E404109227
:10378000D1041092D2041092D3041092D40469EBA5
:1037900072E0CE01439602DE8111DBC160EC72E083
:1037A000CE014396FBDD8111D4C1CE01439697DE55
:1037B000BE01675E7F4FCE01439696DE65EC72E0F8
:1037C000CE01019699DEBE016F5F7F4FCE01439619
:1037D000CADDF82ECE01019682DEFF2009F43BC03F
:1037E000BE016D5E7F4FCE010D967EDE66E672E015
:1037F000CE01079681DE65EC72E0CE0101967CDE9B
:10380000AE01495F5F4FBE016F5F7F4FCE010D96E6
:1038100014DCCE01019663DECE01079660DEBE01A8
:10382000635F7F4FCE0101965FDECE01019650D3DC
:10383000F82ECE01019653DEFF2051F0CE010D96F9
:10384000F1DB0E94EE2BAB01BC018AE794E0ADD81E
:10385000CE010D9644DE65ED72E0CE0101964CDEA0
:10386000BE016F5F7F4FCE0143967DDDF82ECE0106
:10387000019635DEFF2009F439C0BE016D5E7F4F31
:10388000CE010D9631DE66E672E0CE01079634DE9B
:1038900065ED72E0CE0101962FDEAE01495F5F4F0C
:1038A000BE016F5F7F4FCE010D96C7DBCE01019643
:1038B00016DECE01079613DEBE01635F7F4FCE0199
:1038C000019612DECE01019603D3F82ECE010196A9
:1038D00006DEFF2041F0CE010D96A4DBAB01BC015A
:1038E0008AE794E0B4D9CE010D96F9DD68EC72E078
:1038F000CE01439653DD882341F110928504109246
:103900008604109287041092880410928904109201
:103910008A0410928B0410928C041092AD041092C1
:10392000AE041092AF041092B00410929D04109255
:103930009E0410929F041092A00410928D04109285
:103940008E0410928F041092900460ED72E0CE010C
:10395000439624DD811101C160EC72E0CE014396F3
:103960001DDD8111FAC0CE014396B9DDBE01675E4F
:103970007F4FCE014396B8DD67ED72E0CE01019630
:10398000BBDDBE016F5F7F4FCE014396ECDCF82EAE
:10399000CE010196A4DDFF2009F43CC0BE016D5E9E
:1039A0007F4FCE010D96A0DD66E672E0CE01079650
:1039B000A3DD67ED72E0CE0101969EDDAE01495FA9
:1039C0005F4FBE016F5F7F4FCE010D9636DBCE019C
:1039D000019685DDCE01079682DDBE01635F7F4FD4
:1039E000CE01019681DDCE01019672D2F82ECE0174
:1039F000019675DDFF2059F0CE010D9613DB0E9474
:103A0000EE2BAB01BC0186E394E00E94D514CE01FD
:103A10000D9665DD67EE72E0CE0101966DDDBE01AB
:103A20006F5F7F4FCE0143969EDCF82ECE0101964C
:103A300056DDFF2009F439C0BE016D5E7F4FCE0117
:103A40000D9652DD66E672E0CE01079655DD67EE13
:103A500072E0CE01019650DDAE01495F5F4FBE01BD
:103A60006F5F7F4FCE010D96E8DACE01019637DD0C
:103A7000CE01079634DDBE01635F7F4FCE01019614
:103A800033DDCE01019624D2F82ECE01019627DD3A
:103A9000FF2041F0CE010D96C5DAAB01BC0186E3F3
:103AA00094E0D5D8CE010D961ADD6AED72E0CE0114
:103AB000439674DC882341F1109241041092420431
:103AC000109243041092440410924504109246044C
:103AD00010924704109248041092690410926A04EC
:103AE00010926B0410926C041092590410925A04B4
:103AF00010925B0410925C041092490410924A04E4
:103B000010924B0410924C0462EE72E0CE01439688
:103B100045DC811126C060EC72E0CE0143963EDCAC
:103B200081111FC0CE014396DADCCE014996D7DC65
:103B3000B8018AE393E0BEDC4DD06E960FB6F894E0
:103B4000DEBF0FBECDBFDF91CF911F910F91FF90D0
:103B500008958EEB94E09FD828CE8AE794E09BD816
:103B600002CF86E394E097D8DDCFCF92DF92FF9229
:103B70000F931F93CF93DF931F921F92CDB7DEB7A2
:103B8000F82E062FE0910504F091060480EF93E0F3
:103B900049835A831995080F4981C42E5A81D52E1D
:103BA00010E0F60121916F01222349F0402F6F2D83
:103BB00080EF93E00E94AB0BF80E180FF2CF812F2D
:103BC0000F900F90DF91CF911F910F91FF90DF9099
:103BD000CF900895DF92EF92FF920F931F93CF93B0
:103BE000DF93809100018074E82EF12CC3B1C07185
:103BF0000C2F10E093B19072D92EDFB1D2702091CA
:103C0000840530918505232B51F5882341F11092CD
:103C1000C9041092CA041092CB041092CC041092E2
:103C2000CD041092CE041092CF041092D0041092C2
:103C3000F1041092F2041092F3041092F404109222
:103C4000E1041092E2041092E3041092E404109252
:103C5000D1041092D2041092D3041092D404209173
:103C6000820530918305232B51F5CC2341F110922D
:103C70008504109286041092870410928804109292
:103C8000890410928A0410928B0410928C04109272
:103C9000AD041092AE041092AF041092B0041092D2
:103CA0009D0410929E0410929F041092A004109202
:103CB0008D0410928E0410928F0410929004811142
:103CC0001AC08091CD049091CE04A091CF04B09100
:103CD000D0044091C9045091CA046091CB04709102
:103CE000CC04841B950BA60BB70BB7FF04C08EEB5F
:103CF00094E00E944B16D1101DC08091CD0490918C
:103D0000CE04A091CF04B091D0044091C904509149
:103D1000CA046091CB047091CC04841B950BA60B54
:103D2000B70B181619061A061B0624F48EEB94E03E
:103D30000E944B16C1111AC08091890490918A0487
:103D4000A0918B04B0918C0440918504509186041D
:103D50006091870470918804841B950BA60BB70BA8
:103D6000B7FF04C08AE794E00E944B16D1111DC032
:103D70008091890490918A04A0918B04B0918C0465
:103D80004091850450918604609187047091880465
:103D9000841B950BA60BB70B181619061A061B06E3
:103DA00024F48AE794E00E944B16F0928505E09295
:103DB000840510938305009382058EEB94E00E94A6
:103DC00099158AE794E00E94991586E394E0DF91C3
:103DD000CF911F910F91FF90EF90DF900C94991568
:103DE0000F931F93CF93DF931F921F92CDB7DEB730
:103DF00089831A8200913404109135040F5F1F4F9C
:103E0000B80180E394E0E9DA8823A1F0209130043E
:103E1000309131048091340490913504BE016F5F7C
:103E20007F4F820F931F0E94B52810933504009393
:103E3000340481E00F900F90DF91CF911F910F918B
:103E40000895EF92FF920F931F93CF93DF93EC01AE
:103E50008091340490913504E0903004F090310466
:103E60000C811D81E114F104A9F00097A9F0080F5D
:103E7000191FB801CE01B1DA882361F02881398198
:103E80008C819D81B701820F931F0E94B5281D83ED
:103E90000C8302C0CE01C8DACE01DF91CF911F9111
:103EA0000F91FF90EF9008952091340430913504E4
:103EB0008217930760F49093350480933404209123
:103EC000300430913104F901E80FF91F1082089590
:103ED000CF92DF92FF920F931F93CF93DF9300D087
:103EE00000D0CDB7DEB78C0166E672E0CE01019658
:103EF00003DB60E070E0C801E7D98B3219F18D3245
:103F000009F1B801CE010196D5DACD80DE8000E05E
:103F100010E0F12C0C151D0589F0B801CE010196B9
:103F2000D3D98E3229F4F1100BC0FF24F39403C0CF
:103F300080538A3028F40F5F1F4FECCF11E00BC085
:103F400010E009C061E070E0C801CFD9BC01CE012A
:103F500001969BDADACFCE010196C1DA812F26963F
:103F60000FB6F894DEBF0FBECDBFDF91CF911F918A
:103F70000F91FF90DF90CF900895CF93DF93CDB74F
:103F8000DEB7CA54D1090FB6F894DEBF0FBECDBF5D
:103F9000789484B5826084BD84B5816084BD85B524
:103FA000826085BD85B5816085BD80916E00816030
:103FB00080936E00109281008091810082608093D6
:103FC00081008091810081608093810080918000D8
:103FD0008160809380008091B10084608093B10003
:103FE0008091B00081608093B000809191008260E8
:103FF00080939100809191008160809391008091E5
:1040000090008160809390008091A10082608093F5
:10401000A1008091A10081608093A1008091A00007
:1040200081608093A00080912101826080932101B2
:104030008091210181608093210180912001816024
:104040008093200180917A00846080937A0080912F
:104050007A00826080937A0080917A0081608093F8
:104060007A0080917A00806880937A001092C10073
:104070008FE081B980EF82B9109222031C821B82EB
:1040800082E492E09A8389831CAE1DAE1EAE1A862E
:1040900019861C861B861E8681E08D8782E28F87AB
:1040A0001C8A1B8AFE01B896CE01C6962FEF21937B
:1040B000E817F907E1F781E08DA32BE833E03B8FA8
:1040C0002A8F8C8F1D8E1E8E80E48F8F18A281E028
:1040D00092E19FAB8EAB88E092E098878F831BAA1A
:1040E000CE0105960E94460B8B819C819093EF0335
:1040F0008093EE0387E3FE013596A0EFB3E00190D5
:104100000D928A95E1F78CAD809327048DAD809355
:1041100028048EAD809329048091F4039091F503D7
:104120008057924009F445C080E792E09093F503F0
:104130008093F40380910704811108C0E5E7F2E061
:10414000E491E0930804ECE7F2E011C0813041F41F
:10415000EFE7F2E0E491E0930804E0E8F2E007C062
:10416000EDE7F2E0E491E0930804EEE7F2E0E49199
:10417000E093090480910804082E000C990B20910B
:104180000904821B910927FD939520910A0420348C
:1041900041F0829FC001112426E0969587952A95CB
:1041A000E1F780930B048BE893E0909306048093EF
:1041B000050461E088E00E945F1261E089E30E94EB
:1041C0005F12809102018062809302018B9A62E00B
:1041D00086E30E945F1262E089E00E945F1262E063
:1041E0008AE00E945F1262E08BE00E945F1262E050
:1041F00087E30E945F1261E085E00E945F1261E048
:1042000086E00E945F1261E087E00E945F1261E039
:1042100082E00E945F1261E083E00E945F1261E031
:1042200084E00E945F12CC24C39485E0E82E04E071
:1042300025E042E061E0CE0101965C010E94391563
:10424000B5018EEB94E00E942F1326E043E061E07D
:10425000C5010E943915B5018AE794E00E942F1329
:1042600027E044E061E0C5010E943915B50186E30D
:1042700094E00E942F13109233031092320366E6EB
:1042800072E080E394E001D9109235031092340378
:1042900040E050E06AE774E48EEB94E00E94D514AD
:1042A00040E050E06AE774E48AE794E00E94D514A5
:1042B00040E050E06AE774E486E394E00E94D5149D
:1042C00040E050E46CE975E48EEB94E00E946014E9
:1042D00040E050E46CE975E48AE794E00E946014E1
:1042E00040E050E46CE975E486E394E00E946014D9
:1042F00080917A008B7F80937A0080917A0082602F
:1043000080937A0080917A00816080937A0081E0C6
:1043100090E0A0E0B0E08093250390932603A09363
:104320002703B093280385E995E0909324038093B5
:104330002303809170008E7F809370008091B00085
:104340008C7F8093B0008091B100877F8093B10013
:104350008091B6008F7D8093B600809170008D7F34
:10436000809370008091B10084608093B10080914F
:10437000B1008C7F8093B10086E090E090932A0397
:104380008093290310922C0310922D0310922E0378
:1043900010922F0310922B038091290390912A03EE
:1043A0008093B20080917000816080937000E091F2
:1043B0005F03F091600382E08083E0915B03F09102
:1043C0005C031082E0915D03F0915E038FEC8083CB
:1043D00010926703E0916303F091640386E08083A9
:1043E000E0916103F0916203808180618083E091BC
:1043F0006103F0916203808188608083E0916103B2
:10440000F0916203808180688083E0916103F09184
:10441000620380818F7D808305E812E09BEAE92EAC
:1044200092E0F92E80912904811106C0C0922904DE
:1044300080EF93E00E94460B8090F2039090F3038C
:10444000E0912104F091220482E01995E091210489
:10445000F091220481E0199520E030E044E1B401BC
:1044600080EF93E00E94420B23E234E047E1B40185
:1044700080EF93E00E94420BE0912104F09122042E
:1044800080E019958091300390913103009719F4E1
:1044900042E752E00AC08130910519F448E752E042
:1044A00004C0029729F44FE752E06AE08DE25DDB39
:1044B0008091320390913303009709F045C08091B9
:1044C000CC048F938091CB048F938091CA048F93F7
:1044D0008091C9048F931F930F93BF92AF9274D6AC
:1044E00049E852E064E182E040DBA50164E181E15A
:1044F0003CDB809188048F93809187048F93809117
:1045000086048F93809185048F931F930F93BF929E
:10451000AF925AD64CE852E06EE182E026DBA5016C
:104520006EE181E122DB809144048F93809143040A
:104530008F93809142048F93809141048F931F93B6
:104540000F93BF92AF928CC08130910509F03AC0B1
:1045500042E952E064E182E008DB60E374E0CE010E
:104560008B5B9F4F0E94741AB501CE018B5B9F4FEE
:104570000E948719CE018B5B9F4F0E946F1AA50185
:1045800064E189E1F2DA46E952E064E189E1EDDAD9
:10459000809188048F93809187048F938091860403
:1045A0008F93809185048F931F930F93BF92AF9247
:1045B0000BD64CE852E06EE182E0D7DAA5016EE15D
:1045C00081E13DC08230910509F054C08091CC0456
:1045D0008F938091CB048F938091CA048F938091A5
:1045E000C9048F931F930F93BF92AF92EDD549E803
:1045F00052E064E182E0B9DAA50164E181E1B5DA73
:1046000041EA52E06EE182E0B0DA60E374E0CE01AC
:104610008B5B9F4F0E94741AB501CE018B5B9F4F3D
:104620000E948719CE018B5B9F4F0E946F1AA501D4
:104630006EE189E19ADA46E952E06EE189E195DAC4
:10464000809144048F93809143048F93809142041E
:104650008F93809141048F931F930F93BF92AF92DA
:10466000B3D54FE852E068E282E07FDAA50168E264
:1046700081E156C0039709F059C08091CC048F9313
:104680008091CB048F938091CA048F938091C90449
:104690008F931F930F93BF92AF9296D549E852E044
:1046A00064E182E062DAA50164E181E15EDA809191
:1046B00088048F93809187048F93809186048F93D1
:1046C000809185048F931F930F93BF92AF927CD5F7
:1046D0004CE852E06EE182E048DAA5016EE181E14A
:1046E00044DA45EA52E068E282E03FDA60E374E0EF
:1046F000CE018B5B9F4F0E94741AB501CE018B5B7C
:104700009F4F0E948719CE018B5B9F4F0E946F1AAB
:10471000A50168E289E129DA46E952E068E289E127
:1047200024DA0FB6F894DEBF0FBECDBF80913403FC
:10473000909135038130910561F0029779F449EA4F
:1047400052E064E18EE611DA49EA52E06EE18EE66B
:104750000CDA49EA52E068E28EE607DA8091370324
:104760008F93809136038F93FF92EF92BF92AF9217
:104770002BD5A50162E382E0F8D96AE274E0CE01AC
:104780008B5B9F4F0E94741AB501CE018B5B9F4FCC
:104790000E948719CE018B5B9F4F0E946F1AA50163
:1047A00062E388E2E2D9E091FE03F091FF030F900B
:1047B0000F900F900F900F900F90309719F080EF9F
:1047C00093E019958090F2039090F303E091210417
:1047D000F091220482E01995E0912104F0912204E5
:1047E00081E0199520E030E045E1B40180EF93E0ED
:1047F0000E94420BD82E882341F023E234E047E1A7
:10480000B40180EF93E00E94420BE0912104F0910B
:10481000220480E01995D11035CE0E94FA0D02CE07
:104820008AE294E00E946F1A80E394E00C946F1A7D
:10483000CF92EF920F93109252031092510388EE91
:1048400093E0A0E0B0E08093530390935403A093CF
:104850005503B093560382E392E090935003809304
:104860004F0385EC90E090935C0380935B0384ECB2
:1048700090E090935E0380935D0380EC90E09093D2
:10488000600380935F0381EC90E0909362038093D8
:10489000610382EC90E0909364038093630386EC61
:1048A00090E09093660380936503109268031092E2
:1048B000690310926A0310926B03CC24C39485E0C1
:1048C000E82E04E023E042E064E08EEB94E00E94F6
:1048D000391523E042E064E08AE794E00E9439154C
:1048E00023E042E064E086E394E00E94391566E646
:1048F00072E080E394E00E947C1A1092EF03109221
:10490000EE0382E492E09093ED038093EC03109227
:10491000270410922804109229041092F503109293
:10492000F4031092F7031092F6031092F90381E05A
:104930008093F80382E28093FA031092FF031092AF
:10494000FE03E3E1F4E09FEF8EE08E0F91938E1370
:10495000FDCF81E0809310042BE833E03093060410
:104960002093050480930704109208041092090410
:1049700080E480930A0410920B0481E092E190930A
:1049800022048093210488E092E09093F3038093C3
:10499000F20310921E0480EF93E00E94460B82E522
:1049A00092E09093ED038093EC0367E672E08AE275
:1049B00094E00F91EF90CF900C947C1A052E97FB0A
:1049C00016F400940FD057FD05D01CD007FC02D080
:1049D00046F408C050954095309521953F4F4F4F74
:1049E0005F4F089590958095709561957F4F8F4F9B
:1049F0009F4F0895EE0FFF1F881F8BBF0790F69102
:104A0000E02D1994A1E21A2EAA1BBB1BFD010DC0BB
:104A1000AA1FBB1FEE1FFF1FA217B307E407F5076E
:104A200020F0A21BB30BE40BF50B661F771F881F4A
:104A3000991F1A9469F760957095809590959B01E0
:104A4000AC01BD01CF0108955058BB27AA270ED055
:104A50009EC78FD730F094D720F031F49F3F11F4E8
:104A60001EF484C70EF4E095E7FB7AC7E92FA0D7C0
:104A700080F3BA17620773078407950718F071F47B
:104A80009EF5B8C70EF4E0950B2EBA2FA02D0B01A2
:104A9000B90190010C01CA01A0011124FF27591B83
:104AA00099F0593F50F4503E68F11A16F040A22F89
:104AB000232F342F4427585FF3CF469537952795FA
:104AC000A795F0405395C9F77EF41F16BA0B620BF9
:104AD000730B840BBAF09150A1F0FF0FBB1F661F40
:104AE000771F881FC2F70EC0BA0F621F731F841F83
:104AF00048F4879577956795B795F7959E3F08F0A9
:104B0000B3CF9395880F08F09927EE0F9795879567
:104B100008950CD03CC734D740F02BD730F021F4A7
:104B20005F3F19F01DC7511166C720C741D798F3E1
:104B30009923C9F35523B1F3951B550BBB27AA271E
:104B400062177307840738F09F5F5F4F220F331F90
:104B5000441FAA1FA9F333D00E2E3AF0E0E830D05C
:104B600091505040E695001CCAF729D0FE2F27D05F
:104B7000660F771F881FBB1F261737074807AB072D
:104B8000B0E809F0BB0B802DBF01FF2793585F4FA2
:104B90002AF09E3F510568F0E3C62DC75F3FECF356
:104BA000983EDCF3869577956795B795F7959F5F67
:104BB000C9F7880F911D9695879597F90895E1E0BB
:104BC000660F771F881FBB1F621773078407BA071A
:104BD00020F0621B730B840BBA0BEE1F88F7E09575
:104BE000089504D06894B11106C70895E9D688F0F5
:104BF0009F5790F0B92F9927B751A0F0D1F0660FC9
:104C0000771F881F991F1AF0BA95C9F712C0B130E3
:104C100081F0F0D6B1E00895EDC6672F782F882790
:104C2000B85F39F0B93FCCF3869577956795B39522
:104C3000D9F73EF490958095709561957F4F8F4F91
:104C40009F4F089506D608F48FEF089511F40EF4DF
:104C50008DC63EC0B5D6D0F39923D9F3CEF39F5776
:104C6000550B87FF43D00024A0E640EA900180580E
:104C70005695979528F4805C660F771F881F20F063
:104C800026173707480730F4621B730B840B202963
:104C900031294A2BA69517940794202531254A27B8
:104CA00058F7660F771F881F20F026173707480729
:104CB00030F4620B730B840B200D311D411DA09548
:104CC00081F7B901842F9158880F9695879508959B
:104CD0009F3F31F0915020F4879577956795B79570
:104CE000880F911D9695879597F90895915050409A
:104CF000660F771F881FD2F70895CF93DF93823016
:104D0000910510F482E090E0E0918805F09189052A
:104D100020E030E0C0E0D0E0309711F140815181D7
:104D200048175907C0F04817590761F482819381E9
:104D3000209719F09B838A832BC0909389058093D9
:104D4000880526C02115310519F04217530718F4BC
:104D50009A01BE01DF01EF010280F381E02DDCCF7B
:104D60002115310509F1281B390B2430310590F448
:104D700012968D919C9113976115710521F0FB019D
:104D80009383828304C09093890580938805FD01F5
:104D9000329644C0FD01E20FF31F8193919322509C
:104DA00031092D933C933AC02091860530918705B7
:104DB000232B41F42091100230911102309387058A
:104DC0002093860520910E0230910F0221153105A6
:104DD00041F42DB73EB74091120250911302241BAB
:104DE000350BE0918605F0918705E217F307A0F4F3
:104DF0002E1B3F0B2817390778F0AC014E5F5F4F31
:104E00002417350748F04E0F5F1F509387054093D6
:104E100086058193919302C0E0E0F0E0CF01DF913D
:104E2000CF9108950F931F93CF93DF93009709F4C9
:104E30008CC0FC0132971382128200918805109178
:104E400089050115110581F420813181820F931F9D
:104E500020918605309187052817390779F5F09359
:104E60008705E093860571C0D80140E050E0AE1799
:104E7000BF0750F412962D913C911397AD01211567
:104E8000310509F1D901F3CF9D01DA013383228382
:104E900060817181860F971F8217930769F4EC0177
:104EA00028813981260F371F2E5F3F4F31832083A2
:104EB0008A819B8193838283452B29F4F093890512
:104EC000E093880542C01396FC93EE931297ED0190
:104ED000499159919E01240F351FE217F30771F490
:104EE00080819181840F951F029611969C938E93D9
:104EF0008281938113969C938E931297E0E0F0E069
:104F0000D80112968D919C911397009719F0F80192
:104F10008C01F6CF8D919C9198012E5F3F4F820FAF
:104F2000931F20918605309187052817390769F46A
:104F3000309729F4109289051092880502C01382D7
:104F400012821093870500938605DF91CF911F9100
:104F50000F9108956F927F928F929F92AF92BF921E
:104F6000CF92DF92EF92FF920F931F93CF93DF9335
:104F7000EC01009781F4CB01DF91CF911F910F914C
:104F8000FF90EF90DF90CF90BF90AF909F908F9069
:104F90007F906F90B2CEFC01E60FF71F9C0122506C
:104FA0003109E217F30708F4A8C0D9010D911C914B
:104FB000119706171707A8F00530110508F49BC0D4
:104FC000C80104978617970708F495C00250110985
:104FD000061B170B019311936D937C93CF0122DF76
:104FE0008AC05B01A01AB10A4C01800E911EA091EB
:104FF0008805B091890540E050E0E12CF12C109734
:1050000009F44AC0A815B905D1F56D907C901197A7
:10501000630182E0C80ED11CCA14DB0480F1A30135
:105020004A195B096A0182E0C80ED11C1296BC9035
:1050300012971396AC91B5E0CB16D10440F0B28232
:10504000A38351834083D9016D937C930AC00E5F83
:105050001F4FC301800F911FF90191838083EB2DB6
:10506000FA2FE114F10431F0D7011396FC93EE937B
:10507000129741C0F0938905E09388053CC08D915B
:105080009C9111974817590708F4AC017D011296BD
:105090000D90BC91A02DB3CF80918605909187058E
:1050A00088159905E1F446175707C8F480910E0258
:1050B00090910F02009741F48DB79EB74091120274
:1050C00050911302841B950BE817F907B0F4F09385
:1050D0008705E0938605F901718360830CC0CB01DD
:1050E0000CDE7C01009749F0A801BE011BD0CE0167
:1050F00099DEC70104C0CE0102C080E090E0DF91DC
:10510000CF911F910F91FF90EF90DF90CF90BF90C4
:10511000AF909F908F907F906F90089581E090E086
:10512000F8946FC4FB01DC0102C001900D92415064
:105130005040D8F708956817790768F4FB01DC013F
:10514000E40FF51FA40FB51F02C002900E9241504C
:105150005040D8F70895E6CFFB01DC018D91019016
:1051600080190110D9F3990B0895FB01DC0101901E
:105170000D920020E1F70895FB01DC014150504001
:1051800030F08D910190801919F40020B9F7881B37
:10519000990B0895FB0151915523A9F0BF01DC0142
:1051A0004D9145174111E1F759F4CD0101900020CF
:1051B00049F04D9140154111C9F3FB014111EFCF69
:1051C00081E090E0019708950F931F93CF93DF93B1
:1051D000CDB7DEB72E970FB6F894DEBF0FBECDBFAA
:1051E0000E891F8986E08C831A8309838FEF9FE7DE
:1051F0009E838D83AE01465E5F4F688D798DCE01B3
:10520000019611D02F813885F801E20FF31F10822B
:105210002E960FB6F894DEBF0FBECDBFDF91CF91B3
:105220001F910F9108952F923F924F925F926F922C
:105230007F928F929F92AF92BF92CF92DF92EF9226
:10524000FF920F931F93CF93DF93CDB7DEB72C97C9
:105250000FB6F894DEBF0FBECDBF7C016B018A0193
:10526000FC0117821682838181FFB0C1CE010196B5
:105270004C01F7019381F60193FD859193FF819194
:105280006F01882309F49EC1853239F493FD85911D
:1052900093FF81916F01853221F4B70190E0C7D16E
:1052A000E8CF512C312C20E02032A0F48B3269F071
:1052B00030F4803259F0833269F420612CC08D3291
:1052C00039F0803339F4216026C02260246023C085
:1052D000286021C027FD27C030ED380F3A3078F420
:1052E00026FF06C0FAE05F9E300D1124532E13C036
:1052F0008AE0389E300D1124332E20620CC08E328D
:1053000021F426FD5FC1206406C08C3611F42068AC
:1053100002C0883641F4F60193FD859193FF819197
:105320006F018111C1CF982F9F7D9554933028F440
:105330000C5F1F4FFFE3F9830DC0833631F08337D5
:1053400071F0833509F057C021C0F801808189834D
:105350000E5F1F4F44244394512C540114C0380154
:10536000F2E06F0E711CF801A080B18026FF03C02F
:10537000652D70E002C06FEF7FEFC5012C874CD127
:105380002C0183012C852F77222E16C03801F2E0E4
:105390006F0E711CF801A080B18026FF03C0652D3F
:1053A00070E002C06FEF7FEFC5012C872AD12C017E
:1053B0002C852068222E830123FC19C0832D90E0C8
:1053C00048165906A0F4B70180E290E030D13A9433
:1053D000F5CFF50127FC859127FE81915F01B7018B
:1053E00090E025D131103A94F1E04F1A5108411460
:1053F000510479F7DEC0843611F0893631F5F801B1
:1054000027FF07C060817181828193810C5F1F4FEC
:1054100008C060817181072E000C880B990B0E5F0C
:105420001F4F2F76722E97FF09C09095809570952B
:1054300061957F4F8F4F9F4F2068722E2AE030E09A
:10544000A4012DD1A82EA81843C0853729F42F7E9A
:10545000B22E2AE030E025C0F22FF97FBF2E8F3622
:10546000C1F018F4883579F0ADC0803719F088376D
:1054700021F0A8C02F2F2061B22EB4FE0DC08B2DBD
:105480008460B82E09C024FF0AC09F2F9660B92EF1
:1054900006C028E030E005C020E130E002C020E195
:1054A00032E0F801B7FE07C060817181828193818B
:1054B0000C5F1F4F06C06081718180E090E00E5F3D
:1054C0001F4FA401ECD0A82EA818FB2DFF777F2E2C
:1054D00076FE0BC0372D3E7FA51450F474FE0AC033
:1054E00072FC08C0372D3E7E05C0BA2C372D03C094
:1054F000BA2C01C0B52C34FF0DC0FE01EA0DF11D20
:105500008081803311F4397E09C032FF06C0B39424
:10551000B39404C0832F867809F0B39433FD12C08E
:1055200030FF06C05A2CB31418F4530C5B18B32C7C
:10553000B31460F4B70180E290E03C8778D0B39474
:105540003C85F6CFB31410F43B1801C0312C34FF66
:1055500011C0B70180E390E03C8769D03C8532FF01
:1055600016C031FD03C088E790E002C088E590E0F6
:10557000B7010CC0832F867851F031FF02C08BE257
:1055800001C080E237FD8DE2B70190E050D0A51454
:1055900030F4B70180E390E04AD05A94F8CFAA944F
:1055A000F401EA0DF11D8081B70190E040D0A11017
:1055B000F6CF332009F45DCEB70180E290E037D01A
:1055C0003A94F7CFF7018681978102C08FEF9FEF62
:1055D0002C960FB6F894DEBF0FBECDBFDF91CF91F2
:1055E0001F910F91FF90EF90DF90CF90BF90AF9001
:1055F0009F908F907F906F905F904F903F902F90F3
:105600000895FC010590615070400110D8F7809515
:1056100090958E0F9F1F0895FC016150704001907E
:105620000110D8F7809590958E0F9F1F08950F93C6
:105630001F93CF93DF93FB01238121FD03C08FEFE5
:105640009FEF28C022FF16C04681578124813581F3
:105650004217530744F4A081B1819D012F5F3F4F52
:10566000318320838C93268137812F5F3F4F37838F
:10567000268310C0EB01092F182F0084F185E02D3F
:105680001995892BE1F68E819F8101969F838E83E8
:10569000812F902FDF91CF911F910F910895FA01E3
:1056A000AA27283051F1203181F1E8946F936E7F61
:1056B0006E5F7F4F8F4F9F4FAF4FB1E03ED0B4E052
:1056C0003CD0670F781F891F9A1FA11D680F791F93
:1056D0008A1F911DA11D6A0F711D811D911DA11DA4
:1056E00020D009F468943F912AE0269F11243019B4
:1056F000305D3193DEF6CF010895462F4770405D4F
:105700004193B3E00FD0C9F7F6CF462F4F70405DFD
:105710004A3318F0495D31FD4052419302D0A9F758
:10572000EACFB4E0A6959795879577956795BA9552
:10573000C9F700976105710508959B01AC010A2E18
:1057400006945795479537952795BA95C9F7620FEF
:10575000731F841F951FA01D08951F93FC01992797
:105760008827BC01E89411911032E9F3193010F048
:105770001E30C8F31B3249F01D3241F4689405C055
:1057800012D0610F711D811D911D119110531A309E
:10579000B8F33EF490958095709561957F4F8F4F4B
:1057A0009F4F1F910895592F482F372F262F660F8F
:1057B000771F881F991F660F771F881F991F620F19
:1057C000731F841F951F660F771F881F991F0895E9
:1057D00040D008F481E00895E89409C097FB3EF4B6
:1057E00090958095709561957F4F8F4F9F4F99232E
:1057F000A9F0F92F96E9BB279395F69587957795AC
:105800006795B795F111F8CFFAF4BB0F11F460FF6B
:105810001BC06F5F7F4F8F4F9F4F16C0882311F0C3
:1058200096E911C0772321F09EE8872F762F05C0D7
:10583000662371F096E8862F70E060E02AF09A9572
:10584000660F771F881FDAF7880F9695879597F967
:105850000895990F0008550FAA0BE0E8FEEF161601
:105860001706E807F907C0F012161306E407F50754
:1058700098F0621B730B840B950B39F40A2661F0C8
:10588000232B242B252B21F408950A2609F4A1406B
:10589000A6958FEF811D811D08950BD078C069D02A
:1058A00028F06ED018F0952309F05AC05FC011247B
:1058B000A2C07ED0A0F3959FD1F3950F50E0551F65
:1058C000629FF001729FBB27F00DB11D639FAA2755
:1058D000F00DB11DAA1F649F6627B00DA11D661FA4
:1058E000829F2227B00DA11D621F739FB00DA11DC5
:1058F000621F839FA00D611D221F749F3327A00D7F
:10590000611D231F849F600D211D822F762F6A2F1A
:1059100011249F5750408AF0E1F088234AF0EE0F9F
:10592000FF1FBB1F661F771F881F91505040A9F7AC
:105930009E3F510570F014C05EC05F3FECF3983E8F
:10594000DCF3869577956795B795F795E7959F5F13
:10595000C1F7FE2B880F911D9695879597F90895AD
:1059600097F99F6780E870E060E008959FEF80EC12
:10597000089500240A9416161706180609060895B5
:1059800000240A9412161306140605060895092E1B
:105990000394000C11F4882352F0BB0F40F4BF2B8A
:1059A00011F460FF04C06F5F7F4F8F4F9F4F0895CA
:1059B00057FD9058440F551F59F05F3F71F04795C0
:1059C000880F97FB991F61F09F3F79F087950895A5
:1059D000121613061406551FF2CF4695F1DF08C0C4
:1059E000161617061806991FF1CF869571056105E1
:1059F00008940895E894BB2766277727CB0197F989
:105A0000089513E0CBE3D3E000E006C0802FFE0151
:105A10000E94FA242196011DCC33D10780E00807AB
:065A2000A9F7F894FFCF86
:105A26000840000000800205520400027A0D0000C2
:105A36008A05800000000000C9129B120C10471056
:105A4600F60FB40F930F5F0F3E0FE80EB00E000077
:105A56000000CD169317EE0DCC0DE00D13170000C8
:105A660000000612931700000000BE1793170000EF
:105A76000000061293172D00303030002020202021
:105A8600202020202020006E6F20636F6D6D616ED8
:105A96006400534C454550004D4153544552005304
:105AA6004C41564500256C6400583A00593A005A54
:105AB6003A00582D3E005F5F5F5F5F5F5F5F5F5F2D
:105AC60000592D3E005A2D3E002A002564005678C6
:105AD60000434C4541525F580053544F505F5800A5
