:10000000E8C3000017C4000015C4000013C40000BA
:1000100011C400000FC400000DC400000BC4000098
:1000200009C4000007C4000005C4000003C40000A8
:1000300001C40000FFC30000FDC300000C94EB1AD4
:10004000F9C30000F7C30000F5C30000F3C30000CC
:10005000F1C30000EFC30000EDC300000C94E619EB
:10006000E9C300000C9472180C944918E3C3000013
:10007000E1C30000DFC30000DDC30000DBC30000FC
:10008000D9C30000D7C30000D5C30000D3C300000C
:10009000D1C30000CFC30000CDC30000CBC300001C
:1000A000C9C30000C7C30000C5C30000C3C300002C
:1000B000C1C30000BFC30000BDC30000BBC300003C
:1000C000B9C30000B7C30000B5C30000B3C300004C
:1000D000B1C30000AFC30000ADC30000ABC300005C
:1000E000A9C300007C258225882592259C251B26F6
:1000F000A625AF25B825C225CC25D625E525EF2593
:100100001B26F92503260D2686168A168E169216AC
:1001100096169A169E16DA17E117E817EF17F617D4
:100120000E18FD170E180418D718DA18C918CD18AC
:10013000D1181119DE18E218E818EC18F018F618A2
:10014000FA18FE181119041908190C1901080D00E4
:10015000FE09016102CD207FFE0BFE09FE0D00802D
:10016000321989808080808080800080284383903D
:1001700090901367874848FC48FC484812598920EA
:1001800078A0A0702828F02012698944A448101093
:100190002048548812678760909060948874381360
:1001A0008380808032398920404080808040402098
:1001B00022398980404020202040408016658548B3
:1001C00030FC30481455852020F8202011438370DE
:1001D0006080165181F821338340E0400279890222
:1001E0000204081020408080126989304884848489
:1001F000848448301259892060A02020202020F8D3
:100200001269897884840408304080FC126989FC72
:10021000040810380404847812698908182848886A
:1002200088FC0808126989FC8080B8C404048478BA
:1002300012698938408080B8C4848478126989FC46
:100240000408101020204040126989788484847842
:10025000848484781269897884848C740404087096
:1002600021388840E040000040E04011488820707C
:1002700020000070608022598908102040804020B2
:100280001008146484FC0000FC125989804020107E
:1002900008102040801269897884840408101000B6
:1002A000101269897884849CA4AC9480781269893E
:1002B0003048848484FC848484126989F08884882A
:1002C000F0888488F01269897884808080808084B6
:1002D00078126989F088848484848488F01269891A
:1002E000FC808080F0808080FC126989FC808080A6
:1002F000F08080808012698978848080809C848CE2
:100300007412698984848484FC8484848412598965
:10031000F820202020202020F81279893E080808A3
:100320000808088870126989848890A0C0A0908805
:10033000841269898080808080808080FC02798935
:100340008282C6AA92928282821269898484C4A41B
:10035000948C8484841269897884848484848484D9
:1003600078126989F8848484F880808080116A8A90
:10037000788484848484A4947804126989F88484B9
:1003800084F8A09088841269897884808078040435
:100390008478027989FE1010101010101010126964
:1003A00089848484848484848478027989828244E0
:1003B000444428282810027989828282829292926B
:1003C000AA440279898282442810284482820279D0
:1003D00089828244281010101010126989FC0408C8
:1003E0001020408080FC224989F0808080808080BD
:1003F00080F00279898080402010080402021249AE
:1004000089F010101010101010F01853832050882D
:10041000017181FE3A2282804012668678047C84D3
:100420008C74126989808080B8C48484C4B81266D0
:1004300086788480808478126989040404748C84AA
:10044000848C741266867884FC808478126989387A
:10045000444040F84040404010688874888870806C
:10046000788478126989808080B8C48484848412F6
:10047000588820006020202020F8105A8A08001890
:10048000080808088888701269898080808890E050
:100490009088841259896020202020202020F80292
:1004A0007686EC9292929282126686B8C484848494
:1004B00084126686788484848478106888B8C484BA
:1004C000C4B8808080106888748C848C74040404A0
:1004D000126686B8444040404012668678846018B0
:1004E00084781268884040F840404044381266865C
:1004F0008888888888741256868888885050200298
:10050000768682829292AA44126686844830304867
:10051000841068888484848C74048478126686FCD1
:1005200008102040FC22598938404020C02040401B
:10053000383219898080808080808080801259893B
:10054000E010102018201010E018538348A890FFE6
:1005500000000A0B02090C0D0E080703040100003D
:10056000000000000000000000000000000000008B
:100570000000000000000000000000001211100048
:10058000000000000000000000000000000000006B
:10059000000000000000FFE0FFD1AFFF32FFD0FFFE
:1005A000FEFFE0FFD1AEFFD0FFFEFFE0FFD1100065
:1005B000FFFEFFD0FFE0FFC1FFD1AED580A83FD343
:1005C00000408D142000A1C8DA1281CFD9F1DB40A0
:1005D0002EA4A6AFFFD0FFFE0000210024002700BC
:1005E0002A002D0030003300010100000401070142
:1005F0000A0100002200250028002B002E003100F7
:10060000340002010000050108010B010505050584
:10061000070508080808020202020A0A080804047A
:1006200004040101010101010101030303030303A8
:100630000303040707070C0C0C0C0C0C0C0C020237
:10064000020206060606060606060B0B0B0B0B0B34
:100650000B0B0102102020080810204010204080C1
:100660000201020108040201010204081020408076
:100670008040201008040201800402018040201004
:10068000080402010804020101020408102040804D
:1006900001020408102040804E414E494E495459F1
:1006A000494E46CDCCCC3D0AD7233C17B7D138773D
:1006B000CC2B329595E6241FB14F0A000020410053
:1006C00000C84200401C4620BCBE4CCA1B0E5AAE9D
:1006D000C59D7400407A10F35A00A0724E180900AC
:1006E00010A5D4E80000E87648170000E40B540297
:1006F0000000CA9A3B000000E1F5050000809698D2
:1007000000000040420F000000A086010000001021
:100710002700000000E80300000000640000000063
:10072000000A00000000000100000000002C76D844
:1007300088DC674F0823DFC1DFAE59E1B1B796E52A
:10074000E3E453C63AE651997696E8E6C28426EB8E
:10075000898C9B62ED407C6FFCEFBC9C9F40F2BAA1
:10076000A56FA5F490055A2AF75C936B6CF9676D39
:10077000C11BFCE0E40D47FEF520E6B500D0ED908E
:100780002E0300943577050080841E080000204E5B
:100790000A000000C80C333333330F986E128311F4
:1007A00041EF8D2114893BE65516CFFEE6DB18D1CB
:1007B000844B381BF77C1D901DA4BBE4242032849D
:1007C000725E228100C9F124ECA1E53D270060267C
:1007D0005A2611241FBECFEFD1E2DEBFCDBF00E00D
:1007E0000CBF13E0A0E0B2E0E0ECF6E600E00BBFE7
:1007F00002C007900D92A830B107D9F725E0A8E014
:10080000B3E001C01D92A839B207E1F713E0C8EECA
:10081000D3E000E006C021970109802FFE010E946D
:100820004127C73ED10780E00807A9F70E940C21A5
:100830000C944E33E5CB3F924F925F926F927F9232
:100840008F929F92AF92BF92CF92DF92EF92FF92E0
:100850000F931F93CF93DF93CDB7DEB768970FB693
:10086000F894DEBF0FBECDBF87EF82B970B010B174
:1008700080B000B18BEF82B980B150B090B0C0B001
:100880009DEF92B930B060B0A0B0B0B09EEF92B919
:1008900040B0D0B0E0B0F0B0082E000C990B8095BD
:1008A0009095692F661F6627661F70E08BE193E0C5
:1008B0000E94131E832D330C990B80959095692F00
:1008C000661F6627661F70E081E293E00E94131E98
:1008D000842D440C990B80959095692F661F66278F
:1008E000661F70E08DE193E00E94131E612F6295F8
:1008F00066956695637011E06127617070E085E22E
:1009000093E00E94131E652D62956695669563704F
:100910006127617070E083E293E00E94131E662DF0
:1009200062956695669563706127617070E087E2F5
:1009300093E00E94131E682D62956695677061278B
:10094000617070E086E193E00E94131E692D62954C
:10095000669567706127617070E08FE193E00E9497
:10096000131E6A2D6295669567706127617070E04D
:1009700084E193E00E94131E6C2D62956F706127D5
:10098000617070E082E193E00E94131E872D770C66
:10099000990B80959095692F661F6627661F70E0FA
:1009A00080E193E00E94131ED294D694D69493E0F3
:1009B000D922D1266D2D617070E08EE093E00E9407
:1009C000131EE294E69427E0E222E1266E2D617088
:1009D00070E08CE093E00E94131EF2943FE0F3225B
:1009E000F1266F2D617070E089E193E00E94131E83
:1009F00002950F700127602F617070E08AE093E02C
:100A00000E94131E6B2D62956F706127617070E0FC
:100A100088E093E00E94131E80911B0390911C03B9
:100A2000019711F481E301C080E02091210330910E
:100A300022032130310509F482E320911D03309116
:100A40001E032130310509F483E320912503309101
:100A500026032130310509F484E3209123033091EA
:100A600024032130310509F485E3209127033091D7
:100A700028032130310509F486E3209116033091D3
:100A800017032130310509F487E320911F033091CA
:100A900020032130310509F488E3209114033091BB
:100AA00015032130310509F489E3209112033091B7
:100AB00013032130310509F480E320910A033091BA
:100AC0000B032130310509F48AE2209108033091AB
:100AD00009032130310509F483E22091100330919C
:100AE00011032130310509F481E420910E03309186
:100AF0000F032130310509F482E420910C03309179
:100B00000D032130310509F483E42091190330915C
:100B10001A032130310509F484E480933503213030
:100B2000310579F48091460390914703892B49F46C
:100B300080914403909145030196909345038093DF
:100B400044038091440390914503039724F010924D
:100B50004503109244038091440390914503892BEF
:100B600059F48B9A80910201806280930201109265
:100B700049031092480316C08B98789B08C0809157
:100B8000020180628093020181E090E007C08091C1
:100B900002018F7D8093020182E090E090934903EF
:100BA0008093480380911803082E000C990B209124
:100BB0004403309145038217930709F140E050E068
:100BC000BA018BE894E00E94F51240E050E0BA01CF
:100BD00087E494E00E94F51240E050E0BA0183E01F
:100BE00094E00E94F5128AE593E00E947615019642
:100BF000D1F766E572E087EF93E00E9441202091F3
:100C0000440330914503209318032130310509F046
:100C100040C28091480390914903029709F016C1A0
:100C2000409146035091470380913503413051056F
:100C300041F0813409F07EC030934703209346038E
:100C400079C090ED980F9A3018F08A3221F48EE234
:100C50000E94EA1D6FC0833209F045C061E672E070
:100C6000CE0101960E94F820BE016F5F7F4F8DEF8D
:100C700093E00E94C91F182FCE0101960E946B209D
:100C80001123D9F061E772E0CE0101960E94F820AD
:100C900061E672E0CE0107960E94F820AE014F5F38
:100CA0005F4FBE01695F7F4F8DEF93E00E94701E22
:100CB000CE0107960E946B2011C061E672E0CE0162
:100CC00001960E94F8206DEF73E0CE0101960E941C
:100CD0000320BC018DEF93E00E945620CE010196C7
:100CE0000E946B2027C0843441F4809101049091CC
:100CF0000204009709F0D8C51DC08134D9F46DEF06
:100D000073E0CE0101960E94F020CE0101960E9470
:100D10007020182FCE0101960E946B201111C8C5BA
:100D2000109247031092460361E772E08DEF93E063
:100D30000E94412020914603309147038091350362
:100D40002230310551F0823409F080C082E090E019
:100D5000909347038093460379C090ED980F9A30A3
:100D600018F08A3221F48EE20E94EA1D6FC08332AD
:100D700009F045C061E672E0CE0101960E94F820BC
:100D8000BE016F5F7F4F8DEF93E00E94C91F182F48
:100D9000CE0101960E946B201123D9F061E772E029
:100DA000CE0101960E94F82061E672E0CE0107961E
:100DB0000E94F820AE014F5F5F4FBE01695F7F4F19
:100DC0008DEF93E00E94701ECE0107960E946B206B
:100DD00011C061E672E0CE0101960E94F8206DEF2D
:100DE00073E0CE0101960E940320BC018DEF93E0D9
:100DF0000E945620CE0101960E946B2027C08434A9
:100E000041F48091010490910204009709F09FC57C
:100E10001DC08234D9F46DEF73E0CE0101960E94BB
:100E2000F020CE0101960E947020182FCE0101966D
:100E30000E946B2011118FC5109247031092460338
:100E400061E772E08DEF93E00E944120209146031C
:100E500030914703809135032330310551F08334BD
:100E600009F080C083E090E09093470380934603AD
:100E700079C090ED980F9A3018F08A3221F48EE202
:100E80000E94EA1D6FC0833209F045C061E672E03E
:100E9000CE0101960E94F820BE016F5F7F4F8DEF5B
:100EA00093E00E94C91F182FCE0101960E946B206B
:100EB0001123D9F061E772E0CE0101960E94F8207B
:100EC00061E672E0CE0107960E94F820AE014F5F06
:100ED0005F4FBE01695F7F4F8DEF93E00E94701EF0
:100EE000CE0107960E946B2011C061E672E0CE0130
:100EF00001960E94F8206DEF73E0CE0101960E94EA
:100F00000320BC018DEF93E00E945620CE01019694
:100F10000E946B2027C0843441F480910104909199
:100F20000204009709F066C51DC08334D9F46DEF43
:100F300073E0CE0101960E94F020CE0101960E943E
:100F40007020182FCE0101960E946B20111156C5FA
:100F5000109247031092460361E772E08DEF93E031
:100F60000E9441208091460390914703892B09F00C
:100F70008EC08091480390914903029771F580914A
:100F8000270390912803029711F41D9986C580913B
:100F9000250390912603029731F0809123039091CD
:100FA0002403029721F48091000186FD7EC5809183
:100FB000210390912203029711F479997EC58091C3
:100FC0001F0390912003029731F0809123039091A9
:100FD0002403029711F41C9978C580911D03909108
:100FE0001E03029741F444EF51E060E070E083E0BB
:100FF00094E00E94F51280911B0390911C030297CC
:1010000041F44CE05EEF6FEF7FEF83E094E00E94ED
:10101000F5128091250390912603039731F080917A
:10102000270390912803039721F48BE894E00E9412
:10103000D71B8091210390912203039731F0809177
:101040001F0390912003039721F487E494E00E940A
:10105000D71B80911B0390911C03039731F0809163
:101060001D0390911E03039721F483E094E00E94F6
:10107000D71B8091230390912403039741F48BE8BD
:1010800094E00E94D71B87E494E00E94D71B0E9443
:10109000E81C8091440390914503029709F0D1C365
:1010A0008AE593E00E949815892B09F441C08AE5EE
:1010B00093E00E94761520913303309134038B33F3
:1010C00059F0F901E75DFC4F80832F5F3F4F30936C
:1010D0003403209333032CC02A303105F9F467E63A
:1010E00072E087EF93E00E94412089E2E82E83E0DE
:1010F000F82E00E010E0B80187EF93E00E94B71FE0
:10110000F70121917F01FC0120830F5F1F4F0A30FF
:10111000110589F781E08093360306C066E572E029
:1011200087EF93E00E944120109234031092330322
:1011300080913603882309F482C3E090F703F0908E
:10114000F803E114F10409F444C00091FB03109189
:10115000FC0301151105E9F157016501FFEFAF1A15
:10116000BF0AF6018081082E000C990B0E94F9310C
:10117000892B99F7015011090E0D1F1DF80180816F
:10118000082E000C990B0E94F931892B89F4A801D3
:101190004F5F5F4F4C195D095093FC034093FB0375
:1011A000EC14FD0458F4B601C7010E94F12A06C0F0
:1011B0000C151D0560F301501109E0CFE091F70314
:1011C000F091F8038091FB039091FC03E80FF91F65
:1011D00010828091480390914903029709F01FC241
:1011E00067EF73E0CE0143960E94F02062E772E061
:1011F000CE0101960E94F820BE016F5F7F4FCE01A5
:1012000043960E94C91F182FCE0101960E946B20A1
:10121000112309F44FC0BE016D5E7F4FCE010D96C4
:101220000E94F02061E772E0CE0107960E94F8204C
:1012300062E772E0CE0101960E94F820AE01495F9C
:101240005F4FBE016F5F7F4FCE010D960E94701EF3
:10125000CE0101960E946B20CE0107960E946B2062
:10126000BE01635F7F4FCE0101960E94F020CE0148
:1012700001960E947020182FCE0101960E946B20CB
:101280001123A1F0CE010D960E94651E20E030E0F2
:1012900048EC52E40E947E320E9448280E941F328D
:1012A000AB01BC018BE894E00E94ED11CE010D96DC
:1012B0000E946B2062E872E0CE0101960E94F82045
:1012C000BE016F5F7F4FCE0143960E94C91F182F4A
:1012D000CE0101960E946B20112309F44DC0BE017E
:1012E0006D5E7F4FCE010D960E94F02061E772E0A7
:1012F000CE0107960E94F82062E872E0CE010196C6
:101300000E94F820AE01495F5F4FBE016F5F7F4FC3
:10131000CE010D960E94701ECE0101960E946B2098
:10132000CE0107960E946B20BE01635F7F4FCE0106
:1013300001960E94F020CE0101960E947020182F85
:10134000CE0101960E946B20112391F0CE010D96E3
:101350000E94651E20E030E048EC52E40E947E329C
:101360000E944828AB01BC018BE894E00E94DF1288
:10137000CE010D960E946B2065E772E0CE01439688
:101380000E94E41F882341F1109296041092970462
:10139000109298041092990410929A0410929B044F
:1013A00010929C0410929D041092BE041092BF04EF
:1013B0001092C0041092C1041092AE041092AF04B7
:1013C0001092B0041092B10410929E0410929F04E7
:1013D0001092A0041092A1046DE772E0CE01439632
:1013E0000E94E41F811179C364E872E0CE01439644
:1013F0000E94E41F811171C3CE0143960E946B20AD
:1014000067EF73E0CE0143960E94F02069E872E036
:10141000CE0101960E94F820BE016F5F7F4FCE0182
:1014200043960E94C91F182FCE0101960E946B207F
:10143000112309F44EC0BE016D5E7F4FCE010D96A3
:101440000E94F02061E772E0CE0107960E94F8202A
:1014500069E872E0CE0101960E94F820AE01495F72
:101460005F4FBE016F5F7F4FCE010D960E94701ED1
:10147000CE0101960E946B20CE0107960E946B2040
:10148000BE01635F7F4FCE0101960E94F020CE0126
:1014900001960E947020182FCE0101960E946B20A9
:1014A000112399F0CE010D960E94651E20E030E0D8
:1014B00048EC52E40E947E320E9448280E941F326B
:1014C000AB01BC0187E494E088D7CE010D960E9461
:1014D0006B2069E972E0CE0101960E94F820BE01FE
:1014E0006F5F7F4FCE0143960E94C91F182FCE0118
:1014F00001960E946B20112309F44DC0BE016D5E60
:101500007F4FCE010D960E94F02061E772E0CE0180
:1015100007960E94F82069E972E0CE0101960E94C8
:10152000F820AE01495F5F4FBE016F5F7F4FCE0174
:101530000D960E94701ECE0101960E946B20CE0176
:1015400007960E946B20BE01635F7F4FCE0101961C
:101550000E94F020CE0101960E947020182FCE012B
:1015600001960E946B20112391F0CE010D960E94EE
:10157000651E20E030E048EC52E40E947E320E947A
:101580004828AB01BC0187E494E00E94DF12CE0141
:101590000D960E946B206CE872E0CE0143960E948B
:1015A000E41F882341F110925204109253041092C8
:1015B000540410925504109256041092570410923D
:1015C00058041092590410927A0410927B041092DD
:1015D0007C0410927D0410926A0410926B041092A5
:1015E0006C0410926D0410925A0410925B041092D5
:1015F0005C0410925D0464E972E0CE0143960E949F
:10160000E41F81116FC264E872E0CE0143960E942C
:10161000E41F811167C2CE0143960E946B2067EFE1
:1016200073E0CE0143960E94F0206BE972E0CE0198
:1016300001960E94F820BE016F5F7F4FCE01439656
:101640000E94C91F182FCE0101960E946B20112302
:1016500009F44EC0BE016D5E7F4FCE010D960E9413
:10166000F02061E772E0CE0107960E94F8206BE956
:1016700072E0CE0101960E94F820AE01495F5F4FF3
:10168000BE016F5F7F4FCE010D960E94701ECE018E
:1016900001960E946B20CE0107960E946B20BE012E
:1016A000635F7F4FCE0101960E94F020CE0101962C
:1016B0000E947020182FCE0101960E946B201123EA
:1016C00099F0CE010D960E94651E24EE38E34EE897
:1016D00051E40E947E320E9448280E941F32AB01D2
:1016E000BC0183E094E079D6CE010D960E946B2078
:1016F0006BEA72E0CE0101960E94F820BE016F5F96
:101700007F4FCE0143960E94C91F182FCE0101962C
:101710000E946B20112309F44CC0BE016D5E7F4F07
:10172000CE010D960E94F02061E772E0CE0107968F
:101730000E94F8206BEA72E0CE0101960E94F82028
:10174000AE01495F5F4FBE016F5F7F4FCE010D96C7
:101750000E94701ECE0101960E946B20CE0107965A
:101760000E946B20BE01635F7F4FCE0101960E94F5
:10177000F020CE0101960E947020182FCE01019614
:101780000E946B20112389F0CE010D960E94651EE8
:1017900024EE38E34EE851E40E947E320E9448284D
:1017A000AB01BC0183E094E00AD7CE010D960E9404
:1017B0006B206EE972E0CE0143960E94E41F8823FD
:1017C00041F110920E0410920F0410921004109226
:1017D0001104109212041092130410921404109227
:1017E00015041092360410923704109238041092A7
:1017F00039041092260410922704109228041092A3
:1018000029041092160410921704109218041092D2
:10181000190466EA72E0CE0143960E94E41F81112A
:1018200066C164E872E0CE0143960E94E41F811114
:101830005EC1CE0143960E946B20109236030E9437
:10184000E81C80917B00877F80937B0084E48093F9
:101850007C0080917A00806480937A0080917A0085
:1018600086FDFCCF809178002091790090E0922B4A
:1018700090934B0380934A0368960FB6F894DEBFAB
:101880000FBECDBFDF91CF911F910F91FF90EF90D1
:10189000DF90CF90BF90AF909F908F907F906F9090
:1018A0005F904F903F90089501970E94FF1D42CA9C
:1018B0008091010490910204892B09F443C063E6EE
:1018C00072E08DEF93E00E94E41F882349F11092AB
:1018D0009604109297041092980410929904109212
:1018E0009A0410929B0410929C0410929D041092F2
:1018F000BE041092BF041092C0041092C104109252
:10190000AE041092AF041092B0041092B104109281
:101910009E0410929F041092A0041092A10400CA89
:101920008DEF93E00E94651E20E030E048EC52E429
:101930000E947E320E944828AB01BC018BE894E0F3
:101940003ED6EEC98BE894E00E94D71BE9C9019707
:101950000E94FF1D7BCA8091010490910204892B93
:1019600009F443C063E672E08DEF93E00E94E41F48
:10197000882349F110925204109253041092540497
:101980001092550410925604109257041092580465
:101990001092590410927A0410927B0410927C04E5
:1019A00010927D0410926A0410926B0410926C04E1
:1019B00010926D0410925A0410925B0410925C0411
:1019C00010925D0439CA8DEF93E00E94651E20E0FD
:1019D00030E048EC52E40E947E320E944828AB017D
:1019E000BC0187E494E0EBD527CA87E494E00E9429
:1019F000D71B22CA01970E94FF1DB4CA809101041F
:101A000090910204892B09F443C063E672E08DEFE4
:101A100093E00E94E41F882349F110920E04109273
:101A20000F041092100410921104109212041092DC
:101A3000130410921404109215041092360410929C
:101A40003704109238041092390410922604109230
:101A50002704109228041092290410921604109260
:101A60001704109218041092190472CA8DEF93E0B3
:101A70000E94651E24EE38E34EE851E40E947E3257
:101A80000E944828AB01BC0183E094E098D560CA6D
:101A900083E094E00E94D71B5BCA44EF51E060E012
:101AA00070E08BE894E0A1D572CA4CE05EEF6FEF76
:101AB0007FEF8BE894E099D57ACA44EF51E060E07B
:101AC00070E087E494E091D57ACA4CE05EEF6FEF66
:101AD0007FEF87E494E089D580CA8BE894E00E9488
:101AE000D71B8ACC87E494E00E94D71B94CD83E077
:101AF00094E00E94D71B9DCECF93DF93FC0123A5DA
:101B0000222371F0EC010E942E1E811102C080E0A0
:101B100008C08EA1811180E479D78823C1F31BA668
:101B200081E0DF91CF910895DB011496ED91FC9156
:101B3000159720E030E065E01994DB011496ED91F3
:101B4000FC91159720E030E062E01994DB011496D7
:101B5000ED91FC91159720E030E063E01994CF926D
:101B6000DF92EF92FF920F931F93CF93DF938C013D
:101B70007B016A0180E0F601C49181110AC0CF3F68
:101B800009F447C04C2FB701C801CEDF81113FC017
:101B900045C0CF3F11F44FEFF6CFCE3F09F440C020
:101BA000C03FA8F5C03E30F04C2F4F70B701C801C0
:101BB000C4DF2DC0C03D30F04C2F4F70B701C801BD
:101BC000C5DF25C0C03CF0F0D7011496ED91FC9123
:101BD000159720E030E040E064E0C8011995C29517
:101BE000C07FCE5FD0E0CE01CFD6D7011496ED9165
:101BF000FC91159720E030E041E064E0C8011995C0
:101C0000CE0104C0C7FD03C08C2F90E0BDD680E09C
:101C100001C081E0BFEFCB1ADB0AADCF80E001C08D
:101C200081E0DF91CF911F910F91FF90EF90DF90B6
:101C3000CF900895CF92DF92EF92FF920F931F9370
:101C4000CF93DF936C018A017B01FB0120E2CF017E
:101C5000861B970B8017910714F42193F8CFFB0193
:101C6000E00FF11F1082C0E0D0E0C017D1079CF454
:101C7000BE01C6010E94B71FFC018081882359F074
:101C8000BE01C6010E94B71FFC018081F70181934C
:101C90007F012196EACFDF91CF911F910F91FF90A5
:101CA000EF90DF90CF9008950895DC011696ED91A6
:101CB000FC91179712968C91481B477081E090E039
:101CC00001C0880F4A95EAF7E60FF11D3081222303
:101CD00011F0832B02C08095832380830895FB013C
:101CE0004181DC0112962C911297421760F01396F5
:101CF0002C911397241738F0608115962C91621758
:101D000010F42481D2CF0895FC0180819281980F34
:101D100092832181921760F494819F5F94839381D1
:101D2000890F821710F08FEF820F838381E008956F
:101D300080E00895FC0112828081815083831482A7
:101D4000089580E008950B96FC01849108950A9609
:101D5000FC0184910895FC0184910895FCDF88239F
:101D600021F0823011F083E0089586E00895FC01AF
:101D7000E60FF11D849190E0982F88273196E49129
:101D80008E0F911D089568E0F2CF66E0F0CF1092BB
:101D90004D0310924C030895809357031092B9009D
:101DA00084FF02C08CE001C088E48093B800EFCFCC
:101DB0008F929F92AF92BF92CF92DF92FF920F933A
:101DC0001F93CF93DF931F921F92CDB7DEB76C01A5
:101DD0008B01F42E490120E1421709F45DC024175C
:101DE000D8F03AE0431701F18FE048135EC041E0BC
:101DF000C601ACDE40E0B801C6019FDE41E8B80193
:101E0000C60192DEF4014081B801C6018DDE40E0DA
:101E1000B801C6019BDEFEC0A1E14A1709F43FC02C
:101E2000B5E14B1789F041C0DB011496ED91FC91AF
:101E3000159720E030E042E061E0199542EB55E073
:101E4000B801C6018CDE31C0FB01A280B3804AEA32
:101E500055E085DED50114964C91406BB801C60162
:101E600063DE41E0B801C60168DEF50126813781F5
:101E7000D8011496ED91FC911597D50115964C91CA
:101E800066E0C6011995811102C080E0C4C040E03F
:101E9000B801C6015BDE09C041EA55E002C046E96F
:101EA00055E0B801C6015BDEB5C0D80112960D91B0
:101EB0001C911397B2E3FB1609F473C0BF15B8F079
:101EC000E5E1FE1609F478C0F7E1FF1609F489C0D0
:101ED00024E1F2129FC0D8011696ED91FC9117975C
:101EE00015968C919F01280F311DC9015EC036E403
:101EF000F31609F486C087E4F81609F486C0ABE34C
:101F0000FA1288C0F40181819381913029F09330D5
:101F100031F4482F885004C048E0480F01C0482FD2
:101F200021E0D80113963C91381708F420E031E005
:101F3000F8015281451708F430E051E0481708F0E5
:101F400050E0822F852B382319F4252309F462C031
:101F5000D4011296FC90913051F030F0923049F05B
:101F6000933051F42FEF09C020E031E007C021E0A9
:101F700004C020E03FEF02C020E030E0F7FE07C0E1
:101F8000B401C8012A833983AADE39812A81F40188
:101F90008081830F80838181820F8183FF0C71F7A1
:101FA00039C0B401C8019BDE35C01192E817F907AA
:101FB000E1F7C801BFDE2EC0C801A6DE882309F400
:101FC00064CFD8011696ED91FC91179715968C91D8
:101FD0009F01280F311DC9011192E817F907E1F798
:101FE00019C0D4011C92F801828111968C9311972B
:101FF0008581815012968C931297838113968C93CE
:1020000009C0D80115968C9103C0D80111968C9106
:10201000F401808381E00F900F90DF91CF911F91A9
:102020000F91FF90DF90CF90BF90AF909F908F90D7
:102030000895CF92EF920F93CF93DF93EC0188E155
:1020400092E0998388836A831B861C861D861E8680
:102050001F86188A198A1A8A1B8A1C8A1D8A1E8A58
:1020600080E090E0A0E8BFE38F8B988FA98FBA8FB4
:102070001B8E1C8E1D8E1E8E8F8F98A3A9A3BAA3B4
:102080001BA21CA21DA21EA261E070E07CA76BA790
:102090003FEF3EA71FA218A619A61AA64B832C83B2
:1020A0000D83EE821BAA1CAA1DAA1EAA1FAA18AE87
:1020B00019AE1AAE1BAE1CAE1DAE1EAEFE01FF96D3
:1020C00080839183A283B383349610821F82188603
:1020D00019861A86CC2019F0CE010E949C1940E086
:1020E00050E060E87FE3CE01DF91CF910F91EF9058
:1020F000CF900C94611B2F923F924F925F926F9200
:102100007F928F929F92AF92BF92CF92DF92EF9287
:10211000FF920F931F93CF93DF9300D01F92CDB701
:10212000DEB71C01FC0187849088A188B288838572
:102130009485A585B685881A990AAA0ABB0A638977
:102140007489858996899B01AC010E947E326B015E
:102150007C01F101638D748D858D968D9B01AC01A1
:102160000E946C279B01AC01C701B6010E94D727D2
:102170000E94482881149104A104B104A1F46230A2
:102180007105810591050CF07CC0F10113A214A228
:1021900015A216A2138A148A158A168A13AA14AADB
:1021A00015AA16AA03C1F10103A914A925A936A9E4
:1021B000ED5BFF4F181419041A041B04FCF41016ED
:1021C0001106120613064CF4681579058A059B055D
:1021D0004CF52081211155C025C00115110521059F
:1021E000310509F44EC0681579058A059B050CF088
:1021F00048C08081882309F444C037C010161106F6
:1022000012061306F4F4002711279801081919097A
:102210002A093B0960177107820793071CF4208184
:10222000222379F19B01AC0188279927DC01821BCD
:10223000930BA40BB50BF10183AB94ABA5ABB6AB81
:1022400020C00115110521053105D9F0CC24DD246C
:102250007601C818D908EA08FB086C157D058E05BB
:102260009F057CF4808181110CC0309520951095DC
:1022700001951F4F2F4F3F4FF10103AB14AB25AB1F
:1022800036ABF101C3A8D4A8E5A8F6A881010D5B7F
:102290001F4FC114D104E104F10491F487A990AD5A
:1022A000A1ADB2AD83AF94AFA5AFB6AF81E01814C6
:1022B00019041A041B040CF080E0F801808340C06C
:1022C000F10183AC94ACA5ACB6ACA5019401C501F9
:1022D000B4010E946C272B013C01C701B6010E948A
:1022E0001F3220E030E040E850E40E947E3220E0DF
:1022F00030E040E85FE30E946C279B01AC01C30122
:10230000B2010E94D7279B01AC01C501B4010E9414
:102310006B274B015C01F101FF9640805180628088
:1023200073809201A3010E947D28181614F04201C7
:102330005301A401B501F10143AF54AF65AF76AFCE
:10234000FFEFCF1ADF0AEF0AFF0AF101C3AAD4AAEE
:10235000E5AAF6AA23AD34AD45AD56ADCA01B90123
:1023600029833A834B835C830E944E28F10163A347
:1023700074A385A396A329813A814B815C8160E097
:1023800074E284E799E40E94D727F101638B748B90
:10239000858B968BF8012081211108C0DC01CB01CF
:1023A000B058F101838B948BA58BB68B0F900F9057
:1023B0000F900F90DF91CF911F910F91FF90EF90B1
:1023C000DF90CF90BF90AF909F908F907F906F9055
:1023D0005F904F903F902F900895CF92DF92EF92B1
:1023E000FF920F931F93CF93DF93EC016A017B0160
:1023F0009A01AB016F89788D898D9A8D0E9419326F
:10240000882309F445C0CF8AD88EE98EFA8E8E01D2
:10241000015C1F4FA701960160E074E284E799E434
:102420000E94D727F80160837183828393838BA9ED
:102430009CA9ADA9BEA9181619061A061B0644F5D3
:102440006B897C898D899E899B01AC010E947E32BB
:102450006B017C016B8D7C8D8D8D9E8D9B01AC0104
:102460000E946C279B01AC01C701B6010E94D727CF
:102470000E9448286BAB7CAB8DAB9EABCE01DF914D
:10248000CF911F910F91FF90EF90DF90CF9033CEBF
:10249000DF91CF911F910F91FF90EF90DF90CF9040
:1024A0000895CF92DF92EF92FF92CF93DF93EC01EA
:1024B0008BA19CA1ADA1BEA1892B8A2B8B2B09F4EA
:1024C0005BC03FB7F89480914E0390914F03A09169
:1024D0005003B091510326B5A89B05C02F3F19F0BA
:1024E0000196A11DB11D3FBFCC24D82EE92EFA2E96
:1024F000C20ED11CE11CF11C42E0CC0CDD1CEE1C18
:10250000FF1C4A95D1F78FA198A5A9A5BAA5B70137
:10251000A601481B590B6A0B7B0B8BA19CA1ADA19B
:10252000BEA1481759076A077B0730F1FE01ED5B32
:10253000FF4F20818B859C85AD85BE85222321F0B0
:102540000196A11DB11D03C00197A109B1098B8797
:102550009C87AD87BE87E881F9814B855C856D8559
:102560007E850680F781E02DCE011995CFA2D8A6F1
:10257000E9A6FAA6CE01BFDD20E030E0A9016B8913
:102580007C898D899E890E941932811110C081E059
:10259000CF84D888E988FA884B855C856D857E85EF
:1025A000C416D506E606F70619F480E001C081E0FE
:1025B000DF91CF91FF90EF90DF90CF9008950F9330
:1025C0001F93FC010785108921893289041715079B
:1025D0002607370739F04787508B618B728B1F9125
:1025E0000F9189CD1F910F9108950F931F93FC01B7
:1025F0000385148525853685400F511F621F731F83
:102600001F910F91DCCFDB01ED91FC911994EF92BA
:10261000FF920F931F93CF93DF931F92CDB7DEB737
:102620008C01DC011296ED90FC901397D196ED9100
:10263000FC91D29782E0199520E030E04AE0B701A2
:10264000C801E1DFF82ED801D196ED91FC91D29727
:1026500083E01995D801D196ED91FC91D29780E055
:102660001995FF2081F1F801628173819E012F5F2E
:102670003F4F46E4C801C7DF8981D8018C93129689
:102680006D917C9113979E012F5F3F4F47E4C801E6
:10269000BADF8981F80181836281738120E030E0B3
:1026A00048E4C801B0DFD8011B968C931B979801B2
:1026B0002D5C3F4F12966D917C91139747E1C801B5
:1026C000A2DF81E001C080E00F90DF91CF911F91E8
:1026D0000F91FF90EF9008954F925F926F927F92CB
:1026E0008F929F92AF92BF92CF92DF92EF92FF9222
:1026F0000F931F93CF93DF931F92CDB7DEB72C01BB
:10270000E62EF42EC22EDC0114960D911C91159725
:10271000C80121DBD82EF201848195811FDB982E20
:10272000F1E0DF1203C02FE0A22E02C0AA24AA9477
:10273000D20114968D919C91159709DBD82EF20148
:102740008481958100DBB82ED20114968D919C91E5
:10275000159719DBB0E6BC1538F4009729F0080F7F
:10276000191F91E6D92E10C0F201848195810DDBED
:10277000F0E4FC1538F4009729F0080F191F81E4E4
:10278000D82E02C00F5E1F4FBC1480F4D2015096A9
:102790001C92509753961C92539754961C925497A0
:1027A00051961C92519752961C929EC0BD1470F384
:1027B000892D90E0F80124912F3F19F40F5F1F4FEE
:1027C00059C0DC104EC0D20114968D919C91159782
:1027D000C2DA98012F5F3F4FF801882311F0823051
:1027E000E1F48491D20153968C935397F90124918B
:1027F00054962C935497F8013396E4915096EC93A9
:102800005097F8013496E4915196EC935197F80162
:102810003596E4915296EC9320C08491982F9F7046
:102820009250D20152969C93529782958F705196F6
:102830008C935197F9012491822F8F7054968C9329
:10284000549722952F7053962C935397F8013296F4
:10285000E491E295EF705096EC930115110579F42F
:1028600043C0F8013296E491EA219C012E0F311DFC
:10287000020F131FDB1409F489CFD3949BCFF2010D
:10288000848195816BDAD20153963C91539754968B
:102890002C91549751965C91519752969C915297D6
:1028A000920FF91A9FEF920F9F0DD4964C91D497E7
:1028B000D6966C916F1518F0941728F402C09417EF
:1028C00080F09F1570F4E50E9FEF930F9E0DD201DF
:1028D000D3964C91D397D5965C915E1538F49417A6
:1028E00038F4F20180893EC080E03CC0941710F4B7
:1028F0009E15B8F7080F111D395F732E76947694E4
:1029000076946F2C620E5201FCE1AF0EB11C872C45
:10291000912CF61431F35E2D68018C2D801B8715E8
:10292000E8F4F6018491D20112966D917C9113978F
:102930005C965C935C975D96FC925D975F961C92AB
:102940005F975E968C9395014BE3C20159835BDEE2
:10295000BFEFCB1ADB0A5981585FDFCF080D191D75
:10296000F394D7CF0F90DF91CF911F910F91FF90EC
:10297000EF90DF90CF90BF90AF909F908F907F901F
:102980006F905F904F9008952EE93FE0009729F0F7
:10299000F9013197F1F70197F9CF089590914D031F
:1029A000911104C080934D0360934C0308951F93CD
:1029B000CF93DF931F921F92CDB7DEB720ED37E0A4
:1029C0003A8329839091BC00982391F429813A811C
:1029D000232B49F480915703182F127081FD08C0F2
:1029E00081E0DCDF06C029813A8121503109E8CF3E
:1029F00011E0812F0F900F90DF91CF911F910895DB
:102A000084E98093BC0064E080E1D1CFCF938093D0
:102A1000BB0084E88093BC0063E080E8C8DFC82F77
:102A2000882381F080915703C82FC27081FD09C0AF
:102A30008091B900887F883221F063E082E0AEDFC8
:102A400001C0C1E08C2FCF9108950F931F93CF93B6
:102A5000C42F89016330B9F050F4613081F06230E5
:102A600009F03FC0FC0146A321E023A73AC066302D
:102A7000E9F0673041F1653009F033C00CC0FC016A
:102A800086A58AD92EC0FC0116A221E023A74111F8
:102A900028C0B6DF26C030D8811103C0B1DF80E086
:102AA00021C08C2FB3DF81111CC0F8CF25D888231B
:102AB000A9F3CC23B1F0F80181918F01A7DF88231E
:102AC00069F3C150F6CF18D8882341F3CC2349F0DD
:102AD000F80184919BDF882329F00F5F1F4FC150BD
:102AE000F5CF81E0CF911F910F910895FC01918D59
:102AF000828D981761F0828DDF01A80FB11D5D9660
:102B00008C91928D9F5F9F73928F90E008958FEFCD
:102B10009FEF0895FC01918D828D981731F0828D81
:102B2000E80FF11D858D90E008958FEF9FEF0895D8
:102B3000FC01918D228D892F90E0805C9F4F821B3C
:102B400091098F73992708958AE593E0F1DF21E0D9
:102B5000892B09F420E0822F0895FC01848DDF0188
:102B6000A80FB11DA35ABF4F2C91848D90E0019600
:102B70008F739927848FA689B7892C93A089B189EF
:102B80008C9180648C93938D848D981306C00288F9
:102B9000F389E02D80818F7D80830895EF92FF92ED
:102BA0000F931F93CF93DF93EC0181E0888F9B8D70
:102BB0008C8D981305C0E889F989808185FD23C033
:102BC000F62E0B8D10E00F5F1F4F0F731127E02EB5
:102BD0008C8DE8120BC00FB607FCFACFE889F98993
:102BE000808185FFF5CFCE01B8DFF2CF8B8DFE015E
:102BF000E80FF11DE35AFF4FF0820B8FEA89FB8942
:102C00008081806207C0EE89FF896083E889F98945
:102C100080818064808381E090E0DF91CF911F917B
:102C20000F91FF90EF900895CF93DF93EC01888D83
:102C30008823C1F0EA89FB89808185FD05C0A889C8
:102C4000B9898C9186FD0EC00FB607FCF5CF808147
:102C500085FFF2CFA889B9898C9185FFEDCFCE0190
:102C60007CDFE8CFDF91CF91089580E090E0892B61
:102C700019F06ADF811125C080E090E0892B41F0D6
:102C800080E090E0892B21F00E94000081111CC09F
:102C900080E090E0892B41F080E090E0892B21F0EA
:102CA0000E940000811113C080E090E0892BA1F008
:102CB00080E090E0892B81F00E94000081110AC021
:102CC00008950E940000D8CF0E940000E1CF0E942A
:102CD0000000EACF0C9400000895CF93DF93DC014D
:102CE0004770552766277727FA013197CD91DC91F8
:102CF0001197E730F10530F48827EC57FF4F8F4FDD
:102D00000C944127EC81FD8161E01BC0EC81FD81C9
:102D100065E017C0EC81FD8164E013C0EC81FD81AA
:102D200066E00FC0EC81FD8162E00BC0EC81FD81AB
:102D30006AE007C0EC81FD8168E003C0EC81FD81A1
:102D400069E0CD01DF91CF911994CF93DF93EC012E
:102D5000CB01BA0126E030E040E050E00E94252798
:102D6000623071058105910559F18CF46115710589
:102D700081059105F1F06130710581059105C1F57D
:102D8000E881F9810480F581E02D65E02DC0643093
:102D900071058105910511F1D4F06530710581054A
:102DA000910531F5E881F9810480F581E02D66E037
:102DB0001BC0E881F9810480F581E02D64E014C036
:102DC000E881F9810480F581E02D61E00DC0E881A2
:102DD000F9810480F581E02D63E006C0E881F98186
:102DE0000480F581E02D62E0CE01DF91CF9119944E
:102DF000DF91CF9108954370552766277727DC012F
:102E0000ED91FC910480F581E02D42305105610582
:102E1000710571F0433051056105710559F041307C
:102E200051056105710511F065E005C066E003C05C
:102E30006AE001C069E01994CF93DF93EC01CB0104
:102E4000BA0123E030E040E050E00E9425276130E5
:102E500071058105910581F062307105810591054B
:102E600091F0672B682B692BC1F4E881F98104800C
:102E7000F581E02D64E00DC0E881F9810480F581E1
:102E8000E02D61E006C0E881F9810480F581E02D44
:102E900062E0CE01DF91CF911994DF91CF91089537
:102EA0004370552766277727DC01ED91FC9104805C
:102EB000F581E02D423051056105710571F0433017
:102EC00051056105710559F04130510561057105E4
:102ED00011F062E005C063E003C061E001C060E0A2
:102EE00019940F931F93CF93DF93EC01E881F9813D
:102EF0000480F581E02D8C010D5B1F4FD8018C9172
:102F0000811102C060E001C062E0CE011995E88144
:102F1000F9810480F581E02DD8018C91811102C0E6
:102F200061E001C063E0CE011995EBA5FCA5E2309C
:102F3000F10538F0EE0FFF1FEE0FFF1F35973197A9
:102F4000F1F7E881F9810480F581E02DD8018C91B9
:102F5000811102C060E001C062E0CE01DF91CF913B
:102F60001F910F911994CF93DF93EC0120E030E093
:102F7000A9016B897C898D899E890E947D281816FC
:102F80001CF4EFA5F8A902C0E9A9FAA9DF91CF9135
:102F900019940F931F93DC0112960C91129710E075
:102FA00009301105D8F5F8018827E557FF4F8F4FF5
:102FB0000C944127ED91FC9111970084F185E02D4F
:102FC00029C0ED91FC9111970284F385E02D22C078
:102FD000ED91FC9111970484F585E02D1BC0ED91D6
:102FE000FC9111970684F785E02D14C0ED91FC91BA
:102FF00011970088F189E02D0DC0ED91FC9111979A
:103000000288F389E02D06C0ED91FC9111970488A8
:10301000F589E02DCD011F910F9119941F910F910A
:103020000895CF92DF92EF92FF920F931F93CF9369
:10303000DF931F92CDB7DEB76C01DC01DC961C91EB
:10304000DC97DB960C917C01B4E0EB0EF11CDC010B
:103050005996ED91FC915A97C70169831995482FAC
:10306000410F2981602FC70137DBF60123AD082E00
:10307000000C990B820F911D83AF81E090E00F90BF
:10308000DF91CF911F910F91FF90EF90DF90CF9044
:1030900008951F920F920FB60F9211240BB60F9244
:1030A0002F933F934F935F936F937F938F939F9350
:1030B000AF93BF93EF93FF938AE593E04EDDFF91CB
:1030C000EF91BF91AF919F918F917F916F915F91A0
:1030D0004F913F912F910F900BBE0F900FBE0F900D
:1030E0001F9018951F920F920FB60F9211240BB6D6
:1030F0000F922F938F939F93EF93FF93E0916A0327
:10310000F0916B038081E0917003F091710382FD77
:1031100012C09081809173038F5F8F73209174032D
:10312000821751F0E0917303F0E0E65AFC4F958F5F
:103130008093730301C08081FF91EF919F918F91E4
:103140002F910F900BBE0F900FBE0F901F901895F0
:10315000362F90E0FC01E05BFA4F4491FC01EE5AFF
:10316000F94F2491FC01E45FF94F9491992309F4FC
:103170006BC0442309F455C050E0FA013197E231A5
:10318000F10508F04EC08827EC56FF4F8F4F0C9486
:103190004127809180008F7707C0809180008F7DCC
:1031A00003C080918000877F809380003AC084B5FF
:1031B0008F7702C084B58F7D84BD33C08091B0000D
:1031C0008F7703C08091B0008F7D8093B00029C0BD
:1031D000809190008F7707C0809190008F7D03C011
:1031E00080919000877F809390001BC08091A00009
:1031F0008F7707C08091A0008F7D03C08091A000D1
:10320000877F8093A0000DC0809120018F7707C039
:10321000809120018F7D03C080912001877F809362
:103220002001E92FF0E0EE0FFF1FEE50FA4FA591BD
:10323000B4918FB7F894EC91311103C020952E23EF
:1032400001C02E2B2C938FBF0895CF92DF92EF9267
:10325000FF920F931F93CF93DF93FC0122812430C1
:1032600041F0283031F0233031F0263021F012E0E7
:1032700003C014E001C013E0EC012796E12CF12C0F
:10328000C62ED12C01E0C6010E2C02C09595879563
:103290000A94E2F7688180FD6027FE0134978081FF
:1032A00057DFFFEFEF1AFF0A2196E11660F3DF9177
:1032B000CF911F910F91FF90EF90DF90CF900895E5
:1032C000CF93DF9390E0FC01EE5AF94F2491FC017B
:1032D000E45FF94F8491882361F190E0880F991F92
:1032E000FC01E852FA4FC591D491FC01EE50FA4F1F
:1032F000A591B491611109C09FB7F8948881209578
:1033000082238883EC912E230BC0623061F49FB737
:10331000F8943881822F809583238883EC912E2B1B
:103320002C939FBF06C08FB7F894E8812E2B28837B
:103330008FBFDF91CF910895CF93DF93FC0122815E
:10334000222329F1EC0161E08381BADF61E08C8105
:10335000B7DF8A81843011F0883031F461E08D81EB
:10336000AFDF61E08E8106C0833011F0863019F442
:1033700061E08D81A5DF8EA58F3F49F061E0A0DF80
:103380006DA581E068278EA5DF91CF91E1CEDF9119
:10339000CF910895CF93DF93FC012281222399F0EE
:1033A000EC010190F081E02D0480F581E02D60E0DA
:1033B00019958EA58F3F39F061E082DF6DA58EA54E
:1033C000DF91CF91C5CEDF91CF9108951F920F92DB
:1033D0000FB60F9211242F933F938F939F93AF9328
:1033E000BF938091530390915403A0915503B091E2
:1033F00056033091520323E0230F2D3720F401961A
:10340000A11DB11D05C026E8230F0296A11DB11D07
:10341000209352038093530390935403A093550336
:10342000B093560380914E0390914F03A0915003A7
:10343000B09151030196A11DB11D80934E0390934D
:103440004F03A0935003B0935103BF91AF919F914D
:103450008F913F912F910F900FBE0F901F90189555
:10346000CF93DF93DC01FB01828112968C9312973C
:10347000438154816581768113964D935D936D935D
:103480007C931697478150856185728517964D9379
:103490005D936D937C931A974385548565857685F6
:1034A0001B964D935D936D937C931E974785508932
:1034B000618972891F964D935D936D937C935297AA
:1034C000438954896589768953964D935D936D93AD
:1034D0007C9356974789508D618D728D57964D9389
:1034E0005D936D937C935A97438D548D658D768D46
:1034F0005B964D935D936D937C935E97478D50A142
:1035000061A172A15F964D935D936D937C939297A9
:1035100043A154A165A176A193964D935D936D93BC
:103520007C93969747A150A561A572A597964D9358
:103530005D936D937C939A9783A594A59C969C9399
:103540008E939B9785A59D968C939D9786A59E9619
:103550008C939E9787A590A9D0969C938E939F97C6
:1035600081A992A9D2969C938E93D19743A954A9ED
:1035700065A976A9D3964D935D936D937C93D69769
:1035800047A950AD61AD72ADD7964D935D936D93E4
:103590007C93DA9743AD54AD65AD76ADDB964D9334
:1035A0005D936D937C93DE97EF01EF96488159818F
:1035B0006A817B81ED01EF96488359836A837B831F
:1035C000ED5BFF4F8081FD01ED5BFF4F8083CD01FF
:1035D000DF91CF9108951F920F920FB60F92112491
:1035E0000BB60F922F933F934F935F936F937F93FD
:1035F0008F939F93AF93BF93EF93FF9380913D037E
:1036000090913E038093B2008091400390914103DA
:10361000A0914203B09143030196A11DB11D809377
:10362000400390934103A0934203B09343038091DE
:10363000400390914103A0914203B0914303409114
:10364000390350913A0360913B0370913C03841716
:103650009507A607B70710F180913F0381111EC09F
:1036600081E080933F038091400390914103A091BA
:103670004203B0914303841B950BA60BB70B8093B9
:10368000400390934103A0934203B0934303E0911E
:103690003703F0913803199510923F03FF91EF9192
:1036A000BF91AF919F918F917F916F915F914F915A
:1036B0003F912F910F900BBE0F900FBE0F901F9058
:1036C00018954F925F926F927F928F929F92AF92D6
:1036D000BF92CF92DF92EF92FF92CF93DF93EC01F4
:1036E0006A017B018B8C9C8CAD8CBE8C9A01AB01EA
:1036F000C501B4010E941932882309F449C06BA99D
:103700007CA98DA99EA90E941F322B013C01A70113
:103710009601C501B4010E94D7279B01AC01C301EA
:10372000B2010E947E320E9448286BAB7CAB8DAB0D
:103730009EABA701960160E070E080E090E40E94FB
:10374000D7270E94872826E53EE04DE25FE30E94EE
:103750007E3220E034E244E759E40E947E326FABCF
:1037600078AF89AF9AAFCB8EDC8EED8EFE8ECE0118
:10377000DF91CF91FF90EF90DF90CF90BF90AF900F
:103780009F908F907F906F905F904F900C947B10E4
:10379000DF91CF91FF90EF90DF90CF90BF90AF90EF
:1037A0009F908F907F906F905F904F9008958F9231
:1037B0009F92AF92BF92CF92DF92EF92FF92CF9300
:1037C000DF93EC018B889C88AD88BE8820E030E0D8
:1037D000A901C501B4010E941932882309F43FC030
:1037E000A5019401C501B4010E947E326B017C01E8
:1037F0006B8D7C8D8D8D9E8D9B01AC010E946C2705
:103800009B01AC01C701B6010E94D7270E9448283E
:103810006B017C012FEFC21AD20AE20AF20A20E001
:1038200030E0A901C501B4010E947D2818161CF4DE
:10383000B701A60107C044275527BA014C195D09F5
:103840006E097F09CE01DF91CF91FF90EF90DF905D
:10385000CF90BF90AF909F908F900C94F512DF9116
:10386000CF91FF90EF90DF90CF90BF90AF909F905F
:103870008F900895FC01248135816217730748F405
:1038800080819181009729F0FC01E60FF71F80816C
:10389000089580E008950E94EC2A0F931F93CF9320
:1038A000DF93EC0188819981009729F02A813B817F
:1038B0002617370788F48B016F5F7F4F0E94082A15
:1038C000009761F0998388831B830A832C813D8153
:1038D000232B11F4FC01108281E001C080E0DF9114
:1038E000CF911F910F910895EF92FF920F931F9325
:1038F000CF93DF93FC01248135816115710511F4AB
:1039000080E018C041155105A1F07B01EC018A014E
:10391000020F131FB801C1DF882391F32881398179
:103920008C819D81B701820F931F0E94142B1D83F0
:103930000C8381E0DF91CF911F910F91FF90EF9069
:103940000895CF93DF93EC0188819981009711F05E
:103950000E947029198218821D821C821B821A8281
:10396000DF91CF910895CF92DF92FF920F931F9333
:10397000CF93DF931F921F92CDB7DEB7F82E062F9D
:10398000E091E804F091E90483ED94E049835A83DF
:103990001995080F4981C42E5A81D52E10E0F601E1
:1039A00021916F01222349F0402F6F2D83ED94E088
:1039B0000E946C13F80E180FF2CF812F0F900F900A
:1039C000DF91CF911F910F91FF90DF90CF900895DD
:1039D000DF92EF92FF920F931F93CF93DF9380912B
:1039E00000018074E82EF12CC3B1C0710C2F10E0DF
:1039F00093B19072D92EDFB1D270209190053091A1
:103A00009105232B51F5882341F1109296041092D1
:103A10009704109298041092990410929A041092AC
:103A20009B0410929C0410929D041092BE0410926C
:103A3000BF041092C0041092C1041092AE04109200
:103A4000AF041092B0041092B10410929E04109230
:103A50009F041092A0041092A10420918E05309131
:103A60008F05232B51F5CC2341F110925204109273
:103A7000530410925404109255041092560410925C
:103A80005704109258041092590410927A0410921C
:103A90007B0410927C0410927D0410926A041092B0
:103AA0006B0410926C0410926D0410925A041092E0
:103AB0005B0410925C0410925D04811119C0809126
:103AC0009A0490919B04A0919C04B0919D04409114
:103AD0009604509197046091980470919904841B06
:103AE000950BA60BB70BB7FF03C08BE894E05FDE26
:103AF000D1101CC080919A0490919B04A0919C04C9
:103B0000B0919D044091960450919704609198045F
:103B100070919904841B950BA60BB70B1816190608
:103B20001A061B061CF48BE894E041DEC11119C093
:103B30008091560490915704A0915804B091590473
:103B40004091520450915304609154047091550473
:103B5000841B950BA60BB70BB7FF03C087E494E05B
:103B600026DED1111CC08091560490915704A0917B
:103B70005804B091590440915204509153046091FB
:103B8000540470915504841B950BA60BB70B1816A3
:103B900019061A061B061CF487E494E008DEF0926E
:103BA0009105E092900510938F0500938E058BE8A8
:103BB00094E00E94511287E494E00E94511283E045
:103BC00094E0DF91CF911F910F91FF90EF90DF90E4
:103BD0000C945112CF93DF931F921F92CDB7DEB793
:103BE00089831A8241E050E0BE016F5F7F4F8DEF05
:103BF00093E07ADE0F900F90DF91CF91089520919E
:103C00000104309102048217930760F49093020438
:103C1000809301042091FD033091FE03F901E80F28
:103C2000F91F10820895FC01808191816130710536
:103C300051F4009719F4718360830895019769F432
:103C400082E090E005C00197029728F483E090E0BD
:103C5000918380830895118210820895CF9384EA1E
:103C60008093BC0061E080E80E94D714882359F05B
:103C70008091B900887F883041F0803131F061E077
:103C800082E00E94CE14C0E01DC088E78093BB0094
:103C900084E88093BC0062E080E80E94D714882307
:103CA00091F380915703C82FC27081FD0AC08091A3
:103CB000B900887F883129F062E082E00E94CE144A
:103CC00001C0C1E08C2FCF910895FC0180819181CA
:103CD000009711F00C942B2E60E070E0CB0108955A
:103CE0002F923F924F925F926F927F928F929F920C
:103CF000AF92BF92CF92DF92EF92FF920F931F93FA
:103D0000CF93DF9300D01F92CDB7DEB7FC01448084
:103D100055804114510409F413C1FB01648075807E
:103D20006114710409F40CC17A016B019C838B83CB
:103D3000FA01A480B580A618B708FC0100811181A2
:103D4000A114B104C1F4F60160817181C8010E941F
:103D5000292B5C01892B09F4F3C0F7016081718183
:103D600044815581C5010E94F12AF7010481158122
:103D70000A0D1B1DE8CFB7FE02C0480106C0FB01BB
:103D8000208031804201C80148C0F6016081718104
:103D9000C4010E94292B2C01892B29F132016818BA
:103DA0007908A301B401C8010E94F12A060D171D6C
:103DB000F7016081718144815581C8010E94F12A17
:103DC000F70184819581080F191FF6018480958081
:103DD000840C951CEB81FC81848195818A0D9B1D4F
:103DE00095838483D2CFB401C8010F900F900F90B8
:103DF0000F90DF91CF911F910F91FF90EF90DF9087
:103E0000CF90BF90AF909F908F907F906F905F907A
:103E10004F903F902F900C94142BB1010E94292BAE
:103E2000009729F0860D971D8A0C9B1CF6CF8414F1
:103E3000950409F485C0EB81FC818281938188150A
:103E4000990578F4B4016F5F7F4FC8010E94082A7A
:103E5000009709F475C0EB81FC8191838083938284
:103E60008282EB81FC81048115810150110917FDCB
:103E700067C0F601248035802114310409F460C044
:103E8000EB81FC81648075806114710409F458C071
:103E90006214730408F454C00615170518F0830162
:103EA00001501109EB81FC8140805180C2018824BE
:103EB0008A94982C9201200F311F2817390758F047
:103EC000F6016081718129833A830E94292B29811F
:103ED0003A81009761F597FC33C0280C391CC20168
:103EE000820D931DA30142195309BC018A0D9B1D2C
:103EF0000E94FA2AEB81FC81848195818A0D9B1DA9
:103F00009583848320813181F901E80FF91F1082A4
:103F1000EB81FC8180819181F70160817181448115
:103F20005581880D991D0E94F12A84019ECFAC0114
:103F3000441955090417150708F04A010196BDCF29
:103F40000F900F900F900F90DF91CF911F910F91D5
:103F5000FF90EF90DF90CF90BF90AF909F908F90A9
:103F60007F906F905F904F903F902F900895FC014D
:103F7000248135816217730720F480819181009735
:103F800029F410928D058DE895E00895860F971F0E
:103F90000895FB0144815581FC012481358124175A
:103FA000350778F080819181009759F0FB0160819D
:103FB00071816115710529F00E941B2B21E0892B6D
:103FC00009F020E0822F0895FC0124813581232B04
:103FD00031F421E061157105A1F0FB0108C0FC017D
:103FE000808191816115710531F421E0FC018081AE
:103FF000882339F005C00E940B2B21E0892B09F0A2
:1040000020E0822F0895CF93DF93EC01FB014481E0
:1040100055816081718168DC811102C0CE0191DC23
:10402000CE01DF91CF9108956115710549F0FB0133
:1040300001900020E9F73197AF01461B570B54CC94
:1040400080E00895EF92FF920F931F93CF93DF9339
:10405000EC017B018A01BA0120DC811103C0CE0191
:1040600070DC07C01D830C83B701888199810E9491
:10407000142BCE01DF91CF911F910F91FF90EF9004
:104080000895CF93DF93EC016115710551F0FB01A9
:1040900001900020E9F73197AF01461B570BD2DFA3
:1040A00001C04FDCCE01DF91CF910895CF93DF9314
:1040B000EC01FB018617970751F060817181611552
:1040C000710521F044815581BDDF01C03ADCCE018C
:1040D000DF91CF910895FC01808191810C9470292A
:1040E000CF92DF92FF920F931F93CF93DF9300D075
:1040F00000D0CDB7DEB78C0161E772E0CE0101964A
:1041000077D060E070E0C801B5DB8B3219F18D32F9
:1041100009F1B801CE010196C9DFCD80DE8000E053
:1041200010E0F12C0C151D0589F0B801CE010196A7
:10413000A1DB8E3229F4F1100BC0FF24F39403C0ED
:1041400080538A3028F40F5F1F4FECCF11E00BC073
:1041500010E009C061E070E0C80109DFBC01CE01D8
:1041600001968FDFDACFCE010196B5DF812F26963B
:104170000FB6F894DEBF0FBECDBFDF91CF911F9178
:104180000F91FF90DF90CF900895CF92DF92EF9242
:10419000FF920F931F93CF93DF936C017A018B01F2
:1041A000C0E0D0E0CE15DF0589F0D8016D918D011A
:1041B000D601ED91FC910190F081E02DC601199599
:1041C000892B11F47E0102C02196ECCFC701DF914B
:1041D000CF911F910F91FF90EF90DF90CF900895B6
:1041E000FC011182108213821282158214825ECF2A
:1041F000FC011182108213821282158214826115D1
:10420000710549F0FB0101900020E9F73197AF01FA
:10421000461B570B17CF0895CF93DF93CDB7DEB76B
:10422000CE55D1090FB6F894DEBF0FBECDBF78943E
:1042300084B5826084BD84B5816084BD85B58260AB
:1042400085BD85B5816085BD80916E00816080935C
:104250006E001092810080918100826080938100C5
:1042600080918100816080938100809180008160D5
:10427000809380008091B10084608093B100809130
:10428000B00081608093B000809191008260809343
:1042900091008091910081608093910080919000C5
:1042A0008160809390008091A10082608093A10042
:1042B0008091A10081608093A1008091A000816025
:1042C0008093A000809121018260809321018091E0
:1042D0002101816080932101809120018160809380
:1042E000200180917A00846080937A0080917A0026
:1042F000826080937A0080917A00816080937A0056
:1043000080917A00806880937A001092C1008FE0DB
:1043100081B980EF82B9109235031C821B8282E43E
:1043200092E09A8389831CAE1DAE1EAE1A86198652
:104330001C861B861E8681E08D8782E28F871C8A01
:104340001B8AFE01B896CE01C6962FEF2193E8177F
:10435000F907E1F781E08DA321EA3EE03B8F2A8F48
:104360008C8F1D8E1E8E80E48F8F18A284E59EE0B8
:104370009FAB8EAB88E092E098878F831BAACE011B
:1043800005960E9407138B819C819093D2048093A1
:10439000D10487E3FE013596A3EDB4E001900D92C0
:1043A0008A95E1F78CAD80930A058DAD80930B055E
:1043B0008EAD80930C058091D7049091D8048C54D5
:1043C000914009F445C08CE491E09093D804809327
:1043D000D7048091EA04811108C0E1E5F1E0E4919D
:1043E000E093EB04E8E5F1E011C0813041F4EBE546
:1043F000F1E0E491E093EB04ECE5F1E007C0E9E5DE
:10440000F1E0E491E093EB04EAE5F1E0E491E0937C
:10441000EC048091EB04082E000C990B2091EC0425
:10442000821B910927FD93952091ED04203441F0E2
:10443000829FC001112426E0969587952A95E1F781
:104440008093EE0481EA9EE09093E9048093E8046F
:1044500061E088E00E94601961E089E30E946019D0
:10446000809102018062809302018B9A62E086E370
:104470000E94601962E089E00E94601962E08AE0AF
:104480000E94601962E08BE00E94601962E087E39D
:104490000E94601961E08CE00E94601961E085E093
:1044A0000E94601961E086E00E94601961E087E087
:1044B0000E94601961E082E00E94601961E083E07F
:1044C0000E94601961E084E00E946019CC24C394CA
:1044D00085E0E82E04E025E042E061E0CE010196AF
:1044E0005C010E941910B5018BE894E00E94301A1B
:1044F00026E043E061E0C5010E941910B50187E4A0
:1045000094E00E94301A27E044E061E0C5010E9477
:104510001910B50183E094E00E94301A109245030F
:1045200010924403109247031092460361E772E031
:104530008DEF93E0A6DD109249031092480310928C
:1045400036036DEA72E087EF93E09BDD40E050E0D8
:104550006AE774E48BE894E00E94ED1140E050E0DB
:104560006AE774E487E494E00E94ED1140E050E0D3
:104570006AE774E483E094E00E94ED1140E050E4C7
:104580006CE975E48BE894E09CD840E050E46CE979
:1045900075E487E494E095D840E050E46CE975E474
:1045A00083E094E08ED880917A008B7F80937A00AC
:1045B00080917A00826080937A0080917A00816095
:1045C00080937A0081E090E0A0E0B0E0809339032E
:1045D00090933A03A0933B03B0933C038BE194E0A8
:1045E0009093380380933703809170008E7F80937F
:1045F00070008091B0008C7F8093B0008091B100FA
:10460000877F8093B1008091B6008F7D8093B60044
:10461000809170008D7F809370008091B1008460E4
:104620008093B1008091B1008C7F8093B10086E0CF
:1046300090E090933E0380933D03109240031092CC
:104640004103109242031092430310923F03809162
:104650003D0390913E038093B20080917000816091
:1046600080937000E0916A03F0916B0382E0808395
:10467000E0916603F09167031082E0916803F09186
:1046800069038FEC808310927203E0916E03F091C6
:104690006F0386E08083E0916C03F0916D0380816D
:1046A00080618083E0916C03F0916D03808188606C
:1046B0008083E0916C03F0916D038081806880833A
:1046C000E0916C03F0916D0380818F7D8083DE012A
:1046D000AB5BBF4F4D0192E3292E312C80910C052D
:1046E000811107C0B1E0B0930C0583ED94E00E9406
:1046F0000713E090D504F090D604E0910405F09102
:10470000050582E01995E0910405F091050581E029
:10471000199520E030E044E1B70183ED94E00E9478
:10472000031326E035E047E1B70183ED94E00E94F2
:104730000313E0910405F091050580E0199580913F
:10474000440390914503009719F444EB52E00AC0EA
:104750008130910519F44AEB52E004C0029729F424
:1047600041EC52E06AE08DE2FED8609196047091CF
:10477000970480919804909199040E941F322AE036
:1047800037ED43E25CE30E947E322B013C016091F5
:1047900052047091530480915404909155040E94E6
:1047A0001F322AE037ED43E25CE30E947E326B0168
:1047B0007C0160910E0470910F048091100490911F
:1047C00011040E941F3226E636E646E65DE30E94AB
:1047D0007E326F966CAF7DAF8EAF9FAF6F9747EC19
:1047E00052E064E18AE5BFD847EC52E06EE18AE529
:1047F000BAD84AEC52E068E285E5B5D88091460324
:1048000090914703009789F4850122E047E0C301B6
:10481000B2010E940C2E4EEC52E064E182E0A3D87B
:10482000A50164E181E19FD81EC08130910551F559
:1048300047ED52E064E182E096D86DEF73E0C40189
:10484000CFDC47E050E0B501C4010E941A0EC4015C
:1048500042DCA50164E189E186D84BED52E064E1D8
:1048600089E181D8850122E047E0C701B6010E94B5
:104870000C2E41ED52E06EE182E075D8A5016EE1AB
:1048800081E12DC08230910509F03DC0850122E013
:1048900047E0C301B2010E940C2E4EEC52E064E1ED
:1048A00082E061D8A50164E181E15DD843EE52E088
:1048B0006EE182E058D86DEF73E0C40191DC47E00F
:1048C00050E0B501C4010E941A0EC40104DCA50128
:1048D0006EE189E148D84BED52E06EE189E143D8C1
:1048E00022E047E06F966CAD7DAD8EAD9FAD6F97CA
:1048F0000E940C2E44ED52E068E282E034D8A5011B
:1049000068E281E13CC0039709F03BC0850122E0E9
:1049100047E0C301B2010E940C2E4EEC52E064E16C
:1049200082E021D8A50164E181E11DD822E047E0C1
:10493000C701B6010E940C2E41ED52E06EE182E00B
:1049400012D8A5016EE181E10ED847EE52E068E28F
:1049500082E009D86DEF73E0C40142DC46E050E02C
:10496000B501C4010E941A0EC401B5DBA50168E2BD
:1049700089E10E94B31C4BED52E068E289E10E949C
:10498000B31C80914803909149038130910571F0E7
:10499000029791F44BEE52E064E183E70E94B31C6E
:1049A0004BEE52E06EE183E70E94B31C4BEE52E007
:1049B00068E283E70E94B31C80914B038F93809140
:1049C0004A038F93ADEEB2E0BF93AF939F928F9265
:1049D0005AD6A40162E382E00E94B31C67EF73E041
:1049E000C501FEDB4AE050E0B401C5010E941A0E89
:1049F000C50171DBA40162E388E20E94B31C61E798
:104A000072E0CE018B5A9F4FF3DB809100010F9033
:104A10000F900F900F900F900F9086FD06C060EFE3
:104A200072E0CE018B5A9F4FFFDA1D9906C064EFEA
:104A300072E0CE018B5A9F4FF7DA1C9906C068EFDF
:104A400072E0CE018B5A9F4FEFDA799906C06CEF76
:104A500072E0CE018B5A9F4FE7DA6B968EAD9FAD19
:104A60006B97892B09F4E3C08EE1D5011D928A95DD
:104A7000E9F7B0E3B98360E073E0CE01815B9F4F5B
:104A8000B7DBBE016B5A7F4FCE01815B9F4FBBDA14
:104A9000BC01CE018B5A9F4F09DBCE01815B9F4F3A
:104AA0001ADBBE016B5A7F4FCE01815B9F4F98DBB3
:104AB0004EE150E0B501CE01815B9F4F0E941A0E7E
:104AC000CE01815B9F4F07DBA5016CE382E00E9472
:104AD000B31C61E08CE00E946019ECE5F5E0849184
:104AE00090E0FC013197E231F10508F0A4C088277D
:104AF000EE58FF4F8F4FC5C184B5806884BD82E3F7
:104B000087BD9DC084B5806284BD82E388BD97C0A7
:104B1000809180008068809380003092890020928C
:104B200088008DC0809180008062809380003092E8
:104B30008B0020928A0083C08091800088608093DF
:104B4000800030928D0020928C0079C08091B0005E
:104B500080688093B00082E38093B30070C080913E
:104B6000B00080628093B00082E38093B40067C09D
:104B700080919000806880939000309299002092FC
:104B800098005DC080919000806280939000309288
:104B90009B0020929A0053C080919000886080937F
:104BA000900030929D0020929C0049C08091A0000E
:104BB00080688093A0008091A0008F7B8093A000EC
:104BC0003092A9002092A8003AC08091A000806293
:104BD0008093A0003092AB002092AA0030C0809158
:104BE000A00088608093A0003092AD002092AC00BD
:104BF00026C0809120018068809320013092290195
:104C0000209228011CC080912001806280932001A5
:104C100030922B0120922A0112C0809120018860DD
:104C20008093200130922D0120922C0108C061E078
:104C30008CE00E94601960E08CE00E94A818CE0110
:104C40008B5A9F4F48DAE091E104F091E2043097EB
:104C500019F083ED94E01995E090D504F090D60416
:104C6000E0910405F091050582E01995E0910405B5
:104C7000F091050581E0199520E030E045E1B701AC
:104C800083ED94E00E940313D82E882341F026E0A0
:104C900035E047E1B70183ED94E00E940313E09112
:104CA0000405F091050580E01995D11048CD0E94CA
:104CB000351614CD87EF93E00EDA8DEF93E00BCA33
:104CC000CF92EF920F9310925D0310925C0388EEE7
:104CD00093E0A0E0B0E080935E0390935F03A09325
:104CE0006003B093610382E392E090935B0380934F
:104CF0005A0385EC90E0909367038093660384ECFD
:104D000090E0909369038093680380EC90E0909327
:104D10006B0380936A0381EC90E090936D03809322
:104D20006C0382EC90E090936F0380936E0386ECAB
:104D300090E090937103809370031092730310922C
:104D400074031092750310927603CC24C39485E00B
:104D5000E82E04E023E042E064E08BE894E00E9467
:104D6000191023E042E064E087E494E00E94191007
:104D700023E042E064E083E094E00E94191061E7E0
:104D800072E08DEF93E034DA61E772E087EF93E051
:104D90002FDA1092D2041092D10482E492E0909320
:104DA000D0048093CF0410920A0510920B05109244
:104DB0000C051092D8041092D7041092DA041092C5
:104DC000D9041092DC0481E08093DB0482E28093BA
:104DD000DD041092E2041092E104E6EFF4E09FEFAC
:104DE0008EE08E0F91938E13FDCF81E08093F304BC
:104DF00021EA3EE03093E9042093E8048093EA043A
:104E00001092EB041092EC0480E48093ED04109275
:104E1000EE0484E59EE0909305058093040588E008
:104E200092E09093D6048093D5041092010583ED0F
:104E300094E00E94071382E592E09093D00480935F
:104E4000CF040F91EF90CF900895052E97FB16F4A5
:104E500000940FD057FD05D01CD007FC02D046F4BB
:104E600008C050954095309521953F4F4F4F5F4F6B
:104E7000089590958095709561957F4F8F4F9F4FC6
:104E80000895EE0FFF1F881F8BBF0790F691E02D4E
:104E90001994A1E21A2EAA1BBB1BFD010DC0AA1F6B
:104EA000BB1FEE1FFF1FA217B307E407F50720F093
:104EB000A21BB30BE40BF50B661F771F881F991F0E
:104EC0001A9469F760957095809590959B01AC0157
:104ED000BD01CF0108955058BB27AA2713D00C94C9
:104EE000FB320E94ED3238F00E94F43220F039F4A7
:104EF0009F3F19F426F40C94EA320EF4E095E7FB98
:104F00000C94E432E92F0E940C3358F3BA1762076D
:104F100073078407950720F079F4A6F50C942E33D7
:104F20000EF4E0950B2EBA2FA02D0B01B9019001C4
:104F30000C01CA01A0011124FF27591B99F0593F08
:104F400050F4503E68F11A16F040A22F232F342F50
:104F50004427585FF3CF469537952795A795F0409E
:104F60005395C9F77EF41F16BA0B620B730B840BB3
:104F7000BAF09150A1F0FF0FBB1F661F771F881F6B
:104F8000C2F70EC0BA0F621F731F841F48F48795C3
:104F900077956795B795F7959E3F08F0B0CF9395B5
:104FA000880F08F09927EE0F97958795089512D0EE
:104FB0000C94FB320E94F43258F00E94ED3240F023
:104FC00029F45F3F29F00C94E43251110C942F33F3
:104FD0000C94EA320E940C3368F39923B1F3552301
:104FE00091F3951B550BBB27AA27621773078407FC
:104FF00038F09F5F5F4F220F331F441FAA1FA9F392
:1050000035D00E2E3AF0E0E832D091505040E6957F
:10501000001CCAF72BD0FE2F29D0660F771F881FE0
:10502000BB1F261737074807AB07B0E809F0BB0BD3
:10503000802DBF01FF2793585F4F3AF09E3F5105E7
:1050400078F00C94E4320C942F335F3FE4F3983EF5
:10505000D4F3869577956795B795F7959F5FC9F7D0
:10506000880F911D9695879597F90895E1E0660F51
:10507000771F881FBB1F621773078407BA0720F0CA
:10508000621B730B840BBA0BEE1F88F7E095089533
:1050900005D06894B1110C942F3308950E941433F5
:1050A00088F09F5798F0B92F9927B751B0F0E1F0E9
:1050B000660F771F881F991F1AF0BA95C9F714C099
:1050C000B13091F00E942E33B1E008950C942E334C
:1050D000672F782F8827B85F39F0B93FCCF38695D2
:1050E00077956795B395D9F73EF49095809570952F
:1050F00061957F4F8F4F9F4F08950E945A3208F459
:105100008FEF089519F416F40C94EA323FC00E9410
:105110001433C0F39923D1F3BEF39F57550B87FF88
:1051200043D00024A0E640EA900180585695979518
:1051300028F4805C660F771F881F20F0261737073A
:10514000480730F4621B730B840B202931294A2B4A
:10515000A69517940794202531254A2758F7660FFE
:10516000771F881F20F026173707480730F4620B97
:10517000730B840B200D311D411DA09581F7B901E2
:10518000842F9158880F9695879508959F3F31F009
:10519000915020F4879577956795B795880F911D65
:1051A0009695879597F9089591505040660F771F0F
:1051B000881FD2F70895CF93DF938230910510F4C2
:1051C00082E090E0E0919405F091950520E030E0D8
:1051D000C0E0D0E0309711F1408151814817590764
:1051E000C0F04817590761F482819381209719F024
:1051F0009B838A832BC0909395058093940526C04A
:105200002115310519F04217530718F49A01BE0110
:10521000DF01EF010280F381E02DDCCF21153105A4
:1052200009F1281B390B2430310590F412968D9129
:105230009C9113976115710521F0FB019383828383
:1052400004C09093950580939405FD01329644C067
:10525000FD01E20FF31F81939193225031092D93A9
:105260003C933AC02091920530919305232B41F451
:1052700020911002309111023093930520939205F2
:1052800020910E0230910F022115310541F42DB706
:105290003EB74091120250911302241B350BE0914E
:1052A0009205F0919305E217F307A0F42E1B3F0B34
:1052B0002817390778F0AC014E5F5F4F2417350788
:1052C00048F04E0F5F1F50939305409392058193D2
:1052D000919302C0E0E0F0E0CF01DF91CF9108951B
:1052E0000F931F93CF93DF93009709F48CC0FC01B9
:1052F0003297138212820091940510919505011541
:10530000110581F420813181820F931F2091920534
:10531000309193052817390779F5F0939305E093B9
:10532000920571C0D80140E050E0AE17BF0750F4BD
:1053300012962D913C911397AD012115310509F17C
:10534000D901F3CF9D01DA0133832283608171811A
:10535000860F971F8217930769F4EC012881398122
:10536000260F371F2E5F3F4F318320838A819B8119
:1053700093838283452B29F4F0939505E09394055C
:1053800042C01396FC93EE931297ED014991599107
:105390009E01240F351FE217F30771F4808191817C
:1053A000840F951F029611969C938E938281938110
:1053B00013969C938E931297E0E0F0E0D80112963A
:1053C0008D919C911397009719F0F8018C01F6CFFD
:1053D0008D919C9198012E5F3F4F820F931F2091DA
:1053E0009205309193052817390769F4309729F40D
:1053F000109295051092940502C0138212821093A8
:10540000930500939205DF91CF911F910F9108951D
:105410006F927F928F929F92AF92BF92CF92DF92C4
:10542000EF92FF920F931F93CF93DF93EC010097BE
:1054300081F4CB01DF91CF911F910F91FF90EF90FD
:10544000DF90CF90BF90AF909F908F907F906F90A4
:10545000B2CEFC01E60FF71F9C0122503109E21782
:10546000F30708F4A8C0D9010D911C9111970617F4
:105470001707A8F00530110508F49BC0C801049770
:105480008617970708F495C002501109061B170BE1
:10549000019311936D937C93CF0122DF8AC05B014E
:1054A000A01AB10A4C01800E911EA0919405B091F2
:1054B000950540E050E0E12CF12C109709F44AC02A
:1054C000A815B905D1F56D907C901197630182E024
:1054D000C80ED11CCA14DB0480F1A3014A195B0970
:1054E0006A0182E0C80ED11C1296BC9012971396E6
:1054F000AC91B5E0CB16D10440F0B282A3835183C6
:105500004083D9016D937C930AC00E5F1F4FC30186
:10551000800F911FF90191838083EB2DFA2FE11405
:10552000F10431F0D7011396FC93EE93129741C02A
:10553000F0939505E09394053CC08D919C91119753
:105540004817590708F4AC017D0112960D90BC91E3
:10555000A02DB3CF80919205909193058815990560
:10556000E1F446175707C8F480910E0290910F029C
:10557000009741F48DB79EB74091120250911302EB
:10558000841B950BE817F907B0F4F0939305E093AB
:105590009205F901718360830CC0CB010CDE7C01A4
:1055A000009749F0A801BE011CD0CE0199DEC701C9
:1055B00004C0CE0102C080E090E0DF91CF911F9146
:1055C0000F91FF90EF90DF90CF90BF90AF909F90A2
:1055D0008F907F906F90089581E090E0F8940C9404
:1055E0004E33FB01DC0102C001900D92415050404E
:1055F000D8F708956817790768F4FB01DC01E40F18
:10560000F51FA40FB51F02C002900E9241505040EA
:10561000D8F70895E6CFFB01DC018D910190801948
:105620000110D9F3990B0895FB01DC0101900D9253
:105630000020E1F70895FB01DC014150504030F0BB
:105640008D910190801919F40020B9F7881B990BEE
:105650000895FB0151915523A9F0BF01DC014D9143
:1056600045174111E1F759F4CD010190002049F0AF
:105670004D9140154111C9F3FB014111EFCF81E07C
:1056800090E0019708950F931F93CF93DF93CDB7C9
:10569000DEB72E970FB6F894DEBF0FBECDBF0E89D2
:1056A0001F8986E08C831A8309838FEF9FE79E838F
:1056B0008D83AE01465E5F4F688D798DCE01019678
:1056C00011D02F813885F801E20FF31F10822E963A
:1056D0000FB6F894DEBF0FBECDBFDF91CF911F9103
:1056E0000F9108952F923F924F925F926F927F9207
:1056F0008F929F92AF92BF92CF92DF92EF92FF92E2
:105700000F931F93CF93DF93CDB7DEB72C970FB6D0
:10571000F894DEBF0FBECDBF7C016B018A01FC0196
:1057200017821682838181FFB0C1CE0101964C01A0
:10573000F7019381F60193FD859193FF81916F01AC
:10574000882309F49EC1853239F493FD859193FF36
:1057500081916F01853221F4B70190E0C7D1E8CF84
:10576000512C312C20E02032A0F48B3269F030F43F
:10577000803259F0833269F420612CC08D3239F0C7
:10578000803339F4216026C02260246023C0286061
:1057900021C027FD27C030ED380F3A3078F426FFBE
:1057A00006C0FAE05F9E300D1124532E13C08AE02C
:1057B000389E300D1124332E20620CC08E3221F41D
:1057C00026FD5FC1206406C08C3611F4206802C03B
:1057D000883641F4F60193FD859193FF81916F0125
:1057E0008111C1CF982F9F7D9554933028F40C5F81
:1057F0001F4FFFE3F9830DC0833631F0833771F01B
:10580000833509F057C021C0F801808189830E5F7C
:105810001F4F44244394512C540114C03801F2E02A
:105820006F0E711CF801A080B18026FF03C0652DAA
:1058300070E002C06FEF7FEFC5012C874CD12C01C7
:1058400083012C852F77222E16C03801F2E06F0ECF
:10585000711CF801A080B18026FF03C0652D70E0A7
:1058600002C06FEF7FEFC5012C872AD12C012C8558
:105870002068222E830123FC19C0832D90E0481656
:105880005906A0F4B70180E290E030D13A94F5CF08
:10589000F50127FC859127FE81915F01B70190E01A
:1058A00025D131103A94F1E04F1A510841145104B6
:1058B00079F7DEC0843611F0893631F5F80127FF1B
:1058C00007C060817181828193810C5F1F4F08C086
:1058D00060817181072E000C880B990B0E5F1F4FA2
:1058E0002F76722E97FF09C09095809570956195DF
:1058F0007F4F8F4F9F4F2068722E2AE030E0A40127
:105900002DD1A82EA81843C0853729F42F7EB22E9A
:105910002AE030E025C0F22FF97FBF2E8F36C1F08C
:1059200018F4883579F0ADC0803719F0883721F048
:10593000A8C02F2F2061B22EB4FE0DC08B2D846025
:10594000B82E09C024FF0AC09F2F9660B92E06C04A
:1059500028E030E005C020E130E002C020E132E084
:10596000F801B7FE07C060817181828193810C5F6D
:105970001F4F06C06081718180E090E00E5F1F4F75
:10598000A401ECD0A82EA818FB2DFF777F2E76FE61
:105990000BC0372D3E7FA51450F474FE0AC072FC74
:1059A00008C0372D3E7E05C0BA2C372D03C0BA2C57
:1059B00001C0B52C34FF0DC0FE01EA0DF11D808140
:1059C000803311F4397E09C032FF06C0B394B3941A
:1059D00004C0832F867809F0B39433FD12C030FFE2
:1059E00006C05A2CB31418F4530C5B18B32CB31420
:1059F00060F4B70180E290E03C8778D0B3943C85B6
:105A0000F6CFB31410F43B1801C0312C34FF11C091
:105A1000B70180E390E03C8769D03C8532FF16C037
:105A200031FD03C088E790E002C088E590E0B7014F
:105A30000CC0832F867851F031FF02C08BE201C089
:105A400080E237FD8DE2B70190E050D0A51430F42C
:105A5000B70180E390E04AD05A94F8CFAA94F401B9
:105A6000EA0DF11D8081B70190E040D0A110F6CF82
:105A7000332009F45DCEB70180E290E037D03A944C
:105A8000F7CFF7018681978102C08FEF9FEF2C96A9
:105A90000FB6F894DEBF0FBECDBFDF91CF911F913F
:105AA0000F91FF90EF90DF90CF90BF90AF909F90BD
:105AB0008F907F906F905F904F903F902F900895C0
:105AC000FC010590615070400110D8F780959095C9
:105AD0008E0F9F1F0895FC016150704001900110CE
